{
	"Memecoin.sol": {
		"TaurusStable": {
			"abi": [
				{
					"inputs": [],
					"stateMutability": "nonpayable",
					"type": "constructor"
				},
				{
					"inputs": [],
					"name": "ECDSAInvalidSignature",
					"type": "error"
				},
				{
					"inputs": [
						{
							"internalType": "uint256",
							"name": "length",
							"type": "uint256"
						}
					],
					"name": "ECDSAInvalidSignatureLength",
					"type": "error"
				},
				{
					"inputs": [
						{
							"internalType": "bytes32",
							"name": "s",
							"type": "bytes32"
						}
					],
					"name": "ECDSAInvalidSignatureS",
					"type": "error"
				},
				{
					"inputs": [
						{
							"internalType": "address",
							"name": "spender",
							"type": "address"
						},
						{
							"internalType": "uint256",
							"name": "allowance",
							"type": "uint256"
						},
						{
							"internalType": "uint256",
							"name": "needed",
							"type": "uint256"
						}
					],
					"name": "ERC20InsufficientAllowance",
					"type": "error"
				},
				{
					"inputs": [
						{
							"internalType": "address",
							"name": "sender",
							"type": "address"
						},
						{
							"internalType": "uint256",
							"name": "balance",
							"type": "uint256"
						},
						{
							"internalType": "uint256",
							"name": "needed",
							"type": "uint256"
						}
					],
					"name": "ERC20InsufficientBalance",
					"type": "error"
				},
				{
					"inputs": [
						{
							"internalType": "address",
							"name": "approver",
							"type": "address"
						}
					],
					"name": "ERC20InvalidApprover",
					"type": "error"
				},
				{
					"inputs": [
						{
							"internalType": "address",
							"name": "receiver",
							"type": "address"
						}
					],
					"name": "ERC20InvalidReceiver",
					"type": "error"
				},
				{
					"inputs": [
						{
							"internalType": "address",
							"name": "sender",
							"type": "address"
						}
					],
					"name": "ERC20InvalidSender",
					"type": "error"
				},
				{
					"inputs": [
						{
							"internalType": "address",
							"name": "spender",
							"type": "address"
						}
					],
					"name": "ERC20InvalidSpender",
					"type": "error"
				},
				{
					"inputs": [
						{
							"internalType": "uint256",
							"name": "deadline",
							"type": "uint256"
						}
					],
					"name": "ERC2612ExpiredSignature",
					"type": "error"
				},
				{
					"inputs": [
						{
							"internalType": "address",
							"name": "signer",
							"type": "address"
						},
						{
							"internalType": "address",
							"name": "owner",
							"type": "address"
						}
					],
					"name": "ERC2612InvalidSigner",
					"type": "error"
				},
				{
					"inputs": [
						{
							"internalType": "address",
							"name": "account",
							"type": "address"
						},
						{
							"internalType": "uint256",
							"name": "currentNonce",
							"type": "uint256"
						}
					],
					"name": "InvalidAccountNonce",
					"type": "error"
				},
				{
					"inputs": [],
					"name": "InvalidShortString",
					"type": "error"
				},
				{
					"inputs": [
						{
							"internalType": "address",
							"name": "owner",
							"type": "address"
						}
					],
					"name": "OwnableInvalidOwner",
					"type": "error"
				},
				{
					"inputs": [
						{
							"internalType": "address",
							"name": "account",
							"type": "address"
						}
					],
					"name": "OwnableUnauthorizedAccount",
					"type": "error"
				},
				{
					"inputs": [
						{
							"internalType": "string",
							"name": "str",
							"type": "string"
						}
					],
					"name": "StringTooLong",
					"type": "error"
				},
				{
					"anonymous": false,
					"inputs": [
						{
							"indexed": true,
							"internalType": "address",
							"name": "owner",
							"type": "address"
						},
						{
							"indexed": true,
							"internalType": "address",
							"name": "spender",
							"type": "address"
						},
						{
							"indexed": false,
							"internalType": "uint256",
							"name": "value",
							"type": "uint256"
						}
					],
					"name": "Approval",
					"type": "event"
				},
				{
					"anonymous": false,
					"inputs": [],
					"name": "EIP712DomainChanged",
					"type": "event"
				},
				{
					"anonymous": false,
					"inputs": [
						{
							"indexed": true,
							"internalType": "address",
							"name": "previousOwner",
							"type": "address"
						},
						{
							"indexed": true,
							"internalType": "address",
							"name": "newOwner",
							"type": "address"
						}
					],
					"name": "OwnershipTransferred",
					"type": "event"
				},
				{
					"anonymous": false,
					"inputs": [
						{
							"indexed": true,
							"internalType": "address",
							"name": "from",
							"type": "address"
						},
						{
							"indexed": true,
							"internalType": "address",
							"name": "to",
							"type": "address"
						},
						{
							"indexed": false,
							"internalType": "uint256",
							"name": "value",
							"type": "uint256"
						}
					],
					"name": "Transfer",
					"type": "event"
				},
				{
					"inputs": [],
					"name": "DOMAIN_SEPARATOR",
					"outputs": [
						{
							"internalType": "bytes32",
							"name": "",
							"type": "bytes32"
						}
					],
					"stateMutability": "view",
					"type": "function"
				},
				{
					"inputs": [
						{
							"internalType": "address",
							"name": "owner",
							"type": "address"
						},
						{
							"internalType": "address",
							"name": "spender",
							"type": "address"
						}
					],
					"name": "allowance",
					"outputs": [
						{
							"internalType": "uint256",
							"name": "",
							"type": "uint256"
						}
					],
					"stateMutability": "view",
					"type": "function"
				},
				{
					"inputs": [
						{
							"internalType": "address",
							"name": "spender",
							"type": "address"
						},
						{
							"internalType": "uint256",
							"name": "value",
							"type": "uint256"
						}
					],
					"name": "approve",
					"outputs": [
						{
							"internalType": "bool",
							"name": "",
							"type": "bool"
						}
					],
					"stateMutability": "nonpayable",
					"type": "function"
				},
				{
					"inputs": [
						{
							"internalType": "address",
							"name": "account",
							"type": "address"
						}
					],
					"name": "balanceOf",
					"outputs": [
						{
							"internalType": "uint256",
							"name": "",
							"type": "uint256"
						}
					],
					"stateMutability": "view",
					"type": "function"
				},
				{
					"inputs": [
						{
							"internalType": "uint256",
							"name": "value",
							"type": "uint256"
						}
					],
					"name": "burn",
					"outputs": [],
					"stateMutability": "nonpayable",
					"type": "function"
				},
				{
					"inputs": [
						{
							"internalType": "address",
							"name": "account",
							"type": "address"
						},
						{
							"internalType": "uint256",
							"name": "value",
							"type": "uint256"
						}
					],
					"name": "burnFrom",
					"outputs": [],
					"stateMutability": "nonpayable",
					"type": "function"
				},
				{
					"inputs": [],
					"name": "decimals",
					"outputs": [
						{
							"internalType": "uint8",
							"name": "",
							"type": "uint8"
						}
					],
					"stateMutability": "view",
					"type": "function"
				},
				{
					"inputs": [],
					"name": "eip712Domain",
					"outputs": [
						{
							"internalType": "bytes1",
							"name": "fields",
							"type": "bytes1"
						},
						{
							"internalType": "string",
							"name": "name",
							"type": "string"
						},
						{
							"internalType": "string",
							"name": "version",
							"type": "string"
						},
						{
							"internalType": "uint256",
							"name": "chainId",
							"type": "uint256"
						},
						{
							"internalType": "address",
							"name": "verifyingContract",
							"type": "address"
						},
						{
							"internalType": "bytes32",
							"name": "salt",
							"type": "bytes32"
						},
						{
							"internalType": "uint256[]",
							"name": "extensions",
							"type": "uint256[]"
						}
					],
					"stateMutability": "view",
					"type": "function"
				},
				{
					"inputs": [],
					"name": "name",
					"outputs": [
						{
							"internalType": "string",
							"name": "",
							"type": "string"
						}
					],
					"stateMutability": "view",
					"type": "function"
				},
				{
					"inputs": [
						{
							"internalType": "address",
							"name": "owner",
							"type": "address"
						}
					],
					"name": "nonces",
					"outputs": [
						{
							"internalType": "uint256",
							"name": "",
							"type": "uint256"
						}
					],
					"stateMutability": "view",
					"type": "function"
				},
				{
					"inputs": [],
					"name": "owner",
					"outputs": [
						{
							"internalType": "address",
							"name": "",
							"type": "address"
						}
					],
					"stateMutability": "view",
					"type": "function"
				},
				{
					"inputs": [
						{
							"internalType": "address",
							"name": "owner",
							"type": "address"
						},
						{
							"internalType": "address",
							"name": "spender",
							"type": "address"
						},
						{
							"internalType": "uint256",
							"name": "value",
							"type": "uint256"
						},
						{
							"internalType": "uint256",
							"name": "deadline",
							"type": "uint256"
						},
						{
							"internalType": "uint8",
							"name": "v",
							"type": "uint8"
						},
						{
							"internalType": "bytes32",
							"name": "r",
							"type": "bytes32"
						},
						{
							"internalType": "bytes32",
							"name": "s",
							"type": "bytes32"
						}
					],
					"name": "permit",
					"outputs": [],
					"stateMutability": "nonpayable",
					"type": "function"
				},
				{
					"inputs": [],
					"name": "renounceOwnership",
					"outputs": [],
					"stateMutability": "nonpayable",
					"type": "function"
				},
				{
					"inputs": [],
					"name": "symbol",
					"outputs": [
						{
							"internalType": "string",
							"name": "",
							"type": "string"
						}
					],
					"stateMutability": "view",
					"type": "function"
				},
				{
					"inputs": [],
					"name": "totalSupply",
					"outputs": [
						{
							"internalType": "uint256",
							"name": "",
							"type": "uint256"
						}
					],
					"stateMutability": "view",
					"type": "function"
				},
				{
					"inputs": [
						{
							"internalType": "address",
							"name": "to",
							"type": "address"
						},
						{
							"internalType": "uint256",
							"name": "value",
							"type": "uint256"
						}
					],
					"name": "transfer",
					"outputs": [
						{
							"internalType": "bool",
							"name": "",
							"type": "bool"
						}
					],
					"stateMutability": "nonpayable",
					"type": "function"
				},
				{
					"inputs": [
						{
							"internalType": "address",
							"name": "from",
							"type": "address"
						},
						{
							"internalType": "address",
							"name": "to",
							"type": "address"
						},
						{
							"internalType": "uint256",
							"name": "value",
							"type": "uint256"
						}
					],
					"name": "transferFrom",
					"outputs": [
						{
							"internalType": "bool",
							"name": "",
							"type": "bool"
						}
					],
					"stateMutability": "nonpayable",
					"type": "function"
				},
				{
					"inputs": [
						{
							"internalType": "address",
							"name": "newOwner",
							"type": "address"
						}
					],
					"name": "transferOwnership",
					"outputs": [],
					"stateMutability": "nonpayable",
					"type": "function"
				}
			],
			"devdoc": {
				"errors": {
					"ECDSAInvalidSignature()": [
						{
							"details": "The signature derives the `address(0)`."
						}
					],
					"ECDSAInvalidSignatureLength(uint256)": [
						{
							"details": "The signature has an invalid length."
						}
					],
					"ECDSAInvalidSignatureS(bytes32)": [
						{
							"details": "The signature has an S value that is in the upper half order."
						}
					],
					"ERC20InsufficientAllowance(address,uint256,uint256)": [
						{
							"details": "Indicates a failure with the `spender`’s `allowance`. Used in transfers.",
							"params": {
								"allowance": "Amount of tokens a `spender` is allowed to operate with.",
								"needed": "Minimum amount required to perform a transfer.",
								"spender": "Address that may be allowed to operate on tokens without being their owner."
							}
						}
					],
					"ERC20InsufficientBalance(address,uint256,uint256)": [
						{
							"details": "Indicates an error related to the current `balance` of a `sender`. Used in transfers.",
							"params": {
								"balance": "Current balance for the interacting account.",
								"needed": "Minimum amount required to perform a transfer.",
								"sender": "Address whose tokens are being transferred."
							}
						}
					],
					"ERC20InvalidApprover(address)": [
						{
							"details": "Indicates a failure with the `approver` of a token to be approved. Used in approvals.",
							"params": {
								"approver": "Address initiating an approval operation."
							}
						}
					],
					"ERC20InvalidReceiver(address)": [
						{
							"details": "Indicates a failure with the token `receiver`. Used in transfers.",
							"params": {
								"receiver": "Address to which tokens are being transferred."
							}
						}
					],
					"ERC20InvalidSender(address)": [
						{
							"details": "Indicates a failure with the token `sender`. Used in transfers.",
							"params": {
								"sender": "Address whose tokens are being transferred."
							}
						}
					],
					"ERC20InvalidSpender(address)": [
						{
							"details": "Indicates a failure with the `spender` to be approved. Used in approvals.",
							"params": {
								"spender": "Address that may be allowed to operate on tokens without being their owner."
							}
						}
					],
					"ERC2612ExpiredSignature(uint256)": [
						{
							"details": "Permit deadline has expired."
						}
					],
					"ERC2612InvalidSigner(address,address)": [
						{
							"details": "Mismatched signature."
						}
					],
					"InvalidAccountNonce(address,uint256)": [
						{
							"details": "The nonce used for an `account` is not the expected current nonce."
						}
					],
					"OwnableInvalidOwner(address)": [
						{
							"details": "The owner is not a valid owner account. (eg. `address(0)`)"
						}
					],
					"OwnableUnauthorizedAccount(address)": [
						{
							"details": "The caller account is not authorized to perform an operation."
						}
					]
				},
				"events": {
					"Approval(address,address,uint256)": {
						"details": "Emitted when the allowance of a `spender` for an `owner` is set by a call to {approve}. `value` is the new allowance."
					},
					"EIP712DomainChanged()": {
						"details": "MAY be emitted to signal that the domain could have changed."
					},
					"Transfer(address,address,uint256)": {
						"details": "Emitted when `value` tokens are moved from one account (`from`) to another (`to`). Note that `value` may be zero."
					}
				},
				"kind": "dev",
				"methods": {
					"DOMAIN_SEPARATOR()": {
						"details": "Returns the domain separator used in the encoding of the signature for {permit}, as defined by {EIP712}."
					},
					"allowance(address,address)": {
						"details": "See {IERC20-allowance}."
					},
					"approve(address,uint256)": {
						"details": "See {IERC20-approve}. NOTE: If `value` is the maximum `uint256`, the allowance is not updated on `transferFrom`. This is semantically equivalent to an infinite approval. Requirements: - `spender` cannot be the zero address."
					},
					"balanceOf(address)": {
						"details": "See {IERC20-balanceOf}."
					},
					"burn(uint256)": {
						"details": "Destroys a `value` amount of tokens from the caller. See {ERC20-_burn}."
					},
					"burnFrom(address,uint256)": {
						"details": "Destroys a `value` amount of tokens from `account`, deducting from the caller's allowance. See {ERC20-_burn} and {ERC20-allowance}. Requirements: - the caller must have allowance for ``accounts``'s tokens of at least `value`."
					},
					"decimals()": {
						"details": "Returns the number of decimals used to get its user representation. For example, if `decimals` equals `2`, a balance of `505` tokens should be displayed to a user as `5.05` (`505 / 10 ** 2`). Tokens usually opt for a value of 18, imitating the relationship between Ether and Wei. This is the default value returned by this function, unless it's overridden. NOTE: This information is only used for _display_ purposes: it in no way affects any of the arithmetic of the contract, including {IERC20-balanceOf} and {IERC20-transfer}."
					},
					"eip712Domain()": {
						"details": "See {IERC-5267}."
					},
					"name()": {
						"details": "Returns the name of the token."
					},
					"nonces(address)": {
						"details": "Returns the current nonce for `owner`. This value must be included whenever a signature is generated for {permit}. Every successful call to {permit} increases ``owner``'s nonce by one. This prevents a signature from being used multiple times."
					},
					"owner()": {
						"details": "Returns the address of the current owner."
					},
					"permit(address,address,uint256,uint256,uint8,bytes32,bytes32)": {
						"details": "Sets `value` as the allowance of `spender` over ``owner``'s tokens, given ``owner``'s signed approval. IMPORTANT: The same issues {IERC20-approve} has related to transaction ordering also apply here. Emits an {Approval} event. Requirements: - `spender` cannot be the zero address. - `deadline` must be a timestamp in the future. - `v`, `r` and `s` must be a valid `secp256k1` signature from `owner` over the EIP712-formatted function arguments. - the signature must use ``owner``'s current nonce (see {nonces}). For more information on the signature format, see the https://eips.ethereum.org/EIPS/eip-2612#specification[relevant EIP section]. CAUTION: See Security Considerations above."
					},
					"renounceOwnership()": {
						"details": "Leaves the contract without owner. It will not be possible to call `onlyOwner` functions. Can only be called by the current owner. NOTE: Renouncing ownership will leave the contract without an owner, thereby disabling any functionality that is only available to the owner."
					},
					"symbol()": {
						"details": "Returns the symbol of the token, usually a shorter version of the name."
					},
					"totalSupply()": {
						"details": "See {IERC20-totalSupply}."
					},
					"transfer(address,uint256)": {
						"details": "See {IERC20-transfer}. Requirements: - `to` cannot be the zero address. - the caller must have a balance of at least `value`."
					},
					"transferFrom(address,address,uint256)": {
						"details": "See {IERC20-transferFrom}. Emits an {Approval} event indicating the updated allowance. This is not required by the EIP. See the note at the beginning of {ERC20}. NOTE: Does not update the allowance if the current allowance is the maximum `uint256`. Requirements: - `from` and `to` cannot be the zero address. - `from` must have a balance of at least `value`. - the caller must have allowance for ``from``'s tokens of at least `value`."
					},
					"transferOwnership(address)": {
						"details": "Transfers ownership of the contract to a new account (`newOwner`). Can only be called by the current owner."
					}
				},
				"version": 1
			},
			"evm": {
				"assembly": "    /* \"Memecoin.sol\":626:892  contract TaurusStable is ERC20,ERC20Burnable, Ownable, ERC20Permit {... */\n  mstore(0x40, 0x0160)\n    /* \"Memecoin.sol\":700:889  constructor()... */\n  callvalue\n  dup1\n  iszero\n  tag_1\n  jumpi\n  revert(0x00, 0x00)\ntag_1:\n  pop\n    /* \"https://raw.githubusercontent.com/OpenZeppelin/openzeppelin-contracts/v5.0.1/contracts/token/ERC20/extensions/ERC20Permit.sol\":1574:1626  constructor(string memory name) EIP712(name, \"1\") {} */\n  mload(0x40)\n  dup1\n  0x40\n  add\n  0x40\n  mstore\n  dup1\n  0x0c\n  dup2\n  mstore\n  0x20\n  add\n  0x546175727573537461626c650000000000000000000000000000000000000000\n  dup2\n  mstore\n  pop\n    /* \"https://raw.githubusercontent.com/OpenZeppelin/openzeppelin-contracts/v5.0.1/contracts/token/ERC20/extensions/ERC20Permit.sol\":1613:1617  name */\n  dup1\n    /* \"https://raw.githubusercontent.com/OpenZeppelin/openzeppelin-contracts/v5.0.1/contracts/utils/cryptography/EIP712.sol\":3328:3759  constructor(string memory name, string memory version) {... */\n  mload(0x40)\n  dup1\n  0x40\n  add\n  0x40\n  mstore\n  dup1\n  0x01\n  dup2\n  mstore\n  0x20\n  add\n  0x3100000000000000000000000000000000000000000000000000000000000000\n  dup2\n  mstore\n  pop\n    /* \"Memecoin.sol\":770:780  msg.sender */\n  caller\n    /* \"https://raw.githubusercontent.com/OpenZeppelin/openzeppelin-contracts/v5.0.1/contracts/token/ERC20/ERC20.sol\":1896:2009  constructor(string memory name_, string memory symbol_) {... */\n  mload(0x40)\n  dup1\n  0x40\n  add\n  0x40\n  mstore\n  dup1\n  0x0c\n  dup2\n  mstore\n  0x20\n  add\n  0x546175727573537461626c650000000000000000000000000000000000000000\n  dup2\n  mstore\n  pop\n  mload(0x40)\n  dup1\n  0x40\n  add\n  0x40\n  mstore\n  dup1\n  0x04\n  dup2\n  mstore\n  0x20\n  add\n  0x5455535400000000000000000000000000000000000000000000000000000000\n  dup2\n  mstore\n  pop\n    /* \"https://raw.githubusercontent.com/OpenZeppelin/openzeppelin-contracts/v5.0.1/contracts/token/ERC20/ERC20.sol\":1970:1975  name_ */\n  dup2\n    /* \"https://raw.githubusercontent.com/OpenZeppelin/openzeppelin-contracts/v5.0.1/contracts/token/ERC20/ERC20.sol\":1962:1967  _name */\n  0x03\n    /* \"https://raw.githubusercontent.com/OpenZeppelin/openzeppelin-contracts/v5.0.1/contracts/token/ERC20/ERC20.sol\":1962:1975  _name = name_ */\n  swap1\n  dup2\n  tag_8\n  swap2\n  swap1\n  tag_9\n  jump\t// in\ntag_8:\n  pop\n    /* \"https://raw.githubusercontent.com/OpenZeppelin/openzeppelin-contracts/v5.0.1/contracts/token/ERC20/ERC20.sol\":1995:2002  symbol_ */\n  dup1\n    /* \"https://raw.githubusercontent.com/OpenZeppelin/openzeppelin-contracts/v5.0.1/contracts/token/ERC20/ERC20.sol\":1985:1992  _symbol */\n  0x04\n    /* \"https://raw.githubusercontent.com/OpenZeppelin/openzeppelin-contracts/v5.0.1/contracts/token/ERC20/ERC20.sol\":1985:2002  _symbol = symbol_ */\n  swap1\n  dup2\n  tag_10\n  swap2\n  swap1\n  tag_9\n  jump\t// in\ntag_10:\n  pop\n    /* \"https://raw.githubusercontent.com/OpenZeppelin/openzeppelin-contracts/v5.0.1/contracts/token/ERC20/ERC20.sol\":1896:2009  constructor(string memory name_, string memory symbol_) {... */\n  pop\n  pop\n    /* \"https://raw.githubusercontent.com/OpenZeppelin/openzeppelin-contracts/v5.0.1/contracts/access/Ownable.sol\":1297:1298  0 */\n  0x00\n    /* \"https://raw.githubusercontent.com/OpenZeppelin/openzeppelin-contracts/v5.0.1/contracts/access/Ownable.sol\":1273:1299  initialOwner == address(0) */\n  0xffffffffffffffffffffffffffffffffffffffff\n  and\n    /* \"https://raw.githubusercontent.com/OpenZeppelin/openzeppelin-contracts/v5.0.1/contracts/access/Ownable.sol\":1273:1285  initialOwner */\n  dup2\n    /* \"https://raw.githubusercontent.com/OpenZeppelin/openzeppelin-contracts/v5.0.1/contracts/access/Ownable.sol\":1273:1299  initialOwner == address(0) */\n  0xffffffffffffffffffffffffffffffffffffffff\n  and\n  sub\n    /* \"https://raw.githubusercontent.com/OpenZeppelin/openzeppelin-contracts/v5.0.1/contracts/access/Ownable.sol\":1269:1364  if (initialOwner == address(0)) {... */\n  tag_12\n  jumpi\n    /* \"https://raw.githubusercontent.com/OpenZeppelin/openzeppelin-contracts/v5.0.1/contracts/access/Ownable.sol\":1350:1351  0 */\n  0x00\n    /* \"https://raw.githubusercontent.com/OpenZeppelin/openzeppelin-contracts/v5.0.1/contracts/access/Ownable.sol\":1322:1353  OwnableInvalidOwner(address(0)) */\n  mload(0x40)\n  0x1e4fbdf700000000000000000000000000000000000000000000000000000000\n  dup2\n  mstore\n  0x04\n  add\n  tag_13\n  swap2\n  swap1\n  tag_14\n  jump\t// in\ntag_13:\n  mload(0x40)\n  dup1\n  swap2\n  sub\n  swap1\n  revert\n    /* \"https://raw.githubusercontent.com/OpenZeppelin/openzeppelin-contracts/v5.0.1/contracts/access/Ownable.sol\":1269:1364  if (initialOwner == address(0)) {... */\ntag_12:\n    /* \"https://raw.githubusercontent.com/OpenZeppelin/openzeppelin-contracts/v5.0.1/contracts/access/Ownable.sol\":1373:1405  _transferOwnership(initialOwner) */\n  tag_15\n    /* \"https://raw.githubusercontent.com/OpenZeppelin/openzeppelin-contracts/v5.0.1/contracts/access/Ownable.sol\":1392:1404  initialOwner */\n  dup2\n    /* \"https://raw.githubusercontent.com/OpenZeppelin/openzeppelin-contracts/v5.0.1/contracts/access/Ownable.sol\":1373:1391  _transferOwnership */\n  shl(0x20, tag_16)\n    /* \"https://raw.githubusercontent.com/OpenZeppelin/openzeppelin-contracts/v5.0.1/contracts/access/Ownable.sol\":1373:1405  _transferOwnership(initialOwner) */\n  0x20\n  shr\n  jump\t// in\ntag_15:\n    /* \"https://raw.githubusercontent.com/OpenZeppelin/openzeppelin-contracts/v5.0.1/contracts/access/Ownable.sol\":1225:1412  constructor(address initialOwner) {... */\n  pop\n    /* \"https://raw.githubusercontent.com/OpenZeppelin/openzeppelin-contracts/v5.0.1/contracts/utils/cryptography/EIP712.sol\":3401:3446  name.toShortStringWithFallback(_nameFallback) */\n  tag_18\n    /* \"https://raw.githubusercontent.com/OpenZeppelin/openzeppelin-contracts/v5.0.1/contracts/utils/cryptography/EIP712.sol\":3432:3445  _nameFallback */\n  0x06\n    /* \"https://raw.githubusercontent.com/OpenZeppelin/openzeppelin-contracts/v5.0.1/contracts/utils/cryptography/EIP712.sol\":3401:3405  name */\n  dup4\n    /* \"https://raw.githubusercontent.com/OpenZeppelin/openzeppelin-contracts/v5.0.1/contracts/utils/cryptography/EIP712.sol\":3401:3431  name.toShortStringWithFallback */\n  shl(0x20, tag_19)\n  swap1\n    /* \"https://raw.githubusercontent.com/OpenZeppelin/openzeppelin-contracts/v5.0.1/contracts/utils/cryptography/EIP712.sol\":3401:3446  name.toShortStringWithFallback(_nameFallback) */\n  swap2\n  swap1\n  0x20\n  shr\n  jump\t// in\ntag_18:\n    /* \"https://raw.githubusercontent.com/OpenZeppelin/openzeppelin-contracts/v5.0.1/contracts/utils/cryptography/EIP712.sol\":3393:3446  _name = name.toShortStringWithFallback(_nameFallback) */\n  0x0120\n  dup2\n  dup2\n  mstore\n  pop\n  pop\n    /* \"https://raw.githubusercontent.com/OpenZeppelin/openzeppelin-contracts/v5.0.1/contracts/utils/cryptography/EIP712.sol\":3467:3518  version.toShortStringWithFallback(_versionFallback) */\n  tag_20\n    /* \"https://raw.githubusercontent.com/OpenZeppelin/openzeppelin-contracts/v5.0.1/contracts/utils/cryptography/EIP712.sol\":3501:3517  _versionFallback */\n  0x07\n    /* \"https://raw.githubusercontent.com/OpenZeppelin/openzeppelin-contracts/v5.0.1/contracts/utils/cryptography/EIP712.sol\":3467:3474  version */\n  dup3\n    /* \"https://raw.githubusercontent.com/OpenZeppelin/openzeppelin-contracts/v5.0.1/contracts/utils/cryptography/EIP712.sol\":3467:3500  version.toShortStringWithFallback */\n  shl(0x20, tag_19)\n  swap1\n    /* \"https://raw.githubusercontent.com/OpenZeppelin/openzeppelin-contracts/v5.0.1/contracts/utils/cryptography/EIP712.sol\":3467:3518  version.toShortStringWithFallback(_versionFallback) */\n  swap2\n  swap1\n  0x20\n  shr\n  jump\t// in\ntag_20:\n    /* \"https://raw.githubusercontent.com/OpenZeppelin/openzeppelin-contracts/v5.0.1/contracts/utils/cryptography/EIP712.sol\":3456:3518  _version = version.toShortStringWithFallback(_versionFallback) */\n  0x0140\n  dup2\n  dup2\n  mstore\n  pop\n  pop\n    /* \"https://raw.githubusercontent.com/OpenZeppelin/openzeppelin-contracts/v5.0.1/contracts/utils/cryptography/EIP712.sol\":3558:3562  name */\n  dup2\n    /* \"https://raw.githubusercontent.com/OpenZeppelin/openzeppelin-contracts/v5.0.1/contracts/utils/cryptography/EIP712.sol\":3542:3564  keccak256(bytes(name)) */\n  dup1\n  mload\n  swap1\n  0x20\n  add\n  keccak256\n    /* \"https://raw.githubusercontent.com/OpenZeppelin/openzeppelin-contracts/v5.0.1/contracts/utils/cryptography/EIP712.sol\":3528:3564  _hashedName = keccak256(bytes(name)) */\n  0xe0\n  dup2\n  dup2\n  mstore\n  pop\n  pop\n    /* \"https://raw.githubusercontent.com/OpenZeppelin/openzeppelin-contracts/v5.0.1/contracts/utils/cryptography/EIP712.sol\":3607:3614  version */\n  dup1\n    /* \"https://raw.githubusercontent.com/OpenZeppelin/openzeppelin-contracts/v5.0.1/contracts/utils/cryptography/EIP712.sol\":3591:3616  keccak256(bytes(version)) */\n  dup1\n  mload\n  swap1\n  0x20\n  add\n  keccak256\n    /* \"https://raw.githubusercontent.com/OpenZeppelin/openzeppelin-contracts/v5.0.1/contracts/utils/cryptography/EIP712.sol\":3574:3616  _hashedVersion = keccak256(bytes(version)) */\n  0x0100\n  dup2\n  dup2\n  mstore\n  pop\n  pop\n    /* \"https://raw.githubusercontent.com/OpenZeppelin/openzeppelin-contracts/v5.0.1/contracts/utils/cryptography/EIP712.sol\":3644:3657  block.chainid */\n  chainid\n    /* \"https://raw.githubusercontent.com/OpenZeppelin/openzeppelin-contracts/v5.0.1/contracts/utils/cryptography/EIP712.sol\":3627:3657  _cachedChainId = block.chainid */\n  0xa0\n  dup2\n  dup2\n  mstore\n  pop\n  pop\n    /* \"https://raw.githubusercontent.com/OpenZeppelin/openzeppelin-contracts/v5.0.1/contracts/utils/cryptography/EIP712.sol\":3692:3715  _buildDomainSeparator() */\n  tag_21\n    /* \"https://raw.githubusercontent.com/OpenZeppelin/openzeppelin-contracts/v5.0.1/contracts/utils/cryptography/EIP712.sol\":3692:3713  _buildDomainSeparator */\n  shl(0x20, tag_22)\n    /* \"https://raw.githubusercontent.com/OpenZeppelin/openzeppelin-contracts/v5.0.1/contracts/utils/cryptography/EIP712.sol\":3692:3715  _buildDomainSeparator() */\n  0x20\n  shr\n  jump\t// in\ntag_21:\n    /* \"https://raw.githubusercontent.com/OpenZeppelin/openzeppelin-contracts/v5.0.1/contracts/utils/cryptography/EIP712.sol\":3667:3715  _cachedDomainSeparator = _buildDomainSeparator() */\n  0x80\n  dup2\n  dup2\n  mstore\n  pop\n  pop\n    /* \"https://raw.githubusercontent.com/OpenZeppelin/openzeppelin-contracts/v5.0.1/contracts/utils/cryptography/EIP712.sol\":3747:3751  this */\n  address\n    /* \"https://raw.githubusercontent.com/OpenZeppelin/openzeppelin-contracts/v5.0.1/contracts/utils/cryptography/EIP712.sol\":3725:3752  _cachedThis = address(this) */\n  0xffffffffffffffffffffffffffffffffffffffff\n  and\n  0xc0\n  dup2\n  0xffffffffffffffffffffffffffffffffffffffff\n  and\n  dup2\n  mstore\n  pop\n  pop\n    /* \"https://raw.githubusercontent.com/OpenZeppelin/openzeppelin-contracts/v5.0.1/contracts/utils/cryptography/EIP712.sol\":3328:3759  constructor(string memory name, string memory version) {... */\n  pop\n  pop\n    /* \"https://raw.githubusercontent.com/OpenZeppelin/openzeppelin-contracts/v5.0.1/contracts/token/ERC20/extensions/ERC20Permit.sol\":1574:1626  constructor(string memory name) EIP712(name, \"1\") {} */\n  pop\n    /* \"Memecoin.sol\":835:881  _mint(msg.sender, 10000000 * 10 ** decimals()) */\n  tag_25\n    /* \"Memecoin.sol\":841:851  msg.sender */\n  caller\n    /* \"Memecoin.sol\":870:880  decimals() */\n  tag_26\n    /* \"Memecoin.sol\":870:878  decimals */\n  shl(0x20, tag_27)\n    /* \"Memecoin.sol\":870:880  decimals() */\n  0x20\n  shr\n  jump\t// in\ntag_26:\n    /* \"Memecoin.sol\":864:866  10 */\n  0x0a\n    /* \"Memecoin.sol\":864:880  10 ** decimals() */\n  tag_28\n  swap2\n  swap1\n  tag_29\n  jump\t// in\ntag_28:\n    /* \"Memecoin.sol\":853:861  10000000 */\n  0x989680\n    /* \"Memecoin.sol\":853:880  10000000 * 10 ** decimals() */\n  tag_30\n  swap2\n  swap1\n  tag_31\n  jump\t// in\ntag_30:\n    /* \"Memecoin.sol\":835:840  _mint */\n  shl(0x20, tag_32)\n    /* \"Memecoin.sol\":835:881  _mint(msg.sender, 10000000 * 10 ** decimals()) */\n  0x20\n  shr\n  jump\t// in\ntag_25:\n    /* \"Memecoin.sol\":626:892  contract TaurusStable is ERC20,ERC20Burnable, Ownable, ERC20Permit {... */\n  jump(tag_33)\n    /* \"https://raw.githubusercontent.com/OpenZeppelin/openzeppelin-contracts/v5.0.1/contracts/access/Ownable.sol\":2912:3099  function _transferOwnership(address newOwner) internal virtual {... */\ntag_16:\n    /* \"https://raw.githubusercontent.com/OpenZeppelin/openzeppelin-contracts/v5.0.1/contracts/access/Ownable.sol\":2985:3001  address oldOwner */\n  0x00\n    /* \"https://raw.githubusercontent.com/OpenZeppelin/openzeppelin-contracts/v5.0.1/contracts/access/Ownable.sol\":3004:3010  _owner */\n  0x05\n  0x00\n  swap1\n  sload\n  swap1\n  0x0100\n  exp\n  swap1\n  div\n  0xffffffffffffffffffffffffffffffffffffffff\n  and\n    /* \"https://raw.githubusercontent.com/OpenZeppelin/openzeppelin-contracts/v5.0.1/contracts/access/Ownable.sol\":2985:3010  address oldOwner = _owner */\n  swap1\n  pop\n    /* \"https://raw.githubusercontent.com/OpenZeppelin/openzeppelin-contracts/v5.0.1/contracts/access/Ownable.sol\":3029:3037  newOwner */\n  dup2\n    /* \"https://raw.githubusercontent.com/OpenZeppelin/openzeppelin-contracts/v5.0.1/contracts/access/Ownable.sol\":3020:3026  _owner */\n  0x05\n  0x00\n    /* \"https://raw.githubusercontent.com/OpenZeppelin/openzeppelin-contracts/v5.0.1/contracts/access/Ownable.sol\":3020:3037  _owner = newOwner */\n  0x0100\n  exp\n  dup2\n  sload\n  dup2\n  0xffffffffffffffffffffffffffffffffffffffff\n  mul\n  not\n  and\n  swap1\n  dup4\n  0xffffffffffffffffffffffffffffffffffffffff\n  and\n  mul\n  or\n  swap1\n  sstore\n  pop\n    /* \"https://raw.githubusercontent.com/OpenZeppelin/openzeppelin-contracts/v5.0.1/contracts/access/Ownable.sol\":3083:3091  newOwner */\n  dup2\n    /* \"https://raw.githubusercontent.com/OpenZeppelin/openzeppelin-contracts/v5.0.1/contracts/access/Ownable.sol\":3052:3092  OwnershipTransferred(oldOwner, newOwner) */\n  0xffffffffffffffffffffffffffffffffffffffff\n  and\n    /* \"https://raw.githubusercontent.com/OpenZeppelin/openzeppelin-contracts/v5.0.1/contracts/access/Ownable.sol\":3073:3081  oldOwner */\n  dup2\n    /* \"https://raw.githubusercontent.com/OpenZeppelin/openzeppelin-contracts/v5.0.1/contracts/access/Ownable.sol\":3052:3092  OwnershipTransferred(oldOwner, newOwner) */\n  0xffffffffffffffffffffffffffffffffffffffff\n  and\n  0x8be0079c531659141344cd1fd0a4f28419497f9722a3daafe3b4186f6b6457e0\n  mload(0x40)\n  mload(0x40)\n  dup1\n  swap2\n  sub\n  swap1\n  log3\n    /* \"https://raw.githubusercontent.com/OpenZeppelin/openzeppelin-contracts/v5.0.1/contracts/access/Ownable.sol\":2975:3099  {... */\n  pop\n    /* \"https://raw.githubusercontent.com/OpenZeppelin/openzeppelin-contracts/v5.0.1/contracts/access/Ownable.sol\":2912:3099  function _transferOwnership(address newOwner) internal virtual {... */\n  pop\n  jump\t// out\n    /* \"https://raw.githubusercontent.com/OpenZeppelin/openzeppelin-contracts/v5.0.1/contracts/utils/ShortStrings.sol\":2887:3227  function toShortStringWithFallback(string memory value, string storage store) internal returns (ShortString) {... */\ntag_19:\n    /* \"https://raw.githubusercontent.com/OpenZeppelin/openzeppelin-contracts/v5.0.1/contracts/utils/ShortStrings.sol\":2983:2994  ShortString */\n  0x00\n    /* \"https://raw.githubusercontent.com/OpenZeppelin/openzeppelin-contracts/v5.0.1/contracts/utils/ShortStrings.sol\":3032:3034  32 */\n  0x20\n    /* \"https://raw.githubusercontent.com/OpenZeppelin/openzeppelin-contracts/v5.0.1/contracts/utils/ShortStrings.sol\":3016:3021  value */\n  dup4\n    /* \"https://raw.githubusercontent.com/OpenZeppelin/openzeppelin-contracts/v5.0.1/contracts/utils/ShortStrings.sol\":3010:3029  bytes(value).length */\n  mload\n    /* \"https://raw.githubusercontent.com/OpenZeppelin/openzeppelin-contracts/v5.0.1/contracts/utils/ShortStrings.sol\":3010:3034  bytes(value).length < 32 */\n  lt\n    /* \"https://raw.githubusercontent.com/OpenZeppelin/openzeppelin-contracts/v5.0.1/contracts/utils/ShortStrings.sol\":3006:3221  if (bytes(value).length < 32) {... */\n  iszero\n  tag_36\n  jumpi\n    /* \"https://raw.githubusercontent.com/OpenZeppelin/openzeppelin-contracts/v5.0.1/contracts/utils/ShortStrings.sol\":3057:3077  toShortString(value) */\n  tag_37\n    /* \"https://raw.githubusercontent.com/OpenZeppelin/openzeppelin-contracts/v5.0.1/contracts/utils/ShortStrings.sol\":3071:3076  value */\n  dup4\n    /* \"https://raw.githubusercontent.com/OpenZeppelin/openzeppelin-contracts/v5.0.1/contracts/utils/ShortStrings.sol\":3057:3070  toShortString */\n  shl(0x20, tag_38)\n    /* \"https://raw.githubusercontent.com/OpenZeppelin/openzeppelin-contracts/v5.0.1/contracts/utils/ShortStrings.sol\":3057:3077  toShortString(value) */\n  0x20\n  shr\n  jump\t// in\ntag_37:\n    /* \"https://raw.githubusercontent.com/OpenZeppelin/openzeppelin-contracts/v5.0.1/contracts/utils/ShortStrings.sol\":3050:3077  return toShortString(value) */\n  swap1\n  pop\n  jump(tag_35)\n    /* \"https://raw.githubusercontent.com/OpenZeppelin/openzeppelin-contracts/v5.0.1/contracts/utils/ShortStrings.sol\":3006:3221  if (bytes(value).length < 32) {... */\ntag_36:\n    /* \"https://raw.githubusercontent.com/OpenZeppelin/openzeppelin-contracts/v5.0.1/contracts/utils/ShortStrings.sol\":3149:3154  value */\n  dup3\n    /* \"https://raw.githubusercontent.com/OpenZeppelin/openzeppelin-contracts/v5.0.1/contracts/utils/ShortStrings.sol\":3108:3140  StorageSlot.getStringSlot(store) */\n  tag_40\n    /* \"https://raw.githubusercontent.com/OpenZeppelin/openzeppelin-contracts/v5.0.1/contracts/utils/ShortStrings.sol\":3134:3139  store */\n  dup4\n    /* \"https://raw.githubusercontent.com/OpenZeppelin/openzeppelin-contracts/v5.0.1/contracts/utils/ShortStrings.sol\":3108:3133  StorageSlot.getStringSlot */\n  shl(0x20, tag_41)\n    /* \"https://raw.githubusercontent.com/OpenZeppelin/openzeppelin-contracts/v5.0.1/contracts/utils/ShortStrings.sol\":3108:3140  StorageSlot.getStringSlot(store) */\n  0x20\n  shr\n  jump\t// in\ntag_40:\n    /* \"https://raw.githubusercontent.com/OpenZeppelin/openzeppelin-contracts/v5.0.1/contracts/utils/ShortStrings.sol\":3108:3146  StorageSlot.getStringSlot(store).value */\n  0x00\n  add\n    /* \"https://raw.githubusercontent.com/OpenZeppelin/openzeppelin-contracts/v5.0.1/contracts/utils/ShortStrings.sol\":3108:3154  StorageSlot.getStringSlot(store).value = value */\n  swap1\n  dup2\n  tag_42\n  swap2\n  swap1\n  tag_9\n  jump\t// in\ntag_42:\n  pop\n    /* \"https://raw.githubusercontent.com/OpenZeppelin/openzeppelin-contracts/v5.0.1/contracts/utils/ShortStrings.sol\":1390:1456  0x00000000000000000000000000000000000000000000000000000000000000FF */\n  0xff\n    /* \"https://raw.githubusercontent.com/OpenZeppelin/openzeppelin-contracts/v5.0.1/contracts/utils/ShortStrings.sol\":3192:3209  FALLBACK_SENTINEL */\n  0x00\n  shl\n    /* \"https://raw.githubusercontent.com/OpenZeppelin/openzeppelin-contracts/v5.0.1/contracts/utils/ShortStrings.sol\":3168:3210  return ShortString.wrap(FALLBACK_SENTINEL) */\n  swap1\n  pop\n    /* \"https://raw.githubusercontent.com/OpenZeppelin/openzeppelin-contracts/v5.0.1/contracts/utils/ShortStrings.sol\":2887:3227  function toShortStringWithFallback(string memory value, string storage store) internal returns (ShortString) {... */\ntag_35:\n  swap3\n  swap2\n  pop\n  pop\n  jump\t// out\n    /* \"https://raw.githubusercontent.com/OpenZeppelin/openzeppelin-contracts/v5.0.1/contracts/utils/cryptography/EIP712.sol\":4113:4292  function _buildDomainSeparator() private view returns (bytes32) {... */\ntag_22:\n    /* \"https://raw.githubusercontent.com/OpenZeppelin/openzeppelin-contracts/v5.0.1/contracts/utils/cryptography/EIP712.sol\":4168:4175  bytes32 */\n  0x00\n    /* \"https://raw.githubusercontent.com/OpenZeppelin/openzeppelin-contracts/v5.0.1/contracts/utils/cryptography/EIP712.sol\":2079:2174  keccak256(\"EIP712Domain(string name,string version,uint256 chainId,address verifyingContract)\") */\n  0x8b73c3c69bb8fe3d512ecc4cf759cc79239f7b179b0ffacaa9a75d522b39400f\n    /* \"https://raw.githubusercontent.com/OpenZeppelin/openzeppelin-contracts/v5.0.1/contracts/utils/cryptography/EIP712.sol\":4226:4237  _hashedName */\n  mload(0xe0)\n    /* \"https://raw.githubusercontent.com/OpenZeppelin/openzeppelin-contracts/v5.0.1/contracts/utils/cryptography/EIP712.sol\":4239:4253  _hashedVersion */\n  mload(0x0100)\n    /* \"https://raw.githubusercontent.com/OpenZeppelin/openzeppelin-contracts/v5.0.1/contracts/utils/cryptography/EIP712.sol\":4255:4268  block.chainid */\n  chainid\n    /* \"https://raw.githubusercontent.com/OpenZeppelin/openzeppelin-contracts/v5.0.1/contracts/utils/cryptography/EIP712.sol\":4278:4282  this */\n  address\n    /* \"https://raw.githubusercontent.com/OpenZeppelin/openzeppelin-contracts/v5.0.1/contracts/utils/cryptography/EIP712.sol\":4204:4284  abi.encode(TYPE_HASH, _hashedName, _hashedVersion, block.chainid, address(this)) */\n  add(0x20, mload(0x40))\n  tag_44\n  swap6\n  swap5\n  swap4\n  swap3\n  swap2\n  swap1\n  tag_45\n  jump\t// in\ntag_44:\n  mload(0x40)\n  0x20\n  dup2\n  dup4\n  sub\n  sub\n  dup2\n  mstore\n  swap1\n  0x40\n  mstore\n    /* \"https://raw.githubusercontent.com/OpenZeppelin/openzeppelin-contracts/v5.0.1/contracts/utils/cryptography/EIP712.sol\":4194:4285  keccak256(abi.encode(TYPE_HASH, _hashedName, _hashedVersion, block.chainid, address(this))) */\n  dup1\n  mload\n  swap1\n  0x20\n  add\n  keccak256\n    /* \"https://raw.githubusercontent.com/OpenZeppelin/openzeppelin-contracts/v5.0.1/contracts/utils/cryptography/EIP712.sol\":4187:4285  return keccak256(abi.encode(TYPE_HASH, _hashedName, _hashedVersion, block.chainid, address(this))) */\n  swap1\n  pop\n    /* \"https://raw.githubusercontent.com/OpenZeppelin/openzeppelin-contracts/v5.0.1/contracts/utils/cryptography/EIP712.sol\":4113:4292  function _buildDomainSeparator() private view returns (bytes32) {... */\n  swap1\n  jump\t// out\n    /* \"https://raw.githubusercontent.com/OpenZeppelin/openzeppelin-contracts/v5.0.1/contracts/token/ERC20/ERC20.sol\":3002:3084  function decimals() public view virtual returns (uint8) {... */\ntag_27:\n    /* \"https://raw.githubusercontent.com/OpenZeppelin/openzeppelin-contracts/v5.0.1/contracts/token/ERC20/ERC20.sol\":3051:3056  uint8 */\n  0x00\n    /* \"https://raw.githubusercontent.com/OpenZeppelin/openzeppelin-contracts/v5.0.1/contracts/token/ERC20/ERC20.sol\":3075:3077  18 */\n  0x12\n    /* \"https://raw.githubusercontent.com/OpenZeppelin/openzeppelin-contracts/v5.0.1/contracts/token/ERC20/ERC20.sol\":3068:3077  return 18 */\n  swap1\n  pop\n    /* \"https://raw.githubusercontent.com/OpenZeppelin/openzeppelin-contracts/v5.0.1/contracts/token/ERC20/ERC20.sol\":3002:3084  function decimals() public view virtual returns (uint8) {... */\n  swap1\n  jump\t// out\n    /* \"https://raw.githubusercontent.com/OpenZeppelin/openzeppelin-contracts/v5.0.1/contracts/token/ERC20/ERC20.sol\":7721:7929  function _mint(address account, uint256 value) internal {... */\ntag_32:\n    /* \"https://raw.githubusercontent.com/OpenZeppelin/openzeppelin-contracts/v5.0.1/contracts/token/ERC20/ERC20.sol\":7810:7811  0 */\n  0x00\n    /* \"https://raw.githubusercontent.com/OpenZeppelin/openzeppelin-contracts/v5.0.1/contracts/token/ERC20/ERC20.sol\":7791:7812  account == address(0) */\n  0xffffffffffffffffffffffffffffffffffffffff\n  and\n    /* \"https://raw.githubusercontent.com/OpenZeppelin/openzeppelin-contracts/v5.0.1/contracts/token/ERC20/ERC20.sol\":7791:7798  account */\n  dup3\n    /* \"https://raw.githubusercontent.com/OpenZeppelin/openzeppelin-contracts/v5.0.1/contracts/token/ERC20/ERC20.sol\":7791:7812  account == address(0) */\n  0xffffffffffffffffffffffffffffffffffffffff\n  and\n  sub\n    /* \"https://raw.githubusercontent.com/OpenZeppelin/openzeppelin-contracts/v5.0.1/contracts/token/ERC20/ERC20.sol\":7787:7878  if (account == address(0)) {... */\n  tag_48\n  jumpi\n    /* \"https://raw.githubusercontent.com/OpenZeppelin/openzeppelin-contracts/v5.0.1/contracts/token/ERC20/ERC20.sol\":7864:7865  0 */\n  0x00\n    /* \"https://raw.githubusercontent.com/OpenZeppelin/openzeppelin-contracts/v5.0.1/contracts/token/ERC20/ERC20.sol\":7835:7867  ERC20InvalidReceiver(address(0)) */\n  mload(0x40)\n  0xec442f0500000000000000000000000000000000000000000000000000000000\n  dup2\n  mstore\n  0x04\n  add\n  tag_49\n  swap2\n  swap1\n  tag_14\n  jump\t// in\ntag_49:\n  mload(0x40)\n  dup1\n  swap2\n  sub\n  swap1\n  revert\n    /* \"https://raw.githubusercontent.com/OpenZeppelin/openzeppelin-contracts/v5.0.1/contracts/token/ERC20/ERC20.sol\":7787:7878  if (account == address(0)) {... */\ntag_48:\n    /* \"https://raw.githubusercontent.com/OpenZeppelin/openzeppelin-contracts/v5.0.1/contracts/token/ERC20/ERC20.sol\":7887:7922  _update(address(0), account, value) */\n  tag_50\n    /* \"https://raw.githubusercontent.com/OpenZeppelin/openzeppelin-contracts/v5.0.1/contracts/token/ERC20/ERC20.sol\":7903:7904  0 */\n  0x00\n    /* \"https://raw.githubusercontent.com/OpenZeppelin/openzeppelin-contracts/v5.0.1/contracts/token/ERC20/ERC20.sol\":7907:7914  account */\n  dup4\n    /* \"https://raw.githubusercontent.com/OpenZeppelin/openzeppelin-contracts/v5.0.1/contracts/token/ERC20/ERC20.sol\":7916:7921  value */\n  dup4\n    /* \"https://raw.githubusercontent.com/OpenZeppelin/openzeppelin-contracts/v5.0.1/contracts/token/ERC20/ERC20.sol\":7887:7894  _update */\n  shl(0x20, tag_51)\n    /* \"https://raw.githubusercontent.com/OpenZeppelin/openzeppelin-contracts/v5.0.1/contracts/token/ERC20/ERC20.sol\":7887:7922  _update(address(0), account, value) */\n  0x20\n  shr\n  jump\t// in\ntag_50:\n    /* \"https://raw.githubusercontent.com/OpenZeppelin/openzeppelin-contracts/v5.0.1/contracts/token/ERC20/ERC20.sol\":7721:7929  function _mint(address account, uint256 value) internal {... */\n  pop\n  pop\n  jump\t// out\n    /* \"https://raw.githubusercontent.com/OpenZeppelin/openzeppelin-contracts/v5.0.1/contracts/utils/ShortStrings.sol\":1708:1994  function toShortString(string memory str) internal pure returns (ShortString) {... */\ntag_38:\n    /* \"https://raw.githubusercontent.com/OpenZeppelin/openzeppelin-contracts/v5.0.1/contracts/utils/ShortStrings.sol\":1773:1784  ShortString */\n  0x00\n    /* \"https://raw.githubusercontent.com/OpenZeppelin/openzeppelin-contracts/v5.0.1/contracts/utils/ShortStrings.sol\":1796:1813  bytes memory bstr */\n  0x00\n    /* \"https://raw.githubusercontent.com/OpenZeppelin/openzeppelin-contracts/v5.0.1/contracts/utils/ShortStrings.sol\":1822:1825  str */\n  dup3\n    /* \"https://raw.githubusercontent.com/OpenZeppelin/openzeppelin-contracts/v5.0.1/contracts/utils/ShortStrings.sol\":1796:1826  bytes memory bstr = bytes(str) */\n  swap1\n  pop\n    /* \"https://raw.githubusercontent.com/OpenZeppelin/openzeppelin-contracts/v5.0.1/contracts/utils/ShortStrings.sol\":1854:1856  31 */\n  0x1f\n    /* \"https://raw.githubusercontent.com/OpenZeppelin/openzeppelin-contracts/v5.0.1/contracts/utils/ShortStrings.sol\":1840:1844  bstr */\n  dup2\n    /* \"https://raw.githubusercontent.com/OpenZeppelin/openzeppelin-contracts/v5.0.1/contracts/utils/ShortStrings.sol\":1840:1851  bstr.length */\n  mload\n    /* \"https://raw.githubusercontent.com/OpenZeppelin/openzeppelin-contracts/v5.0.1/contracts/utils/ShortStrings.sol\":1840:1856  bstr.length > 31 */\n  gt\n    /* \"https://raw.githubusercontent.com/OpenZeppelin/openzeppelin-contracts/v5.0.1/contracts/utils/ShortStrings.sol\":1836:1908  if (bstr.length > 31) {... */\n  iszero\n  tag_53\n  jumpi\n    /* \"https://raw.githubusercontent.com/OpenZeppelin/openzeppelin-contracts/v5.0.1/contracts/utils/ShortStrings.sol\":1893:1896  str */\n  dup3\n    /* \"https://raw.githubusercontent.com/OpenZeppelin/openzeppelin-contracts/v5.0.1/contracts/utils/ShortStrings.sol\":1879:1897  StringTooLong(str) */\n  mload(0x40)\n  0x305a27a900000000000000000000000000000000000000000000000000000000\n  dup2\n  mstore\n  0x04\n  add\n  tag_54\n  swap2\n  swap1\n  tag_55\n  jump\t// in\ntag_54:\n  mload(0x40)\n  dup1\n  swap2\n  sub\n  swap1\n  revert\n    /* \"https://raw.githubusercontent.com/OpenZeppelin/openzeppelin-contracts/v5.0.1/contracts/utils/ShortStrings.sol\":1836:1908  if (bstr.length > 31) {... */\ntag_53:\n    /* \"https://raw.githubusercontent.com/OpenZeppelin/openzeppelin-contracts/v5.0.1/contracts/utils/ShortStrings.sol\":1974:1978  bstr */\n  dup1\n    /* \"https://raw.githubusercontent.com/OpenZeppelin/openzeppelin-contracts/v5.0.1/contracts/utils/ShortStrings.sol\":1974:1985  bstr.length */\n  mload\n    /* \"https://raw.githubusercontent.com/OpenZeppelin/openzeppelin-contracts/v5.0.1/contracts/utils/ShortStrings.sol\":1965:1969  bstr */\n  dup2\n    /* \"https://raw.githubusercontent.com/OpenZeppelin/openzeppelin-contracts/v5.0.1/contracts/utils/ShortStrings.sol\":1957:1970  bytes32(bstr) */\n  tag_56\n  swap1\n  tag_57\n  jump\t// in\ntag_56:\n    /* \"https://raw.githubusercontent.com/OpenZeppelin/openzeppelin-contracts/v5.0.1/contracts/utils/ShortStrings.sol\":1949:1971  uint256(bytes32(bstr)) */\n  0x00\n  shr\n    /* \"https://raw.githubusercontent.com/OpenZeppelin/openzeppelin-contracts/v5.0.1/contracts/utils/ShortStrings.sol\":1949:1985  uint256(bytes32(bstr)) | bstr.length */\n  or\n    /* \"https://raw.githubusercontent.com/OpenZeppelin/openzeppelin-contracts/v5.0.1/contracts/utils/ShortStrings.sol\":1941:1986  bytes32(uint256(bytes32(bstr)) | bstr.length) */\n  0x00\n  shl\n    /* \"https://raw.githubusercontent.com/OpenZeppelin/openzeppelin-contracts/v5.0.1/contracts/utils/ShortStrings.sol\":1917:1987  return ShortString.wrap(bytes32(uint256(bytes32(bstr)) | bstr.length)) */\n  swap2\n  pop\n  pop\n    /* \"https://raw.githubusercontent.com/OpenZeppelin/openzeppelin-contracts/v5.0.1/contracts/utils/ShortStrings.sol\":1708:1994  function toShortString(string memory str) internal pure returns (ShortString) {... */\n  swap2\n  swap1\n  pop\n  jump\t// out\n    /* \"https://raw.githubusercontent.com/OpenZeppelin/openzeppelin-contracts/v5.0.1/contracts/utils/StorageSlot.sol\":2999:3174  function getStringSlot(string storage store) internal pure returns (StringSlot storage r) {... */\ntag_41:\n    /* \"https://raw.githubusercontent.com/OpenZeppelin/openzeppelin-contracts/v5.0.1/contracts/utils/StorageSlot.sol\":3067:3087  StringSlot storage r */\n  0x00\n    /* \"https://raw.githubusercontent.com/OpenZeppelin/openzeppelin-contracts/v5.0.1/contracts/utils/StorageSlot.sol\":3148:3158  store.slot */\n  dup2\n    /* \"https://raw.githubusercontent.com/OpenZeppelin/openzeppelin-contracts/v5.0.1/contracts/utils/StorageSlot.sol\":3138:3158  r.slot := store.slot */\n  swap1\n  pop\n    /* \"https://raw.githubusercontent.com/OpenZeppelin/openzeppelin-contracts/v5.0.1/contracts/utils/StorageSlot.sol\":2999:3174  function getStringSlot(string storage store) internal pure returns (StringSlot storage r) {... */\n  swap2\n  swap1\n  pop\n  jump\t// out\n    /* \"https://raw.githubusercontent.com/OpenZeppelin/openzeppelin-contracts/v5.0.1/contracts/token/ERC20/ERC20.sol\":6271:7378  function _update(address from, address to, uint256 value) internal virtual {... */\ntag_51:\n    /* \"https://raw.githubusercontent.com/OpenZeppelin/openzeppelin-contracts/v5.0.1/contracts/token/ERC20/ERC20.sol\":6376:6377  0 */\n  0x00\n    /* \"https://raw.githubusercontent.com/OpenZeppelin/openzeppelin-contracts/v5.0.1/contracts/token/ERC20/ERC20.sol\":6360:6378  from == address(0) */\n  0xffffffffffffffffffffffffffffffffffffffff\n  and\n    /* \"https://raw.githubusercontent.com/OpenZeppelin/openzeppelin-contracts/v5.0.1/contracts/token/ERC20/ERC20.sol\":6360:6364  from */\n  dup4\n    /* \"https://raw.githubusercontent.com/OpenZeppelin/openzeppelin-contracts/v5.0.1/contracts/token/ERC20/ERC20.sol\":6360:6378  from == address(0) */\n  0xffffffffffffffffffffffffffffffffffffffff\n  and\n  sub\n    /* \"https://raw.githubusercontent.com/OpenZeppelin/openzeppelin-contracts/v5.0.1/contracts/token/ERC20/ERC20.sol\":6356:6896  if (from == address(0)) {... */\n  tag_60\n  jumpi\n    /* \"https://raw.githubusercontent.com/OpenZeppelin/openzeppelin-contracts/v5.0.1/contracts/token/ERC20/ERC20.sol\":6512:6517  value */\n  dup1\n    /* \"https://raw.githubusercontent.com/OpenZeppelin/openzeppelin-contracts/v5.0.1/contracts/token/ERC20/ERC20.sol\":6496:6508  _totalSupply */\n  0x02\n  0x00\n    /* \"https://raw.githubusercontent.com/OpenZeppelin/openzeppelin-contracts/v5.0.1/contracts/token/ERC20/ERC20.sol\":6496:6517  _totalSupply += value */\n  dup3\n  dup3\n  sload\n  tag_61\n  swap2\n  swap1\n  tag_62\n  jump\t// in\ntag_61:\n  swap3\n  pop\n  pop\n  dup2\n  swap1\n  sstore\n  pop\n    /* \"https://raw.githubusercontent.com/OpenZeppelin/openzeppelin-contracts/v5.0.1/contracts/token/ERC20/ERC20.sol\":6356:6896  if (from == address(0)) {... */\n  jump(tag_63)\ntag_60:\n    /* \"https://raw.githubusercontent.com/OpenZeppelin/openzeppelin-contracts/v5.0.1/contracts/token/ERC20/ERC20.sol\":6548:6567  uint256 fromBalance */\n  0x00\n    /* \"https://raw.githubusercontent.com/OpenZeppelin/openzeppelin-contracts/v5.0.1/contracts/token/ERC20/ERC20.sol\":6570:6579  _balances */\n  0x00\n    /* \"https://raw.githubusercontent.com/OpenZeppelin/openzeppelin-contracts/v5.0.1/contracts/token/ERC20/ERC20.sol\":6570:6585  _balances[from] */\n  0x00\n    /* \"https://raw.githubusercontent.com/OpenZeppelin/openzeppelin-contracts/v5.0.1/contracts/token/ERC20/ERC20.sol\":6580:6584  from */\n  dup6\n    /* \"https://raw.githubusercontent.com/OpenZeppelin/openzeppelin-contracts/v5.0.1/contracts/token/ERC20/ERC20.sol\":6570:6585  _balances[from] */\n  0xffffffffffffffffffffffffffffffffffffffff\n  and\n  0xffffffffffffffffffffffffffffffffffffffff\n  and\n  dup2\n  mstore\n  0x20\n  add\n  swap1\n  dup2\n  mstore\n  0x20\n  add\n  0x00\n  keccak256\n  sload\n    /* \"https://raw.githubusercontent.com/OpenZeppelin/openzeppelin-contracts/v5.0.1/contracts/token/ERC20/ERC20.sol\":6548:6585  uint256 fromBalance = _balances[from] */\n  swap1\n  pop\n    /* \"https://raw.githubusercontent.com/OpenZeppelin/openzeppelin-contracts/v5.0.1/contracts/token/ERC20/ERC20.sol\":6617:6622  value */\n  dup2\n    /* \"https://raw.githubusercontent.com/OpenZeppelin/openzeppelin-contracts/v5.0.1/contracts/token/ERC20/ERC20.sol\":6603:6614  fromBalance */\n  dup2\n    /* \"https://raw.githubusercontent.com/OpenZeppelin/openzeppelin-contracts/v5.0.1/contracts/token/ERC20/ERC20.sol\":6603:6622  fromBalance < value */\n  lt\n    /* \"https://raw.githubusercontent.com/OpenZeppelin/openzeppelin-contracts/v5.0.1/contracts/token/ERC20/ERC20.sol\":6599:6714  if (fromBalance < value) {... */\n  iszero\n  tag_64\n  jumpi\n    /* \"https://raw.githubusercontent.com/OpenZeppelin/openzeppelin-contracts/v5.0.1/contracts/token/ERC20/ERC20.sol\":6674:6678  from */\n  dup4\n    /* \"https://raw.githubusercontent.com/OpenZeppelin/openzeppelin-contracts/v5.0.1/contracts/token/ERC20/ERC20.sol\":6680:6691  fromBalance */\n  dup2\n    /* \"https://raw.githubusercontent.com/OpenZeppelin/openzeppelin-contracts/v5.0.1/contracts/token/ERC20/ERC20.sol\":6693:6698  value */\n  dup4\n    /* \"https://raw.githubusercontent.com/OpenZeppelin/openzeppelin-contracts/v5.0.1/contracts/token/ERC20/ERC20.sol\":6649:6699  ERC20InsufficientBalance(from, fromBalance, value) */\n  mload(0x40)\n  0xe450d38c00000000000000000000000000000000000000000000000000000000\n  dup2\n  mstore\n  0x04\n  add\n  tag_65\n  swap4\n  swap3\n  swap2\n  swap1\n  tag_66\n  jump\t// in\ntag_65:\n  mload(0x40)\n  dup1\n  swap2\n  sub\n  swap1\n  revert\n    /* \"https://raw.githubusercontent.com/OpenZeppelin/openzeppelin-contracts/v5.0.1/contracts/token/ERC20/ERC20.sol\":6599:6714  if (fromBalance < value) {... */\ntag_64:\n    /* \"https://raw.githubusercontent.com/OpenZeppelin/openzeppelin-contracts/v5.0.1/contracts/token/ERC20/ERC20.sol\":6866:6871  value */\n  dup2\n    /* \"https://raw.githubusercontent.com/OpenZeppelin/openzeppelin-contracts/v5.0.1/contracts/token/ERC20/ERC20.sol\":6852:6863  fromBalance */\n  dup2\n    /* \"https://raw.githubusercontent.com/OpenZeppelin/openzeppelin-contracts/v5.0.1/contracts/token/ERC20/ERC20.sol\":6852:6871  fromBalance - value */\n  sub\n    /* \"https://raw.githubusercontent.com/OpenZeppelin/openzeppelin-contracts/v5.0.1/contracts/token/ERC20/ERC20.sol\":6834:6843  _balances */\n  0x00\n    /* \"https://raw.githubusercontent.com/OpenZeppelin/openzeppelin-contracts/v5.0.1/contracts/token/ERC20/ERC20.sol\":6834:6849  _balances[from] */\n  0x00\n    /* \"https://raw.githubusercontent.com/OpenZeppelin/openzeppelin-contracts/v5.0.1/contracts/token/ERC20/ERC20.sol\":6844:6848  from */\n  dup7\n    /* \"https://raw.githubusercontent.com/OpenZeppelin/openzeppelin-contracts/v5.0.1/contracts/token/ERC20/ERC20.sol\":6834:6849  _balances[from] */\n  0xffffffffffffffffffffffffffffffffffffffff\n  and\n  0xffffffffffffffffffffffffffffffffffffffff\n  and\n  dup2\n  mstore\n  0x20\n  add\n  swap1\n  dup2\n  mstore\n  0x20\n  add\n  0x00\n  keccak256\n    /* \"https://raw.githubusercontent.com/OpenZeppelin/openzeppelin-contracts/v5.0.1/contracts/token/ERC20/ERC20.sol\":6834:6871  _balances[from] = fromBalance - value */\n  dup2\n  swap1\n  sstore\n  pop\n    /* \"https://raw.githubusercontent.com/OpenZeppelin/openzeppelin-contracts/v5.0.1/contracts/token/ERC20/ERC20.sol\":6534:6896  {... */\n  pop\n    /* \"https://raw.githubusercontent.com/OpenZeppelin/openzeppelin-contracts/v5.0.1/contracts/token/ERC20/ERC20.sol\":6356:6896  if (from == address(0)) {... */\ntag_63:\n    /* \"https://raw.githubusercontent.com/OpenZeppelin/openzeppelin-contracts/v5.0.1/contracts/token/ERC20/ERC20.sol\":6924:6925  0 */\n  0x00\n    /* \"https://raw.githubusercontent.com/OpenZeppelin/openzeppelin-contracts/v5.0.1/contracts/token/ERC20/ERC20.sol\":6910:6926  to == address(0) */\n  0xffffffffffffffffffffffffffffffffffffffff\n  and\n    /* \"https://raw.githubusercontent.com/OpenZeppelin/openzeppelin-contracts/v5.0.1/contracts/token/ERC20/ERC20.sol\":6910:6912  to */\n  dup3\n    /* \"https://raw.githubusercontent.com/OpenZeppelin/openzeppelin-contracts/v5.0.1/contracts/token/ERC20/ERC20.sol\":6910:6926  to == address(0) */\n  0xffffffffffffffffffffffffffffffffffffffff\n  and\n  sub\n    /* \"https://raw.githubusercontent.com/OpenZeppelin/openzeppelin-contracts/v5.0.1/contracts/token/ERC20/ERC20.sol\":6906:7331  if (to == address(0)) {... */\n  tag_67\n  jumpi\n    /* \"https://raw.githubusercontent.com/OpenZeppelin/openzeppelin-contracts/v5.0.1/contracts/token/ERC20/ERC20.sol\":7089:7094  value */\n  dup1\n    /* \"https://raw.githubusercontent.com/OpenZeppelin/openzeppelin-contracts/v5.0.1/contracts/token/ERC20/ERC20.sol\":7073:7085  _totalSupply */\n  0x02\n  0x00\n    /* \"https://raw.githubusercontent.com/OpenZeppelin/openzeppelin-contracts/v5.0.1/contracts/token/ERC20/ERC20.sol\":7073:7094  _totalSupply -= value */\n  dup3\n  dup3\n  sload\n  sub\n  swap3\n  pop\n  pop\n  dup2\n  swap1\n  sstore\n  pop\n    /* \"https://raw.githubusercontent.com/OpenZeppelin/openzeppelin-contracts/v5.0.1/contracts/token/ERC20/ERC20.sol\":6906:7331  if (to == address(0)) {... */\n  jump(tag_68)\ntag_67:\n    /* \"https://raw.githubusercontent.com/OpenZeppelin/openzeppelin-contracts/v5.0.1/contracts/token/ERC20/ERC20.sol\":7301:7306  value */\n  dup1\n    /* \"https://raw.githubusercontent.com/OpenZeppelin/openzeppelin-contracts/v5.0.1/contracts/token/ERC20/ERC20.sol\":7284:7293  _balances */\n  0x00\n    /* \"https://raw.githubusercontent.com/OpenZeppelin/openzeppelin-contracts/v5.0.1/contracts/token/ERC20/ERC20.sol\":7284:7297  _balances[to] */\n  0x00\n    /* \"https://raw.githubusercontent.com/OpenZeppelin/openzeppelin-contracts/v5.0.1/contracts/token/ERC20/ERC20.sol\":7294:7296  to */\n  dup5\n    /* \"https://raw.githubusercontent.com/OpenZeppelin/openzeppelin-contracts/v5.0.1/contracts/token/ERC20/ERC20.sol\":7284:7297  _balances[to] */\n  0xffffffffffffffffffffffffffffffffffffffff\n  and\n  0xffffffffffffffffffffffffffffffffffffffff\n  and\n  dup2\n  mstore\n  0x20\n  add\n  swap1\n  dup2\n  mstore\n  0x20\n  add\n  0x00\n  keccak256\n  0x00\n    /* \"https://raw.githubusercontent.com/OpenZeppelin/openzeppelin-contracts/v5.0.1/contracts/token/ERC20/ERC20.sol\":7284:7306  _balances[to] += value */\n  dup3\n  dup3\n  sload\n  add\n  swap3\n  pop\n  pop\n  dup2\n  swap1\n  sstore\n  pop\n    /* \"https://raw.githubusercontent.com/OpenZeppelin/openzeppelin-contracts/v5.0.1/contracts/token/ERC20/ERC20.sol\":6906:7331  if (to == address(0)) {... */\ntag_68:\n    /* \"https://raw.githubusercontent.com/OpenZeppelin/openzeppelin-contracts/v5.0.1/contracts/token/ERC20/ERC20.sol\":7361:7363  to */\n  dup2\n    /* \"https://raw.githubusercontent.com/OpenZeppelin/openzeppelin-contracts/v5.0.1/contracts/token/ERC20/ERC20.sol\":7346:7371  Transfer(from, to, value) */\n  0xffffffffffffffffffffffffffffffffffffffff\n  and\n    /* \"https://raw.githubusercontent.com/OpenZeppelin/openzeppelin-contracts/v5.0.1/contracts/token/ERC20/ERC20.sol\":7355:7359  from */\n  dup4\n    /* \"https://raw.githubusercontent.com/OpenZeppelin/openzeppelin-contracts/v5.0.1/contracts/token/ERC20/ERC20.sol\":7346:7371  Transfer(from, to, value) */\n  0xffffffffffffffffffffffffffffffffffffffff\n  and\n  0xddf252ad1be2c89b69c2b068fc378daa952ba7f163c4a11628f55a4df523b3ef\n    /* \"https://raw.githubusercontent.com/OpenZeppelin/openzeppelin-contracts/v5.0.1/contracts/token/ERC20/ERC20.sol\":7365:7370  value */\n  dup4\n    /* \"https://raw.githubusercontent.com/OpenZeppelin/openzeppelin-contracts/v5.0.1/contracts/token/ERC20/ERC20.sol\":7346:7371  Transfer(from, to, value) */\n  mload(0x40)\n  tag_69\n  swap2\n  swap1\n  tag_70\n  jump\t// in\ntag_69:\n  mload(0x40)\n  dup1\n  swap2\n  sub\n  swap1\n  log3\n    /* \"https://raw.githubusercontent.com/OpenZeppelin/openzeppelin-contracts/v5.0.1/contracts/token/ERC20/ERC20.sol\":6271:7378  function _update(address from, address to, uint256 value) internal virtual {... */\n  pop\n  pop\n  pop\n  jump\t// out\n    /* \"#utility.yul\":7:106   */\ntag_71:\n    /* \"#utility.yul\":59:65   */\n  0x00\n    /* \"#utility.yul\":93:98   */\n  dup2\n    /* \"#utility.yul\":87:99   */\n  mload\n    /* \"#utility.yul\":77:99   */\n  swap1\n  pop\n    /* \"#utility.yul\":7:106   */\n  swap2\n  swap1\n  pop\n  jump\t// out\n    /* \"#utility.yul\":112:292   */\ntag_72:\n    /* \"#utility.yul\":160:237   */\n  0x4e487b7100000000000000000000000000000000000000000000000000000000\n    /* \"#utility.yul\":157:158   */\n  0x00\n    /* \"#utility.yul\":150:238   */\n  mstore\n    /* \"#utility.yul\":257:261   */\n  0x41\n    /* \"#utility.yul\":254:255   */\n  0x04\n    /* \"#utility.yul\":247:262   */\n  mstore\n    /* \"#utility.yul\":281:285   */\n  0x24\n    /* \"#utility.yul\":278:279   */\n  0x00\n    /* \"#utility.yul\":271:286   */\n  revert\n    /* \"#utility.yul\":298:478   */\ntag_73:\n    /* \"#utility.yul\":346:423   */\n  0x4e487b7100000000000000000000000000000000000000000000000000000000\n    /* \"#utility.yul\":343:344   */\n  0x00\n    /* \"#utility.yul\":336:424   */\n  mstore\n    /* \"#utility.yul\":443:447   */\n  0x22\n    /* \"#utility.yul\":440:441   */\n  0x04\n    /* \"#utility.yul\":433:448   */\n  mstore\n    /* \"#utility.yul\":467:471   */\n  0x24\n    /* \"#utility.yul\":464:465   */\n  0x00\n    /* \"#utility.yul\":457:472   */\n  revert\n    /* \"#utility.yul\":484:804   */\ntag_74:\n    /* \"#utility.yul\":528:534   */\n  0x00\n    /* \"#utility.yul\":565:566   */\n  0x02\n    /* \"#utility.yul\":559:563   */\n  dup3\n    /* \"#utility.yul\":555:567   */\n  div\n    /* \"#utility.yul\":545:567   */\n  swap1\n  pop\n    /* \"#utility.yul\":612:613   */\n  0x01\n    /* \"#utility.yul\":606:610   */\n  dup3\n    /* \"#utility.yul\":602:614   */\n  and\n    /* \"#utility.yul\":633:651   */\n  dup1\n    /* \"#utility.yul\":623:704   */\n  tag_114\n  jumpi\n    /* \"#utility.yul\":689:693   */\n  0x7f\n    /* \"#utility.yul\":681:687   */\n  dup3\n    /* \"#utility.yul\":677:694   */\n  and\n    /* \"#utility.yul\":667:694   */\n  swap2\n  pop\n    /* \"#utility.yul\":623:704   */\ntag_114:\n    /* \"#utility.yul\":751:753   */\n  0x20\n    /* \"#utility.yul\":743:749   */\n  dup3\n    /* \"#utility.yul\":740:754   */\n  lt\n    /* \"#utility.yul\":720:738   */\n  dup2\n    /* \"#utility.yul\":717:755   */\n  sub\n    /* \"#utility.yul\":714:798   */\n  tag_115\n  jumpi\n    /* \"#utility.yul\":770:788   */\n  tag_116\n  tag_73\n  jump\t// in\ntag_116:\n    /* \"#utility.yul\":714:798   */\ntag_115:\n    /* \"#utility.yul\":535:804   */\n  pop\n    /* \"#utility.yul\":484:804   */\n  swap2\n  swap1\n  pop\n  jump\t// out\n    /* \"#utility.yul\":810:951   */\ntag_75:\n    /* \"#utility.yul\":859:863   */\n  0x00\n    /* \"#utility.yul\":882:885   */\n  dup2\n    /* \"#utility.yul\":874:885   */\n  swap1\n  pop\n    /* \"#utility.yul\":905:908   */\n  dup2\n    /* \"#utility.yul\":902:903   */\n  0x00\n    /* \"#utility.yul\":895:909   */\n  mstore\n    /* \"#utility.yul\":939:943   */\n  0x20\n    /* \"#utility.yul\":936:937   */\n  0x00\n    /* \"#utility.yul\":926:944   */\n  keccak256\n    /* \"#utility.yul\":918:944   */\n  swap1\n  pop\n    /* \"#utility.yul\":810:951   */\n  swap2\n  swap1\n  pop\n  jump\t// out\n    /* \"#utility.yul\":957:1050   */\ntag_76:\n    /* \"#utility.yul\":994:1000   */\n  0x00\n    /* \"#utility.yul\":1041:1043   */\n  0x20\n    /* \"#utility.yul\":1036:1038   */\n  0x1f\n    /* \"#utility.yul\":1029:1034   */\n  dup4\n    /* \"#utility.yul\":1025:1039   */\n  add\n    /* \"#utility.yul\":1021:1044   */\n  div\n    /* \"#utility.yul\":1011:1044   */\n  swap1\n  pop\n    /* \"#utility.yul\":957:1050   */\n  swap2\n  swap1\n  pop\n  jump\t// out\n    /* \"#utility.yul\":1056:1163   */\ntag_77:\n    /* \"#utility.yul\":1100:1108   */\n  0x00\n    /* \"#utility.yul\":1150:1155   */\n  dup3\n    /* \"#utility.yul\":1144:1148   */\n  dup3\n    /* \"#utility.yul\":1140:1156   */\n  shl\n    /* \"#utility.yul\":1119:1156   */\n  swap1\n  pop\n    /* \"#utility.yul\":1056:1163   */\n  swap3\n  swap2\n  pop\n  pop\n  jump\t// out\n    /* \"#utility.yul\":1169:1562   */\ntag_78:\n    /* \"#utility.yul\":1238:1244   */\n  0x00\n    /* \"#utility.yul\":1288:1289   */\n  0x08\n    /* \"#utility.yul\":1276:1286   */\n  dup4\n    /* \"#utility.yul\":1272:1290   */\n  mul\n    /* \"#utility.yul\":1311:1408   */\n  tag_121\n    /* \"#utility.yul\":1341:1407   */\n  0xffffffffffffffffffffffffffffffffffffffffffffffffffffffffffffffff\n    /* \"#utility.yul\":1330:1339   */\n  dup3\n    /* \"#utility.yul\":1311:1408   */\n  tag_77\n  jump\t// in\ntag_121:\n    /* \"#utility.yul\":1429:1468   */\n  tag_122\n    /* \"#utility.yul\":1459:1467   */\n  dup7\n    /* \"#utility.yul\":1448:1457   */\n  dup4\n    /* \"#utility.yul\":1429:1468   */\n  tag_77\n  jump\t// in\ntag_122:\n    /* \"#utility.yul\":1417:1468   */\n  swap6\n  pop\n    /* \"#utility.yul\":1501:1505   */\n  dup1\n    /* \"#utility.yul\":1497:1506   */\n  not\n    /* \"#utility.yul\":1490:1495   */\n  dup5\n    /* \"#utility.yul\":1486:1507   */\n  and\n    /* \"#utility.yul\":1477:1507   */\n  swap4\n  pop\n    /* \"#utility.yul\":1550:1554   */\n  dup1\n    /* \"#utility.yul\":1540:1548   */\n  dup7\n    /* \"#utility.yul\":1536:1555   */\n  and\n    /* \"#utility.yul\":1529:1534   */\n  dup5\n    /* \"#utility.yul\":1526:1556   */\n  or\n    /* \"#utility.yul\":1516:1556   */\n  swap3\n  pop\n    /* \"#utility.yul\":1245:1562   */\n  pop\n  pop\n    /* \"#utility.yul\":1169:1562   */\n  swap4\n  swap3\n  pop\n  pop\n  pop\n  jump\t// out\n    /* \"#utility.yul\":1568:1645   */\ntag_79:\n    /* \"#utility.yul\":1605:1612   */\n  0x00\n    /* \"#utility.yul\":1634:1639   */\n  dup2\n    /* \"#utility.yul\":1623:1639   */\n  swap1\n  pop\n    /* \"#utility.yul\":1568:1645   */\n  swap2\n  swap1\n  pop\n  jump\t// out\n    /* \"#utility.yul\":1651:1711   */\ntag_80:\n    /* \"#utility.yul\":1679:1682   */\n  0x00\n    /* \"#utility.yul\":1700:1705   */\n  dup2\n    /* \"#utility.yul\":1693:1705   */\n  swap1\n  pop\n    /* \"#utility.yul\":1651:1711   */\n  swap2\n  swap1\n  pop\n  jump\t// out\n    /* \"#utility.yul\":1717:1859   */\ntag_81:\n    /* \"#utility.yul\":1767:1776   */\n  0x00\n    /* \"#utility.yul\":1800:1853   */\n  tag_126\n    /* \"#utility.yul\":1818:1852   */\n  tag_127\n    /* \"#utility.yul\":1827:1851   */\n  tag_128\n    /* \"#utility.yul\":1845:1850   */\n  dup5\n    /* \"#utility.yul\":1827:1851   */\n  tag_79\n  jump\t// in\ntag_128:\n    /* \"#utility.yul\":1818:1852   */\n  tag_80\n  jump\t// in\ntag_127:\n    /* \"#utility.yul\":1800:1853   */\n  tag_79\n  jump\t// in\ntag_126:\n    /* \"#utility.yul\":1787:1853   */\n  swap1\n  pop\n    /* \"#utility.yul\":1717:1859   */\n  swap2\n  swap1\n  pop\n  jump\t// out\n    /* \"#utility.yul\":1865:1940   */\ntag_82:\n    /* \"#utility.yul\":1908:1911   */\n  0x00\n    /* \"#utility.yul\":1929:1934   */\n  dup2\n    /* \"#utility.yul\":1922:1934   */\n  swap1\n  pop\n    /* \"#utility.yul\":1865:1940   */\n  swap2\n  swap1\n  pop\n  jump\t// out\n    /* \"#utility.yul\":1946:2215   */\ntag_83:\n    /* \"#utility.yul\":2056:2095   */\n  tag_131\n    /* \"#utility.yul\":2087:2094   */\n  dup4\n    /* \"#utility.yul\":2056:2095   */\n  tag_81\n  jump\t// in\ntag_131:\n    /* \"#utility.yul\":2117:2208   */\n  tag_132\n    /* \"#utility.yul\":2166:2207   */\n  tag_133\n    /* \"#utility.yul\":2190:2206   */\n  dup3\n    /* \"#utility.yul\":2166:2207   */\n  tag_82\n  jump\t// in\ntag_133:\n    /* \"#utility.yul\":2158:2164   */\n  dup5\n    /* \"#utility.yul\":2151:2155   */\n  dup5\n    /* \"#utility.yul\":2145:2156   */\n  sload\n    /* \"#utility.yul\":2117:2208   */\n  tag_78\n  jump\t// in\ntag_132:\n    /* \"#utility.yul\":2111:2115   */\n  dup3\n    /* \"#utility.yul\":2104:2209   */\n  sstore\n    /* \"#utility.yul\":2022:2215   */\n  pop\n    /* \"#utility.yul\":1946:2215   */\n  pop\n  pop\n  pop\n  jump\t// out\n    /* \"#utility.yul\":2221:2294   */\ntag_84:\n    /* \"#utility.yul\":2266:2269   */\n  0x00\n    /* \"#utility.yul\":2287:2288   */\n  0x00\n    /* \"#utility.yul\":2280:2288   */\n  swap1\n  pop\n    /* \"#utility.yul\":2221:2294   */\n  swap1\n  jump\t// out\n    /* \"#utility.yul\":2300:2489   */\ntag_85:\n    /* \"#utility.yul\":2377:2409   */\n  tag_136\n  tag_84\n  jump\t// in\ntag_136:\n    /* \"#utility.yul\":2418:2483   */\n  tag_137\n    /* \"#utility.yul\":2476:2482   */\n  dup2\n    /* \"#utility.yul\":2468:2474   */\n  dup5\n    /* \"#utility.yul\":2462:2466   */\n  dup5\n    /* \"#utility.yul\":2418:2483   */\n  tag_83\n  jump\t// in\ntag_137:\n    /* \"#utility.yul\":2353:2489   */\n  pop\n    /* \"#utility.yul\":2300:2489   */\n  pop\n  pop\n  jump\t// out\n    /* \"#utility.yul\":2495:2681   */\ntag_86:\n    /* \"#utility.yul\":2555:2675   */\ntag_139:\n    /* \"#utility.yul\":2572:2575   */\n  dup2\n    /* \"#utility.yul\":2565:2570   */\n  dup2\n    /* \"#utility.yul\":2562:2576   */\n  lt\n    /* \"#utility.yul\":2555:2675   */\n  iszero\n  tag_141\n  jumpi\n    /* \"#utility.yul\":2626:2665   */\n  tag_142\n    /* \"#utility.yul\":2663:2664   */\n  0x00\n    /* \"#utility.yul\":2656:2661   */\n  dup3\n    /* \"#utility.yul\":2626:2665   */\n  tag_85\n  jump\t// in\ntag_142:\n    /* \"#utility.yul\":2599:2600   */\n  0x01\n    /* \"#utility.yul\":2592:2597   */\n  dup2\n    /* \"#utility.yul\":2588:2601   */\n  add\n    /* \"#utility.yul\":2579:2601   */\n  swap1\n  pop\n    /* \"#utility.yul\":2555:2675   */\n  jump(tag_139)\ntag_141:\n    /* \"#utility.yul\":2495:2681   */\n  pop\n  pop\n  jump\t// out\n    /* \"#utility.yul\":2687:3230   */\ntag_87:\n    /* \"#utility.yul\":2788:2790   */\n  0x1f\n    /* \"#utility.yul\":2783:2786   */\n  dup3\n    /* \"#utility.yul\":2780:2791   */\n  gt\n    /* \"#utility.yul\":2777:3223   */\n  iszero\n  tag_144\n  jumpi\n    /* \"#utility.yul\":2822:2860   */\n  tag_145\n    /* \"#utility.yul\":2854:2859   */\n  dup2\n    /* \"#utility.yul\":2822:2860   */\n  tag_75\n  jump\t// in\ntag_145:\n    /* \"#utility.yul\":2906:2935   */\n  tag_146\n    /* \"#utility.yul\":2924:2934   */\n  dup5\n    /* \"#utility.yul\":2906:2935   */\n  tag_76\n  jump\t// in\ntag_146:\n    /* \"#utility.yul\":2896:2904   */\n  dup2\n    /* \"#utility.yul\":2892:2936   */\n  add\n    /* \"#utility.yul\":3089:3091   */\n  0x20\n    /* \"#utility.yul\":3077:3087   */\n  dup6\n    /* \"#utility.yul\":3074:3092   */\n  lt\n    /* \"#utility.yul\":3071:3120   */\n  iszero\n  tag_147\n  jumpi\n    /* \"#utility.yul\":3110:3118   */\n  dup2\n    /* \"#utility.yul\":3095:3118   */\n  swap1\n  pop\n    /* \"#utility.yul\":3071:3120   */\ntag_147:\n    /* \"#utility.yul\":3133:3213   */\n  tag_148\n    /* \"#utility.yul\":3189:3211   */\n  tag_149\n    /* \"#utility.yul\":3207:3210   */\n  dup6\n    /* \"#utility.yul\":3189:3211   */\n  tag_76\n  jump\t// in\ntag_149:\n    /* \"#utility.yul\":3179:3187   */\n  dup4\n    /* \"#utility.yul\":3175:3212   */\n  add\n    /* \"#utility.yul\":3162:3173   */\n  dup3\n    /* \"#utility.yul\":3133:3213   */\n  tag_86\n  jump\t// in\ntag_148:\n    /* \"#utility.yul\":2792:3223   */\n  pop\n  pop\n    /* \"#utility.yul\":2777:3223   */\ntag_144:\n    /* \"#utility.yul\":2687:3230   */\n  pop\n  pop\n  pop\n  jump\t// out\n    /* \"#utility.yul\":3236:3353   */\ntag_88:\n    /* \"#utility.yul\":3290:3298   */\n  0x00\n    /* \"#utility.yul\":3340:3345   */\n  dup3\n    /* \"#utility.yul\":3334:3338   */\n  dup3\n    /* \"#utility.yul\":3330:3346   */\n  shr\n    /* \"#utility.yul\":3309:3346   */\n  swap1\n  pop\n    /* \"#utility.yul\":3236:3353   */\n  swap3\n  swap2\n  pop\n  pop\n  jump\t// out\n    /* \"#utility.yul\":3359:3528   */\ntag_89:\n    /* \"#utility.yul\":3403:3409   */\n  0x00\n    /* \"#utility.yul\":3436:3487   */\n  tag_152\n    /* \"#utility.yul\":3484:3485   */\n  0x00\n    /* \"#utility.yul\":3480:3486   */\n  not\n    /* \"#utility.yul\":3472:3477   */\n  dup5\n    /* \"#utility.yul\":3469:3470   */\n  0x08\n    /* \"#utility.yul\":3465:3478   */\n  mul\n    /* \"#utility.yul\":3436:3487   */\n  tag_88\n  jump\t// in\ntag_152:\n    /* \"#utility.yul\":3432:3488   */\n  not\n    /* \"#utility.yul\":3517:3521   */\n  dup1\n    /* \"#utility.yul\":3511:3515   */\n  dup4\n    /* \"#utility.yul\":3507:3522   */\n  and\n    /* \"#utility.yul\":3497:3522   */\n  swap2\n  pop\n    /* \"#utility.yul\":3410:3528   */\n  pop\n    /* \"#utility.yul\":3359:3528   */\n  swap3\n  swap2\n  pop\n  pop\n  jump\t// out\n    /* \"#utility.yul\":3533:3828   */\ntag_90:\n    /* \"#utility.yul\":3609:3613   */\n  0x00\n    /* \"#utility.yul\":3755:3784   */\n  tag_154\n    /* \"#utility.yul\":3780:3783   */\n  dup4\n    /* \"#utility.yul\":3774:3778   */\n  dup4\n    /* \"#utility.yul\":3755:3784   */\n  tag_89\n  jump\t// in\ntag_154:\n    /* \"#utility.yul\":3747:3784   */\n  swap2\n  pop\n    /* \"#utility.yul\":3817:3820   */\n  dup3\n    /* \"#utility.yul\":3814:3815   */\n  0x02\n    /* \"#utility.yul\":3810:3821   */\n  mul\n    /* \"#utility.yul\":3804:3808   */\n  dup3\n    /* \"#utility.yul\":3801:3822   */\n  or\n    /* \"#utility.yul\":3793:3822   */\n  swap1\n  pop\n    /* \"#utility.yul\":3533:3828   */\n  swap3\n  swap2\n  pop\n  pop\n  jump\t// out\n    /* \"#utility.yul\":3833:5228   */\ntag_9:\n    /* \"#utility.yul\":3950:3987   */\n  tag_156\n    /* \"#utility.yul\":3983:3986   */\n  dup3\n    /* \"#utility.yul\":3950:3987   */\n  tag_71\n  jump\t// in\ntag_156:\n    /* \"#utility.yul\":4052:4070   */\n  0xffffffffffffffff\n    /* \"#utility.yul\":4044:4050   */\n  dup2\n    /* \"#utility.yul\":4041:4071   */\n  gt\n    /* \"#utility.yul\":4038:4094   */\n  iszero\n  tag_157\n  jumpi\n    /* \"#utility.yul\":4074:4092   */\n  tag_158\n  tag_72\n  jump\t// in\ntag_158:\n    /* \"#utility.yul\":4038:4094   */\ntag_157:\n    /* \"#utility.yul\":4118:4156   */\n  tag_159\n    /* \"#utility.yul\":4150:4154   */\n  dup3\n    /* \"#utility.yul\":4144:4155   */\n  sload\n    /* \"#utility.yul\":4118:4156   */\n  tag_74\n  jump\t// in\ntag_159:\n    /* \"#utility.yul\":4203:4270   */\n  tag_160\n    /* \"#utility.yul\":4263:4269   */\n  dup3\n    /* \"#utility.yul\":4255:4261   */\n  dup3\n    /* \"#utility.yul\":4249:4253   */\n  dup6\n    /* \"#utility.yul\":4203:4270   */\n  tag_87\n  jump\t// in\ntag_160:\n    /* \"#utility.yul\":4297:4298   */\n  0x00\n    /* \"#utility.yul\":4321:4325   */\n  0x20\n    /* \"#utility.yul\":4308:4325   */\n  swap1\n  pop\n    /* \"#utility.yul\":4353:4355   */\n  0x1f\n    /* \"#utility.yul\":4345:4351   */\n  dup4\n    /* \"#utility.yul\":4342:4356   */\n  gt\n    /* \"#utility.yul\":4370:4371   */\n  0x01\n    /* \"#utility.yul\":4365:4983   */\n  dup2\n  eq\n  tag_162\n  jumpi\n    /* \"#utility.yul\":5027:5028   */\n  0x00\n    /* \"#utility.yul\":5044:5050   */\n  dup5\n    /* \"#utility.yul\":5041:5118   */\n  iszero\n  tag_163\n  jumpi\n    /* \"#utility.yul\":5093:5102   */\n  dup3\n    /* \"#utility.yul\":5088:5091   */\n  dup8\n    /* \"#utility.yul\":5084:5103   */\n  add\n    /* \"#utility.yul\":5078:5104   */\n  mload\n    /* \"#utility.yul\":5069:5104   */\n  swap1\n  pop\n    /* \"#utility.yul\":5041:5118   */\ntag_163:\n    /* \"#utility.yul\":5144:5211   */\n  tag_164\n    /* \"#utility.yul\":5204:5210   */\n  dup6\n    /* \"#utility.yul\":5197:5202   */\n  dup3\n    /* \"#utility.yul\":5144:5211   */\n  tag_90\n  jump\t// in\ntag_164:\n    /* \"#utility.yul\":5138:5142   */\n  dup7\n    /* \"#utility.yul\":5131:5212   */\n  sstore\n    /* \"#utility.yul\":5000:5222   */\n  pop\n    /* \"#utility.yul\":4335:5222   */\n  jump(tag_161)\n    /* \"#utility.yul\":4365:4983   */\ntag_162:\n    /* \"#utility.yul\":4417:4421   */\n  0x1f\n    /* \"#utility.yul\":4413:4422   */\n  not\n    /* \"#utility.yul\":4405:4411   */\n  dup5\n    /* \"#utility.yul\":4401:4423   */\n  and\n    /* \"#utility.yul\":4451:4488   */\n  tag_165\n    /* \"#utility.yul\":4483:4487   */\n  dup7\n    /* \"#utility.yul\":4451:4488   */\n  tag_75\n  jump\t// in\ntag_165:\n    /* \"#utility.yul\":4510:4511   */\n  0x00\n    /* \"#utility.yul\":4524:4732   */\ntag_166:\n    /* \"#utility.yul\":4538:4545   */\n  dup3\n    /* \"#utility.yul\":4535:4536   */\n  dup2\n    /* \"#utility.yul\":4532:4546   */\n  lt\n    /* \"#utility.yul\":4524:4732   */\n  iszero\n  tag_168\n  jumpi\n    /* \"#utility.yul\":4617:4626   */\n  dup5\n    /* \"#utility.yul\":4612:4615   */\n  dup10\n    /* \"#utility.yul\":4608:4627   */\n  add\n    /* \"#utility.yul\":4602:4628   */\n  mload\n    /* \"#utility.yul\":4594:4600   */\n  dup3\n    /* \"#utility.yul\":4587:4629   */\n  sstore\n    /* \"#utility.yul\":4668:4669   */\n  0x01\n    /* \"#utility.yul\":4660:4666   */\n  dup3\n    /* \"#utility.yul\":4656:4670   */\n  add\n    /* \"#utility.yul\":4646:4670   */\n  swap2\n  pop\n    /* \"#utility.yul\":4715:4717   */\n  0x20\n    /* \"#utility.yul\":4704:4713   */\n  dup6\n    /* \"#utility.yul\":4700:4718   */\n  add\n    /* \"#utility.yul\":4687:4718   */\n  swap5\n  pop\n    /* \"#utility.yul\":4561:4565   */\n  0x20\n    /* \"#utility.yul\":4558:4559   */\n  dup2\n    /* \"#utility.yul\":4554:4566   */\n  add\n    /* \"#utility.yul\":4549:4566   */\n  swap1\n  pop\n    /* \"#utility.yul\":4524:4732   */\n  jump(tag_166)\ntag_168:\n    /* \"#utility.yul\":4760:4766   */\n  dup7\n    /* \"#utility.yul\":4751:4758   */\n  dup4\n    /* \"#utility.yul\":4748:4767   */\n  lt\n    /* \"#utility.yul\":4745:4924   */\n  iszero\n  tag_169\n  jumpi\n    /* \"#utility.yul\":4818:4827   */\n  dup5\n    /* \"#utility.yul\":4813:4816   */\n  dup10\n    /* \"#utility.yul\":4809:4828   */\n  add\n    /* \"#utility.yul\":4803:4829   */\n  mload\n    /* \"#utility.yul\":4861:4909   */\n  tag_170\n    /* \"#utility.yul\":4903:4907   */\n  0x1f\n    /* \"#utility.yul\":4895:4901   */\n  dup10\n    /* \"#utility.yul\":4891:4908   */\n  and\n    /* \"#utility.yul\":4880:4889   */\n  dup3\n    /* \"#utility.yul\":4861:4909   */\n  tag_89\n  jump\t// in\ntag_170:\n    /* \"#utility.yul\":4853:4859   */\n  dup4\n    /* \"#utility.yul\":4846:4910   */\n  sstore\n    /* \"#utility.yul\":4768:4924   */\n  pop\n    /* \"#utility.yul\":4745:4924   */\ntag_169:\n    /* \"#utility.yul\":4970:4971   */\n  0x01\n    /* \"#utility.yul\":4966:4967   */\n  0x02\n    /* \"#utility.yul\":4958:4964   */\n  dup9\n    /* \"#utility.yul\":4954:4968   */\n  mul\n    /* \"#utility.yul\":4950:4972   */\n  add\n    /* \"#utility.yul\":4944:4948   */\n  dup9\n    /* \"#utility.yul\":4937:4973   */\n  sstore\n    /* \"#utility.yul\":4372:4983   */\n  pop\n  pop\n  pop\n    /* \"#utility.yul\":4335:5222   */\ntag_161:\n  pop\n    /* \"#utility.yul\":3925:5228   */\n  pop\n  pop\n  pop\n    /* \"#utility.yul\":3833:5228   */\n  pop\n  pop\n  jump\t// out\n    /* \"#utility.yul\":5234:5360   */\ntag_91:\n    /* \"#utility.yul\":5271:5278   */\n  0x00\n    /* \"#utility.yul\":5311:5353   */\n  0xffffffffffffffffffffffffffffffffffffffff\n    /* \"#utility.yul\":5304:5309   */\n  dup3\n    /* \"#utility.yul\":5300:5354   */\n  and\n    /* \"#utility.yul\":5289:5354   */\n  swap1\n  pop\n    /* \"#utility.yul\":5234:5360   */\n  swap2\n  swap1\n  pop\n  jump\t// out\n    /* \"#utility.yul\":5366:5462   */\ntag_92:\n    /* \"#utility.yul\":5403:5410   */\n  0x00\n    /* \"#utility.yul\":5432:5456   */\n  tag_173\n    /* \"#utility.yul\":5450:5455   */\n  dup3\n    /* \"#utility.yul\":5432:5456   */\n  tag_91\n  jump\t// in\ntag_173:\n    /* \"#utility.yul\":5421:5456   */\n  swap1\n  pop\n    /* \"#utility.yul\":5366:5462   */\n  swap2\n  swap1\n  pop\n  jump\t// out\n    /* \"#utility.yul\":5468:5586   */\ntag_93:\n    /* \"#utility.yul\":5555:5579   */\n  tag_175\n    /* \"#utility.yul\":5573:5578   */\n  dup2\n    /* \"#utility.yul\":5555:5579   */\n  tag_92\n  jump\t// in\ntag_175:\n    /* \"#utility.yul\":5550:5553   */\n  dup3\n    /* \"#utility.yul\":5543:5580   */\n  mstore\n    /* \"#utility.yul\":5468:5586   */\n  pop\n  pop\n  jump\t// out\n    /* \"#utility.yul\":5592:5814   */\ntag_14:\n    /* \"#utility.yul\":5685:5689   */\n  0x00\n    /* \"#utility.yul\":5723:5725   */\n  0x20\n    /* \"#utility.yul\":5712:5721   */\n  dup3\n    /* \"#utility.yul\":5708:5726   */\n  add\n    /* \"#utility.yul\":5700:5726   */\n  swap1\n  pop\n    /* \"#utility.yul\":5736:5807   */\n  tag_177\n    /* \"#utility.yul\":5804:5805   */\n  0x00\n    /* \"#utility.yul\":5793:5802   */\n  dup4\n    /* \"#utility.yul\":5789:5806   */\n  add\n    /* \"#utility.yul\":5780:5786   */\n  dup5\n    /* \"#utility.yul\":5736:5807   */\n  tag_93\n  jump\t// in\ntag_177:\n    /* \"#utility.yul\":5592:5814   */\n  swap3\n  swap2\n  pop\n  pop\n  jump\t// out\n    /* \"#utility.yul\":5820:6000   */\ntag_94:\n    /* \"#utility.yul\":5868:5945   */\n  0x4e487b7100000000000000000000000000000000000000000000000000000000\n    /* \"#utility.yul\":5865:5866   */\n  0x00\n    /* \"#utility.yul\":5858:5946   */\n  mstore\n    /* \"#utility.yul\":5965:5969   */\n  0x11\n    /* \"#utility.yul\":5962:5963   */\n  0x04\n    /* \"#utility.yul\":5955:5970   */\n  mstore\n    /* \"#utility.yul\":5989:5993   */\n  0x24\n    /* \"#utility.yul\":5986:5987   */\n  0x00\n    /* \"#utility.yul\":5979:5994   */\n  revert\n    /* \"#utility.yul\":6006:6108   */\ntag_95:\n    /* \"#utility.yul\":6048:6056   */\n  0x00\n    /* \"#utility.yul\":6095:6100   */\n  dup2\n    /* \"#utility.yul\":6092:6093   */\n  0x01\n    /* \"#utility.yul\":6088:6101   */\n  shr\n    /* \"#utility.yul\":6067:6101   */\n  swap1\n  pop\n    /* \"#utility.yul\":6006:6108   */\n  swap2\n  swap1\n  pop\n  jump\t// out\n    /* \"#utility.yul\":6114:6962   */\ntag_96:\n    /* \"#utility.yul\":6175:6180   */\n  0x00\n    /* \"#utility.yul\":6182:6186   */\n  0x00\n    /* \"#utility.yul\":6206:6212   */\n  dup3\n    /* \"#utility.yul\":6197:6212   */\n  swap2\n  pop\n    /* \"#utility.yul\":6230:6235   */\n  dup4\n    /* \"#utility.yul\":6221:6235   */\n  swap1\n  pop\n    /* \"#utility.yul\":6244:6956   */\ntag_181:\n    /* \"#utility.yul\":6265:6266   */\n  0x01\n    /* \"#utility.yul\":6255:6263   */\n  dup6\n    /* \"#utility.yul\":6252:6267   */\n  gt\n    /* \"#utility.yul\":6244:6956   */\n  iszero\n  tag_183\n  jumpi\n    /* \"#utility.yul\":6360:6364   */\n  dup1\n    /* \"#utility.yul\":6355:6358   */\n  dup7\n    /* \"#utility.yul\":6351:6365   */\n  div\n    /* \"#utility.yul\":6345:6349   */\n  dup2\n    /* \"#utility.yul\":6342:6366   */\n  gt\n    /* \"#utility.yul\":6339:6389   */\n  iszero\n  tag_184\n  jumpi\n    /* \"#utility.yul\":6369:6387   */\n  tag_185\n  tag_94\n  jump\t// in\ntag_185:\n    /* \"#utility.yul\":6339:6389   */\ntag_184:\n    /* \"#utility.yul\":6419:6420   */\n  0x01\n    /* \"#utility.yul\":6409:6417   */\n  dup6\n    /* \"#utility.yul\":6405:6421   */\n  and\n    /* \"#utility.yul\":6402:6853   */\n  iszero\n  tag_186\n  jumpi\n    /* \"#utility.yul\":6834:6838   */\n  dup1\n    /* \"#utility.yul\":6827:6832   */\n  dup3\n    /* \"#utility.yul\":6823:6839   */\n  mul\n    /* \"#utility.yul\":6814:6839   */\n  swap2\n  pop\n    /* \"#utility.yul\":6402:6853   */\ntag_186:\n    /* \"#utility.yul\":6884:6888   */\n  dup1\n    /* \"#utility.yul\":6878:6882   */\n  dup2\n    /* \"#utility.yul\":6874:6889   */\n  mul\n    /* \"#utility.yul\":6866:6889   */\n  swap1\n  pop\n    /* \"#utility.yul\":6914:6946   */\n  tag_187\n    /* \"#utility.yul\":6937:6945   */\n  dup6\n    /* \"#utility.yul\":6914:6946   */\n  tag_95\n  jump\t// in\ntag_187:\n    /* \"#utility.yul\":6902:6946   */\n  swap5\n  pop\n    /* \"#utility.yul\":6244:6956   */\n  jump(tag_181)\ntag_183:\n    /* \"#utility.yul\":6114:6962   */\n  swap5\n  pop\n  swap5\n  swap3\n  pop\n  pop\n  pop\n  jump\t// out\n    /* \"#utility.yul\":6968:8041   */\ntag_97:\n    /* \"#utility.yul\":7022:7027   */\n  0x00\n    /* \"#utility.yul\":7213:7221   */\n  dup3\n    /* \"#utility.yul\":7203:7243   */\n  tag_189\n  jumpi\n    /* \"#utility.yul\":7234:7235   */\n  0x01\n    /* \"#utility.yul\":7225:7235   */\n  swap1\n  pop\n    /* \"#utility.yul\":7236:7241   */\n  jump(tag_188)\n    /* \"#utility.yul\":7203:7243   */\ntag_189:\n    /* \"#utility.yul\":7262:7266   */\n  dup2\n    /* \"#utility.yul\":7252:7288   */\n  tag_190\n  jumpi\n    /* \"#utility.yul\":7279:7280   */\n  0x00\n    /* \"#utility.yul\":7270:7280   */\n  swap1\n  pop\n    /* \"#utility.yul\":7281:7286   */\n  jump(tag_188)\n    /* \"#utility.yul\":7252:7288   */\ntag_190:\n    /* \"#utility.yul\":7348:7352   */\n  dup2\n    /* \"#utility.yul\":7396:7397   */\n  0x01\n    /* \"#utility.yul\":7391:7418   */\n  dup2\n  eq\n  tag_192\n  jumpi\n    /* \"#utility.yul\":7432:7433   */\n  0x02\n    /* \"#utility.yul\":7427:7618   */\n  dup2\n  eq\n  tag_193\n  jumpi\n    /* \"#utility.yul\":7341:7618   */\n  jump(tag_191)\n    /* \"#utility.yul\":7391:7418   */\ntag_192:\n    /* \"#utility.yul\":7409:7410   */\n  0x01\n    /* \"#utility.yul\":7400:7410   */\n  swap2\n  pop\n    /* \"#utility.yul\":7411:7416   */\n  pop\n  jump(tag_188)\n    /* \"#utility.yul\":7427:7618   */\ntag_193:\n    /* \"#utility.yul\":7472:7475   */\n  0xff\n    /* \"#utility.yul\":7462:7470   */\n  dup5\n    /* \"#utility.yul\":7459:7476   */\n  gt\n    /* \"#utility.yul\":7456:7499   */\n  iszero\n  tag_194\n  jumpi\n    /* \"#utility.yul\":7479:7497   */\n  tag_195\n  tag_94\n  jump\t// in\ntag_195:\n    /* \"#utility.yul\":7456:7499   */\ntag_194:\n    /* \"#utility.yul\":7528:7536   */\n  dup4\n    /* \"#utility.yul\":7525:7526   */\n  0x02\n    /* \"#utility.yul\":7521:7537   */\n  exp\n    /* \"#utility.yul\":7512:7537   */\n  swap2\n  pop\n    /* \"#utility.yul\":7563:7566   */\n  dup5\n    /* \"#utility.yul\":7556:7561   */\n  dup3\n    /* \"#utility.yul\":7553:7567   */\n  gt\n    /* \"#utility.yul\":7550:7590   */\n  iszero\n  tag_196\n  jumpi\n    /* \"#utility.yul\":7570:7588   */\n  tag_197\n  tag_94\n  jump\t// in\ntag_197:\n    /* \"#utility.yul\":7550:7590   */\ntag_196:\n    /* \"#utility.yul\":7603:7608   */\n  pop\n  jump(tag_188)\n    /* \"#utility.yul\":7341:7618   */\ntag_191:\n  pop\n    /* \"#utility.yul\":7727:7729   */\n  0x20\n    /* \"#utility.yul\":7717:7725   */\n  dup4\n    /* \"#utility.yul\":7714:7730   */\n  lt\n    /* \"#utility.yul\":7708:7711   */\n  0x0133\n    /* \"#utility.yul\":7702:7706   */\n  dup4\n    /* \"#utility.yul\":7699:7712   */\n  lt\n    /* \"#utility.yul\":7695:7731   */\n  and\n    /* \"#utility.yul\":7677:7679   */\n  0x4e\n    /* \"#utility.yul\":7667:7675   */\n  dup5\n    /* \"#utility.yul\":7664:7680   */\n  lt\n    /* \"#utility.yul\":7659:7661   */\n  0x0b\n    /* \"#utility.yul\":7653:7657   */\n  dup5\n    /* \"#utility.yul\":7650:7662   */\n  lt\n    /* \"#utility.yul\":7646:7681   */\n  and\n    /* \"#utility.yul\":7630:7741   */\n  or\n    /* \"#utility.yul\":7627:7873   */\n  iszero\n  tag_198\n  jumpi\n    /* \"#utility.yul\":7783:7791   */\n  dup3\n    /* \"#utility.yul\":7777:7781   */\n  dup3\n    /* \"#utility.yul\":7773:7792   */\n  exp\n    /* \"#utility.yul\":7764:7792   */\n  swap1\n  pop\n    /* \"#utility.yul\":7818:7821   */\n  dup4\n    /* \"#utility.yul\":7811:7816   */\n  dup2\n    /* \"#utility.yul\":7808:7822   */\n  gt\n    /* \"#utility.yul\":7805:7845   */\n  iszero\n  tag_199\n  jumpi\n    /* \"#utility.yul\":7825:7843   */\n  tag_200\n  tag_94\n  jump\t// in\ntag_200:\n    /* \"#utility.yul\":7805:7845   */\ntag_199:\n    /* \"#utility.yul\":7858:7863   */\n  jump(tag_188)\n    /* \"#utility.yul\":7627:7873   */\ntag_198:\n    /* \"#utility.yul\":7898:7940   */\n  tag_201\n    /* \"#utility.yul\":7936:7939   */\n  dup5\n    /* \"#utility.yul\":7926:7934   */\n  dup5\n    /* \"#utility.yul\":7920:7924   */\n  dup5\n    /* \"#utility.yul\":7917:7918   */\n  0x01\n    /* \"#utility.yul\":7898:7940   */\n  tag_96\n  jump\t// in\ntag_201:\n    /* \"#utility.yul\":7883:7940   */\n  swap3\n  pop\n  swap1\n  pop\n    /* \"#utility.yul\":7972:7976   */\n  dup2\n    /* \"#utility.yul\":7967:7970   */\n  dup5\n    /* \"#utility.yul\":7963:7977   */\n  div\n    /* \"#utility.yul\":7956:7961   */\n  dup2\n    /* \"#utility.yul\":7953:7978   */\n  gt\n    /* \"#utility.yul\":7950:8001   */\n  iszero\n  tag_202\n  jumpi\n    /* \"#utility.yul\":7981:7999   */\n  tag_203\n  tag_94\n  jump\t// in\ntag_203:\n    /* \"#utility.yul\":7950:8001   */\ntag_202:\n    /* \"#utility.yul\":8030:8034   */\n  dup2\n    /* \"#utility.yul\":8023:8028   */\n  dup2\n    /* \"#utility.yul\":8019:8035   */\n  mul\n    /* \"#utility.yul\":8010:8035   */\n  swap1\n  pop\n    /* \"#utility.yul\":6968:8041   */\ntag_188:\n  swap4\n  swap3\n  pop\n  pop\n  pop\n  jump\t// out\n    /* \"#utility.yul\":8047:8133   */\ntag_98:\n    /* \"#utility.yul\":8082:8089   */\n  0x00\n    /* \"#utility.yul\":8122:8126   */\n  0xff\n    /* \"#utility.yul\":8115:8120   */\n  dup3\n    /* \"#utility.yul\":8111:8127   */\n  and\n    /* \"#utility.yul\":8100:8127   */\n  swap1\n  pop\n    /* \"#utility.yul\":8047:8133   */\n  swap2\n  swap1\n  pop\n  jump\t// out\n    /* \"#utility.yul\":8139:8420   */\ntag_29:\n    /* \"#utility.yul\":8197:8202   */\n  0x00\n    /* \"#utility.yul\":8221:8244   */\n  tag_206\n    /* \"#utility.yul\":8239:8243   */\n  dup3\n    /* \"#utility.yul\":8221:8244   */\n  tag_79\n  jump\t// in\ntag_206:\n    /* \"#utility.yul\":8213:8244   */\n  swap2\n  pop\n    /* \"#utility.yul\":8265:8290   */\n  tag_207\n    /* \"#utility.yul\":8281:8289   */\n  dup4\n    /* \"#utility.yul\":8265:8290   */\n  tag_98\n  jump\t// in\ntag_207:\n    /* \"#utility.yul\":8253:8290   */\n  swap3\n  pop\n    /* \"#utility.yul\":8309:8413   */\n  tag_208\n    /* \"#utility.yul\":8346:8412   */\n  0xffffffffffffffffffffffffffffffffffffffffffffffffffffffffffffffff\n    /* \"#utility.yul\":8336:8344   */\n  dup5\n    /* \"#utility.yul\":8330:8334   */\n  dup5\n    /* \"#utility.yul\":8309:8413   */\n  tag_97\n  jump\t// in\ntag_208:\n    /* \"#utility.yul\":8300:8413   */\n  swap1\n  pop\n    /* \"#utility.yul\":8139:8420   */\n  swap3\n  swap2\n  pop\n  pop\n  jump\t// out\n    /* \"#utility.yul\":8426:8836   */\ntag_31:\n    /* \"#utility.yul\":8466:8473   */\n  0x00\n    /* \"#utility.yul\":8489:8509   */\n  tag_210\n    /* \"#utility.yul\":8507:8508   */\n  dup3\n    /* \"#utility.yul\":8489:8509   */\n  tag_79\n  jump\t// in\ntag_210:\n    /* \"#utility.yul\":8484:8509   */\n  swap2\n  pop\n    /* \"#utility.yul\":8523:8543   */\n  tag_211\n    /* \"#utility.yul\":8541:8542   */\n  dup4\n    /* \"#utility.yul\":8523:8543   */\n  tag_79\n  jump\t// in\ntag_211:\n    /* \"#utility.yul\":8518:8543   */\n  swap3\n  pop\n    /* \"#utility.yul\":8578:8579   */\n  dup3\n    /* \"#utility.yul\":8575:8576   */\n  dup3\n    /* \"#utility.yul\":8571:8580   */\n  mul\n    /* \"#utility.yul\":8600:8630   */\n  tag_212\n    /* \"#utility.yul\":8618:8629   */\n  dup2\n    /* \"#utility.yul\":8600:8630   */\n  tag_79\n  jump\t// in\ntag_212:\n    /* \"#utility.yul\":8589:8630   */\n  swap2\n  pop\n    /* \"#utility.yul\":8779:8780   */\n  dup3\n    /* \"#utility.yul\":8770:8777   */\n  dup3\n    /* \"#utility.yul\":8766:8781   */\n  div\n    /* \"#utility.yul\":8763:8764   */\n  dup5\n    /* \"#utility.yul\":8760:8782   */\n  eq\n    /* \"#utility.yul\":8740:8741   */\n  dup4\n    /* \"#utility.yul\":8733:8742   */\n  iszero\n    /* \"#utility.yul\":8713:8796   */\n  or\n    /* \"#utility.yul\":8690:8829   */\n  tag_213\n  jumpi\n    /* \"#utility.yul\":8809:8827   */\n  tag_214\n  tag_94\n  jump\t// in\ntag_214:\n    /* \"#utility.yul\":8690:8829   */\ntag_213:\n    /* \"#utility.yul\":8474:8836   */\n  pop\n    /* \"#utility.yul\":8426:8836   */\n  swap3\n  swap2\n  pop\n  pop\n  jump\t// out\n    /* \"#utility.yul\":8842:8919   */\ntag_99:\n    /* \"#utility.yul\":8879:8886   */\n  0x00\n    /* \"#utility.yul\":8908:8913   */\n  dup2\n    /* \"#utility.yul\":8897:8913   */\n  swap1\n  pop\n    /* \"#utility.yul\":8842:8919   */\n  swap2\n  swap1\n  pop\n  jump\t// out\n    /* \"#utility.yul\":8925:9043   */\ntag_100:\n    /* \"#utility.yul\":9012:9036   */\n  tag_217\n    /* \"#utility.yul\":9030:9035   */\n  dup2\n    /* \"#utility.yul\":9012:9036   */\n  tag_99\n  jump\t// in\ntag_217:\n    /* \"#utility.yul\":9007:9010   */\n  dup3\n    /* \"#utility.yul\":9000:9037   */\n  mstore\n    /* \"#utility.yul\":8925:9043   */\n  pop\n  pop\n  jump\t// out\n    /* \"#utility.yul\":9049:9167   */\ntag_101:\n    /* \"#utility.yul\":9136:9160   */\n  tag_219\n    /* \"#utility.yul\":9154:9159   */\n  dup2\n    /* \"#utility.yul\":9136:9160   */\n  tag_79\n  jump\t// in\ntag_219:\n    /* \"#utility.yul\":9131:9134   */\n  dup3\n    /* \"#utility.yul\":9124:9161   */\n  mstore\n    /* \"#utility.yul\":9049:9167   */\n  pop\n  pop\n  jump\t// out\n    /* \"#utility.yul\":9173:9837   */\ntag_45:\n    /* \"#utility.yul\":9378:9382   */\n  0x00\n    /* \"#utility.yul\":9416:9419   */\n  0xa0\n    /* \"#utility.yul\":9405:9414   */\n  dup3\n    /* \"#utility.yul\":9401:9420   */\n  add\n    /* \"#utility.yul\":9393:9420   */\n  swap1\n  pop\n    /* \"#utility.yul\":9430:9501   */\n  tag_221\n    /* \"#utility.yul\":9498:9499   */\n  0x00\n    /* \"#utility.yul\":9487:9496   */\n  dup4\n    /* \"#utility.yul\":9483:9500   */\n  add\n    /* \"#utility.yul\":9474:9480   */\n  dup9\n    /* \"#utility.yul\":9430:9501   */\n  tag_100\n  jump\t// in\ntag_221:\n    /* \"#utility.yul\":9511:9583   */\n  tag_222\n    /* \"#utility.yul\":9579:9581   */\n  0x20\n    /* \"#utility.yul\":9568:9577   */\n  dup4\n    /* \"#utility.yul\":9564:9582   */\n  add\n    /* \"#utility.yul\":9555:9561   */\n  dup8\n    /* \"#utility.yul\":9511:9583   */\n  tag_100\n  jump\t// in\ntag_222:\n    /* \"#utility.yul\":9593:9665   */\n  tag_223\n    /* \"#utility.yul\":9661:9663   */\n  0x40\n    /* \"#utility.yul\":9650:9659   */\n  dup4\n    /* \"#utility.yul\":9646:9664   */\n  add\n    /* \"#utility.yul\":9637:9643   */\n  dup7\n    /* \"#utility.yul\":9593:9665   */\n  tag_100\n  jump\t// in\ntag_223:\n    /* \"#utility.yul\":9675:9747   */\n  tag_224\n    /* \"#utility.yul\":9743:9745   */\n  0x60\n    /* \"#utility.yul\":9732:9741   */\n  dup4\n    /* \"#utility.yul\":9728:9746   */\n  add\n    /* \"#utility.yul\":9719:9725   */\n  dup6\n    /* \"#utility.yul\":9675:9747   */\n  tag_101\n  jump\t// in\ntag_224:\n    /* \"#utility.yul\":9757:9830   */\n  tag_225\n    /* \"#utility.yul\":9825:9828   */\n  0x80\n    /* \"#utility.yul\":9814:9823   */\n  dup4\n    /* \"#utility.yul\":9810:9829   */\n  add\n    /* \"#utility.yul\":9801:9807   */\n  dup5\n    /* \"#utility.yul\":9757:9830   */\n  tag_93\n  jump\t// in\ntag_225:\n    /* \"#utility.yul\":9173:9837   */\n  swap7\n  swap6\n  pop\n  pop\n  pop\n  pop\n  pop\n  pop\n  jump\t// out\n    /* \"#utility.yul\":9843:10012   */\ntag_102:\n    /* \"#utility.yul\":9927:9938   */\n  0x00\n    /* \"#utility.yul\":9961:9967   */\n  dup3\n    /* \"#utility.yul\":9956:9959   */\n  dup3\n    /* \"#utility.yul\":9949:9968   */\n  mstore\n    /* \"#utility.yul\":10001:10005   */\n  0x20\n    /* \"#utility.yul\":9996:9999   */\n  dup3\n    /* \"#utility.yul\":9992:10006   */\n  add\n    /* \"#utility.yul\":9977:10006   */\n  swap1\n  pop\n    /* \"#utility.yul\":9843:10012   */\n  swap3\n  swap2\n  pop\n  pop\n  jump\t// out\n    /* \"#utility.yul\":10018:10157   */\ntag_103:\n    /* \"#utility.yul\":10107:10113   */\n  dup3\n    /* \"#utility.yul\":10102:10105   */\n  dup2\n    /* \"#utility.yul\":10097:10100   */\n  dup4\n    /* \"#utility.yul\":10091:10114   */\n  mcopy\n    /* \"#utility.yul\":10148:10149   */\n  0x00\n    /* \"#utility.yul\":10139:10145   */\n  dup4\n    /* \"#utility.yul\":10134:10137   */\n  dup4\n    /* \"#utility.yul\":10130:10146   */\n  add\n    /* \"#utility.yul\":10123:10150   */\n  mstore\n    /* \"#utility.yul\":10018:10157   */\n  pop\n  pop\n  pop\n  jump\t// out\n    /* \"#utility.yul\":10163:10265   */\ntag_104:\n    /* \"#utility.yul\":10204:10210   */\n  0x00\n    /* \"#utility.yul\":10255:10257   */\n  0x1f\n    /* \"#utility.yul\":10251:10258   */\n  not\n    /* \"#utility.yul\":10246:10248   */\n  0x1f\n    /* \"#utility.yul\":10239:10244   */\n  dup4\n    /* \"#utility.yul\":10235:10249   */\n  add\n    /* \"#utility.yul\":10231:10259   */\n  and\n    /* \"#utility.yul\":10221:10259   */\n  swap1\n  pop\n    /* \"#utility.yul\":10163:10265   */\n  swap2\n  swap1\n  pop\n  jump\t// out\n    /* \"#utility.yul\":10271:10648   */\ntag_105:\n    /* \"#utility.yul\":10359:10362   */\n  0x00\n    /* \"#utility.yul\":10387:10426   */\n  tag_230\n    /* \"#utility.yul\":10420:10425   */\n  dup3\n    /* \"#utility.yul\":10387:10426   */\n  tag_71\n  jump\t// in\ntag_230:\n    /* \"#utility.yul\":10442:10513   */\n  tag_231\n    /* \"#utility.yul\":10506:10512   */\n  dup2\n    /* \"#utility.yul\":10501:10504   */\n  dup6\n    /* \"#utility.yul\":10442:10513   */\n  tag_102\n  jump\t// in\ntag_231:\n    /* \"#utility.yul\":10435:10513   */\n  swap4\n  pop\n    /* \"#utility.yul\":10522:10587   */\n  tag_232\n    /* \"#utility.yul\":10580:10586   */\n  dup2\n    /* \"#utility.yul\":10575:10578   */\n  dup6\n    /* \"#utility.yul\":10568:10572   */\n  0x20\n    /* \"#utility.yul\":10561:10566   */\n  dup7\n    /* \"#utility.yul\":10557:10573   */\n  add\n    /* \"#utility.yul\":10522:10587   */\n  tag_103\n  jump\t// in\ntag_232:\n    /* \"#utility.yul\":10612:10641   */\n  tag_233\n    /* \"#utility.yul\":10634:10640   */\n  dup2\n    /* \"#utility.yul\":10612:10641   */\n  tag_104\n  jump\t// in\ntag_233:\n    /* \"#utility.yul\":10607:10610   */\n  dup5\n    /* \"#utility.yul\":10603:10642   */\n  add\n    /* \"#utility.yul\":10596:10642   */\n  swap2\n  pop\n    /* \"#utility.yul\":10363:10648   */\n  pop\n    /* \"#utility.yul\":10271:10648   */\n  swap3\n  swap2\n  pop\n  pop\n  jump\t// out\n    /* \"#utility.yul\":10654:10967   */\ntag_55:\n    /* \"#utility.yul\":10767:10771   */\n  0x00\n    /* \"#utility.yul\":10805:10807   */\n  0x20\n    /* \"#utility.yul\":10794:10803   */\n  dup3\n    /* \"#utility.yul\":10790:10808   */\n  add\n    /* \"#utility.yul\":10782:10808   */\n  swap1\n  pop\n    /* \"#utility.yul\":10854:10863   */\n  dup2\n    /* \"#utility.yul\":10848:10852   */\n  dup2\n    /* \"#utility.yul\":10844:10864   */\n  sub\n    /* \"#utility.yul\":10840:10841   */\n  0x00\n    /* \"#utility.yul\":10829:10838   */\n  dup4\n    /* \"#utility.yul\":10825:10842   */\n  add\n    /* \"#utility.yul\":10818:10865   */\n  mstore\n    /* \"#utility.yul\":10882:10960   */\n  tag_235\n    /* \"#utility.yul\":10955:10959   */\n  dup2\n    /* \"#utility.yul\":10946:10952   */\n  dup5\n    /* \"#utility.yul\":10882:10960   */\n  tag_105\n  jump\t// in\ntag_235:\n    /* \"#utility.yul\":10874:10960   */\n  swap1\n  pop\n    /* \"#utility.yul\":10654:10967   */\n  swap3\n  swap2\n  pop\n  pop\n  jump\t// out\n    /* \"#utility.yul\":10973:11071   */\ntag_106:\n    /* \"#utility.yul\":11024:11030   */\n  0x00\n    /* \"#utility.yul\":11058:11063   */\n  dup2\n    /* \"#utility.yul\":11052:11064   */\n  mload\n    /* \"#utility.yul\":11042:11064   */\n  swap1\n  pop\n    /* \"#utility.yul\":10973:11071   */\n  swap2\n  swap1\n  pop\n  jump\t// out\n    /* \"#utility.yul\":11077:11193   */\ntag_107:\n    /* \"#utility.yul\":11128:11132   */\n  0x00\n    /* \"#utility.yul\":11151:11154   */\n  dup2\n    /* \"#utility.yul\":11143:11154   */\n  swap1\n  pop\n    /* \"#utility.yul\":11181:11185   */\n  0x20\n    /* \"#utility.yul\":11176:11179   */\n  dup3\n    /* \"#utility.yul\":11172:11186   */\n  add\n    /* \"#utility.yul\":11164:11186   */\n  swap1\n  pop\n    /* \"#utility.yul\":11077:11193   */\n  swap2\n  swap1\n  pop\n  jump\t// out\n    /* \"#utility.yul\":11199:11353   */\ntag_108:\n    /* \"#utility.yul\":11242:11253   */\n  0x00\n    /* \"#utility.yul\":11278:11307   */\n  tag_239\n    /* \"#utility.yul\":11302:11305   */\n  dup3\n    /* \"#utility.yul\":11296:11306   */\n  mload\n    /* \"#utility.yul\":11278:11307   */\n  tag_99\n  jump\t// in\ntag_239:\n    /* \"#utility.yul\":11341:11346   */\n  dup1\n    /* \"#utility.yul\":11317:11346   */\n  swap2\n  pop\n    /* \"#utility.yul\":11254:11353   */\n  pop\n    /* \"#utility.yul\":11199:11353   */\n  swap2\n  swap1\n  pop\n  jump\t// out\n    /* \"#utility.yul\":11359:11953   */\ntag_57:\n    /* \"#utility.yul\":11443:11448   */\n  0x00\n    /* \"#utility.yul\":11474:11512   */\n  tag_241\n    /* \"#utility.yul\":11506:11511   */\n  dup3\n    /* \"#utility.yul\":11474:11512   */\n  tag_106\n  jump\t// in\ntag_241:\n    /* \"#utility.yul\":11537:11542   */\n  dup3\n    /* \"#utility.yul\":11564:11604   */\n  tag_242\n    /* \"#utility.yul\":11598:11603   */\n  dup5\n    /* \"#utility.yul\":11564:11604   */\n  tag_107\n  jump\t// in\ntag_242:\n    /* \"#utility.yul\":11552:11604   */\n  swap1\n  pop\n    /* \"#utility.yul\":11623:11658   */\n  tag_243\n    /* \"#utility.yul\":11649:11657   */\n  dup2\n    /* \"#utility.yul\":11623:11658   */\n  tag_108\n  jump\t// in\ntag_243:\n    /* \"#utility.yul\":11614:11658   */\n  swap3\n  pop\n    /* \"#utility.yul\":11682:11684   */\n  0x20\n    /* \"#utility.yul\":11674:11680   */\n  dup3\n    /* \"#utility.yul\":11671:11685   */\n  lt\n    /* \"#utility.yul\":11668:11946   */\n  iszero\n  tag_244\n  jumpi\n    /* \"#utility.yul\":11753:11922   */\n  tag_245\n    /* \"#utility.yul\":11838:11904   */\n  0xffffffffffffffffffffffffffffffffffffffffffffffffffffffffffffffff\n    /* \"#utility.yul\":11808:11814   */\n  dup4\n    /* \"#utility.yul\":11804:11806   */\n  0x20\n    /* \"#utility.yul\":11800:11815   */\n  sub\n    /* \"#utility.yul\":11797:11798   */\n  0x08\n    /* \"#utility.yul\":11793:11816   */\n  mul\n    /* \"#utility.yul\":11753:11922   */\n  tag_77\n  jump\t// in\ntag_245:\n    /* \"#utility.yul\":11730:11735   */\n  dup4\n    /* \"#utility.yul\":11709:11936   */\n  and\n    /* \"#utility.yul\":11700:11936   */\n  swap3\n  pop\n    /* \"#utility.yul\":11668:11946   */\ntag_244:\n    /* \"#utility.yul\":11449:11953   */\n  pop\n  pop\n    /* \"#utility.yul\":11359:11953   */\n  swap2\n  swap1\n  pop\n  jump\t// out\n    /* \"#utility.yul\":11959:12150   */\ntag_62:\n    /* \"#utility.yul\":11999:12002   */\n  0x00\n    /* \"#utility.yul\":12018:12038   */\n  tag_247\n    /* \"#utility.yul\":12036:12037   */\n  dup3\n    /* \"#utility.yul\":12018:12038   */\n  tag_79\n  jump\t// in\ntag_247:\n    /* \"#utility.yul\":12013:12038   */\n  swap2\n  pop\n    /* \"#utility.yul\":12052:12072   */\n  tag_248\n    /* \"#utility.yul\":12070:12071   */\n  dup4\n    /* \"#utility.yul\":12052:12072   */\n  tag_79\n  jump\t// in\ntag_248:\n    /* \"#utility.yul\":12047:12072   */\n  swap3\n  pop\n    /* \"#utility.yul\":12095:12096   */\n  dup3\n    /* \"#utility.yul\":12092:12093   */\n  dup3\n    /* \"#utility.yul\":12088:12097   */\n  add\n    /* \"#utility.yul\":12081:12097   */\n  swap1\n  pop\n    /* \"#utility.yul\":12116:12119   */\n  dup1\n    /* \"#utility.yul\":12113:12114   */\n  dup3\n    /* \"#utility.yul\":12110:12120   */\n  gt\n    /* \"#utility.yul\":12107:12143   */\n  iszero\n  tag_249\n  jumpi\n    /* \"#utility.yul\":12123:12141   */\n  tag_250\n  tag_94\n  jump\t// in\ntag_250:\n    /* \"#utility.yul\":12107:12143   */\ntag_249:\n    /* \"#utility.yul\":11959:12150   */\n  swap3\n  swap2\n  pop\n  pop\n  jump\t// out\n    /* \"#utility.yul\":12156:12598   */\ntag_66:\n    /* \"#utility.yul\":12305:12309   */\n  0x00\n    /* \"#utility.yul\":12343:12345   */\n  0x60\n    /* \"#utility.yul\":12332:12341   */\n  dup3\n    /* \"#utility.yul\":12328:12346   */\n  add\n    /* \"#utility.yul\":12320:12346   */\n  swap1\n  pop\n    /* \"#utility.yul\":12356:12427   */\n  tag_252\n    /* \"#utility.yul\":12424:12425   */\n  0x00\n    /* \"#utility.yul\":12413:12422   */\n  dup4\n    /* \"#utility.yul\":12409:12426   */\n  add\n    /* \"#utility.yul\":12400:12406   */\n  dup7\n    /* \"#utility.yul\":12356:12427   */\n  tag_93\n  jump\t// in\ntag_252:\n    /* \"#utility.yul\":12437:12509   */\n  tag_253\n    /* \"#utility.yul\":12505:12507   */\n  0x20\n    /* \"#utility.yul\":12494:12503   */\n  dup4\n    /* \"#utility.yul\":12490:12508   */\n  add\n    /* \"#utility.yul\":12481:12487   */\n  dup6\n    /* \"#utility.yul\":12437:12509   */\n  tag_101\n  jump\t// in\ntag_253:\n    /* \"#utility.yul\":12519:12591   */\n  tag_254\n    /* \"#utility.yul\":12587:12589   */\n  0x40\n    /* \"#utility.yul\":12576:12585   */\n  dup4\n    /* \"#utility.yul\":12572:12590   */\n  add\n    /* \"#utility.yul\":12563:12569   */\n  dup5\n    /* \"#utility.yul\":12519:12591   */\n  tag_101\n  jump\t// in\ntag_254:\n    /* \"#utility.yul\":12156:12598   */\n  swap5\n  swap4\n  pop\n  pop\n  pop\n  pop\n  jump\t// out\n    /* \"#utility.yul\":12604:12826   */\ntag_70:\n    /* \"#utility.yul\":12697:12701   */\n  0x00\n    /* \"#utility.yul\":12735:12737   */\n  0x20\n    /* \"#utility.yul\":12724:12733   */\n  dup3\n    /* \"#utility.yul\":12720:12738   */\n  add\n    /* \"#utility.yul\":12712:12738   */\n  swap1\n  pop\n    /* \"#utility.yul\":12748:12819   */\n  tag_256\n    /* \"#utility.yul\":12816:12817   */\n  0x00\n    /* \"#utility.yul\":12805:12814   */\n  dup4\n    /* \"#utility.yul\":12801:12818   */\n  add\n    /* \"#utility.yul\":12792:12798   */\n  dup5\n    /* \"#utility.yul\":12748:12819   */\n  tag_101\n  jump\t// in\ntag_256:\n    /* \"#utility.yul\":12604:12826   */\n  swap3\n  swap2\n  pop\n  pop\n  jump\t// out\n    /* \"Memecoin.sol\":626:892  contract TaurusStable is ERC20,ERC20Burnable, Ownable, ERC20Permit {... */\ntag_33:\n  mload(0x80)\n  mload(0xa0)\n  mload(0xc0)\n  mload(0xe0)\n  mload(0x0100)\n  mload(0x0120)\n  mload(0x0140)\n  codecopy(0x00, dataOffset(sub_0), dataSize(sub_0))\n  0x00\n  assignImmutable(\"0x120fc72bde94608fbe713d37dfe0d9bd4591be2d34314526ab85973ef2dd19cf\")\n  0x00\n  assignImmutable(\"0x18bae0ee458c25143fb8e230f7843037a5f92e7126deb0bc9455db49315639f6\")\n  0x00\n  assignImmutable(\"0x280f875a5048ad76095b1df8abb701dec41dcc4bd9cd9488fa58ffa28316b96c\")\n  0x00\n  assignImmutable(\"0xc029172d5cd7a4e945622d71e4d05cf85f0a1833f12eb0c55071cfced147417a\")\n  0x00\n  assignImmutable(\"0x23b30c5046e4995c9078f409ebd19cb19e8115b7f2f2a6cf69f85df91e580651\")\n  0x00\n  assignImmutable(\"0xb224d3706035f84cbefa91be4fb7aa032048ac5ba134db04224b6d55d267d10f\")\n  0x00\n  assignImmutable(\"0xab1d64b8ef755eff5932da88d3edeff579bcc60916bb91a53f15681d1de87c95\")\n  return(0x00, dataSize(sub_0))\nstop\n\nsub_0: assembly {\n        /* \"Memecoin.sol\":626:892  contract TaurusStable is ERC20,ERC20Burnable, Ownable, ERC20Permit {... */\n      mstore(0x40, 0x80)\n      callvalue\n      dup1\n      iszero\n      tag_1\n      jumpi\n      revert(0x00, 0x00)\n    tag_1:\n      pop\n      jumpi(tag_2, lt(calldatasize, 0x04))\n      shr(0xe0, calldataload(0x00))\n      dup1\n      0x79cc6790\n      gt\n      tag_21\n      jumpi\n      dup1\n      0x95d89b41\n      gt\n      tag_22\n      jumpi\n      dup1\n      0x95d89b41\n      eq\n      tag_16\n      jumpi\n      dup1\n      0xa9059cbb\n      eq\n      tag_17\n      jumpi\n      dup1\n      0xd505accf\n      eq\n      tag_18\n      jumpi\n      dup1\n      0xdd62ed3e\n      eq\n      tag_19\n      jumpi\n      dup1\n      0xf2fde38b\n      eq\n      tag_20\n      jumpi\n      jump(tag_2)\n    tag_22:\n      dup1\n      0x79cc6790\n      eq\n      tag_12\n      jumpi\n      dup1\n      0x7ecebe00\n      eq\n      tag_13\n      jumpi\n      dup1\n      0x84b0196e\n      eq\n      tag_14\n      jumpi\n      dup1\n      0x8da5cb5b\n      eq\n      tag_15\n      jumpi\n      jump(tag_2)\n    tag_21:\n      dup1\n      0x313ce567\n      gt\n      tag_23\n      jumpi\n      dup1\n      0x313ce567\n      eq\n      tag_7\n      jumpi\n      dup1\n      0x3644e515\n      eq\n      tag_8\n      jumpi\n      dup1\n      0x42966c68\n      eq\n      tag_9\n      jumpi\n      dup1\n      0x70a08231\n      eq\n      tag_10\n      jumpi\n      dup1\n      0x715018a6\n      eq\n      tag_11\n      jumpi\n      jump(tag_2)\n    tag_23:\n      dup1\n      0x06fdde03\n      eq\n      tag_3\n      jumpi\n      dup1\n      0x095ea7b3\n      eq\n      tag_4\n      jumpi\n      dup1\n      0x18160ddd\n      eq\n      tag_5\n      jumpi\n      dup1\n      0x23b872dd\n      eq\n      tag_6\n      jumpi\n    tag_2:\n      revert(0x00, 0x00)\n        /* \"https://raw.githubusercontent.com/OpenZeppelin/openzeppelin-contracts/v5.0.1/contracts/token/ERC20/ERC20.sol\":2074:2163  function name() public view virtual returns (string memory) {... */\n    tag_3:\n      tag_24\n      tag_25\n      jump\t// in\n    tag_24:\n      mload(0x40)\n      tag_26\n      swap2\n      swap1\n      tag_27\n      jump\t// in\n    tag_26:\n      mload(0x40)\n      dup1\n      swap2\n      sub\n      swap1\n      return\n        /* \"https://raw.githubusercontent.com/OpenZeppelin/openzeppelin-contracts/v5.0.1/contracts/token/ERC20/ERC20.sol\":4293:4479  function approve(address spender, uint256 value) public virtual returns (bool) {... */\n    tag_4:\n      tag_28\n      0x04\n      dup1\n      calldatasize\n      sub\n      dup2\n      add\n      swap1\n      tag_29\n      swap2\n      swap1\n      tag_30\n      jump\t// in\n    tag_29:\n      tag_31\n      jump\t// in\n    tag_28:\n      mload(0x40)\n      tag_32\n      swap2\n      swap1\n      tag_33\n      jump\t// in\n    tag_32:\n      mload(0x40)\n      dup1\n      swap2\n      sub\n      swap1\n      return\n        /* \"https://raw.githubusercontent.com/OpenZeppelin/openzeppelin-contracts/v5.0.1/contracts/token/ERC20/ERC20.sol\":3144:3241  function totalSupply() public view virtual returns (uint256) {... */\n    tag_5:\n      tag_34\n      tag_35\n      jump\t// in\n    tag_34:\n      mload(0x40)\n      tag_36\n      swap2\n      swap1\n      tag_37\n      jump\t// in\n    tag_36:\n      mload(0x40)\n      dup1\n      swap2\n      sub\n      swap1\n      return\n        /* \"https://raw.githubusercontent.com/OpenZeppelin/openzeppelin-contracts/v5.0.1/contracts/token/ERC20/ERC20.sol\":5039:5283  function transferFrom(address from, address to, uint256 value) public virtual returns (bool) {... */\n    tag_6:\n      tag_38\n      0x04\n      dup1\n      calldatasize\n      sub\n      dup2\n      add\n      swap1\n      tag_39\n      swap2\n      swap1\n      tag_40\n      jump\t// in\n    tag_39:\n      tag_41\n      jump\t// in\n    tag_38:\n      mload(0x40)\n      tag_42\n      swap2\n      swap1\n      tag_33\n      jump\t// in\n    tag_42:\n      mload(0x40)\n      dup1\n      swap2\n      sub\n      swap1\n      return\n        /* \"https://raw.githubusercontent.com/OpenZeppelin/openzeppelin-contracts/v5.0.1/contracts/token/ERC20/ERC20.sol\":3002:3084  function decimals() public view virtual returns (uint8) {... */\n    tag_7:\n      tag_43\n      tag_44\n      jump\t// in\n    tag_43:\n      mload(0x40)\n      tag_45\n      swap2\n      swap1\n      tag_46\n      jump\t// in\n    tag_45:\n      mload(0x40)\n      dup1\n      swap2\n      sub\n      swap1\n      return\n        /* \"https://raw.githubusercontent.com/OpenZeppelin/openzeppelin-contracts/v5.0.1/contracts/token/ERC20/extensions/ERC20Permit.sol\":2656:2768  function DOMAIN_SEPARATOR() external view virtual returns (bytes32) {... */\n    tag_8:\n      tag_47\n      tag_48\n      jump\t// in\n    tag_47:\n      mload(0x40)\n      tag_49\n      swap2\n      swap1\n      tag_50\n      jump\t// in\n    tag_49:\n      mload(0x40)\n      dup1\n      swap2\n      sub\n      swap1\n      return\n        /* \"https://raw.githubusercontent.com/OpenZeppelin/openzeppelin-contracts/v5.0.1/contracts/token/ERC20/extensions/ERC20Burnable.sol\":618:705  function burn(uint256 value) public virtual {... */\n    tag_9:\n      tag_51\n      0x04\n      dup1\n      calldatasize\n      sub\n      dup2\n      add\n      swap1\n      tag_52\n      swap2\n      swap1\n      tag_53\n      jump\t// in\n    tag_52:\n      tag_54\n      jump\t// in\n    tag_51:\n      stop\n        /* \"https://raw.githubusercontent.com/OpenZeppelin/openzeppelin-contracts/v5.0.1/contracts/token/ERC20/ERC20.sol\":3299:3415  function balanceOf(address account) public view virtual returns (uint256) {... */\n    tag_10:\n      tag_55\n      0x04\n      dup1\n      calldatasize\n      sub\n      dup2\n      add\n      swap1\n      tag_56\n      swap2\n      swap1\n      tag_57\n      jump\t// in\n    tag_56:\n      tag_58\n      jump\t// in\n    tag_55:\n      mload(0x40)\n      tag_59\n      swap2\n      swap1\n      tag_37\n      jump\t// in\n    tag_59:\n      mload(0x40)\n      dup1\n      swap2\n      sub\n      swap1\n      return\n        /* \"https://raw.githubusercontent.com/OpenZeppelin/openzeppelin-contracts/v5.0.1/contracts/access/Ownable.sol\":2293:2394  function renounceOwnership() public virtual onlyOwner {... */\n    tag_11:\n      tag_60\n      tag_61\n      jump\t// in\n    tag_60:\n      stop\n        /* \"https://raw.githubusercontent.com/OpenZeppelin/openzeppelin-contracts/v5.0.1/contracts/token/ERC20/extensions/ERC20Burnable.sol\":1021:1179  function burnFrom(address account, uint256 value) public virtual {... */\n    tag_12:\n      tag_62\n      0x04\n      dup1\n      calldatasize\n      sub\n      dup2\n      add\n      swap1\n      tag_63\n      swap2\n      swap1\n      tag_30\n      jump\t// in\n    tag_63:\n      tag_64\n      jump\t// in\n    tag_62:\n      stop\n        /* \"https://raw.githubusercontent.com/OpenZeppelin/openzeppelin-contracts/v5.0.1/contracts/token/ERC20/extensions/ERC20Permit.sol\":2406:2549  function nonces(address owner) public view virtual override(IERC20Permit, Nonces) returns (uint256) {... */\n    tag_13:\n      tag_65\n      0x04\n      dup1\n      calldatasize\n      sub\n      dup2\n      add\n      swap1\n      tag_66\n      swap2\n      swap1\n      tag_57\n      jump\t// in\n    tag_66:\n      tag_67\n      jump\t// in\n    tag_65:\n      mload(0x40)\n      tag_68\n      swap2\n      swap1\n      tag_37\n      jump\t// in\n    tag_68:\n      mload(0x40)\n      dup1\n      swap2\n      sub\n      swap1\n      return\n        /* \"https://raw.githubusercontent.com/OpenZeppelin/openzeppelin-contracts/v5.0.1/contracts/utils/cryptography/EIP712.sol\":5144:5701  function eip712Domain()... */\n    tag_14:\n      tag_69\n      tag_70\n      jump\t// in\n    tag_69:\n      mload(0x40)\n      tag_71\n      swap8\n      swap7\n      swap6\n      swap5\n      swap4\n      swap3\n      swap2\n      swap1\n      tag_72\n      jump\t// in\n    tag_71:\n      mload(0x40)\n      dup1\n      swap2\n      sub\n      swap1\n      return\n        /* \"https://raw.githubusercontent.com/OpenZeppelin/openzeppelin-contracts/v5.0.1/contracts/access/Ownable.sol\":1638:1723  function owner() public view virtual returns (address) {... */\n    tag_15:\n      tag_73\n      tag_74\n      jump\t// in\n    tag_73:\n      mload(0x40)\n      tag_75\n      swap2\n      swap1\n      tag_76\n      jump\t// in\n    tag_75:\n      mload(0x40)\n      dup1\n      swap2\n      sub\n      swap1\n      return\n        /* \"https://raw.githubusercontent.com/OpenZeppelin/openzeppelin-contracts/v5.0.1/contracts/token/ERC20/ERC20.sol\":2276:2369  function symbol() public view virtual returns (string memory) {... */\n    tag_16:\n      tag_77\n      tag_78\n      jump\t// in\n    tag_77:\n      mload(0x40)\n      tag_79\n      swap2\n      swap1\n      tag_27\n      jump\t// in\n    tag_79:\n      mload(0x40)\n      dup1\n      swap2\n      sub\n      swap1\n      return\n        /* \"https://raw.githubusercontent.com/OpenZeppelin/openzeppelin-contracts/v5.0.1/contracts/token/ERC20/ERC20.sol\":3610:3788  function transfer(address to, uint256 value) public virtual returns (bool) {... */\n    tag_17:\n      tag_80\n      0x04\n      dup1\n      calldatasize\n      sub\n      dup2\n      add\n      swap1\n      tag_81\n      swap2\n      swap1\n      tag_30\n      jump\t// in\n    tag_81:\n      tag_82\n      jump\t// in\n    tag_80:\n      mload(0x40)\n      tag_83\n      swap2\n      swap1\n      tag_33\n      jump\t// in\n    tag_83:\n      mload(0x40)\n      dup1\n      swap2\n      sub\n      swap1\n      return\n        /* \"https://raw.githubusercontent.com/OpenZeppelin/openzeppelin-contracts/v5.0.1/contracts/token/ERC20/extensions/ERC20Permit.sol\":1680:2352  function permit(... */\n    tag_18:\n      tag_84\n      0x04\n      dup1\n      calldatasize\n      sub\n      dup2\n      add\n      swap1\n      tag_85\n      swap2\n      swap1\n      tag_86\n      jump\t// in\n    tag_85:\n      tag_87\n      jump\t// in\n    tag_84:\n      stop\n        /* \"https://raw.githubusercontent.com/OpenZeppelin/openzeppelin-contracts/v5.0.1/contracts/token/ERC20/ERC20.sol\":3846:3986  function allowance(address owner, address spender) public view virtual returns (uint256) {... */\n    tag_19:\n      tag_88\n      0x04\n      dup1\n      calldatasize\n      sub\n      dup2\n      add\n      swap1\n      tag_89\n      swap2\n      swap1\n      tag_90\n      jump\t// in\n    tag_89:\n      tag_91\n      jump\t// in\n    tag_88:\n      mload(0x40)\n      tag_92\n      swap2\n      swap1\n      tag_37\n      jump\t// in\n    tag_92:\n      mload(0x40)\n      dup1\n      swap2\n      sub\n      swap1\n      return\n        /* \"https://raw.githubusercontent.com/OpenZeppelin/openzeppelin-contracts/v5.0.1/contracts/access/Ownable.sol\":2543:2758  function transferOwnership(address newOwner) public virtual onlyOwner {... */\n    tag_20:\n      tag_93\n      0x04\n      dup1\n      calldatasize\n      sub\n      dup2\n      add\n      swap1\n      tag_94\n      swap2\n      swap1\n      tag_57\n      jump\t// in\n    tag_94:\n      tag_95\n      jump\t// in\n    tag_93:\n      stop\n        /* \"https://raw.githubusercontent.com/OpenZeppelin/openzeppelin-contracts/v5.0.1/contracts/token/ERC20/ERC20.sol\":2074:2163  function name() public view virtual returns (string memory) {... */\n    tag_25:\n        /* \"https://raw.githubusercontent.com/OpenZeppelin/openzeppelin-contracts/v5.0.1/contracts/token/ERC20/ERC20.sol\":2119:2132  string memory */\n      0x60\n        /* \"https://raw.githubusercontent.com/OpenZeppelin/openzeppelin-contracts/v5.0.1/contracts/token/ERC20/ERC20.sol\":2151:2156  _name */\n      0x03\n        /* \"https://raw.githubusercontent.com/OpenZeppelin/openzeppelin-contracts/v5.0.1/contracts/token/ERC20/ERC20.sol\":2144:2156  return _name */\n      dup1\n      sload\n      tag_97\n      swap1\n      tag_98\n      jump\t// in\n    tag_97:\n      dup1\n      0x1f\n      add\n      0x20\n      dup1\n      swap2\n      div\n      mul\n      0x20\n      add\n      mload(0x40)\n      swap1\n      dup2\n      add\n      0x40\n      mstore\n      dup1\n      swap3\n      swap2\n      swap1\n      dup2\n      dup2\n      mstore\n      0x20\n      add\n      dup3\n      dup1\n      sload\n      tag_99\n      swap1\n      tag_98\n      jump\t// in\n    tag_99:\n      dup1\n      iszero\n      tag_100\n      jumpi\n      dup1\n      0x1f\n      lt\n      tag_101\n      jumpi\n      0x0100\n      dup1\n      dup4\n      sload\n      div\n      mul\n      dup4\n      mstore\n      swap2\n      0x20\n      add\n      swap2\n      jump(tag_100)\n    tag_101:\n      dup3\n      add\n      swap2\n      swap1\n      0x00\n      mstore\n      keccak256(0x00, 0x20)\n      swap1\n    tag_102:\n      dup2\n      sload\n      dup2\n      mstore\n      swap1\n      0x01\n      add\n      swap1\n      0x20\n      add\n      dup1\n      dup4\n      gt\n      tag_102\n      jumpi\n      dup3\n      swap1\n      sub\n      0x1f\n      and\n      dup3\n      add\n      swap2\n    tag_100:\n      pop\n      pop\n      pop\n      pop\n      pop\n      swap1\n      pop\n        /* \"https://raw.githubusercontent.com/OpenZeppelin/openzeppelin-contracts/v5.0.1/contracts/token/ERC20/ERC20.sol\":2074:2163  function name() public view virtual returns (string memory) {... */\n      swap1\n      jump\t// out\n        /* \"https://raw.githubusercontent.com/OpenZeppelin/openzeppelin-contracts/v5.0.1/contracts/token/ERC20/ERC20.sol\":4293:4479  function approve(address spender, uint256 value) public virtual returns (bool) {... */\n    tag_31:\n        /* \"https://raw.githubusercontent.com/OpenZeppelin/openzeppelin-contracts/v5.0.1/contracts/token/ERC20/ERC20.sol\":4366:4370  bool */\n      0x00\n        /* \"https://raw.githubusercontent.com/OpenZeppelin/openzeppelin-contracts/v5.0.1/contracts/token/ERC20/ERC20.sol\":4382:4395  address owner */\n      0x00\n        /* \"https://raw.githubusercontent.com/OpenZeppelin/openzeppelin-contracts/v5.0.1/contracts/token/ERC20/ERC20.sol\":4398:4410  _msgSender() */\n      tag_104\n        /* \"https://raw.githubusercontent.com/OpenZeppelin/openzeppelin-contracts/v5.0.1/contracts/token/ERC20/ERC20.sol\":4398:4408  _msgSender */\n      tag_105\n        /* \"https://raw.githubusercontent.com/OpenZeppelin/openzeppelin-contracts/v5.0.1/contracts/token/ERC20/ERC20.sol\":4398:4410  _msgSender() */\n      jump\t// in\n    tag_104:\n        /* \"https://raw.githubusercontent.com/OpenZeppelin/openzeppelin-contracts/v5.0.1/contracts/token/ERC20/ERC20.sol\":4382:4410  address owner = _msgSender() */\n      swap1\n      pop\n        /* \"https://raw.githubusercontent.com/OpenZeppelin/openzeppelin-contracts/v5.0.1/contracts/token/ERC20/ERC20.sol\":4420:4451  _approve(owner, spender, value) */\n      tag_106\n        /* \"https://raw.githubusercontent.com/OpenZeppelin/openzeppelin-contracts/v5.0.1/contracts/token/ERC20/ERC20.sol\":4429:4434  owner */\n      dup2\n        /* \"https://raw.githubusercontent.com/OpenZeppelin/openzeppelin-contracts/v5.0.1/contracts/token/ERC20/ERC20.sol\":4436:4443  spender */\n      dup6\n        /* \"https://raw.githubusercontent.com/OpenZeppelin/openzeppelin-contracts/v5.0.1/contracts/token/ERC20/ERC20.sol\":4445:4450  value */\n      dup6\n        /* \"https://raw.githubusercontent.com/OpenZeppelin/openzeppelin-contracts/v5.0.1/contracts/token/ERC20/ERC20.sol\":4420:4428  _approve */\n      tag_107\n        /* \"https://raw.githubusercontent.com/OpenZeppelin/openzeppelin-contracts/v5.0.1/contracts/token/ERC20/ERC20.sol\":4420:4451  _approve(owner, spender, value) */\n      jump\t// in\n    tag_106:\n        /* \"https://raw.githubusercontent.com/OpenZeppelin/openzeppelin-contracts/v5.0.1/contracts/token/ERC20/ERC20.sol\":4468:4472  true */\n      0x01\n        /* \"https://raw.githubusercontent.com/OpenZeppelin/openzeppelin-contracts/v5.0.1/contracts/token/ERC20/ERC20.sol\":4461:4472  return true */\n      swap2\n      pop\n      pop\n        /* \"https://raw.githubusercontent.com/OpenZeppelin/openzeppelin-contracts/v5.0.1/contracts/token/ERC20/ERC20.sol\":4293:4479  function approve(address spender, uint256 value) public virtual returns (bool) {... */\n      swap3\n      swap2\n      pop\n      pop\n      jump\t// out\n        /* \"https://raw.githubusercontent.com/OpenZeppelin/openzeppelin-contracts/v5.0.1/contracts/token/ERC20/ERC20.sol\":3144:3241  function totalSupply() public view virtual returns (uint256) {... */\n    tag_35:\n        /* \"https://raw.githubusercontent.com/OpenZeppelin/openzeppelin-contracts/v5.0.1/contracts/token/ERC20/ERC20.sol\":3196:3203  uint256 */\n      0x00\n        /* \"https://raw.githubusercontent.com/OpenZeppelin/openzeppelin-contracts/v5.0.1/contracts/token/ERC20/ERC20.sol\":3222:3234  _totalSupply */\n      sload(0x02)\n        /* \"https://raw.githubusercontent.com/OpenZeppelin/openzeppelin-contracts/v5.0.1/contracts/token/ERC20/ERC20.sol\":3215:3234  return _totalSupply */\n      swap1\n      pop\n        /* \"https://raw.githubusercontent.com/OpenZeppelin/openzeppelin-contracts/v5.0.1/contracts/token/ERC20/ERC20.sol\":3144:3241  function totalSupply() public view virtual returns (uint256) {... */\n      swap1\n      jump\t// out\n        /* \"https://raw.githubusercontent.com/OpenZeppelin/openzeppelin-contracts/v5.0.1/contracts/token/ERC20/ERC20.sol\":5039:5283  function transferFrom(address from, address to, uint256 value) public virtual returns (bool) {... */\n    tag_41:\n        /* \"https://raw.githubusercontent.com/OpenZeppelin/openzeppelin-contracts/v5.0.1/contracts/token/ERC20/ERC20.sol\":5126:5130  bool */\n      0x00\n        /* \"https://raw.githubusercontent.com/OpenZeppelin/openzeppelin-contracts/v5.0.1/contracts/token/ERC20/ERC20.sol\":5142:5157  address spender */\n      0x00\n        /* \"https://raw.githubusercontent.com/OpenZeppelin/openzeppelin-contracts/v5.0.1/contracts/token/ERC20/ERC20.sol\":5160:5172  _msgSender() */\n      tag_110\n        /* \"https://raw.githubusercontent.com/OpenZeppelin/openzeppelin-contracts/v5.0.1/contracts/token/ERC20/ERC20.sol\":5160:5170  _msgSender */\n      tag_105\n        /* \"https://raw.githubusercontent.com/OpenZeppelin/openzeppelin-contracts/v5.0.1/contracts/token/ERC20/ERC20.sol\":5160:5172  _msgSender() */\n      jump\t// in\n    tag_110:\n        /* \"https://raw.githubusercontent.com/OpenZeppelin/openzeppelin-contracts/v5.0.1/contracts/token/ERC20/ERC20.sol\":5142:5172  address spender = _msgSender() */\n      swap1\n      pop\n        /* \"https://raw.githubusercontent.com/OpenZeppelin/openzeppelin-contracts/v5.0.1/contracts/token/ERC20/ERC20.sol\":5182:5219  _spendAllowance(from, spender, value) */\n      tag_111\n        /* \"https://raw.githubusercontent.com/OpenZeppelin/openzeppelin-contracts/v5.0.1/contracts/token/ERC20/ERC20.sol\":5198:5202  from */\n      dup6\n        /* \"https://raw.githubusercontent.com/OpenZeppelin/openzeppelin-contracts/v5.0.1/contracts/token/ERC20/ERC20.sol\":5204:5211  spender */\n      dup3\n        /* \"https://raw.githubusercontent.com/OpenZeppelin/openzeppelin-contracts/v5.0.1/contracts/token/ERC20/ERC20.sol\":5213:5218  value */\n      dup6\n        /* \"https://raw.githubusercontent.com/OpenZeppelin/openzeppelin-contracts/v5.0.1/contracts/token/ERC20/ERC20.sol\":5182:5197  _spendAllowance */\n      tag_112\n        /* \"https://raw.githubusercontent.com/OpenZeppelin/openzeppelin-contracts/v5.0.1/contracts/token/ERC20/ERC20.sol\":5182:5219  _spendAllowance(from, spender, value) */\n      jump\t// in\n    tag_111:\n        /* \"https://raw.githubusercontent.com/OpenZeppelin/openzeppelin-contracts/v5.0.1/contracts/token/ERC20/ERC20.sol\":5229:5255  _transfer(from, to, value) */\n      tag_113\n        /* \"https://raw.githubusercontent.com/OpenZeppelin/openzeppelin-contracts/v5.0.1/contracts/token/ERC20/ERC20.sol\":5239:5243  from */\n      dup6\n        /* \"https://raw.githubusercontent.com/OpenZeppelin/openzeppelin-contracts/v5.0.1/contracts/token/ERC20/ERC20.sol\":5245:5247  to */\n      dup6\n        /* \"https://raw.githubusercontent.com/OpenZeppelin/openzeppelin-contracts/v5.0.1/contracts/token/ERC20/ERC20.sol\":5249:5254  value */\n      dup6\n        /* \"https://raw.githubusercontent.com/OpenZeppelin/openzeppelin-contracts/v5.0.1/contracts/token/ERC20/ERC20.sol\":5229:5238  _transfer */\n      tag_114\n        /* \"https://raw.githubusercontent.com/OpenZeppelin/openzeppelin-contracts/v5.0.1/contracts/token/ERC20/ERC20.sol\":5229:5255  _transfer(from, to, value) */\n      jump\t// in\n    tag_113:\n        /* \"https://raw.githubusercontent.com/OpenZeppelin/openzeppelin-contracts/v5.0.1/contracts/token/ERC20/ERC20.sol\":5272:5276  true */\n      0x01\n        /* \"https://raw.githubusercontent.com/OpenZeppelin/openzeppelin-contracts/v5.0.1/contracts/token/ERC20/ERC20.sol\":5265:5276  return true */\n      swap2\n      pop\n      pop\n        /* \"https://raw.githubusercontent.com/OpenZeppelin/openzeppelin-contracts/v5.0.1/contracts/token/ERC20/ERC20.sol\":5039:5283  function transferFrom(address from, address to, uint256 value) public virtual returns (bool) {... */\n      swap4\n      swap3\n      pop\n      pop\n      pop\n      jump\t// out\n        /* \"https://raw.githubusercontent.com/OpenZeppelin/openzeppelin-contracts/v5.0.1/contracts/token/ERC20/ERC20.sol\":3002:3084  function decimals() public view virtual returns (uint8) {... */\n    tag_44:\n        /* \"https://raw.githubusercontent.com/OpenZeppelin/openzeppelin-contracts/v5.0.1/contracts/token/ERC20/ERC20.sol\":3051:3056  uint8 */\n      0x00\n        /* \"https://raw.githubusercontent.com/OpenZeppelin/openzeppelin-contracts/v5.0.1/contracts/token/ERC20/ERC20.sol\":3075:3077  18 */\n      0x12\n        /* \"https://raw.githubusercontent.com/OpenZeppelin/openzeppelin-contracts/v5.0.1/contracts/token/ERC20/ERC20.sol\":3068:3077  return 18 */\n      swap1\n      pop\n        /* \"https://raw.githubusercontent.com/OpenZeppelin/openzeppelin-contracts/v5.0.1/contracts/token/ERC20/ERC20.sol\":3002:3084  function decimals() public view virtual returns (uint8) {... */\n      swap1\n      jump\t// out\n        /* \"https://raw.githubusercontent.com/OpenZeppelin/openzeppelin-contracts/v5.0.1/contracts/token/ERC20/extensions/ERC20Permit.sol\":2656:2768  function DOMAIN_SEPARATOR() external view virtual returns (bytes32) {... */\n    tag_48:\n        /* \"https://raw.githubusercontent.com/OpenZeppelin/openzeppelin-contracts/v5.0.1/contracts/token/ERC20/extensions/ERC20Permit.sol\":2715:2722  bytes32 */\n      0x00\n        /* \"https://raw.githubusercontent.com/OpenZeppelin/openzeppelin-contracts/v5.0.1/contracts/token/ERC20/extensions/ERC20Permit.sol\":2741:2761  _domainSeparatorV4() */\n      tag_117\n        /* \"https://raw.githubusercontent.com/OpenZeppelin/openzeppelin-contracts/v5.0.1/contracts/token/ERC20/extensions/ERC20Permit.sol\":2741:2759  _domainSeparatorV4 */\n      tag_118\n        /* \"https://raw.githubusercontent.com/OpenZeppelin/openzeppelin-contracts/v5.0.1/contracts/token/ERC20/extensions/ERC20Permit.sol\":2741:2761  _domainSeparatorV4() */\n      jump\t// in\n    tag_117:\n        /* \"https://raw.githubusercontent.com/OpenZeppelin/openzeppelin-contracts/v5.0.1/contracts/token/ERC20/extensions/ERC20Permit.sol\":2734:2761  return _domainSeparatorV4() */\n      swap1\n      pop\n        /* \"https://raw.githubusercontent.com/OpenZeppelin/openzeppelin-contracts/v5.0.1/contracts/token/ERC20/extensions/ERC20Permit.sol\":2656:2768  function DOMAIN_SEPARATOR() external view virtual returns (bytes32) {... */\n      swap1\n      jump\t// out\n        /* \"https://raw.githubusercontent.com/OpenZeppelin/openzeppelin-contracts/v5.0.1/contracts/token/ERC20/extensions/ERC20Burnable.sol\":618:705  function burn(uint256 value) public virtual {... */\n    tag_54:\n        /* \"https://raw.githubusercontent.com/OpenZeppelin/openzeppelin-contracts/v5.0.1/contracts/token/ERC20/extensions/ERC20Burnable.sol\":672:698  _burn(_msgSender(), value) */\n      tag_120\n        /* \"https://raw.githubusercontent.com/OpenZeppelin/openzeppelin-contracts/v5.0.1/contracts/token/ERC20/extensions/ERC20Burnable.sol\":678:690  _msgSender() */\n      tag_121\n        /* \"https://raw.githubusercontent.com/OpenZeppelin/openzeppelin-contracts/v5.0.1/contracts/token/ERC20/extensions/ERC20Burnable.sol\":678:688  _msgSender */\n      tag_105\n        /* \"https://raw.githubusercontent.com/OpenZeppelin/openzeppelin-contracts/v5.0.1/contracts/token/ERC20/extensions/ERC20Burnable.sol\":678:690  _msgSender() */\n      jump\t// in\n    tag_121:\n        /* \"https://raw.githubusercontent.com/OpenZeppelin/openzeppelin-contracts/v5.0.1/contracts/token/ERC20/extensions/ERC20Burnable.sol\":692:697  value */\n      dup3\n        /* \"https://raw.githubusercontent.com/OpenZeppelin/openzeppelin-contracts/v5.0.1/contracts/token/ERC20/extensions/ERC20Burnable.sol\":672:677  _burn */\n      tag_122\n        /* \"https://raw.githubusercontent.com/OpenZeppelin/openzeppelin-contracts/v5.0.1/contracts/token/ERC20/extensions/ERC20Burnable.sol\":672:698  _burn(_msgSender(), value) */\n      jump\t// in\n    tag_120:\n        /* \"https://raw.githubusercontent.com/OpenZeppelin/openzeppelin-contracts/v5.0.1/contracts/token/ERC20/extensions/ERC20Burnable.sol\":618:705  function burn(uint256 value) public virtual {... */\n      pop\n      jump\t// out\n        /* \"https://raw.githubusercontent.com/OpenZeppelin/openzeppelin-contracts/v5.0.1/contracts/token/ERC20/ERC20.sol\":3299:3415  function balanceOf(address account) public view virtual returns (uint256) {... */\n    tag_58:\n        /* \"https://raw.githubusercontent.com/OpenZeppelin/openzeppelin-contracts/v5.0.1/contracts/token/ERC20/ERC20.sol\":3364:3371  uint256 */\n      0x00\n        /* \"https://raw.githubusercontent.com/OpenZeppelin/openzeppelin-contracts/v5.0.1/contracts/token/ERC20/ERC20.sol\":3390:3399  _balances */\n      0x00\n        /* \"https://raw.githubusercontent.com/OpenZeppelin/openzeppelin-contracts/v5.0.1/contracts/token/ERC20/ERC20.sol\":3390:3408  _balances[account] */\n      0x00\n        /* \"https://raw.githubusercontent.com/OpenZeppelin/openzeppelin-contracts/v5.0.1/contracts/token/ERC20/ERC20.sol\":3400:3407  account */\n      dup4\n        /* \"https://raw.githubusercontent.com/OpenZeppelin/openzeppelin-contracts/v5.0.1/contracts/token/ERC20/ERC20.sol\":3390:3408  _balances[account] */\n      0xffffffffffffffffffffffffffffffffffffffff\n      and\n      0xffffffffffffffffffffffffffffffffffffffff\n      and\n      dup2\n      mstore\n      0x20\n      add\n      swap1\n      dup2\n      mstore\n      0x20\n      add\n      0x00\n      keccak256\n      sload\n        /* \"https://raw.githubusercontent.com/OpenZeppelin/openzeppelin-contracts/v5.0.1/contracts/token/ERC20/ERC20.sol\":3383:3408  return _balances[account] */\n      swap1\n      pop\n        /* \"https://raw.githubusercontent.com/OpenZeppelin/openzeppelin-contracts/v5.0.1/contracts/token/ERC20/ERC20.sol\":3299:3415  function balanceOf(address account) public view virtual returns (uint256) {... */\n      swap2\n      swap1\n      pop\n      jump\t// out\n        /* \"https://raw.githubusercontent.com/OpenZeppelin/openzeppelin-contracts/v5.0.1/contracts/access/Ownable.sol\":2293:2394  function renounceOwnership() public virtual onlyOwner {... */\n    tag_61:\n        /* \"https://raw.githubusercontent.com/OpenZeppelin/openzeppelin-contracts/v5.0.1/contracts/access/Ownable.sol\":1531:1544  _checkOwner() */\n      tag_125\n        /* \"https://raw.githubusercontent.com/OpenZeppelin/openzeppelin-contracts/v5.0.1/contracts/access/Ownable.sol\":1531:1542  _checkOwner */\n      tag_126\n        /* \"https://raw.githubusercontent.com/OpenZeppelin/openzeppelin-contracts/v5.0.1/contracts/access/Ownable.sol\":1531:1544  _checkOwner() */\n      jump\t// in\n    tag_125:\n        /* \"https://raw.githubusercontent.com/OpenZeppelin/openzeppelin-contracts/v5.0.1/contracts/access/Ownable.sol\":2357:2387  _transferOwnership(address(0)) */\n      tag_128\n        /* \"https://raw.githubusercontent.com/OpenZeppelin/openzeppelin-contracts/v5.0.1/contracts/access/Ownable.sol\":2384:2385  0 */\n      0x00\n        /* \"https://raw.githubusercontent.com/OpenZeppelin/openzeppelin-contracts/v5.0.1/contracts/access/Ownable.sol\":2357:2375  _transferOwnership */\n      tag_129\n        /* \"https://raw.githubusercontent.com/OpenZeppelin/openzeppelin-contracts/v5.0.1/contracts/access/Ownable.sol\":2357:2387  _transferOwnership(address(0)) */\n      jump\t// in\n    tag_128:\n        /* \"https://raw.githubusercontent.com/OpenZeppelin/openzeppelin-contracts/v5.0.1/contracts/access/Ownable.sol\":2293:2394  function renounceOwnership() public virtual onlyOwner {... */\n      jump\t// out\n        /* \"https://raw.githubusercontent.com/OpenZeppelin/openzeppelin-contracts/v5.0.1/contracts/token/ERC20/extensions/ERC20Burnable.sol\":1021:1179  function burnFrom(address account, uint256 value) public virtual {... */\n    tag_64:\n        /* \"https://raw.githubusercontent.com/OpenZeppelin/openzeppelin-contracts/v5.0.1/contracts/token/ERC20/extensions/ERC20Burnable.sol\":1096:1141  _spendAllowance(account, _msgSender(), value) */\n      tag_131\n        /* \"https://raw.githubusercontent.com/OpenZeppelin/openzeppelin-contracts/v5.0.1/contracts/token/ERC20/extensions/ERC20Burnable.sol\":1112:1119  account */\n      dup3\n        /* \"https://raw.githubusercontent.com/OpenZeppelin/openzeppelin-contracts/v5.0.1/contracts/token/ERC20/extensions/ERC20Burnable.sol\":1121:1133  _msgSender() */\n      tag_132\n        /* \"https://raw.githubusercontent.com/OpenZeppelin/openzeppelin-contracts/v5.0.1/contracts/token/ERC20/extensions/ERC20Burnable.sol\":1121:1131  _msgSender */\n      tag_105\n        /* \"https://raw.githubusercontent.com/OpenZeppelin/openzeppelin-contracts/v5.0.1/contracts/token/ERC20/extensions/ERC20Burnable.sol\":1121:1133  _msgSender() */\n      jump\t// in\n    tag_132:\n        /* \"https://raw.githubusercontent.com/OpenZeppelin/openzeppelin-contracts/v5.0.1/contracts/token/ERC20/extensions/ERC20Burnable.sol\":1135:1140  value */\n      dup4\n        /* \"https://raw.githubusercontent.com/OpenZeppelin/openzeppelin-contracts/v5.0.1/contracts/token/ERC20/extensions/ERC20Burnable.sol\":1096:1111  _spendAllowance */\n      tag_112\n        /* \"https://raw.githubusercontent.com/OpenZeppelin/openzeppelin-contracts/v5.0.1/contracts/token/ERC20/extensions/ERC20Burnable.sol\":1096:1141  _spendAllowance(account, _msgSender(), value) */\n      jump\t// in\n    tag_131:\n        /* \"https://raw.githubusercontent.com/OpenZeppelin/openzeppelin-contracts/v5.0.1/contracts/token/ERC20/extensions/ERC20Burnable.sol\":1151:1172  _burn(account, value) */\n      tag_133\n        /* \"https://raw.githubusercontent.com/OpenZeppelin/openzeppelin-contracts/v5.0.1/contracts/token/ERC20/extensions/ERC20Burnable.sol\":1157:1164  account */\n      dup3\n        /* \"https://raw.githubusercontent.com/OpenZeppelin/openzeppelin-contracts/v5.0.1/contracts/token/ERC20/extensions/ERC20Burnable.sol\":1166:1171  value */\n      dup3\n        /* \"https://raw.githubusercontent.com/OpenZeppelin/openzeppelin-contracts/v5.0.1/contracts/token/ERC20/extensions/ERC20Burnable.sol\":1151:1156  _burn */\n      tag_122\n        /* \"https://raw.githubusercontent.com/OpenZeppelin/openzeppelin-contracts/v5.0.1/contracts/token/ERC20/extensions/ERC20Burnable.sol\":1151:1172  _burn(account, value) */\n      jump\t// in\n    tag_133:\n        /* \"https://raw.githubusercontent.com/OpenZeppelin/openzeppelin-contracts/v5.0.1/contracts/token/ERC20/extensions/ERC20Burnable.sol\":1021:1179  function burnFrom(address account, uint256 value) public virtual {... */\n      pop\n      pop\n      jump\t// out\n        /* \"https://raw.githubusercontent.com/OpenZeppelin/openzeppelin-contracts/v5.0.1/contracts/token/ERC20/extensions/ERC20Permit.sol\":2406:2549  function nonces(address owner) public view virtual override(IERC20Permit, Nonces) returns (uint256) {... */\n    tag_67:\n        /* \"https://raw.githubusercontent.com/OpenZeppelin/openzeppelin-contracts/v5.0.1/contracts/token/ERC20/extensions/ERC20Permit.sol\":2497:2504  uint256 */\n      0x00\n        /* \"https://raw.githubusercontent.com/OpenZeppelin/openzeppelin-contracts/v5.0.1/contracts/token/ERC20/extensions/ERC20Permit.sol\":2523:2542  super.nonces(owner) */\n      tag_135\n        /* \"https://raw.githubusercontent.com/OpenZeppelin/openzeppelin-contracts/v5.0.1/contracts/token/ERC20/extensions/ERC20Permit.sol\":2536:2541  owner */\n      dup3\n        /* \"https://raw.githubusercontent.com/OpenZeppelin/openzeppelin-contracts/v5.0.1/contracts/token/ERC20/extensions/ERC20Permit.sol\":2523:2535  super.nonces */\n      tag_136\n        /* \"https://raw.githubusercontent.com/OpenZeppelin/openzeppelin-contracts/v5.0.1/contracts/token/ERC20/extensions/ERC20Permit.sol\":2523:2542  super.nonces(owner) */\n      jump\t// in\n    tag_135:\n        /* \"https://raw.githubusercontent.com/OpenZeppelin/openzeppelin-contracts/v5.0.1/contracts/token/ERC20/extensions/ERC20Permit.sol\":2516:2542  return super.nonces(owner) */\n      swap1\n      pop\n        /* \"https://raw.githubusercontent.com/OpenZeppelin/openzeppelin-contracts/v5.0.1/contracts/token/ERC20/extensions/ERC20Permit.sol\":2406:2549  function nonces(address owner) public view virtual override(IERC20Permit, Nonces) returns (uint256) {... */\n      swap2\n      swap1\n      pop\n      jump\t// out\n        /* \"https://raw.githubusercontent.com/OpenZeppelin/openzeppelin-contracts/v5.0.1/contracts/utils/cryptography/EIP712.sol\":5144:5701  function eip712Domain()... */\n    tag_70:\n        /* \"https://raw.githubusercontent.com/OpenZeppelin/openzeppelin-contracts/v5.0.1/contracts/utils/cryptography/EIP712.sol\":5242:5255  bytes1 fields */\n      0x00\n        /* \"https://raw.githubusercontent.com/OpenZeppelin/openzeppelin-contracts/v5.0.1/contracts/utils/cryptography/EIP712.sol\":5269:5287  string memory name */\n      0x60\n        /* \"https://raw.githubusercontent.com/OpenZeppelin/openzeppelin-contracts/v5.0.1/contracts/utils/cryptography/EIP712.sol\":5301:5322  string memory version */\n      dup1\n        /* \"https://raw.githubusercontent.com/OpenZeppelin/openzeppelin-contracts/v5.0.1/contracts/utils/cryptography/EIP712.sol\":5336:5351  uint256 chainId */\n      0x00\n        /* \"https://raw.githubusercontent.com/OpenZeppelin/openzeppelin-contracts/v5.0.1/contracts/utils/cryptography/EIP712.sol\":5365:5390  address verifyingContract */\n      0x00\n        /* \"https://raw.githubusercontent.com/OpenZeppelin/openzeppelin-contracts/v5.0.1/contracts/utils/cryptography/EIP712.sol\":5404:5416  bytes32 salt */\n      0x00\n        /* \"https://raw.githubusercontent.com/OpenZeppelin/openzeppelin-contracts/v5.0.1/contracts/utils/cryptography/EIP712.sol\":5430:5457  uint256[] memory extensions */\n      0x60\n        /* \"https://raw.githubusercontent.com/OpenZeppelin/openzeppelin-contracts/v5.0.1/contracts/utils/cryptography/EIP712.sol\":5533:5546  _EIP712Name() */\n      tag_138\n        /* \"https://raw.githubusercontent.com/OpenZeppelin/openzeppelin-contracts/v5.0.1/contracts/utils/cryptography/EIP712.sol\":5533:5544  _EIP712Name */\n      tag_139\n        /* \"https://raw.githubusercontent.com/OpenZeppelin/openzeppelin-contracts/v5.0.1/contracts/utils/cryptography/EIP712.sol\":5533:5546  _EIP712Name() */\n      jump\t// in\n    tag_138:\n        /* \"https://raw.githubusercontent.com/OpenZeppelin/openzeppelin-contracts/v5.0.1/contracts/utils/cryptography/EIP712.sol\":5560:5576  _EIP712Version() */\n      tag_140\n        /* \"https://raw.githubusercontent.com/OpenZeppelin/openzeppelin-contracts/v5.0.1/contracts/utils/cryptography/EIP712.sol\":5560:5574  _EIP712Version */\n      tag_141\n        /* \"https://raw.githubusercontent.com/OpenZeppelin/openzeppelin-contracts/v5.0.1/contracts/utils/cryptography/EIP712.sol\":5560:5576  _EIP712Version() */\n      jump\t// in\n    tag_140:\n        /* \"https://raw.githubusercontent.com/OpenZeppelin/openzeppelin-contracts/v5.0.1/contracts/utils/cryptography/EIP712.sol\":5590:5603  block.chainid */\n      chainid\n        /* \"https://raw.githubusercontent.com/OpenZeppelin/openzeppelin-contracts/v5.0.1/contracts/utils/cryptography/EIP712.sol\":5625:5629  this */\n      address\n        /* \"https://raw.githubusercontent.com/OpenZeppelin/openzeppelin-contracts/v5.0.1/contracts/utils/cryptography/EIP712.sol\":5652:5653  0 */\n      0x00\n        /* \"https://raw.githubusercontent.com/OpenZeppelin/openzeppelin-contracts/v5.0.1/contracts/utils/cryptography/EIP712.sol\":5644:5654  bytes32(0) */\n      0x00\n      shl\n        /* \"https://raw.githubusercontent.com/OpenZeppelin/openzeppelin-contracts/v5.0.1/contracts/utils/cryptography/EIP712.sol\":5682:5683  0 */\n      0x00\n        /* \"https://raw.githubusercontent.com/OpenZeppelin/openzeppelin-contracts/v5.0.1/contracts/utils/cryptography/EIP712.sol\":5668:5684  new uint256[](0) */\n      0xffffffffffffffff\n      dup2\n      gt\n      iszero\n      tag_142\n      jumpi\n      tag_143\n      tag_144\n      jump\t// in\n    tag_143:\n    tag_142:\n      mload(0x40)\n      swap1\n      dup1\n      dup3\n      mstore\n      dup1\n      0x20\n      mul\n      0x20\n      add\n      dup3\n      add\n      0x40\n      mstore\n      dup1\n      iszero\n      tag_145\n      jumpi\n      dup2\n      0x20\n      add\n      0x20\n      dup3\n      mul\n      dup1\n      calldatasize\n      dup4\n      calldatacopy\n      dup1\n      dup3\n      add\n      swap2\n      pop\n      pop\n      swap1\n      pop\n    tag_145:\n      pop\n        /* \"https://raw.githubusercontent.com/OpenZeppelin/openzeppelin-contracts/v5.0.1/contracts/utils/cryptography/EIP712.sol\":5482:5694  return (... */\n      0x0f00000000000000000000000000000000000000000000000000000000000000\n      swap6\n      swap5\n      swap4\n      swap3\n      swap2\n      swap1\n      swap7\n      pop\n      swap7\n      pop\n      swap7\n      pop\n      swap7\n      pop\n      swap7\n      pop\n      swap7\n      pop\n      swap7\n      pop\n        /* \"https://raw.githubusercontent.com/OpenZeppelin/openzeppelin-contracts/v5.0.1/contracts/utils/cryptography/EIP712.sol\":5144:5701  function eip712Domain()... */\n      swap1\n      swap2\n      swap3\n      swap4\n      swap5\n      swap6\n      swap7\n      jump\t// out\n        /* \"https://raw.githubusercontent.com/OpenZeppelin/openzeppelin-contracts/v5.0.1/contracts/access/Ownable.sol\":1638:1723  function owner() public view virtual returns (address) {... */\n    tag_74:\n        /* \"https://raw.githubusercontent.com/OpenZeppelin/openzeppelin-contracts/v5.0.1/contracts/access/Ownable.sol\":1684:1691  address */\n      0x00\n        /* \"https://raw.githubusercontent.com/OpenZeppelin/openzeppelin-contracts/v5.0.1/contracts/access/Ownable.sol\":1710:1716  _owner */\n      0x05\n      0x00\n      swap1\n      sload\n      swap1\n      0x0100\n      exp\n      swap1\n      div\n      0xffffffffffffffffffffffffffffffffffffffff\n      and\n        /* \"https://raw.githubusercontent.com/OpenZeppelin/openzeppelin-contracts/v5.0.1/contracts/access/Ownable.sol\":1703:1716  return _owner */\n      swap1\n      pop\n        /* \"https://raw.githubusercontent.com/OpenZeppelin/openzeppelin-contracts/v5.0.1/contracts/access/Ownable.sol\":1638:1723  function owner() public view virtual returns (address) {... */\n      swap1\n      jump\t// out\n        /* \"https://raw.githubusercontent.com/OpenZeppelin/openzeppelin-contracts/v5.0.1/contracts/token/ERC20/ERC20.sol\":2276:2369  function symbol() public view virtual returns (string memory) {... */\n    tag_78:\n        /* \"https://raw.githubusercontent.com/OpenZeppelin/openzeppelin-contracts/v5.0.1/contracts/token/ERC20/ERC20.sol\":2323:2336  string memory */\n      0x60\n        /* \"https://raw.githubusercontent.com/OpenZeppelin/openzeppelin-contracts/v5.0.1/contracts/token/ERC20/ERC20.sol\":2355:2362  _symbol */\n      0x04\n        /* \"https://raw.githubusercontent.com/OpenZeppelin/openzeppelin-contracts/v5.0.1/contracts/token/ERC20/ERC20.sol\":2348:2362  return _symbol */\n      dup1\n      sload\n      tag_148\n      swap1\n      tag_98\n      jump\t// in\n    tag_148:\n      dup1\n      0x1f\n      add\n      0x20\n      dup1\n      swap2\n      div\n      mul\n      0x20\n      add\n      mload(0x40)\n      swap1\n      dup2\n      add\n      0x40\n      mstore\n      dup1\n      swap3\n      swap2\n      swap1\n      dup2\n      dup2\n      mstore\n      0x20\n      add\n      dup3\n      dup1\n      sload\n      tag_149\n      swap1\n      tag_98\n      jump\t// in\n    tag_149:\n      dup1\n      iszero\n      tag_150\n      jumpi\n      dup1\n      0x1f\n      lt\n      tag_151\n      jumpi\n      0x0100\n      dup1\n      dup4\n      sload\n      div\n      mul\n      dup4\n      mstore\n      swap2\n      0x20\n      add\n      swap2\n      jump(tag_150)\n    tag_151:\n      dup3\n      add\n      swap2\n      swap1\n      0x00\n      mstore\n      keccak256(0x00, 0x20)\n      swap1\n    tag_152:\n      dup2\n      sload\n      dup2\n      mstore\n      swap1\n      0x01\n      add\n      swap1\n      0x20\n      add\n      dup1\n      dup4\n      gt\n      tag_152\n      jumpi\n      dup3\n      swap1\n      sub\n      0x1f\n      and\n      dup3\n      add\n      swap2\n    tag_150:\n      pop\n      pop\n      pop\n      pop\n      pop\n      swap1\n      pop\n        /* \"https://raw.githubusercontent.com/OpenZeppelin/openzeppelin-contracts/v5.0.1/contracts/token/ERC20/ERC20.sol\":2276:2369  function symbol() public view virtual returns (string memory) {... */\n      swap1\n      jump\t// out\n        /* \"https://raw.githubusercontent.com/OpenZeppelin/openzeppelin-contracts/v5.0.1/contracts/token/ERC20/ERC20.sol\":3610:3788  function transfer(address to, uint256 value) public virtual returns (bool) {... */\n    tag_82:\n        /* \"https://raw.githubusercontent.com/OpenZeppelin/openzeppelin-contracts/v5.0.1/contracts/token/ERC20/ERC20.sol\":3679:3683  bool */\n      0x00\n        /* \"https://raw.githubusercontent.com/OpenZeppelin/openzeppelin-contracts/v5.0.1/contracts/token/ERC20/ERC20.sol\":3695:3708  address owner */\n      0x00\n        /* \"https://raw.githubusercontent.com/OpenZeppelin/openzeppelin-contracts/v5.0.1/contracts/token/ERC20/ERC20.sol\":3711:3723  _msgSender() */\n      tag_154\n        /* \"https://raw.githubusercontent.com/OpenZeppelin/openzeppelin-contracts/v5.0.1/contracts/token/ERC20/ERC20.sol\":3711:3721  _msgSender */\n      tag_105\n        /* \"https://raw.githubusercontent.com/OpenZeppelin/openzeppelin-contracts/v5.0.1/contracts/token/ERC20/ERC20.sol\":3711:3723  _msgSender() */\n      jump\t// in\n    tag_154:\n        /* \"https://raw.githubusercontent.com/OpenZeppelin/openzeppelin-contracts/v5.0.1/contracts/token/ERC20/ERC20.sol\":3695:3723  address owner = _msgSender() */\n      swap1\n      pop\n        /* \"https://raw.githubusercontent.com/OpenZeppelin/openzeppelin-contracts/v5.0.1/contracts/token/ERC20/ERC20.sol\":3733:3760  _transfer(owner, to, value) */\n      tag_155\n        /* \"https://raw.githubusercontent.com/OpenZeppelin/openzeppelin-contracts/v5.0.1/contracts/token/ERC20/ERC20.sol\":3743:3748  owner */\n      dup2\n        /* \"https://raw.githubusercontent.com/OpenZeppelin/openzeppelin-contracts/v5.0.1/contracts/token/ERC20/ERC20.sol\":3750:3752  to */\n      dup6\n        /* \"https://raw.githubusercontent.com/OpenZeppelin/openzeppelin-contracts/v5.0.1/contracts/token/ERC20/ERC20.sol\":3754:3759  value */\n      dup6\n        /* \"https://raw.githubusercontent.com/OpenZeppelin/openzeppelin-contracts/v5.0.1/contracts/token/ERC20/ERC20.sol\":3733:3742  _transfer */\n      tag_114\n        /* \"https://raw.githubusercontent.com/OpenZeppelin/openzeppelin-contracts/v5.0.1/contracts/token/ERC20/ERC20.sol\":3733:3760  _transfer(owner, to, value) */\n      jump\t// in\n    tag_155:\n        /* \"https://raw.githubusercontent.com/OpenZeppelin/openzeppelin-contracts/v5.0.1/contracts/token/ERC20/ERC20.sol\":3777:3781  true */\n      0x01\n        /* \"https://raw.githubusercontent.com/OpenZeppelin/openzeppelin-contracts/v5.0.1/contracts/token/ERC20/ERC20.sol\":3770:3781  return true */\n      swap2\n      pop\n      pop\n        /* \"https://raw.githubusercontent.com/OpenZeppelin/openzeppelin-contracts/v5.0.1/contracts/token/ERC20/ERC20.sol\":3610:3788  function transfer(address to, uint256 value) public virtual returns (bool) {... */\n      swap3\n      swap2\n      pop\n      pop\n      jump\t// out\n        /* \"https://raw.githubusercontent.com/OpenZeppelin/openzeppelin-contracts/v5.0.1/contracts/token/ERC20/extensions/ERC20Permit.sol\":1680:2352  function permit(... */\n    tag_87:\n        /* \"https://raw.githubusercontent.com/OpenZeppelin/openzeppelin-contracts/v5.0.1/contracts/token/ERC20/extensions/ERC20Permit.sol\":1901:1909  deadline */\n      dup4\n        /* \"https://raw.githubusercontent.com/OpenZeppelin/openzeppelin-contracts/v5.0.1/contracts/token/ERC20/extensions/ERC20Permit.sol\":1883:1898  block.timestamp */\n      timestamp\n        /* \"https://raw.githubusercontent.com/OpenZeppelin/openzeppelin-contracts/v5.0.1/contracts/token/ERC20/extensions/ERC20Permit.sol\":1883:1909  block.timestamp > deadline */\n      gt\n        /* \"https://raw.githubusercontent.com/OpenZeppelin/openzeppelin-contracts/v5.0.1/contracts/token/ERC20/extensions/ERC20Permit.sol\":1879:1976  if (block.timestamp > deadline) {... */\n      iszero\n      tag_157\n      jumpi\n        /* \"https://raw.githubusercontent.com/OpenZeppelin/openzeppelin-contracts/v5.0.1/contracts/token/ERC20/extensions/ERC20Permit.sol\":1956:1964  deadline */\n      dup4\n        /* \"https://raw.githubusercontent.com/OpenZeppelin/openzeppelin-contracts/v5.0.1/contracts/token/ERC20/extensions/ERC20Permit.sol\":1932:1965  ERC2612ExpiredSignature(deadline) */\n      mload(0x40)\n      0x6279130200000000000000000000000000000000000000000000000000000000\n      dup2\n      mstore\n      0x04\n      add\n      tag_158\n      swap2\n      swap1\n      tag_37\n      jump\t// in\n    tag_158:\n      mload(0x40)\n      dup1\n      swap2\n      sub\n      swap1\n      revert\n        /* \"https://raw.githubusercontent.com/OpenZeppelin/openzeppelin-contracts/v5.0.1/contracts/token/ERC20/extensions/ERC20Permit.sol\":1879:1976  if (block.timestamp > deadline) {... */\n    tag_157:\n        /* \"https://raw.githubusercontent.com/OpenZeppelin/openzeppelin-contracts/v5.0.1/contracts/token/ERC20/extensions/ERC20Permit.sol\":1986:2004  bytes32 structHash */\n      0x00\n        /* \"https://raw.githubusercontent.com/OpenZeppelin/openzeppelin-contracts/v5.0.1/contracts/token/ERC20/extensions/ERC20Permit.sol\":1022:1117  keccak256(\"Permit(address owner,address spender,uint256 value,uint256 nonce,uint256 deadline)\") */\n      0x6e71edae12b1b97f4d1f60370fef10105fa2faae0126114a169c64845d6126c9\n        /* \"https://raw.githubusercontent.com/OpenZeppelin/openzeppelin-contracts/v5.0.1/contracts/token/ERC20/extensions/ERC20Permit.sol\":2045:2050  owner */\n      dup9\n        /* \"https://raw.githubusercontent.com/OpenZeppelin/openzeppelin-contracts/v5.0.1/contracts/token/ERC20/extensions/ERC20Permit.sol\":2052:2059  spender */\n      dup9\n        /* \"https://raw.githubusercontent.com/OpenZeppelin/openzeppelin-contracts/v5.0.1/contracts/token/ERC20/extensions/ERC20Permit.sol\":2061:2066  value */\n      dup9\n        /* \"https://raw.githubusercontent.com/OpenZeppelin/openzeppelin-contracts/v5.0.1/contracts/token/ERC20/extensions/ERC20Permit.sol\":2068:2084  _useNonce(owner) */\n      tag_159\n        /* \"https://raw.githubusercontent.com/OpenZeppelin/openzeppelin-contracts/v5.0.1/contracts/token/ERC20/extensions/ERC20Permit.sol\":2078:2083  owner */\n      dup13\n        /* \"https://raw.githubusercontent.com/OpenZeppelin/openzeppelin-contracts/v5.0.1/contracts/token/ERC20/extensions/ERC20Permit.sol\":2068:2077  _useNonce */\n      tag_160\n        /* \"https://raw.githubusercontent.com/OpenZeppelin/openzeppelin-contracts/v5.0.1/contracts/token/ERC20/extensions/ERC20Permit.sol\":2068:2084  _useNonce(owner) */\n      jump\t// in\n    tag_159:\n        /* \"https://raw.githubusercontent.com/OpenZeppelin/openzeppelin-contracts/v5.0.1/contracts/token/ERC20/extensions/ERC20Permit.sol\":2086:2094  deadline */\n      dup10\n        /* \"https://raw.githubusercontent.com/OpenZeppelin/openzeppelin-contracts/v5.0.1/contracts/token/ERC20/extensions/ERC20Permit.sol\":2017:2095  abi.encode(PERMIT_TYPEHASH, owner, spender, value, _useNonce(owner), deadline) */\n      add(0x20, mload(0x40))\n      tag_161\n      swap7\n      swap6\n      swap5\n      swap4\n      swap3\n      swap2\n      swap1\n      tag_162\n      jump\t// in\n    tag_161:\n      mload(0x40)\n      0x20\n      dup2\n      dup4\n      sub\n      sub\n      dup2\n      mstore\n      swap1\n      0x40\n      mstore\n        /* \"https://raw.githubusercontent.com/OpenZeppelin/openzeppelin-contracts/v5.0.1/contracts/token/ERC20/extensions/ERC20Permit.sol\":2007:2096  keccak256(abi.encode(PERMIT_TYPEHASH, owner, spender, value, _useNonce(owner), deadline)) */\n      dup1\n      mload\n      swap1\n      0x20\n      add\n      keccak256\n        /* \"https://raw.githubusercontent.com/OpenZeppelin/openzeppelin-contracts/v5.0.1/contracts/token/ERC20/extensions/ERC20Permit.sol\":1986:2096  bytes32 structHash = keccak256(abi.encode(PERMIT_TYPEHASH, owner, spender, value, _useNonce(owner), deadline)) */\n      swap1\n      pop\n        /* \"https://raw.githubusercontent.com/OpenZeppelin/openzeppelin-contracts/v5.0.1/contracts/token/ERC20/extensions/ERC20Permit.sol\":2107:2119  bytes32 hash */\n      0x00\n        /* \"https://raw.githubusercontent.com/OpenZeppelin/openzeppelin-contracts/v5.0.1/contracts/token/ERC20/extensions/ERC20Permit.sol\":2122:2150  _hashTypedDataV4(structHash) */\n      tag_163\n        /* \"https://raw.githubusercontent.com/OpenZeppelin/openzeppelin-contracts/v5.0.1/contracts/token/ERC20/extensions/ERC20Permit.sol\":2139:2149  structHash */\n      dup3\n        /* \"https://raw.githubusercontent.com/OpenZeppelin/openzeppelin-contracts/v5.0.1/contracts/token/ERC20/extensions/ERC20Permit.sol\":2122:2138  _hashTypedDataV4 */\n      tag_164\n        /* \"https://raw.githubusercontent.com/OpenZeppelin/openzeppelin-contracts/v5.0.1/contracts/token/ERC20/extensions/ERC20Permit.sol\":2122:2150  _hashTypedDataV4(structHash) */\n      jump\t// in\n    tag_163:\n        /* \"https://raw.githubusercontent.com/OpenZeppelin/openzeppelin-contracts/v5.0.1/contracts/token/ERC20/extensions/ERC20Permit.sol\":2107:2150  bytes32 hash = _hashTypedDataV4(structHash) */\n      swap1\n      pop\n        /* \"https://raw.githubusercontent.com/OpenZeppelin/openzeppelin-contracts/v5.0.1/contracts/token/ERC20/extensions/ERC20Permit.sol\":2161:2175  address signer */\n      0x00\n        /* \"https://raw.githubusercontent.com/OpenZeppelin/openzeppelin-contracts/v5.0.1/contracts/token/ERC20/extensions/ERC20Permit.sol\":2178:2206  ECDSA.recover(hash, v, r, s) */\n      tag_165\n        /* \"https://raw.githubusercontent.com/OpenZeppelin/openzeppelin-contracts/v5.0.1/contracts/token/ERC20/extensions/ERC20Permit.sol\":2192:2196  hash */\n      dup3\n        /* \"https://raw.githubusercontent.com/OpenZeppelin/openzeppelin-contracts/v5.0.1/contracts/token/ERC20/extensions/ERC20Permit.sol\":2198:2199  v */\n      dup8\n        /* \"https://raw.githubusercontent.com/OpenZeppelin/openzeppelin-contracts/v5.0.1/contracts/token/ERC20/extensions/ERC20Permit.sol\":2201:2202  r */\n      dup8\n        /* \"https://raw.githubusercontent.com/OpenZeppelin/openzeppelin-contracts/v5.0.1/contracts/token/ERC20/extensions/ERC20Permit.sol\":2204:2205  s */\n      dup8\n        /* \"https://raw.githubusercontent.com/OpenZeppelin/openzeppelin-contracts/v5.0.1/contracts/token/ERC20/extensions/ERC20Permit.sol\":2178:2191  ECDSA.recover */\n      tag_166\n        /* \"https://raw.githubusercontent.com/OpenZeppelin/openzeppelin-contracts/v5.0.1/contracts/token/ERC20/extensions/ERC20Permit.sol\":2178:2206  ECDSA.recover(hash, v, r, s) */\n      jump\t// in\n    tag_165:\n        /* \"https://raw.githubusercontent.com/OpenZeppelin/openzeppelin-contracts/v5.0.1/contracts/token/ERC20/extensions/ERC20Permit.sol\":2161:2206  address signer = ECDSA.recover(hash, v, r, s) */\n      swap1\n      pop\n        /* \"https://raw.githubusercontent.com/OpenZeppelin/openzeppelin-contracts/v5.0.1/contracts/token/ERC20/extensions/ERC20Permit.sol\":2230:2235  owner */\n      dup10\n        /* \"https://raw.githubusercontent.com/OpenZeppelin/openzeppelin-contracts/v5.0.1/contracts/token/ERC20/extensions/ERC20Permit.sol\":2220:2235  signer != owner */\n      0xffffffffffffffffffffffffffffffffffffffff\n      and\n        /* \"https://raw.githubusercontent.com/OpenZeppelin/openzeppelin-contracts/v5.0.1/contracts/token/ERC20/extensions/ERC20Permit.sol\":2220:2226  signer */\n      dup2\n        /* \"https://raw.githubusercontent.com/OpenZeppelin/openzeppelin-contracts/v5.0.1/contracts/token/ERC20/extensions/ERC20Permit.sol\":2220:2235  signer != owner */\n      0xffffffffffffffffffffffffffffffffffffffff\n      and\n      eq\n        /* \"https://raw.githubusercontent.com/OpenZeppelin/openzeppelin-contracts/v5.0.1/contracts/token/ERC20/extensions/ERC20Permit.sol\":2216:2304  if (signer != owner) {... */\n      tag_167\n      jumpi\n        /* \"https://raw.githubusercontent.com/OpenZeppelin/openzeppelin-contracts/v5.0.1/contracts/token/ERC20/extensions/ERC20Permit.sol\":2279:2285  signer */\n      dup1\n        /* \"https://raw.githubusercontent.com/OpenZeppelin/openzeppelin-contracts/v5.0.1/contracts/token/ERC20/extensions/ERC20Permit.sol\":2287:2292  owner */\n      dup11\n        /* \"https://raw.githubusercontent.com/OpenZeppelin/openzeppelin-contracts/v5.0.1/contracts/token/ERC20/extensions/ERC20Permit.sol\":2258:2293  ERC2612InvalidSigner(signer, owner) */\n      mload(0x40)\n      0x4b800e4600000000000000000000000000000000000000000000000000000000\n      dup2\n      mstore\n      0x04\n      add\n      tag_168\n      swap3\n      swap2\n      swap1\n      tag_169\n      jump\t// in\n    tag_168:\n      mload(0x40)\n      dup1\n      swap2\n      sub\n      swap1\n      revert\n        /* \"https://raw.githubusercontent.com/OpenZeppelin/openzeppelin-contracts/v5.0.1/contracts/token/ERC20/extensions/ERC20Permit.sol\":2216:2304  if (signer != owner) {... */\n    tag_167:\n        /* \"https://raw.githubusercontent.com/OpenZeppelin/openzeppelin-contracts/v5.0.1/contracts/token/ERC20/extensions/ERC20Permit.sol\":2314:2345  _approve(owner, spender, value) */\n      tag_170\n        /* \"https://raw.githubusercontent.com/OpenZeppelin/openzeppelin-contracts/v5.0.1/contracts/token/ERC20/extensions/ERC20Permit.sol\":2323:2328  owner */\n      dup11\n        /* \"https://raw.githubusercontent.com/OpenZeppelin/openzeppelin-contracts/v5.0.1/contracts/token/ERC20/extensions/ERC20Permit.sol\":2330:2337  spender */\n      dup11\n        /* \"https://raw.githubusercontent.com/OpenZeppelin/openzeppelin-contracts/v5.0.1/contracts/token/ERC20/extensions/ERC20Permit.sol\":2339:2344  value */\n      dup11\n        /* \"https://raw.githubusercontent.com/OpenZeppelin/openzeppelin-contracts/v5.0.1/contracts/token/ERC20/extensions/ERC20Permit.sol\":2314:2322  _approve */\n      tag_107\n        /* \"https://raw.githubusercontent.com/OpenZeppelin/openzeppelin-contracts/v5.0.1/contracts/token/ERC20/extensions/ERC20Permit.sol\":2314:2345  _approve(owner, spender, value) */\n      jump\t// in\n    tag_170:\n        /* \"https://raw.githubusercontent.com/OpenZeppelin/openzeppelin-contracts/v5.0.1/contracts/token/ERC20/extensions/ERC20Permit.sol\":1869:2352  {... */\n      pop\n      pop\n      pop\n        /* \"https://raw.githubusercontent.com/OpenZeppelin/openzeppelin-contracts/v5.0.1/contracts/token/ERC20/extensions/ERC20Permit.sol\":1680:2352  function permit(... */\n      pop\n      pop\n      pop\n      pop\n      pop\n      pop\n      pop\n      jump\t// out\n        /* \"https://raw.githubusercontent.com/OpenZeppelin/openzeppelin-contracts/v5.0.1/contracts/token/ERC20/ERC20.sol\":3846:3986  function allowance(address owner, address spender) public view virtual returns (uint256) {... */\n    tag_91:\n        /* \"https://raw.githubusercontent.com/OpenZeppelin/openzeppelin-contracts/v5.0.1/contracts/token/ERC20/ERC20.sol\":3926:3933  uint256 */\n      0x00\n        /* \"https://raw.githubusercontent.com/OpenZeppelin/openzeppelin-contracts/v5.0.1/contracts/token/ERC20/ERC20.sol\":3952:3963  _allowances */\n      0x01\n        /* \"https://raw.githubusercontent.com/OpenZeppelin/openzeppelin-contracts/v5.0.1/contracts/token/ERC20/ERC20.sol\":3952:3970  _allowances[owner] */\n      0x00\n        /* \"https://raw.githubusercontent.com/OpenZeppelin/openzeppelin-contracts/v5.0.1/contracts/token/ERC20/ERC20.sol\":3964:3969  owner */\n      dup5\n        /* \"https://raw.githubusercontent.com/OpenZeppelin/openzeppelin-contracts/v5.0.1/contracts/token/ERC20/ERC20.sol\":3952:3970  _allowances[owner] */\n      0xffffffffffffffffffffffffffffffffffffffff\n      and\n      0xffffffffffffffffffffffffffffffffffffffff\n      and\n      dup2\n      mstore\n      0x20\n      add\n      swap1\n      dup2\n      mstore\n      0x20\n      add\n      0x00\n      keccak256\n        /* \"https://raw.githubusercontent.com/OpenZeppelin/openzeppelin-contracts/v5.0.1/contracts/token/ERC20/ERC20.sol\":3952:3979  _allowances[owner][spender] */\n      0x00\n        /* \"https://raw.githubusercontent.com/OpenZeppelin/openzeppelin-contracts/v5.0.1/contracts/token/ERC20/ERC20.sol\":3971:3978  spender */\n      dup4\n        /* \"https://raw.githubusercontent.com/OpenZeppelin/openzeppelin-contracts/v5.0.1/contracts/token/ERC20/ERC20.sol\":3952:3979  _allowances[owner][spender] */\n      0xffffffffffffffffffffffffffffffffffffffff\n      and\n      0xffffffffffffffffffffffffffffffffffffffff\n      and\n      dup2\n      mstore\n      0x20\n      add\n      swap1\n      dup2\n      mstore\n      0x20\n      add\n      0x00\n      keccak256\n      sload\n        /* \"https://raw.githubusercontent.com/OpenZeppelin/openzeppelin-contracts/v5.0.1/contracts/token/ERC20/ERC20.sol\":3945:3979  return _allowances[owner][spender] */\n      swap1\n      pop\n        /* \"https://raw.githubusercontent.com/OpenZeppelin/openzeppelin-contracts/v5.0.1/contracts/token/ERC20/ERC20.sol\":3846:3986  function allowance(address owner, address spender) public view virtual returns (uint256) {... */\n      swap3\n      swap2\n      pop\n      pop\n      jump\t// out\n        /* \"https://raw.githubusercontent.com/OpenZeppelin/openzeppelin-contracts/v5.0.1/contracts/access/Ownable.sol\":2543:2758  function transferOwnership(address newOwner) public virtual onlyOwner {... */\n    tag_95:\n        /* \"https://raw.githubusercontent.com/OpenZeppelin/openzeppelin-contracts/v5.0.1/contracts/access/Ownable.sol\":1531:1544  _checkOwner() */\n      tag_173\n        /* \"https://raw.githubusercontent.com/OpenZeppelin/openzeppelin-contracts/v5.0.1/contracts/access/Ownable.sol\":1531:1542  _checkOwner */\n      tag_126\n        /* \"https://raw.githubusercontent.com/OpenZeppelin/openzeppelin-contracts/v5.0.1/contracts/access/Ownable.sol\":1531:1544  _checkOwner() */\n      jump\t// in\n    tag_173:\n        /* \"https://raw.githubusercontent.com/OpenZeppelin/openzeppelin-contracts/v5.0.1/contracts/access/Ownable.sol\":2647:2648  0 */\n      0x00\n        /* \"https://raw.githubusercontent.com/OpenZeppelin/openzeppelin-contracts/v5.0.1/contracts/access/Ownable.sol\":2627:2649  newOwner == address(0) */\n      0xffffffffffffffffffffffffffffffffffffffff\n      and\n        /* \"https://raw.githubusercontent.com/OpenZeppelin/openzeppelin-contracts/v5.0.1/contracts/access/Ownable.sol\":2627:2635  newOwner */\n      dup2\n        /* \"https://raw.githubusercontent.com/OpenZeppelin/openzeppelin-contracts/v5.0.1/contracts/access/Ownable.sol\":2627:2649  newOwner == address(0) */\n      0xffffffffffffffffffffffffffffffffffffffff\n      and\n      sub\n        /* \"https://raw.githubusercontent.com/OpenZeppelin/openzeppelin-contracts/v5.0.1/contracts/access/Ownable.sol\":2623:2714  if (newOwner == address(0)) {... */\n      tag_175\n      jumpi\n        /* \"https://raw.githubusercontent.com/OpenZeppelin/openzeppelin-contracts/v5.0.1/contracts/access/Ownable.sol\":2700:2701  0 */\n      0x00\n        /* \"https://raw.githubusercontent.com/OpenZeppelin/openzeppelin-contracts/v5.0.1/contracts/access/Ownable.sol\":2672:2703  OwnableInvalidOwner(address(0)) */\n      mload(0x40)\n      0x1e4fbdf700000000000000000000000000000000000000000000000000000000\n      dup2\n      mstore\n      0x04\n      add\n      tag_176\n      swap2\n      swap1\n      tag_76\n      jump\t// in\n    tag_176:\n      mload(0x40)\n      dup1\n      swap2\n      sub\n      swap1\n      revert\n        /* \"https://raw.githubusercontent.com/OpenZeppelin/openzeppelin-contracts/v5.0.1/contracts/access/Ownable.sol\":2623:2714  if (newOwner == address(0)) {... */\n    tag_175:\n        /* \"https://raw.githubusercontent.com/OpenZeppelin/openzeppelin-contracts/v5.0.1/contracts/access/Ownable.sol\":2723:2751  _transferOwnership(newOwner) */\n      tag_177\n        /* \"https://raw.githubusercontent.com/OpenZeppelin/openzeppelin-contracts/v5.0.1/contracts/access/Ownable.sol\":2742:2750  newOwner */\n      dup2\n        /* \"https://raw.githubusercontent.com/OpenZeppelin/openzeppelin-contracts/v5.0.1/contracts/access/Ownable.sol\":2723:2741  _transferOwnership */\n      tag_129\n        /* \"https://raw.githubusercontent.com/OpenZeppelin/openzeppelin-contracts/v5.0.1/contracts/access/Ownable.sol\":2723:2751  _transferOwnership(newOwner) */\n      jump\t// in\n    tag_177:\n        /* \"https://raw.githubusercontent.com/OpenZeppelin/openzeppelin-contracts/v5.0.1/contracts/access/Ownable.sol\":2543:2758  function transferOwnership(address newOwner) public virtual onlyOwner {... */\n      pop\n      jump\t// out\n        /* \"https://raw.githubusercontent.com/OpenZeppelin/openzeppelin-contracts/v5.0.1/contracts/utils/Context.sol\":656:752  function _msgSender() internal view virtual returns (address) {... */\n    tag_105:\n        /* \"https://raw.githubusercontent.com/OpenZeppelin/openzeppelin-contracts/v5.0.1/contracts/utils/Context.sol\":709:716  address */\n      0x00\n        /* \"https://raw.githubusercontent.com/OpenZeppelin/openzeppelin-contracts/v5.0.1/contracts/utils/Context.sol\":735:745  msg.sender */\n      caller\n        /* \"https://raw.githubusercontent.com/OpenZeppelin/openzeppelin-contracts/v5.0.1/contracts/utils/Context.sol\":728:745  return msg.sender */\n      swap1\n      pop\n        /* \"https://raw.githubusercontent.com/OpenZeppelin/openzeppelin-contracts/v5.0.1/contracts/utils/Context.sol\":656:752  function _msgSender() internal view virtual returns (address) {... */\n      swap1\n      jump\t// out\n        /* \"https://raw.githubusercontent.com/OpenZeppelin/openzeppelin-contracts/v5.0.1/contracts/token/ERC20/ERC20.sol\":8989:9117  function _approve(address owner, address spender, uint256 value) internal {... */\n    tag_107:\n        /* \"https://raw.githubusercontent.com/OpenZeppelin/openzeppelin-contracts/v5.0.1/contracts/token/ERC20/ERC20.sol\":9073:9110  _approve(owner, spender, value, true) */\n      tag_180\n        /* \"https://raw.githubusercontent.com/OpenZeppelin/openzeppelin-contracts/v5.0.1/contracts/token/ERC20/ERC20.sol\":9082:9087  owner */\n      dup4\n        /* \"https://raw.githubusercontent.com/OpenZeppelin/openzeppelin-contracts/v5.0.1/contracts/token/ERC20/ERC20.sol\":9089:9096  spender */\n      dup4\n        /* \"https://raw.githubusercontent.com/OpenZeppelin/openzeppelin-contracts/v5.0.1/contracts/token/ERC20/ERC20.sol\":9098:9103  value */\n      dup4\n        /* \"https://raw.githubusercontent.com/OpenZeppelin/openzeppelin-contracts/v5.0.1/contracts/token/ERC20/ERC20.sol\":9105:9109  true */\n      0x01\n        /* \"https://raw.githubusercontent.com/OpenZeppelin/openzeppelin-contracts/v5.0.1/contracts/token/ERC20/ERC20.sol\":9073:9081  _approve */\n      tag_181\n        /* \"https://raw.githubusercontent.com/OpenZeppelin/openzeppelin-contracts/v5.0.1/contracts/token/ERC20/ERC20.sol\":9073:9110  _approve(owner, spender, value, true) */\n      jump\t// in\n    tag_180:\n        /* \"https://raw.githubusercontent.com/OpenZeppelin/openzeppelin-contracts/v5.0.1/contracts/token/ERC20/ERC20.sol\":8989:9117  function _approve(address owner, address spender, uint256 value) internal {... */\n      pop\n      pop\n      pop\n      jump\t// out\n        /* \"https://raw.githubusercontent.com/OpenZeppelin/openzeppelin-contracts/v5.0.1/contracts/token/ERC20/ERC20.sol\":10663:11140  function _spendAllowance(address owner, address spender, uint256 value) internal virtual {... */\n    tag_112:\n        /* \"https://raw.githubusercontent.com/OpenZeppelin/openzeppelin-contracts/v5.0.1/contracts/token/ERC20/ERC20.sol\":10762:10786  uint256 currentAllowance */\n      0x00\n        /* \"https://raw.githubusercontent.com/OpenZeppelin/openzeppelin-contracts/v5.0.1/contracts/token/ERC20/ERC20.sol\":10789:10814  allowance(owner, spender) */\n      tag_183\n        /* \"https://raw.githubusercontent.com/OpenZeppelin/openzeppelin-contracts/v5.0.1/contracts/token/ERC20/ERC20.sol\":10799:10804  owner */\n      dup5\n        /* \"https://raw.githubusercontent.com/OpenZeppelin/openzeppelin-contracts/v5.0.1/contracts/token/ERC20/ERC20.sol\":10806:10813  spender */\n      dup5\n        /* \"https://raw.githubusercontent.com/OpenZeppelin/openzeppelin-contracts/v5.0.1/contracts/token/ERC20/ERC20.sol\":10789:10798  allowance */\n      tag_91\n        /* \"https://raw.githubusercontent.com/OpenZeppelin/openzeppelin-contracts/v5.0.1/contracts/token/ERC20/ERC20.sol\":10789:10814  allowance(owner, spender) */\n      jump\t// in\n    tag_183:\n        /* \"https://raw.githubusercontent.com/OpenZeppelin/openzeppelin-contracts/v5.0.1/contracts/token/ERC20/ERC20.sol\":10762:10814  uint256 currentAllowance = allowance(owner, spender) */\n      swap1\n      pop\n        /* \"https://raw.githubusercontent.com/OpenZeppelin/openzeppelin-contracts/v5.0.1/contracts/token/ERC20/ERC20.sol\":10848:10865  type(uint256).max */\n      0xffffffffffffffffffffffffffffffffffffffffffffffffffffffffffffffff\n        /* \"https://raw.githubusercontent.com/OpenZeppelin/openzeppelin-contracts/v5.0.1/contracts/token/ERC20/ERC20.sol\":10828:10844  currentAllowance */\n      dup2\n        /* \"https://raw.githubusercontent.com/OpenZeppelin/openzeppelin-contracts/v5.0.1/contracts/token/ERC20/ERC20.sol\":10828:10865  currentAllowance != type(uint256).max */\n      eq\n        /* \"https://raw.githubusercontent.com/OpenZeppelin/openzeppelin-contracts/v5.0.1/contracts/token/ERC20/ERC20.sol\":10824:11134  if (currentAllowance != type(uint256).max) {... */\n      tag_184\n      jumpi\n        /* \"https://raw.githubusercontent.com/OpenZeppelin/openzeppelin-contracts/v5.0.1/contracts/token/ERC20/ERC20.sol\":10904:10909  value */\n      dup2\n        /* \"https://raw.githubusercontent.com/OpenZeppelin/openzeppelin-contracts/v5.0.1/contracts/token/ERC20/ERC20.sol\":10885:10901  currentAllowance */\n      dup2\n        /* \"https://raw.githubusercontent.com/OpenZeppelin/openzeppelin-contracts/v5.0.1/contracts/token/ERC20/ERC20.sol\":10885:10909  currentAllowance < value */\n      lt\n        /* \"https://raw.githubusercontent.com/OpenZeppelin/openzeppelin-contracts/v5.0.1/contracts/token/ERC20/ERC20.sol\":10881:11011  if (currentAllowance < value) {... */\n      iszero\n      tag_185\n      jumpi\n        /* \"https://raw.githubusercontent.com/OpenZeppelin/openzeppelin-contracts/v5.0.1/contracts/token/ERC20/ERC20.sol\":10963:10970  spender */\n      dup3\n        /* \"https://raw.githubusercontent.com/OpenZeppelin/openzeppelin-contracts/v5.0.1/contracts/token/ERC20/ERC20.sol\":10972:10988  currentAllowance */\n      dup2\n        /* \"https://raw.githubusercontent.com/OpenZeppelin/openzeppelin-contracts/v5.0.1/contracts/token/ERC20/ERC20.sol\":10990:10995  value */\n      dup4\n        /* \"https://raw.githubusercontent.com/OpenZeppelin/openzeppelin-contracts/v5.0.1/contracts/token/ERC20/ERC20.sol\":10936:10996  ERC20InsufficientAllowance(spender, currentAllowance, value) */\n      mload(0x40)\n      0xfb8f41b200000000000000000000000000000000000000000000000000000000\n      dup2\n      mstore\n      0x04\n      add\n      tag_186\n      swap4\n      swap3\n      swap2\n      swap1\n      tag_187\n      jump\t// in\n    tag_186:\n      mload(0x40)\n      dup1\n      swap2\n      sub\n      swap1\n      revert\n        /* \"https://raw.githubusercontent.com/OpenZeppelin/openzeppelin-contracts/v5.0.1/contracts/token/ERC20/ERC20.sol\":10881:11011  if (currentAllowance < value) {... */\n    tag_185:\n        /* \"https://raw.githubusercontent.com/OpenZeppelin/openzeppelin-contracts/v5.0.1/contracts/token/ERC20/ERC20.sol\":11052:11109  _approve(owner, spender, currentAllowance - value, false) */\n      tag_188\n        /* \"https://raw.githubusercontent.com/OpenZeppelin/openzeppelin-contracts/v5.0.1/contracts/token/ERC20/ERC20.sol\":11061:11066  owner */\n      dup5\n        /* \"https://raw.githubusercontent.com/OpenZeppelin/openzeppelin-contracts/v5.0.1/contracts/token/ERC20/ERC20.sol\":11068:11075  spender */\n      dup5\n        /* \"https://raw.githubusercontent.com/OpenZeppelin/openzeppelin-contracts/v5.0.1/contracts/token/ERC20/ERC20.sol\":11096:11101  value */\n      dup5\n        /* \"https://raw.githubusercontent.com/OpenZeppelin/openzeppelin-contracts/v5.0.1/contracts/token/ERC20/ERC20.sol\":11077:11093  currentAllowance */\n      dup5\n        /* \"https://raw.githubusercontent.com/OpenZeppelin/openzeppelin-contracts/v5.0.1/contracts/token/ERC20/ERC20.sol\":11077:11101  currentAllowance - value */\n      sub\n        /* \"https://raw.githubusercontent.com/OpenZeppelin/openzeppelin-contracts/v5.0.1/contracts/token/ERC20/ERC20.sol\":11103:11108  false */\n      0x00\n        /* \"https://raw.githubusercontent.com/OpenZeppelin/openzeppelin-contracts/v5.0.1/contracts/token/ERC20/ERC20.sol\":11052:11060  _approve */\n      tag_181\n        /* \"https://raw.githubusercontent.com/OpenZeppelin/openzeppelin-contracts/v5.0.1/contracts/token/ERC20/ERC20.sol\":11052:11109  _approve(owner, spender, currentAllowance - value, false) */\n      jump\t// in\n    tag_188:\n        /* \"https://raw.githubusercontent.com/OpenZeppelin/openzeppelin-contracts/v5.0.1/contracts/token/ERC20/ERC20.sol\":10824:11134  if (currentAllowance != type(uint256).max) {... */\n    tag_184:\n        /* \"https://raw.githubusercontent.com/OpenZeppelin/openzeppelin-contracts/v5.0.1/contracts/token/ERC20/ERC20.sol\":10752:11140  {... */\n      pop\n        /* \"https://raw.githubusercontent.com/OpenZeppelin/openzeppelin-contracts/v5.0.1/contracts/token/ERC20/ERC20.sol\":10663:11140  function _spendAllowance(address owner, address spender, uint256 value) internal virtual {... */\n      pop\n      pop\n      pop\n      jump\t// out\n        /* \"https://raw.githubusercontent.com/OpenZeppelin/openzeppelin-contracts/v5.0.1/contracts/token/ERC20/ERC20.sol\":5656:5956  function _transfer(address from, address to, uint256 value) internal {... */\n    tag_114:\n        /* \"https://raw.githubusercontent.com/OpenZeppelin/openzeppelin-contracts/v5.0.1/contracts/token/ERC20/ERC20.sol\":5755:5756  0 */\n      0x00\n        /* \"https://raw.githubusercontent.com/OpenZeppelin/openzeppelin-contracts/v5.0.1/contracts/token/ERC20/ERC20.sol\":5739:5757  from == address(0) */\n      0xffffffffffffffffffffffffffffffffffffffff\n      and\n        /* \"https://raw.githubusercontent.com/OpenZeppelin/openzeppelin-contracts/v5.0.1/contracts/token/ERC20/ERC20.sol\":5739:5743  from */\n      dup4\n        /* \"https://raw.githubusercontent.com/OpenZeppelin/openzeppelin-contracts/v5.0.1/contracts/token/ERC20/ERC20.sol\":5739:5757  from == address(0) */\n      0xffffffffffffffffffffffffffffffffffffffff\n      and\n      sub\n        /* \"https://raw.githubusercontent.com/OpenZeppelin/openzeppelin-contracts/v5.0.1/contracts/token/ERC20/ERC20.sol\":5735:5821  if (from == address(0)) {... */\n      tag_190\n      jumpi\n        /* \"https://raw.githubusercontent.com/OpenZeppelin/openzeppelin-contracts/v5.0.1/contracts/token/ERC20/ERC20.sol\":5807:5808  0 */\n      0x00\n        /* \"https://raw.githubusercontent.com/OpenZeppelin/openzeppelin-contracts/v5.0.1/contracts/token/ERC20/ERC20.sol\":5780:5810  ERC20InvalidSender(address(0)) */\n      mload(0x40)\n      0x96c6fd1e00000000000000000000000000000000000000000000000000000000\n      dup2\n      mstore\n      0x04\n      add\n      tag_191\n      swap2\n      swap1\n      tag_76\n      jump\t// in\n    tag_191:\n      mload(0x40)\n      dup1\n      swap2\n      sub\n      swap1\n      revert\n        /* \"https://raw.githubusercontent.com/OpenZeppelin/openzeppelin-contracts/v5.0.1/contracts/token/ERC20/ERC20.sol\":5735:5821  if (from == address(0)) {... */\n    tag_190:\n        /* \"https://raw.githubusercontent.com/OpenZeppelin/openzeppelin-contracts/v5.0.1/contracts/token/ERC20/ERC20.sol\":5848:5849  0 */\n      0x00\n        /* \"https://raw.githubusercontent.com/OpenZeppelin/openzeppelin-contracts/v5.0.1/contracts/token/ERC20/ERC20.sol\":5834:5850  to == address(0) */\n      0xffffffffffffffffffffffffffffffffffffffff\n      and\n        /* \"https://raw.githubusercontent.com/OpenZeppelin/openzeppelin-contracts/v5.0.1/contracts/token/ERC20/ERC20.sol\":5834:5836  to */\n      dup3\n        /* \"https://raw.githubusercontent.com/OpenZeppelin/openzeppelin-contracts/v5.0.1/contracts/token/ERC20/ERC20.sol\":5834:5850  to == address(0) */\n      0xffffffffffffffffffffffffffffffffffffffff\n      and\n      sub\n        /* \"https://raw.githubusercontent.com/OpenZeppelin/openzeppelin-contracts/v5.0.1/contracts/token/ERC20/ERC20.sol\":5830:5916  if (to == address(0)) {... */\n      tag_192\n      jumpi\n        /* \"https://raw.githubusercontent.com/OpenZeppelin/openzeppelin-contracts/v5.0.1/contracts/token/ERC20/ERC20.sol\":5902:5903  0 */\n      0x00\n        /* \"https://raw.githubusercontent.com/OpenZeppelin/openzeppelin-contracts/v5.0.1/contracts/token/ERC20/ERC20.sol\":5873:5905  ERC20InvalidReceiver(address(0)) */\n      mload(0x40)\n      0xec442f0500000000000000000000000000000000000000000000000000000000\n      dup2\n      mstore\n      0x04\n      add\n      tag_193\n      swap2\n      swap1\n      tag_76\n      jump\t// in\n    tag_193:\n      mload(0x40)\n      dup1\n      swap2\n      sub\n      swap1\n      revert\n        /* \"https://raw.githubusercontent.com/OpenZeppelin/openzeppelin-contracts/v5.0.1/contracts/token/ERC20/ERC20.sol\":5830:5916  if (to == address(0)) {... */\n    tag_192:\n        /* \"https://raw.githubusercontent.com/OpenZeppelin/openzeppelin-contracts/v5.0.1/contracts/token/ERC20/ERC20.sol\":5925:5949  _update(from, to, value) */\n      tag_194\n        /* \"https://raw.githubusercontent.com/OpenZeppelin/openzeppelin-contracts/v5.0.1/contracts/token/ERC20/ERC20.sol\":5933:5937  from */\n      dup4\n        /* \"https://raw.githubusercontent.com/OpenZeppelin/openzeppelin-contracts/v5.0.1/contracts/token/ERC20/ERC20.sol\":5939:5941  to */\n      dup4\n        /* \"https://raw.githubusercontent.com/OpenZeppelin/openzeppelin-contracts/v5.0.1/contracts/token/ERC20/ERC20.sol\":5943:5948  value */\n      dup4\n        /* \"https://raw.githubusercontent.com/OpenZeppelin/openzeppelin-contracts/v5.0.1/contracts/token/ERC20/ERC20.sol\":5925:5932  _update */\n      tag_195\n        /* \"https://raw.githubusercontent.com/OpenZeppelin/openzeppelin-contracts/v5.0.1/contracts/token/ERC20/ERC20.sol\":5925:5949  _update(from, to, value) */\n      jump\t// in\n    tag_194:\n        /* \"https://raw.githubusercontent.com/OpenZeppelin/openzeppelin-contracts/v5.0.1/contracts/token/ERC20/ERC20.sol\":5656:5956  function _transfer(address from, address to, uint256 value) internal {... */\n      pop\n      pop\n      pop\n      jump\t// out\n        /* \"https://raw.githubusercontent.com/OpenZeppelin/openzeppelin-contracts/v5.0.1/contracts/utils/cryptography/EIP712.sol\":3845:4107  function _domainSeparatorV4() internal view returns (bytes32) {... */\n    tag_118:\n        /* \"https://raw.githubusercontent.com/OpenZeppelin/openzeppelin-contracts/v5.0.1/contracts/utils/cryptography/EIP712.sol\":3898:3905  bytes32 */\n      0x00\n        /* \"https://raw.githubusercontent.com/OpenZeppelin/openzeppelin-contracts/v5.0.1/contracts/utils/cryptography/EIP712.sol\":3938:3949  _cachedThis */\n      immutable(\"0x23b30c5046e4995c9078f409ebd19cb19e8115b7f2f2a6cf69f85df91e580651\")\n        /* \"https://raw.githubusercontent.com/OpenZeppelin/openzeppelin-contracts/v5.0.1/contracts/utils/cryptography/EIP712.sol\":3921:3949  address(this) == _cachedThis */\n      0xffffffffffffffffffffffffffffffffffffffff\n      and\n        /* \"https://raw.githubusercontent.com/OpenZeppelin/openzeppelin-contracts/v5.0.1/contracts/utils/cryptography/EIP712.sol\":3929:3933  this */\n      address\n        /* \"https://raw.githubusercontent.com/OpenZeppelin/openzeppelin-contracts/v5.0.1/contracts/utils/cryptography/EIP712.sol\":3921:3949  address(this) == _cachedThis */\n      0xffffffffffffffffffffffffffffffffffffffff\n      and\n      eq\n        /* \"https://raw.githubusercontent.com/OpenZeppelin/openzeppelin-contracts/v5.0.1/contracts/utils/cryptography/EIP712.sol\":3921:3984  address(this) == _cachedThis && block.chainid == _cachedChainId */\n      dup1\n      iszero\n      tag_197\n      jumpi\n      pop\n        /* \"https://raw.githubusercontent.com/OpenZeppelin/openzeppelin-contracts/v5.0.1/contracts/utils/cryptography/EIP712.sol\":3970:3984  _cachedChainId */\n      immutable(\"0xb224d3706035f84cbefa91be4fb7aa032048ac5ba134db04224b6d55d267d10f\")\n        /* \"https://raw.githubusercontent.com/OpenZeppelin/openzeppelin-contracts/v5.0.1/contracts/utils/cryptography/EIP712.sol\":3953:3966  block.chainid */\n      chainid\n        /* \"https://raw.githubusercontent.com/OpenZeppelin/openzeppelin-contracts/v5.0.1/contracts/utils/cryptography/EIP712.sol\":3953:3984  block.chainid == _cachedChainId */\n      eq\n        /* \"https://raw.githubusercontent.com/OpenZeppelin/openzeppelin-contracts/v5.0.1/contracts/utils/cryptography/EIP712.sol\":3921:3984  address(this) == _cachedThis && block.chainid == _cachedChainId */\n    tag_197:\n        /* \"https://raw.githubusercontent.com/OpenZeppelin/openzeppelin-contracts/v5.0.1/contracts/utils/cryptography/EIP712.sol\":3917:4101  if (address(this) == _cachedThis && block.chainid == _cachedChainId) {... */\n      iszero\n      tag_198\n      jumpi\n        /* \"https://raw.githubusercontent.com/OpenZeppelin/openzeppelin-contracts/v5.0.1/contracts/utils/cryptography/EIP712.sol\":4007:4029  _cachedDomainSeparator */\n      immutable(\"0xab1d64b8ef755eff5932da88d3edeff579bcc60916bb91a53f15681d1de87c95\")\n        /* \"https://raw.githubusercontent.com/OpenZeppelin/openzeppelin-contracts/v5.0.1/contracts/utils/cryptography/EIP712.sol\":4000:4029  return _cachedDomainSeparator */\n      swap1\n      pop\n      jump(tag_196)\n        /* \"https://raw.githubusercontent.com/OpenZeppelin/openzeppelin-contracts/v5.0.1/contracts/utils/cryptography/EIP712.sol\":3917:4101  if (address(this) == _cachedThis && block.chainid == _cachedChainId) {... */\n    tag_198:\n        /* \"https://raw.githubusercontent.com/OpenZeppelin/openzeppelin-contracts/v5.0.1/contracts/utils/cryptography/EIP712.sol\":4067:4090  _buildDomainSeparator() */\n      tag_200\n        /* \"https://raw.githubusercontent.com/OpenZeppelin/openzeppelin-contracts/v5.0.1/contracts/utils/cryptography/EIP712.sol\":4067:4088  _buildDomainSeparator */\n      tag_201\n        /* \"https://raw.githubusercontent.com/OpenZeppelin/openzeppelin-contracts/v5.0.1/contracts/utils/cryptography/EIP712.sol\":4067:4090  _buildDomainSeparator() */\n      jump\t// in\n    tag_200:\n        /* \"https://raw.githubusercontent.com/OpenZeppelin/openzeppelin-contracts/v5.0.1/contracts/utils/cryptography/EIP712.sol\":4060:4090  return _buildDomainSeparator() */\n      swap1\n      pop\n        /* \"https://raw.githubusercontent.com/OpenZeppelin/openzeppelin-contracts/v5.0.1/contracts/utils/cryptography/EIP712.sol\":3845:4107  function _domainSeparatorV4() internal view returns (bytes32) {... */\n    tag_196:\n      swap1\n      jump\t// out\n        /* \"https://raw.githubusercontent.com/OpenZeppelin/openzeppelin-contracts/v5.0.1/contracts/token/ERC20/ERC20.sol\":8247:8453  function _burn(address account, uint256 value) internal {... */\n    tag_122:\n        /* \"https://raw.githubusercontent.com/OpenZeppelin/openzeppelin-contracts/v5.0.1/contracts/token/ERC20/ERC20.sol\":8336:8337  0 */\n      0x00\n        /* \"https://raw.githubusercontent.com/OpenZeppelin/openzeppelin-contracts/v5.0.1/contracts/token/ERC20/ERC20.sol\":8317:8338  account == address(0) */\n      0xffffffffffffffffffffffffffffffffffffffff\n      and\n        /* \"https://raw.githubusercontent.com/OpenZeppelin/openzeppelin-contracts/v5.0.1/contracts/token/ERC20/ERC20.sol\":8317:8324  account */\n      dup3\n        /* \"https://raw.githubusercontent.com/OpenZeppelin/openzeppelin-contracts/v5.0.1/contracts/token/ERC20/ERC20.sol\":8317:8338  account == address(0) */\n      0xffffffffffffffffffffffffffffffffffffffff\n      and\n      sub\n        /* \"https://raw.githubusercontent.com/OpenZeppelin/openzeppelin-contracts/v5.0.1/contracts/token/ERC20/ERC20.sol\":8313:8402  if (account == address(0)) {... */\n      tag_203\n      jumpi\n        /* \"https://raw.githubusercontent.com/OpenZeppelin/openzeppelin-contracts/v5.0.1/contracts/token/ERC20/ERC20.sol\":8388:8389  0 */\n      0x00\n        /* \"https://raw.githubusercontent.com/OpenZeppelin/openzeppelin-contracts/v5.0.1/contracts/token/ERC20/ERC20.sol\":8361:8391  ERC20InvalidSender(address(0)) */\n      mload(0x40)\n      0x96c6fd1e00000000000000000000000000000000000000000000000000000000\n      dup2\n      mstore\n      0x04\n      add\n      tag_204\n      swap2\n      swap1\n      tag_76\n      jump\t// in\n    tag_204:\n      mload(0x40)\n      dup1\n      swap2\n      sub\n      swap1\n      revert\n        /* \"https://raw.githubusercontent.com/OpenZeppelin/openzeppelin-contracts/v5.0.1/contracts/token/ERC20/ERC20.sol\":8313:8402  if (account == address(0)) {... */\n    tag_203:\n        /* \"https://raw.githubusercontent.com/OpenZeppelin/openzeppelin-contracts/v5.0.1/contracts/token/ERC20/ERC20.sol\":8411:8446  _update(account, address(0), value) */\n      tag_205\n        /* \"https://raw.githubusercontent.com/OpenZeppelin/openzeppelin-contracts/v5.0.1/contracts/token/ERC20/ERC20.sol\":8419:8426  account */\n      dup3\n        /* \"https://raw.githubusercontent.com/OpenZeppelin/openzeppelin-contracts/v5.0.1/contracts/token/ERC20/ERC20.sol\":8436:8437  0 */\n      0x00\n        /* \"https://raw.githubusercontent.com/OpenZeppelin/openzeppelin-contracts/v5.0.1/contracts/token/ERC20/ERC20.sol\":8440:8445  value */\n      dup4\n        /* \"https://raw.githubusercontent.com/OpenZeppelin/openzeppelin-contracts/v5.0.1/contracts/token/ERC20/ERC20.sol\":8411:8418  _update */\n      tag_195\n        /* \"https://raw.githubusercontent.com/OpenZeppelin/openzeppelin-contracts/v5.0.1/contracts/token/ERC20/ERC20.sol\":8411:8446  _update(account, address(0), value) */\n      jump\t// in\n    tag_205:\n        /* \"https://raw.githubusercontent.com/OpenZeppelin/openzeppelin-contracts/v5.0.1/contracts/token/ERC20/ERC20.sol\":8247:8453  function _burn(address account, uint256 value) internal {... */\n      pop\n      pop\n      jump\t// out\n        /* \"https://raw.githubusercontent.com/OpenZeppelin/openzeppelin-contracts/v5.0.1/contracts/access/Ownable.sol\":1796:1958  function _checkOwner() internal view virtual {... */\n    tag_126:\n        /* \"https://raw.githubusercontent.com/OpenZeppelin/openzeppelin-contracts/v5.0.1/contracts/access/Ownable.sol\":1866:1878  _msgSender() */\n      tag_207\n        /* \"https://raw.githubusercontent.com/OpenZeppelin/openzeppelin-contracts/v5.0.1/contracts/access/Ownable.sol\":1866:1876  _msgSender */\n      tag_105\n        /* \"https://raw.githubusercontent.com/OpenZeppelin/openzeppelin-contracts/v5.0.1/contracts/access/Ownable.sol\":1866:1878  _msgSender() */\n      jump\t// in\n    tag_207:\n        /* \"https://raw.githubusercontent.com/OpenZeppelin/openzeppelin-contracts/v5.0.1/contracts/access/Ownable.sol\":1855:1878  owner() != _msgSender() */\n      0xffffffffffffffffffffffffffffffffffffffff\n      and\n        /* \"https://raw.githubusercontent.com/OpenZeppelin/openzeppelin-contracts/v5.0.1/contracts/access/Ownable.sol\":1855:1862  owner() */\n      tag_208\n        /* \"https://raw.githubusercontent.com/OpenZeppelin/openzeppelin-contracts/v5.0.1/contracts/access/Ownable.sol\":1855:1860  owner */\n      tag_74\n        /* \"https://raw.githubusercontent.com/OpenZeppelin/openzeppelin-contracts/v5.0.1/contracts/access/Ownable.sol\":1855:1862  owner() */\n      jump\t// in\n    tag_208:\n        /* \"https://raw.githubusercontent.com/OpenZeppelin/openzeppelin-contracts/v5.0.1/contracts/access/Ownable.sol\":1855:1878  owner() != _msgSender() */\n      0xffffffffffffffffffffffffffffffffffffffff\n      and\n      eq\n        /* \"https://raw.githubusercontent.com/OpenZeppelin/openzeppelin-contracts/v5.0.1/contracts/access/Ownable.sol\":1851:1952  if (owner() != _msgSender()) {... */\n      tag_209\n      jumpi\n        /* \"https://raw.githubusercontent.com/OpenZeppelin/openzeppelin-contracts/v5.0.1/contracts/access/Ownable.sol\":1928:1940  _msgSender() */\n      tag_210\n        /* \"https://raw.githubusercontent.com/OpenZeppelin/openzeppelin-contracts/v5.0.1/contracts/access/Ownable.sol\":1928:1938  _msgSender */\n      tag_105\n        /* \"https://raw.githubusercontent.com/OpenZeppelin/openzeppelin-contracts/v5.0.1/contracts/access/Ownable.sol\":1928:1940  _msgSender() */\n      jump\t// in\n    tag_210:\n        /* \"https://raw.githubusercontent.com/OpenZeppelin/openzeppelin-contracts/v5.0.1/contracts/access/Ownable.sol\":1901:1941  OwnableUnauthorizedAccount(_msgSender()) */\n      mload(0x40)\n      0x118cdaa700000000000000000000000000000000000000000000000000000000\n      dup2\n      mstore\n      0x04\n      add\n      tag_211\n      swap2\n      swap1\n      tag_76\n      jump\t// in\n    tag_211:\n      mload(0x40)\n      dup1\n      swap2\n      sub\n      swap1\n      revert\n        /* \"https://raw.githubusercontent.com/OpenZeppelin/openzeppelin-contracts/v5.0.1/contracts/access/Ownable.sol\":1851:1952  if (owner() != _msgSender()) {... */\n    tag_209:\n        /* \"https://raw.githubusercontent.com/OpenZeppelin/openzeppelin-contracts/v5.0.1/contracts/access/Ownable.sol\":1796:1958  function _checkOwner() internal view virtual {... */\n      jump\t// out\n        /* \"https://raw.githubusercontent.com/OpenZeppelin/openzeppelin-contracts/v5.0.1/contracts/access/Ownable.sol\":2912:3099  function _transferOwnership(address newOwner) internal virtual {... */\n    tag_129:\n        /* \"https://raw.githubusercontent.com/OpenZeppelin/openzeppelin-contracts/v5.0.1/contracts/access/Ownable.sol\":2985:3001  address oldOwner */\n      0x00\n        /* \"https://raw.githubusercontent.com/OpenZeppelin/openzeppelin-contracts/v5.0.1/contracts/access/Ownable.sol\":3004:3010  _owner */\n      0x05\n      0x00\n      swap1\n      sload\n      swap1\n      0x0100\n      exp\n      swap1\n      div\n      0xffffffffffffffffffffffffffffffffffffffff\n      and\n        /* \"https://raw.githubusercontent.com/OpenZeppelin/openzeppelin-contracts/v5.0.1/contracts/access/Ownable.sol\":2985:3010  address oldOwner = _owner */\n      swap1\n      pop\n        /* \"https://raw.githubusercontent.com/OpenZeppelin/openzeppelin-contracts/v5.0.1/contracts/access/Ownable.sol\":3029:3037  newOwner */\n      dup2\n        /* \"https://raw.githubusercontent.com/OpenZeppelin/openzeppelin-contracts/v5.0.1/contracts/access/Ownable.sol\":3020:3026  _owner */\n      0x05\n      0x00\n        /* \"https://raw.githubusercontent.com/OpenZeppelin/openzeppelin-contracts/v5.0.1/contracts/access/Ownable.sol\":3020:3037  _owner = newOwner */\n      0x0100\n      exp\n      dup2\n      sload\n      dup2\n      0xffffffffffffffffffffffffffffffffffffffff\n      mul\n      not\n      and\n      swap1\n      dup4\n      0xffffffffffffffffffffffffffffffffffffffff\n      and\n      mul\n      or\n      swap1\n      sstore\n      pop\n        /* \"https://raw.githubusercontent.com/OpenZeppelin/openzeppelin-contracts/v5.0.1/contracts/access/Ownable.sol\":3083:3091  newOwner */\n      dup2\n        /* \"https://raw.githubusercontent.com/OpenZeppelin/openzeppelin-contracts/v5.0.1/contracts/access/Ownable.sol\":3052:3092  OwnershipTransferred(oldOwner, newOwner) */\n      0xffffffffffffffffffffffffffffffffffffffff\n      and\n        /* \"https://raw.githubusercontent.com/OpenZeppelin/openzeppelin-contracts/v5.0.1/contracts/access/Ownable.sol\":3073:3081  oldOwner */\n      dup2\n        /* \"https://raw.githubusercontent.com/OpenZeppelin/openzeppelin-contracts/v5.0.1/contracts/access/Ownable.sol\":3052:3092  OwnershipTransferred(oldOwner, newOwner) */\n      0xffffffffffffffffffffffffffffffffffffffff\n      and\n      0x8be0079c531659141344cd1fd0a4f28419497f9722a3daafe3b4186f6b6457e0\n      mload(0x40)\n      mload(0x40)\n      dup1\n      swap2\n      sub\n      swap1\n      log3\n        /* \"https://raw.githubusercontent.com/OpenZeppelin/openzeppelin-contracts/v5.0.1/contracts/access/Ownable.sol\":2975:3099  {... */\n      pop\n        /* \"https://raw.githubusercontent.com/OpenZeppelin/openzeppelin-contracts/v5.0.1/contracts/access/Ownable.sol\":2912:3099  function _transferOwnership(address newOwner) internal virtual {... */\n      pop\n      jump\t// out\n        /* \"https://raw.githubusercontent.com/OpenZeppelin/openzeppelin-contracts/v5.0.1/contracts/utils/Nonces.sol\":538:645  function nonces(address owner) public view virtual returns (uint256) {... */\n    tag_136:\n        /* \"https://raw.githubusercontent.com/OpenZeppelin/openzeppelin-contracts/v5.0.1/contracts/utils/Nonces.sol\":598:605  uint256 */\n      0x00\n        /* \"https://raw.githubusercontent.com/OpenZeppelin/openzeppelin-contracts/v5.0.1/contracts/utils/Nonces.sol\":624:631  _nonces */\n      0x08\n        /* \"https://raw.githubusercontent.com/OpenZeppelin/openzeppelin-contracts/v5.0.1/contracts/utils/Nonces.sol\":624:638  _nonces[owner] */\n      0x00\n        /* \"https://raw.githubusercontent.com/OpenZeppelin/openzeppelin-contracts/v5.0.1/contracts/utils/Nonces.sol\":632:637  owner */\n      dup4\n        /* \"https://raw.githubusercontent.com/OpenZeppelin/openzeppelin-contracts/v5.0.1/contracts/utils/Nonces.sol\":624:638  _nonces[owner] */\n      0xffffffffffffffffffffffffffffffffffffffff\n      and\n      0xffffffffffffffffffffffffffffffffffffffff\n      and\n      dup2\n      mstore\n      0x20\n      add\n      swap1\n      dup2\n      mstore\n      0x20\n      add\n      0x00\n      keccak256\n      sload\n        /* \"https://raw.githubusercontent.com/OpenZeppelin/openzeppelin-contracts/v5.0.1/contracts/utils/Nonces.sol\":617:638  return _nonces[owner] */\n      swap1\n      pop\n        /* \"https://raw.githubusercontent.com/OpenZeppelin/openzeppelin-contracts/v5.0.1/contracts/utils/Nonces.sol\":538:645  function nonces(address owner) public view virtual returns (uint256) {... */\n      swap2\n      swap1\n      pop\n      jump\t// out\n        /* \"https://raw.githubusercontent.com/OpenZeppelin/openzeppelin-contracts/v5.0.1/contracts/utils/cryptography/EIP712.sol\":6021:6147  function _EIP712Name() internal view returns (string memory) {... */\n    tag_139:\n        /* \"https://raw.githubusercontent.com/OpenZeppelin/openzeppelin-contracts/v5.0.1/contracts/utils/cryptography/EIP712.sol\":6067:6080  string memory */\n      0x60\n        /* \"https://raw.githubusercontent.com/OpenZeppelin/openzeppelin-contracts/v5.0.1/contracts/utils/cryptography/EIP712.sol\":6099:6140  _name.toStringWithFallback(_nameFallback) */\n      tag_215\n        /* \"https://raw.githubusercontent.com/OpenZeppelin/openzeppelin-contracts/v5.0.1/contracts/utils/cryptography/EIP712.sol\":6126:6139  _nameFallback */\n      0x06\n        /* \"https://raw.githubusercontent.com/OpenZeppelin/openzeppelin-contracts/v5.0.1/contracts/utils/cryptography/EIP712.sol\":6099:6104  _name */\n      immutable(\"0x18bae0ee458c25143fb8e230f7843037a5f92e7126deb0bc9455db49315639f6\")\n        /* \"https://raw.githubusercontent.com/OpenZeppelin/openzeppelin-contracts/v5.0.1/contracts/utils/cryptography/EIP712.sol\":6099:6125  _name.toStringWithFallback */\n      tag_216\n      swap1\n        /* \"https://raw.githubusercontent.com/OpenZeppelin/openzeppelin-contracts/v5.0.1/contracts/utils/cryptography/EIP712.sol\":6099:6140  _name.toStringWithFallback(_nameFallback) */\n      swap2\n      swap1\n      0xffffffff\n      and\n      jump\t// in\n    tag_215:\n        /* \"https://raw.githubusercontent.com/OpenZeppelin/openzeppelin-contracts/v5.0.1/contracts/utils/cryptography/EIP712.sol\":6092:6140  return _name.toStringWithFallback(_nameFallback) */\n      swap1\n      pop\n        /* \"https://raw.githubusercontent.com/OpenZeppelin/openzeppelin-contracts/v5.0.1/contracts/utils/cryptography/EIP712.sol\":6021:6147  function _EIP712Name() internal view returns (string memory) {... */\n      swap1\n      jump\t// out\n        /* \"https://raw.githubusercontent.com/OpenZeppelin/openzeppelin-contracts/v5.0.1/contracts/utils/cryptography/EIP712.sol\":6473:6608  function _EIP712Version() internal view returns (string memory) {... */\n    tag_141:\n        /* \"https://raw.githubusercontent.com/OpenZeppelin/openzeppelin-contracts/v5.0.1/contracts/utils/cryptography/EIP712.sol\":6522:6535  string memory */\n      0x60\n        /* \"https://raw.githubusercontent.com/OpenZeppelin/openzeppelin-contracts/v5.0.1/contracts/utils/cryptography/EIP712.sol\":6554:6601  _version.toStringWithFallback(_versionFallback) */\n      tag_218\n        /* \"https://raw.githubusercontent.com/OpenZeppelin/openzeppelin-contracts/v5.0.1/contracts/utils/cryptography/EIP712.sol\":6584:6600  _versionFallback */\n      0x07\n        /* \"https://raw.githubusercontent.com/OpenZeppelin/openzeppelin-contracts/v5.0.1/contracts/utils/cryptography/EIP712.sol\":6554:6562  _version */\n      immutable(\"0x120fc72bde94608fbe713d37dfe0d9bd4591be2d34314526ab85973ef2dd19cf\")\n        /* \"https://raw.githubusercontent.com/OpenZeppelin/openzeppelin-contracts/v5.0.1/contracts/utils/cryptography/EIP712.sol\":6554:6583  _version.toStringWithFallback */\n      tag_216\n      swap1\n        /* \"https://raw.githubusercontent.com/OpenZeppelin/openzeppelin-contracts/v5.0.1/contracts/utils/cryptography/EIP712.sol\":6554:6601  _version.toStringWithFallback(_versionFallback) */\n      swap2\n      swap1\n      0xffffffff\n      and\n      jump\t// in\n    tag_218:\n        /* \"https://raw.githubusercontent.com/OpenZeppelin/openzeppelin-contracts/v5.0.1/contracts/utils/cryptography/EIP712.sol\":6547:6601  return _version.toStringWithFallback(_versionFallback) */\n      swap1\n      pop\n        /* \"https://raw.githubusercontent.com/OpenZeppelin/openzeppelin-contracts/v5.0.1/contracts/utils/cryptography/EIP712.sol\":6473:6608  function _EIP712Version() internal view returns (string memory) {... */\n      swap1\n      jump\t// out\n        /* \"https://raw.githubusercontent.com/OpenZeppelin/openzeppelin-contracts/v5.0.1/contracts/utils/Nonces.sol\":759:1154  function _useNonce(address owner) internal virtual returns (uint256) {... */\n    tag_160:\n        /* \"https://raw.githubusercontent.com/OpenZeppelin/openzeppelin-contracts/v5.0.1/contracts/utils/Nonces.sol\":819:826  uint256 */\n      0x00\n        /* \"https://raw.githubusercontent.com/OpenZeppelin/openzeppelin-contracts/v5.0.1/contracts/utils/Nonces.sol\":1121:1128  _nonces */\n      0x08\n        /* \"https://raw.githubusercontent.com/OpenZeppelin/openzeppelin-contracts/v5.0.1/contracts/utils/Nonces.sol\":1121:1135  _nonces[owner] */\n      0x00\n        /* \"https://raw.githubusercontent.com/OpenZeppelin/openzeppelin-contracts/v5.0.1/contracts/utils/Nonces.sol\":1129:1134  owner */\n      dup4\n        /* \"https://raw.githubusercontent.com/OpenZeppelin/openzeppelin-contracts/v5.0.1/contracts/utils/Nonces.sol\":1121:1135  _nonces[owner] */\n      0xffffffffffffffffffffffffffffffffffffffff\n      and\n      0xffffffffffffffffffffffffffffffffffffffff\n      and\n      dup2\n      mstore\n      0x20\n      add\n      swap1\n      dup2\n      mstore\n      0x20\n      add\n      0x00\n      keccak256\n      0x00\n        /* \"https://raw.githubusercontent.com/OpenZeppelin/openzeppelin-contracts/v5.0.1/contracts/utils/Nonces.sol\":1121:1137  _nonces[owner]++ */\n      dup2\n      sload\n      dup1\n      swap3\n      swap2\n      swap1\n      0x01\n      add\n      swap2\n      swap1\n      pop\n      sstore\n        /* \"https://raw.githubusercontent.com/OpenZeppelin/openzeppelin-contracts/v5.0.1/contracts/utils/Nonces.sol\":1114:1137  return _nonces[owner]++ */\n      swap1\n      pop\n        /* \"https://raw.githubusercontent.com/OpenZeppelin/openzeppelin-contracts/v5.0.1/contracts/utils/Nonces.sol\":759:1154  function _useNonce(address owner) internal virtual returns (uint256) {... */\n      swap2\n      swap1\n      pop\n      jump\t// out\n        /* \"https://raw.githubusercontent.com/OpenZeppelin/openzeppelin-contracts/v5.0.1/contracts/utils/cryptography/EIP712.sol\":4917:5093  function _hashTypedDataV4(bytes32 structHash) internal view virtual returns (bytes32) {... */\n    tag_164:\n        /* \"https://raw.githubusercontent.com/OpenZeppelin/openzeppelin-contracts/v5.0.1/contracts/utils/cryptography/EIP712.sol\":4994:5001  bytes32 */\n      0x00\n        /* \"https://raw.githubusercontent.com/OpenZeppelin/openzeppelin-contracts/v5.0.1/contracts/utils/cryptography/EIP712.sol\":5020:5086  MessageHashUtils.toTypedDataHash(_domainSeparatorV4(), structHash) */\n      tag_221\n        /* \"https://raw.githubusercontent.com/OpenZeppelin/openzeppelin-contracts/v5.0.1/contracts/utils/cryptography/EIP712.sol\":5053:5073  _domainSeparatorV4() */\n      tag_222\n        /* \"https://raw.githubusercontent.com/OpenZeppelin/openzeppelin-contracts/v5.0.1/contracts/utils/cryptography/EIP712.sol\":5053:5071  _domainSeparatorV4 */\n      tag_118\n        /* \"https://raw.githubusercontent.com/OpenZeppelin/openzeppelin-contracts/v5.0.1/contracts/utils/cryptography/EIP712.sol\":5053:5073  _domainSeparatorV4() */\n      jump\t// in\n    tag_222:\n        /* \"https://raw.githubusercontent.com/OpenZeppelin/openzeppelin-contracts/v5.0.1/contracts/utils/cryptography/EIP712.sol\":5075:5085  structHash */\n      dup4\n        /* \"https://raw.githubusercontent.com/OpenZeppelin/openzeppelin-contracts/v5.0.1/contracts/utils/cryptography/EIP712.sol\":5020:5052  MessageHashUtils.toTypedDataHash */\n      tag_223\n        /* \"https://raw.githubusercontent.com/OpenZeppelin/openzeppelin-contracts/v5.0.1/contracts/utils/cryptography/EIP712.sol\":5020:5086  MessageHashUtils.toTypedDataHash(_domainSeparatorV4(), structHash) */\n      jump\t// in\n    tag_221:\n        /* \"https://raw.githubusercontent.com/OpenZeppelin/openzeppelin-contracts/v5.0.1/contracts/utils/cryptography/EIP712.sol\":5013:5086  return MessageHashUtils.toTypedDataHash(_domainSeparatorV4(), structHash) */\n      swap1\n      pop\n        /* \"https://raw.githubusercontent.com/OpenZeppelin/openzeppelin-contracts/v5.0.1/contracts/utils/cryptography/EIP712.sol\":4917:5093  function _hashTypedDataV4(bytes32 structHash) internal view virtual returns (bytes32) {... */\n      swap2\n      swap1\n      pop\n      jump\t// out\n        /* \"https://raw.githubusercontent.com/OpenZeppelin/openzeppelin-contracts/v5.0.1/contracts/utils/cryptography/ECDSA.sol\":6772:7032  function recover(bytes32 hash, uint8 v, bytes32 r, bytes32 s) internal pure returns (address) {... */\n    tag_166:\n        /* \"https://raw.githubusercontent.com/OpenZeppelin/openzeppelin-contracts/v5.0.1/contracts/utils/cryptography/ECDSA.sol\":6857:6864  address */\n      0x00\n        /* \"https://raw.githubusercontent.com/OpenZeppelin/openzeppelin-contracts/v5.0.1/contracts/utils/cryptography/ECDSA.sol\":6877:6894  address recovered */\n      0x00\n        /* \"https://raw.githubusercontent.com/OpenZeppelin/openzeppelin-contracts/v5.0.1/contracts/utils/cryptography/ECDSA.sol\":6896:6914  RecoverError error */\n      0x00\n        /* \"https://raw.githubusercontent.com/OpenZeppelin/openzeppelin-contracts/v5.0.1/contracts/utils/cryptography/ECDSA.sol\":6916:6932  bytes32 errorArg */\n      0x00\n        /* \"https://raw.githubusercontent.com/OpenZeppelin/openzeppelin-contracts/v5.0.1/contracts/utils/cryptography/ECDSA.sol\":6936:6961  tryRecover(hash, v, r, s) */\n      tag_225\n        /* \"https://raw.githubusercontent.com/OpenZeppelin/openzeppelin-contracts/v5.0.1/contracts/utils/cryptography/ECDSA.sol\":6947:6951  hash */\n      dup9\n        /* \"https://raw.githubusercontent.com/OpenZeppelin/openzeppelin-contracts/v5.0.1/contracts/utils/cryptography/ECDSA.sol\":6953:6954  v */\n      dup9\n        /* \"https://raw.githubusercontent.com/OpenZeppelin/openzeppelin-contracts/v5.0.1/contracts/utils/cryptography/ECDSA.sol\":6956:6957  r */\n      dup9\n        /* \"https://raw.githubusercontent.com/OpenZeppelin/openzeppelin-contracts/v5.0.1/contracts/utils/cryptography/ECDSA.sol\":6959:6960  s */\n      dup9\n        /* \"https://raw.githubusercontent.com/OpenZeppelin/openzeppelin-contracts/v5.0.1/contracts/utils/cryptography/ECDSA.sol\":6936:6946  tryRecover */\n      tag_226\n        /* \"https://raw.githubusercontent.com/OpenZeppelin/openzeppelin-contracts/v5.0.1/contracts/utils/cryptography/ECDSA.sol\":6936:6961  tryRecover(hash, v, r, s) */\n      jump\t// in\n    tag_225:\n        /* \"https://raw.githubusercontent.com/OpenZeppelin/openzeppelin-contracts/v5.0.1/contracts/utils/cryptography/ECDSA.sol\":6876:6961  (address recovered, RecoverError error, bytes32 errorArg) = tryRecover(hash, v, r, s) */\n      swap3\n      pop\n      swap3\n      pop\n      swap3\n      pop\n        /* \"https://raw.githubusercontent.com/OpenZeppelin/openzeppelin-contracts/v5.0.1/contracts/utils/cryptography/ECDSA.sol\":6971:6999  _throwError(error, errorArg) */\n      tag_227\n        /* \"https://raw.githubusercontent.com/OpenZeppelin/openzeppelin-contracts/v5.0.1/contracts/utils/cryptography/ECDSA.sol\":6983:6988  error */\n      dup3\n        /* \"https://raw.githubusercontent.com/OpenZeppelin/openzeppelin-contracts/v5.0.1/contracts/utils/cryptography/ECDSA.sol\":6990:6998  errorArg */\n      dup3\n        /* \"https://raw.githubusercontent.com/OpenZeppelin/openzeppelin-contracts/v5.0.1/contracts/utils/cryptography/ECDSA.sol\":6971:6982  _throwError */\n      tag_228\n        /* \"https://raw.githubusercontent.com/OpenZeppelin/openzeppelin-contracts/v5.0.1/contracts/utils/cryptography/ECDSA.sol\":6971:6999  _throwError(error, errorArg) */\n      jump\t// in\n    tag_227:\n        /* \"https://raw.githubusercontent.com/OpenZeppelin/openzeppelin-contracts/v5.0.1/contracts/utils/cryptography/ECDSA.sol\":7016:7025  recovered */\n      dup3\n        /* \"https://raw.githubusercontent.com/OpenZeppelin/openzeppelin-contracts/v5.0.1/contracts/utils/cryptography/ECDSA.sol\":7009:7025  return recovered */\n      swap4\n      pop\n      pop\n      pop\n      pop\n        /* \"https://raw.githubusercontent.com/OpenZeppelin/openzeppelin-contracts/v5.0.1/contracts/utils/cryptography/ECDSA.sol\":6772:7032  function recover(bytes32 hash, uint8 v, bytes32 r, bytes32 s) internal pure returns (address) {... */\n      swap5\n      swap4\n      pop\n      pop\n      pop\n      pop\n      jump\t// out\n        /* \"https://raw.githubusercontent.com/OpenZeppelin/openzeppelin-contracts/v5.0.1/contracts/token/ERC20/ERC20.sol\":9949:10381  function _approve(address owner, address spender, uint256 value, bool emitEvent) internal virtual {... */\n    tag_181:\n        /* \"https://raw.githubusercontent.com/OpenZeppelin/openzeppelin-contracts/v5.0.1/contracts/token/ERC20/ERC20.sol\":10078:10079  0 */\n      0x00\n        /* \"https://raw.githubusercontent.com/OpenZeppelin/openzeppelin-contracts/v5.0.1/contracts/token/ERC20/ERC20.sol\":10061:10080  owner == address(0) */\n      0xffffffffffffffffffffffffffffffffffffffff\n      and\n        /* \"https://raw.githubusercontent.com/OpenZeppelin/openzeppelin-contracts/v5.0.1/contracts/token/ERC20/ERC20.sol\":10061:10066  owner */\n      dup5\n        /* \"https://raw.githubusercontent.com/OpenZeppelin/openzeppelin-contracts/v5.0.1/contracts/token/ERC20/ERC20.sol\":10061:10080  owner == address(0) */\n      0xffffffffffffffffffffffffffffffffffffffff\n      and\n      sub\n        /* \"https://raw.githubusercontent.com/OpenZeppelin/openzeppelin-contracts/v5.0.1/contracts/token/ERC20/ERC20.sol\":10057:10146  if (owner == address(0)) {... */\n      tag_230\n      jumpi\n        /* \"https://raw.githubusercontent.com/OpenZeppelin/openzeppelin-contracts/v5.0.1/contracts/token/ERC20/ERC20.sol\":10132:10133  0 */\n      0x00\n        /* \"https://raw.githubusercontent.com/OpenZeppelin/openzeppelin-contracts/v5.0.1/contracts/token/ERC20/ERC20.sol\":10103:10135  ERC20InvalidApprover(address(0)) */\n      mload(0x40)\n      0xe602df0500000000000000000000000000000000000000000000000000000000\n      dup2\n      mstore\n      0x04\n      add\n      tag_231\n      swap2\n      swap1\n      tag_76\n      jump\t// in\n    tag_231:\n      mload(0x40)\n      dup1\n      swap2\n      sub\n      swap1\n      revert\n        /* \"https://raw.githubusercontent.com/OpenZeppelin/openzeppelin-contracts/v5.0.1/contracts/token/ERC20/ERC20.sol\":10057:10146  if (owner == address(0)) {... */\n    tag_230:\n        /* \"https://raw.githubusercontent.com/OpenZeppelin/openzeppelin-contracts/v5.0.1/contracts/token/ERC20/ERC20.sol\":10178:10179  0 */\n      0x00\n        /* \"https://raw.githubusercontent.com/OpenZeppelin/openzeppelin-contracts/v5.0.1/contracts/token/ERC20/ERC20.sol\":10159:10180  spender == address(0) */\n      0xffffffffffffffffffffffffffffffffffffffff\n      and\n        /* \"https://raw.githubusercontent.com/OpenZeppelin/openzeppelin-contracts/v5.0.1/contracts/token/ERC20/ERC20.sol\":10159:10166  spender */\n      dup4\n        /* \"https://raw.githubusercontent.com/OpenZeppelin/openzeppelin-contracts/v5.0.1/contracts/token/ERC20/ERC20.sol\":10159:10180  spender == address(0) */\n      0xffffffffffffffffffffffffffffffffffffffff\n      and\n      sub\n        /* \"https://raw.githubusercontent.com/OpenZeppelin/openzeppelin-contracts/v5.0.1/contracts/token/ERC20/ERC20.sol\":10155:10245  if (spender == address(0)) {... */\n      tag_232\n      jumpi\n        /* \"https://raw.githubusercontent.com/OpenZeppelin/openzeppelin-contracts/v5.0.1/contracts/token/ERC20/ERC20.sol\":10231:10232  0 */\n      0x00\n        /* \"https://raw.githubusercontent.com/OpenZeppelin/openzeppelin-contracts/v5.0.1/contracts/token/ERC20/ERC20.sol\":10203:10234  ERC20InvalidSpender(address(0)) */\n      mload(0x40)\n      0x94280d6200000000000000000000000000000000000000000000000000000000\n      dup2\n      mstore\n      0x04\n      add\n      tag_233\n      swap2\n      swap1\n      tag_76\n      jump\t// in\n    tag_233:\n      mload(0x40)\n      dup1\n      swap2\n      sub\n      swap1\n      revert\n        /* \"https://raw.githubusercontent.com/OpenZeppelin/openzeppelin-contracts/v5.0.1/contracts/token/ERC20/ERC20.sol\":10155:10245  if (spender == address(0)) {... */\n    tag_232:\n        /* \"https://raw.githubusercontent.com/OpenZeppelin/openzeppelin-contracts/v5.0.1/contracts/token/ERC20/ERC20.sol\":10284:10289  value */\n      dup2\n        /* \"https://raw.githubusercontent.com/OpenZeppelin/openzeppelin-contracts/v5.0.1/contracts/token/ERC20/ERC20.sol\":10254:10265  _allowances */\n      0x01\n        /* \"https://raw.githubusercontent.com/OpenZeppelin/openzeppelin-contracts/v5.0.1/contracts/token/ERC20/ERC20.sol\":10254:10272  _allowances[owner] */\n      0x00\n        /* \"https://raw.githubusercontent.com/OpenZeppelin/openzeppelin-contracts/v5.0.1/contracts/token/ERC20/ERC20.sol\":10266:10271  owner */\n      dup7\n        /* \"https://raw.githubusercontent.com/OpenZeppelin/openzeppelin-contracts/v5.0.1/contracts/token/ERC20/ERC20.sol\":10254:10272  _allowances[owner] */\n      0xffffffffffffffffffffffffffffffffffffffff\n      and\n      0xffffffffffffffffffffffffffffffffffffffff\n      and\n      dup2\n      mstore\n      0x20\n      add\n      swap1\n      dup2\n      mstore\n      0x20\n      add\n      0x00\n      keccak256\n        /* \"https://raw.githubusercontent.com/OpenZeppelin/openzeppelin-contracts/v5.0.1/contracts/token/ERC20/ERC20.sol\":10254:10281  _allowances[owner][spender] */\n      0x00\n        /* \"https://raw.githubusercontent.com/OpenZeppelin/openzeppelin-contracts/v5.0.1/contracts/token/ERC20/ERC20.sol\":10273:10280  spender */\n      dup6\n        /* \"https://raw.githubusercontent.com/OpenZeppelin/openzeppelin-contracts/v5.0.1/contracts/token/ERC20/ERC20.sol\":10254:10281  _allowances[owner][spender] */\n      0xffffffffffffffffffffffffffffffffffffffff\n      and\n      0xffffffffffffffffffffffffffffffffffffffff\n      and\n      dup2\n      mstore\n      0x20\n      add\n      swap1\n      dup2\n      mstore\n      0x20\n      add\n      0x00\n      keccak256\n        /* \"https://raw.githubusercontent.com/OpenZeppelin/openzeppelin-contracts/v5.0.1/contracts/token/ERC20/ERC20.sol\":10254:10289  _allowances[owner][spender] = value */\n      dup2\n      swap1\n      sstore\n      pop\n        /* \"https://raw.githubusercontent.com/OpenZeppelin/openzeppelin-contracts/v5.0.1/contracts/token/ERC20/ERC20.sol\":10303:10312  emitEvent */\n      dup1\n        /* \"https://raw.githubusercontent.com/OpenZeppelin/openzeppelin-contracts/v5.0.1/contracts/token/ERC20/ERC20.sol\":10299:10375  if (emitEvent) {... */\n      iszero\n      tag_234\n      jumpi\n        /* \"https://raw.githubusercontent.com/OpenZeppelin/openzeppelin-contracts/v5.0.1/contracts/token/ERC20/ERC20.sol\":10349:10356  spender */\n      dup3\n        /* \"https://raw.githubusercontent.com/OpenZeppelin/openzeppelin-contracts/v5.0.1/contracts/token/ERC20/ERC20.sol\":10333:10364  Approval(owner, spender, value) */\n      0xffffffffffffffffffffffffffffffffffffffff\n      and\n        /* \"https://raw.githubusercontent.com/OpenZeppelin/openzeppelin-contracts/v5.0.1/contracts/token/ERC20/ERC20.sol\":10342:10347  owner */\n      dup5\n        /* \"https://raw.githubusercontent.com/OpenZeppelin/openzeppelin-contracts/v5.0.1/contracts/token/ERC20/ERC20.sol\":10333:10364  Approval(owner, spender, value) */\n      0xffffffffffffffffffffffffffffffffffffffff\n      and\n      0x8c5be1e5ebec7d5bd14f71427d1e84f3dd0314c0f7b2291e5b200ac8c7c3b925\n        /* \"https://raw.githubusercontent.com/OpenZeppelin/openzeppelin-contracts/v5.0.1/contracts/token/ERC20/ERC20.sol\":10358:10363  value */\n      dup5\n        /* \"https://raw.githubusercontent.com/OpenZeppelin/openzeppelin-contracts/v5.0.1/contracts/token/ERC20/ERC20.sol\":10333:10364  Approval(owner, spender, value) */\n      mload(0x40)\n      tag_235\n      swap2\n      swap1\n      tag_37\n      jump\t// in\n    tag_235:\n      mload(0x40)\n      dup1\n      swap2\n      sub\n      swap1\n      log3\n        /* \"https://raw.githubusercontent.com/OpenZeppelin/openzeppelin-contracts/v5.0.1/contracts/token/ERC20/ERC20.sol\":10299:10375  if (emitEvent) {... */\n    tag_234:\n        /* \"https://raw.githubusercontent.com/OpenZeppelin/openzeppelin-contracts/v5.0.1/contracts/token/ERC20/ERC20.sol\":9949:10381  function _approve(address owner, address spender, uint256 value, bool emitEvent) internal virtual {... */\n      pop\n      pop\n      pop\n      pop\n      jump\t// out\n        /* \"https://raw.githubusercontent.com/OpenZeppelin/openzeppelin-contracts/v5.0.1/contracts/token/ERC20/ERC20.sol\":6271:7378  function _update(address from, address to, uint256 value) internal virtual {... */\n    tag_195:\n        /* \"https://raw.githubusercontent.com/OpenZeppelin/openzeppelin-contracts/v5.0.1/contracts/token/ERC20/ERC20.sol\":6376:6377  0 */\n      0x00\n        /* \"https://raw.githubusercontent.com/OpenZeppelin/openzeppelin-contracts/v5.0.1/contracts/token/ERC20/ERC20.sol\":6360:6378  from == address(0) */\n      0xffffffffffffffffffffffffffffffffffffffff\n      and\n        /* \"https://raw.githubusercontent.com/OpenZeppelin/openzeppelin-contracts/v5.0.1/contracts/token/ERC20/ERC20.sol\":6360:6364  from */\n      dup4\n        /* \"https://raw.githubusercontent.com/OpenZeppelin/openzeppelin-contracts/v5.0.1/contracts/token/ERC20/ERC20.sol\":6360:6378  from == address(0) */\n      0xffffffffffffffffffffffffffffffffffffffff\n      and\n      sub\n        /* \"https://raw.githubusercontent.com/OpenZeppelin/openzeppelin-contracts/v5.0.1/contracts/token/ERC20/ERC20.sol\":6356:6896  if (from == address(0)) {... */\n      tag_237\n      jumpi\n        /* \"https://raw.githubusercontent.com/OpenZeppelin/openzeppelin-contracts/v5.0.1/contracts/token/ERC20/ERC20.sol\":6512:6517  value */\n      dup1\n        /* \"https://raw.githubusercontent.com/OpenZeppelin/openzeppelin-contracts/v5.0.1/contracts/token/ERC20/ERC20.sol\":6496:6508  _totalSupply */\n      0x02\n      0x00\n        /* \"https://raw.githubusercontent.com/OpenZeppelin/openzeppelin-contracts/v5.0.1/contracts/token/ERC20/ERC20.sol\":6496:6517  _totalSupply += value */\n      dup3\n      dup3\n      sload\n      tag_238\n      swap2\n      swap1\n      tag_239\n      jump\t// in\n    tag_238:\n      swap3\n      pop\n      pop\n      dup2\n      swap1\n      sstore\n      pop\n        /* \"https://raw.githubusercontent.com/OpenZeppelin/openzeppelin-contracts/v5.0.1/contracts/token/ERC20/ERC20.sol\":6356:6896  if (from == address(0)) {... */\n      jump(tag_240)\n    tag_237:\n        /* \"https://raw.githubusercontent.com/OpenZeppelin/openzeppelin-contracts/v5.0.1/contracts/token/ERC20/ERC20.sol\":6548:6567  uint256 fromBalance */\n      0x00\n        /* \"https://raw.githubusercontent.com/OpenZeppelin/openzeppelin-contracts/v5.0.1/contracts/token/ERC20/ERC20.sol\":6570:6579  _balances */\n      0x00\n        /* \"https://raw.githubusercontent.com/OpenZeppelin/openzeppelin-contracts/v5.0.1/contracts/token/ERC20/ERC20.sol\":6570:6585  _balances[from] */\n      0x00\n        /* \"https://raw.githubusercontent.com/OpenZeppelin/openzeppelin-contracts/v5.0.1/contracts/token/ERC20/ERC20.sol\":6580:6584  from */\n      dup6\n        /* \"https://raw.githubusercontent.com/OpenZeppelin/openzeppelin-contracts/v5.0.1/contracts/token/ERC20/ERC20.sol\":6570:6585  _balances[from] */\n      0xffffffffffffffffffffffffffffffffffffffff\n      and\n      0xffffffffffffffffffffffffffffffffffffffff\n      and\n      dup2\n      mstore\n      0x20\n      add\n      swap1\n      dup2\n      mstore\n      0x20\n      add\n      0x00\n      keccak256\n      sload\n        /* \"https://raw.githubusercontent.com/OpenZeppelin/openzeppelin-contracts/v5.0.1/contracts/token/ERC20/ERC20.sol\":6548:6585  uint256 fromBalance = _balances[from] */\n      swap1\n      pop\n        /* \"https://raw.githubusercontent.com/OpenZeppelin/openzeppelin-contracts/v5.0.1/contracts/token/ERC20/ERC20.sol\":6617:6622  value */\n      dup2\n        /* \"https://raw.githubusercontent.com/OpenZeppelin/openzeppelin-contracts/v5.0.1/contracts/token/ERC20/ERC20.sol\":6603:6614  fromBalance */\n      dup2\n        /* \"https://raw.githubusercontent.com/OpenZeppelin/openzeppelin-contracts/v5.0.1/contracts/token/ERC20/ERC20.sol\":6603:6622  fromBalance < value */\n      lt\n        /* \"https://raw.githubusercontent.com/OpenZeppelin/openzeppelin-contracts/v5.0.1/contracts/token/ERC20/ERC20.sol\":6599:6714  if (fromBalance < value) {... */\n      iszero\n      tag_241\n      jumpi\n        /* \"https://raw.githubusercontent.com/OpenZeppelin/openzeppelin-contracts/v5.0.1/contracts/token/ERC20/ERC20.sol\":6674:6678  from */\n      dup4\n        /* \"https://raw.githubusercontent.com/OpenZeppelin/openzeppelin-contracts/v5.0.1/contracts/token/ERC20/ERC20.sol\":6680:6691  fromBalance */\n      dup2\n        /* \"https://raw.githubusercontent.com/OpenZeppelin/openzeppelin-contracts/v5.0.1/contracts/token/ERC20/ERC20.sol\":6693:6698  value */\n      dup4\n        /* \"https://raw.githubusercontent.com/OpenZeppelin/openzeppelin-contracts/v5.0.1/contracts/token/ERC20/ERC20.sol\":6649:6699  ERC20InsufficientBalance(from, fromBalance, value) */\n      mload(0x40)\n      0xe450d38c00000000000000000000000000000000000000000000000000000000\n      dup2\n      mstore\n      0x04\n      add\n      tag_242\n      swap4\n      swap3\n      swap2\n      swap1\n      tag_187\n      jump\t// in\n    tag_242:\n      mload(0x40)\n      dup1\n      swap2\n      sub\n      swap1\n      revert\n        /* \"https://raw.githubusercontent.com/OpenZeppelin/openzeppelin-contracts/v5.0.1/contracts/token/ERC20/ERC20.sol\":6599:6714  if (fromBalance < value) {... */\n    tag_241:\n        /* \"https://raw.githubusercontent.com/OpenZeppelin/openzeppelin-contracts/v5.0.1/contracts/token/ERC20/ERC20.sol\":6866:6871  value */\n      dup2\n        /* \"https://raw.githubusercontent.com/OpenZeppelin/openzeppelin-contracts/v5.0.1/contracts/token/ERC20/ERC20.sol\":6852:6863  fromBalance */\n      dup2\n        /* \"https://raw.githubusercontent.com/OpenZeppelin/openzeppelin-contracts/v5.0.1/contracts/token/ERC20/ERC20.sol\":6852:6871  fromBalance - value */\n      sub\n        /* \"https://raw.githubusercontent.com/OpenZeppelin/openzeppelin-contracts/v5.0.1/contracts/token/ERC20/ERC20.sol\":6834:6843  _balances */\n      0x00\n        /* \"https://raw.githubusercontent.com/OpenZeppelin/openzeppelin-contracts/v5.0.1/contracts/token/ERC20/ERC20.sol\":6834:6849  _balances[from] */\n      0x00\n        /* \"https://raw.githubusercontent.com/OpenZeppelin/openzeppelin-contracts/v5.0.1/contracts/token/ERC20/ERC20.sol\":6844:6848  from */\n      dup7\n        /* \"https://raw.githubusercontent.com/OpenZeppelin/openzeppelin-contracts/v5.0.1/contracts/token/ERC20/ERC20.sol\":6834:6849  _balances[from] */\n      0xffffffffffffffffffffffffffffffffffffffff\n      and\n      0xffffffffffffffffffffffffffffffffffffffff\n      and\n      dup2\n      mstore\n      0x20\n      add\n      swap1\n      dup2\n      mstore\n      0x20\n      add\n      0x00\n      keccak256\n        /* \"https://raw.githubusercontent.com/OpenZeppelin/openzeppelin-contracts/v5.0.1/contracts/token/ERC20/ERC20.sol\":6834:6871  _balances[from] = fromBalance - value */\n      dup2\n      swap1\n      sstore\n      pop\n        /* \"https://raw.githubusercontent.com/OpenZeppelin/openzeppelin-contracts/v5.0.1/contracts/token/ERC20/ERC20.sol\":6534:6896  {... */\n      pop\n        /* \"https://raw.githubusercontent.com/OpenZeppelin/openzeppelin-contracts/v5.0.1/contracts/token/ERC20/ERC20.sol\":6356:6896  if (from == address(0)) {... */\n    tag_240:\n        /* \"https://raw.githubusercontent.com/OpenZeppelin/openzeppelin-contracts/v5.0.1/contracts/token/ERC20/ERC20.sol\":6924:6925  0 */\n      0x00\n        /* \"https://raw.githubusercontent.com/OpenZeppelin/openzeppelin-contracts/v5.0.1/contracts/token/ERC20/ERC20.sol\":6910:6926  to == address(0) */\n      0xffffffffffffffffffffffffffffffffffffffff\n      and\n        /* \"https://raw.githubusercontent.com/OpenZeppelin/openzeppelin-contracts/v5.0.1/contracts/token/ERC20/ERC20.sol\":6910:6912  to */\n      dup3\n        /* \"https://raw.githubusercontent.com/OpenZeppelin/openzeppelin-contracts/v5.0.1/contracts/token/ERC20/ERC20.sol\":6910:6926  to == address(0) */\n      0xffffffffffffffffffffffffffffffffffffffff\n      and\n      sub\n        /* \"https://raw.githubusercontent.com/OpenZeppelin/openzeppelin-contracts/v5.0.1/contracts/token/ERC20/ERC20.sol\":6906:7331  if (to == address(0)) {... */\n      tag_243\n      jumpi\n        /* \"https://raw.githubusercontent.com/OpenZeppelin/openzeppelin-contracts/v5.0.1/contracts/token/ERC20/ERC20.sol\":7089:7094  value */\n      dup1\n        /* \"https://raw.githubusercontent.com/OpenZeppelin/openzeppelin-contracts/v5.0.1/contracts/token/ERC20/ERC20.sol\":7073:7085  _totalSupply */\n      0x02\n      0x00\n        /* \"https://raw.githubusercontent.com/OpenZeppelin/openzeppelin-contracts/v5.0.1/contracts/token/ERC20/ERC20.sol\":7073:7094  _totalSupply -= value */\n      dup3\n      dup3\n      sload\n      sub\n      swap3\n      pop\n      pop\n      dup2\n      swap1\n      sstore\n      pop\n        /* \"https://raw.githubusercontent.com/OpenZeppelin/openzeppelin-contracts/v5.0.1/contracts/token/ERC20/ERC20.sol\":6906:7331  if (to == address(0)) {... */\n      jump(tag_244)\n    tag_243:\n        /* \"https://raw.githubusercontent.com/OpenZeppelin/openzeppelin-contracts/v5.0.1/contracts/token/ERC20/ERC20.sol\":7301:7306  value */\n      dup1\n        /* \"https://raw.githubusercontent.com/OpenZeppelin/openzeppelin-contracts/v5.0.1/contracts/token/ERC20/ERC20.sol\":7284:7293  _balances */\n      0x00\n        /* \"https://raw.githubusercontent.com/OpenZeppelin/openzeppelin-contracts/v5.0.1/contracts/token/ERC20/ERC20.sol\":7284:7297  _balances[to] */\n      0x00\n        /* \"https://raw.githubusercontent.com/OpenZeppelin/openzeppelin-contracts/v5.0.1/contracts/token/ERC20/ERC20.sol\":7294:7296  to */\n      dup5\n        /* \"https://raw.githubusercontent.com/OpenZeppelin/openzeppelin-contracts/v5.0.1/contracts/token/ERC20/ERC20.sol\":7284:7297  _balances[to] */\n      0xffffffffffffffffffffffffffffffffffffffff\n      and\n      0xffffffffffffffffffffffffffffffffffffffff\n      and\n      dup2\n      mstore\n      0x20\n      add\n      swap1\n      dup2\n      mstore\n      0x20\n      add\n      0x00\n      keccak256\n      0x00\n        /* \"https://raw.githubusercontent.com/OpenZeppelin/openzeppelin-contracts/v5.0.1/contracts/token/ERC20/ERC20.sol\":7284:7306  _balances[to] += value */\n      dup3\n      dup3\n      sload\n      add\n      swap3\n      pop\n      pop\n      dup2\n      swap1\n      sstore\n      pop\n        /* \"https://raw.githubusercontent.com/OpenZeppelin/openzeppelin-contracts/v5.0.1/contracts/token/ERC20/ERC20.sol\":6906:7331  if (to == address(0)) {... */\n    tag_244:\n        /* \"https://raw.githubusercontent.com/OpenZeppelin/openzeppelin-contracts/v5.0.1/contracts/token/ERC20/ERC20.sol\":7361:7363  to */\n      dup2\n        /* \"https://raw.githubusercontent.com/OpenZeppelin/openzeppelin-contracts/v5.0.1/contracts/token/ERC20/ERC20.sol\":7346:7371  Transfer(from, to, value) */\n      0xffffffffffffffffffffffffffffffffffffffff\n      and\n        /* \"https://raw.githubusercontent.com/OpenZeppelin/openzeppelin-contracts/v5.0.1/contracts/token/ERC20/ERC20.sol\":7355:7359  from */\n      dup4\n        /* \"https://raw.githubusercontent.com/OpenZeppelin/openzeppelin-contracts/v5.0.1/contracts/token/ERC20/ERC20.sol\":7346:7371  Transfer(from, to, value) */\n      0xffffffffffffffffffffffffffffffffffffffff\n      and\n      0xddf252ad1be2c89b69c2b068fc378daa952ba7f163c4a11628f55a4df523b3ef\n        /* \"https://raw.githubusercontent.com/OpenZeppelin/openzeppelin-contracts/v5.0.1/contracts/token/ERC20/ERC20.sol\":7365:7370  value */\n      dup4\n        /* \"https://raw.githubusercontent.com/OpenZeppelin/openzeppelin-contracts/v5.0.1/contracts/token/ERC20/ERC20.sol\":7346:7371  Transfer(from, to, value) */\n      mload(0x40)\n      tag_245\n      swap2\n      swap1\n      tag_37\n      jump\t// in\n    tag_245:\n      mload(0x40)\n      dup1\n      swap2\n      sub\n      swap1\n      log3\n        /* \"https://raw.githubusercontent.com/OpenZeppelin/openzeppelin-contracts/v5.0.1/contracts/token/ERC20/ERC20.sol\":6271:7378  function _update(address from, address to, uint256 value) internal virtual {... */\n      pop\n      pop\n      pop\n      jump\t// out\n        /* \"https://raw.githubusercontent.com/OpenZeppelin/openzeppelin-contracts/v5.0.1/contracts/utils/cryptography/EIP712.sol\":4113:4292  function _buildDomainSeparator() private view returns (bytes32) {... */\n    tag_201:\n        /* \"https://raw.githubusercontent.com/OpenZeppelin/openzeppelin-contracts/v5.0.1/contracts/utils/cryptography/EIP712.sol\":4168:4175  bytes32 */\n      0x00\n        /* \"https://raw.githubusercontent.com/OpenZeppelin/openzeppelin-contracts/v5.0.1/contracts/utils/cryptography/EIP712.sol\":2079:2174  keccak256(\"EIP712Domain(string name,string version,uint256 chainId,address verifyingContract)\") */\n      0x8b73c3c69bb8fe3d512ecc4cf759cc79239f7b179b0ffacaa9a75d522b39400f\n        /* \"https://raw.githubusercontent.com/OpenZeppelin/openzeppelin-contracts/v5.0.1/contracts/utils/cryptography/EIP712.sol\":4226:4237  _hashedName */\n      immutable(\"0xc029172d5cd7a4e945622d71e4d05cf85f0a1833f12eb0c55071cfced147417a\")\n        /* \"https://raw.githubusercontent.com/OpenZeppelin/openzeppelin-contracts/v5.0.1/contracts/utils/cryptography/EIP712.sol\":4239:4253  _hashedVersion */\n      immutable(\"0x280f875a5048ad76095b1df8abb701dec41dcc4bd9cd9488fa58ffa28316b96c\")\n        /* \"https://raw.githubusercontent.com/OpenZeppelin/openzeppelin-contracts/v5.0.1/contracts/utils/cryptography/EIP712.sol\":4255:4268  block.chainid */\n      chainid\n        /* \"https://raw.githubusercontent.com/OpenZeppelin/openzeppelin-contracts/v5.0.1/contracts/utils/cryptography/EIP712.sol\":4278:4282  this */\n      address\n        /* \"https://raw.githubusercontent.com/OpenZeppelin/openzeppelin-contracts/v5.0.1/contracts/utils/cryptography/EIP712.sol\":4204:4284  abi.encode(TYPE_HASH, _hashedName, _hashedVersion, block.chainid, address(this)) */\n      add(0x20, mload(0x40))\n      tag_247\n      swap6\n      swap5\n      swap4\n      swap3\n      swap2\n      swap1\n      tag_248\n      jump\t// in\n    tag_247:\n      mload(0x40)\n      0x20\n      dup2\n      dup4\n      sub\n      sub\n      dup2\n      mstore\n      swap1\n      0x40\n      mstore\n        /* \"https://raw.githubusercontent.com/OpenZeppelin/openzeppelin-contracts/v5.0.1/contracts/utils/cryptography/EIP712.sol\":4194:4285  keccak256(abi.encode(TYPE_HASH, _hashedName, _hashedVersion, block.chainid, address(this))) */\n      dup1\n      mload\n      swap1\n      0x20\n      add\n      keccak256\n        /* \"https://raw.githubusercontent.com/OpenZeppelin/openzeppelin-contracts/v5.0.1/contracts/utils/cryptography/EIP712.sol\":4187:4285  return keccak256(abi.encode(TYPE_HASH, _hashedName, _hashedVersion, block.chainid, address(this))) */\n      swap1\n      pop\n        /* \"https://raw.githubusercontent.com/OpenZeppelin/openzeppelin-contracts/v5.0.1/contracts/utils/cryptography/EIP712.sol\":4113:4292  function _buildDomainSeparator() private view returns (bytes32) {... */\n      swap1\n      jump\t// out\n        /* \"https://raw.githubusercontent.com/OpenZeppelin/openzeppelin-contracts/v5.0.1/contracts/utils/ShortStrings.sol\":3358:3625  function toStringWithFallback(ShortString value, string storage store) internal pure returns (string memory) {... */\n    tag_216:\n        /* \"https://raw.githubusercontent.com/OpenZeppelin/openzeppelin-contracts/v5.0.1/contracts/utils/ShortStrings.sol\":3452:3465  string memory */\n      0x60\n        /* \"https://raw.githubusercontent.com/OpenZeppelin/openzeppelin-contracts/v5.0.1/contracts/utils/ShortStrings.sol\":1390:1456  0x00000000000000000000000000000000000000000000000000000000000000FF */\n      0xff\n        /* \"https://raw.githubusercontent.com/OpenZeppelin/openzeppelin-contracts/v5.0.1/contracts/utils/ShortStrings.sol\":3510:3527  FALLBACK_SENTINEL */\n      0x00\n      shl\n        /* \"https://raw.githubusercontent.com/OpenZeppelin/openzeppelin-contracts/v5.0.1/contracts/utils/ShortStrings.sol\":3500:3505  value */\n      dup4\n        /* \"https://raw.githubusercontent.com/OpenZeppelin/openzeppelin-contracts/v5.0.1/contracts/utils/ShortStrings.sol\":3481:3527  ShortString.unwrap(value) != FALLBACK_SENTINEL */\n      eq\n        /* \"https://raw.githubusercontent.com/OpenZeppelin/openzeppelin-contracts/v5.0.1/contracts/utils/ShortStrings.sol\":3477:3619  if (ShortString.unwrap(value) != FALLBACK_SENTINEL) {... */\n      tag_250\n      jumpi\n        /* \"https://raw.githubusercontent.com/OpenZeppelin/openzeppelin-contracts/v5.0.1/contracts/utils/ShortStrings.sol\":3550:3565  toString(value) */\n      tag_251\n        /* \"https://raw.githubusercontent.com/OpenZeppelin/openzeppelin-contracts/v5.0.1/contracts/utils/ShortStrings.sol\":3559:3564  value */\n      dup4\n        /* \"https://raw.githubusercontent.com/OpenZeppelin/openzeppelin-contracts/v5.0.1/contracts/utils/ShortStrings.sol\":3550:3558  toString */\n      tag_252\n        /* \"https://raw.githubusercontent.com/OpenZeppelin/openzeppelin-contracts/v5.0.1/contracts/utils/ShortStrings.sol\":3550:3565  toString(value) */\n      jump\t// in\n    tag_251:\n        /* \"https://raw.githubusercontent.com/OpenZeppelin/openzeppelin-contracts/v5.0.1/contracts/utils/ShortStrings.sol\":3543:3565  return toString(value) */\n      swap1\n      pop\n      jump(tag_249)\n        /* \"https://raw.githubusercontent.com/OpenZeppelin/openzeppelin-contracts/v5.0.1/contracts/utils/ShortStrings.sol\":3477:3619  if (ShortString.unwrap(value) != FALLBACK_SENTINEL) {... */\n    tag_250:\n        /* \"https://raw.githubusercontent.com/OpenZeppelin/openzeppelin-contracts/v5.0.1/contracts/utils/ShortStrings.sol\":3603:3608  store */\n      dup2\n        /* \"https://raw.githubusercontent.com/OpenZeppelin/openzeppelin-contracts/v5.0.1/contracts/utils/ShortStrings.sol\":3596:3608  return store */\n      dup1\n      sload\n      tag_254\n      swap1\n      tag_98\n      jump\t// in\n    tag_254:\n      dup1\n      0x1f\n      add\n      0x20\n      dup1\n      swap2\n      div\n      mul\n      0x20\n      add\n      mload(0x40)\n      swap1\n      dup2\n      add\n      0x40\n      mstore\n      dup1\n      swap3\n      swap2\n      swap1\n      dup2\n      dup2\n      mstore\n      0x20\n      add\n      dup3\n      dup1\n      sload\n      tag_255\n      swap1\n      tag_98\n      jump\t// in\n    tag_255:\n      dup1\n      iszero\n      tag_256\n      jumpi\n      dup1\n      0x1f\n      lt\n      tag_257\n      jumpi\n      0x0100\n      dup1\n      dup4\n      sload\n      div\n      mul\n      dup4\n      mstore\n      swap2\n      0x20\n      add\n      swap2\n      jump(tag_256)\n    tag_257:\n      dup3\n      add\n      swap2\n      swap1\n      0x00\n      mstore\n      keccak256(0x00, 0x20)\n      swap1\n    tag_258:\n      dup2\n      sload\n      dup2\n      mstore\n      swap1\n      0x01\n      add\n      swap1\n      0x20\n      add\n      dup1\n      dup4\n      gt\n      tag_258\n      jumpi\n      dup3\n      swap1\n      sub\n      0x1f\n      and\n      dup3\n      add\n      swap2\n    tag_256:\n      pop\n      pop\n      pop\n      pop\n      pop\n      swap1\n      pop\n        /* \"https://raw.githubusercontent.com/OpenZeppelin/openzeppelin-contracts/v5.0.1/contracts/utils/ShortStrings.sol\":3358:3625  function toStringWithFallback(ShortString value, string storage store) internal pure returns (string memory) {... */\n    tag_249:\n      swap3\n      swap2\n      pop\n      pop\n      jump\t// out\n        /* \"https://raw.githubusercontent.com/OpenZeppelin/openzeppelin-contracts/v5.0.1/contracts/utils/cryptography/MessageHashUtils.sol\":3326:3700  function toTypedDataHash(bytes32 domainSeparator, bytes32 structHash) internal pure returns (bytes32 digest) {... */\n    tag_223:\n        /* \"https://raw.githubusercontent.com/OpenZeppelin/openzeppelin-contracts/v5.0.1/contracts/utils/cryptography/MessageHashUtils.sol\":3419:3433  bytes32 digest */\n      0x00\n        /* \"https://raw.githubusercontent.com/OpenZeppelin/openzeppelin-contracts/v5.0.1/contracts/utils/cryptography/MessageHashUtils.sol\":3501:3505  0x40 */\n      0x40\n        /* \"https://raw.githubusercontent.com/OpenZeppelin/openzeppelin-contracts/v5.0.1/contracts/utils/cryptography/MessageHashUtils.sol\":3495:3506  mload(0x40) */\n      mload\n        /* \"https://raw.githubusercontent.com/OpenZeppelin/openzeppelin-contracts/v5.0.1/contracts/utils/cryptography/MessageHashUtils.sol\":3531:3541  hex\"19_01\" */\n      0x1901000000000000000000000000000000000000000000000000000000000000\n        /* \"https://raw.githubusercontent.com/OpenZeppelin/openzeppelin-contracts/v5.0.1/contracts/utils/cryptography/MessageHashUtils.sol\":3526:3529  ptr */\n      dup2\n        /* \"https://raw.githubusercontent.com/OpenZeppelin/openzeppelin-contracts/v5.0.1/contracts/utils/cryptography/MessageHashUtils.sol\":3519:3542  mstore(ptr, hex\"19_01\") */\n      mstore\n        /* \"https://raw.githubusercontent.com/OpenZeppelin/openzeppelin-contracts/v5.0.1/contracts/utils/cryptography/MessageHashUtils.sol\":3578:3593  domainSeparator */\n      dup4\n        /* \"https://raw.githubusercontent.com/OpenZeppelin/openzeppelin-contracts/v5.0.1/contracts/utils/cryptography/MessageHashUtils.sol\":3571:3575  0x02 */\n      0x02\n        /* \"https://raw.githubusercontent.com/OpenZeppelin/openzeppelin-contracts/v5.0.1/contracts/utils/cryptography/MessageHashUtils.sol\":3566:3569  ptr */\n      dup3\n        /* \"https://raw.githubusercontent.com/OpenZeppelin/openzeppelin-contracts/v5.0.1/contracts/utils/cryptography/MessageHashUtils.sol\":3562:3576  add(ptr, 0x02) */\n      add\n        /* \"https://raw.githubusercontent.com/OpenZeppelin/openzeppelin-contracts/v5.0.1/contracts/utils/cryptography/MessageHashUtils.sol\":3555:3594  mstore(add(ptr, 0x02), domainSeparator) */\n      mstore\n        /* \"https://raw.githubusercontent.com/OpenZeppelin/openzeppelin-contracts/v5.0.1/contracts/utils/cryptography/MessageHashUtils.sol\":3630:3640  structHash */\n      dup3\n        /* \"https://raw.githubusercontent.com/OpenZeppelin/openzeppelin-contracts/v5.0.1/contracts/utils/cryptography/MessageHashUtils.sol\":3623:3627  0x22 */\n      0x22\n        /* \"https://raw.githubusercontent.com/OpenZeppelin/openzeppelin-contracts/v5.0.1/contracts/utils/cryptography/MessageHashUtils.sol\":3618:3621  ptr */\n      dup3\n        /* \"https://raw.githubusercontent.com/OpenZeppelin/openzeppelin-contracts/v5.0.1/contracts/utils/cryptography/MessageHashUtils.sol\":3614:3628  add(ptr, 0x22) */\n      add\n        /* \"https://raw.githubusercontent.com/OpenZeppelin/openzeppelin-contracts/v5.0.1/contracts/utils/cryptography/MessageHashUtils.sol\":3607:3641  mstore(add(ptr, 0x22), structHash) */\n      mstore\n        /* \"https://raw.githubusercontent.com/OpenZeppelin/openzeppelin-contracts/v5.0.1/contracts/utils/cryptography/MessageHashUtils.sol\":3679:3683  0x42 */\n      0x42\n        /* \"https://raw.githubusercontent.com/OpenZeppelin/openzeppelin-contracts/v5.0.1/contracts/utils/cryptography/MessageHashUtils.sol\":3674:3677  ptr */\n      dup2\n        /* \"https://raw.githubusercontent.com/OpenZeppelin/openzeppelin-contracts/v5.0.1/contracts/utils/cryptography/MessageHashUtils.sol\":3664:3684  keccak256(ptr, 0x42) */\n      keccak256\n        /* \"https://raw.githubusercontent.com/OpenZeppelin/openzeppelin-contracts/v5.0.1/contracts/utils/cryptography/MessageHashUtils.sol\":3654:3684  digest := keccak256(ptr, 0x42) */\n      swap2\n      pop\n        /* \"https://raw.githubusercontent.com/OpenZeppelin/openzeppelin-contracts/v5.0.1/contracts/utils/cryptography/MessageHashUtils.sol\":3470:3694  {... */\n      pop\n        /* \"https://raw.githubusercontent.com/OpenZeppelin/openzeppelin-contracts/v5.0.1/contracts/utils/cryptography/MessageHashUtils.sol\":3326:3700  function toTypedDataHash(bytes32 domainSeparator, bytes32 structHash) internal pure returns (bytes32 digest) {... */\n      swap3\n      swap2\n      pop\n      pop\n      jump\t// out\n        /* \"https://raw.githubusercontent.com/OpenZeppelin/openzeppelin-contracts/v5.0.1/contracts/utils/cryptography/ECDSA.sol\":5109:6639  function tryRecover(... */\n    tag_226:\n        /* \"https://raw.githubusercontent.com/OpenZeppelin/openzeppelin-contracts/v5.0.1/contracts/utils/cryptography/ECDSA.sol\":5235:5242  address */\n      0x00\n        /* \"https://raw.githubusercontent.com/OpenZeppelin/openzeppelin-contracts/v5.0.1/contracts/utils/cryptography/ECDSA.sol\":5244:5256  RecoverError */\n      0x00\n        /* \"https://raw.githubusercontent.com/OpenZeppelin/openzeppelin-contracts/v5.0.1/contracts/utils/cryptography/ECDSA.sol\":5258:5265  bytes32 */\n      0x00\n        /* \"https://raw.githubusercontent.com/OpenZeppelin/openzeppelin-contracts/v5.0.1/contracts/utils/cryptography/ECDSA.sol\":6168:6234  0x7FFFFFFFFFFFFFFFFFFFFFFFFFFFFFFF5D576E7357A4501DDFE92F46681B20A0 */\n      0x7fffffffffffffffffffffffffffffff5d576e7357a4501ddfe92f46681b20a0\n        /* \"https://raw.githubusercontent.com/OpenZeppelin/openzeppelin-contracts/v5.0.1/contracts/utils/cryptography/ECDSA.sol\":6163:6164  s */\n      dup5\n        /* \"https://raw.githubusercontent.com/OpenZeppelin/openzeppelin-contracts/v5.0.1/contracts/utils/cryptography/ECDSA.sol\":6155:6165  uint256(s) */\n      0x00\n      shr\n        /* \"https://raw.githubusercontent.com/OpenZeppelin/openzeppelin-contracts/v5.0.1/contracts/utils/cryptography/ECDSA.sol\":6155:6234  uint256(s) > 0x7FFFFFFFFFFFFFFFFFFFFFFFFFFFFFFF5D576E7357A4501DDFE92F46681B20A0 */\n      gt\n        /* \"https://raw.githubusercontent.com/OpenZeppelin/openzeppelin-contracts/v5.0.1/contracts/utils/cryptography/ECDSA.sol\":6151:6315  if (uint256(s) > 0x7FFFFFFFFFFFFFFFFFFFFFFFFFFFFFFF5D576E7357A4501DDFE92F46681B20A0) {... */\n      iszero\n      tag_261\n      jumpi\n        /* \"https://raw.githubusercontent.com/OpenZeppelin/openzeppelin-contracts/v5.0.1/contracts/utils/cryptography/ECDSA.sol\":6266:6267  0 */\n      0x00\n        /* \"https://raw.githubusercontent.com/OpenZeppelin/openzeppelin-contracts/v5.0.1/contracts/utils/cryptography/ECDSA.sol\":6270:6300  RecoverError.InvalidSignatureS */\n      0x03\n        /* \"https://raw.githubusercontent.com/OpenZeppelin/openzeppelin-contracts/v5.0.1/contracts/utils/cryptography/ECDSA.sol\":6302:6303  s */\n      dup6\n        /* \"https://raw.githubusercontent.com/OpenZeppelin/openzeppelin-contracts/v5.0.1/contracts/utils/cryptography/ECDSA.sol\":6250:6304  return (address(0), RecoverError.InvalidSignatureS, s) */\n      swap3\n      pop\n      swap3\n      pop\n      swap3\n      pop\n      jump(tag_260)\n        /* \"https://raw.githubusercontent.com/OpenZeppelin/openzeppelin-contracts/v5.0.1/contracts/utils/cryptography/ECDSA.sol\":6151:6315  if (uint256(s) > 0x7FFFFFFFFFFFFFFFFFFFFFFFFFFFFFFF5D576E7357A4501DDFE92F46681B20A0) {... */\n    tag_261:\n        /* \"https://raw.githubusercontent.com/OpenZeppelin/openzeppelin-contracts/v5.0.1/contracts/utils/cryptography/ECDSA.sol\":6409:6423  address signer */\n      0x00\n        /* \"https://raw.githubusercontent.com/OpenZeppelin/openzeppelin-contracts/v5.0.1/contracts/utils/cryptography/ECDSA.sol\":6426:6450  ecrecover(hash, v, r, s) */\n      0x01\n        /* \"https://raw.githubusercontent.com/OpenZeppelin/openzeppelin-contracts/v5.0.1/contracts/utils/cryptography/ECDSA.sol\":6436:6440  hash */\n      dup9\n        /* \"https://raw.githubusercontent.com/OpenZeppelin/openzeppelin-contracts/v5.0.1/contracts/utils/cryptography/ECDSA.sol\":6442:6443  v */\n      dup9\n        /* \"https://raw.githubusercontent.com/OpenZeppelin/openzeppelin-contracts/v5.0.1/contracts/utils/cryptography/ECDSA.sol\":6445:6446  r */\n      dup9\n        /* \"https://raw.githubusercontent.com/OpenZeppelin/openzeppelin-contracts/v5.0.1/contracts/utils/cryptography/ECDSA.sol\":6448:6449  s */\n      dup9\n        /* \"https://raw.githubusercontent.com/OpenZeppelin/openzeppelin-contracts/v5.0.1/contracts/utils/cryptography/ECDSA.sol\":6426:6450  ecrecover(hash, v, r, s) */\n      mload(0x40)\n      0x00\n      dup2\n      mstore\n      0x20\n      add\n      0x40\n      mstore\n      mload(0x40)\n      tag_262\n      swap5\n      swap4\n      swap3\n      swap2\n      swap1\n      tag_263\n      jump\t// in\n    tag_262:\n      0x20\n      mload(0x40)\n      0x20\n      dup2\n      sub\n      swap1\n      dup1\n      dup5\n      sub\n      swap1\n      dup6\n      gas\n      staticcall\n      iszero\n      dup1\n      iszero\n      tag_265\n      jumpi\n      returndatacopy(0x00, 0x00, returndatasize)\n      revert(0x00, returndatasize)\n    tag_265:\n      pop\n      pop\n      pop\n      mload(sub(mload(0x40), 0x20))\n        /* \"https://raw.githubusercontent.com/OpenZeppelin/openzeppelin-contracts/v5.0.1/contracts/utils/cryptography/ECDSA.sol\":6409:6450  address signer = ecrecover(hash, v, r, s) */\n      swap1\n      pop\n        /* \"https://raw.githubusercontent.com/OpenZeppelin/openzeppelin-contracts/v5.0.1/contracts/utils/cryptography/ECDSA.sol\":6482:6483  0 */\n      0x00\n        /* \"https://raw.githubusercontent.com/OpenZeppelin/openzeppelin-contracts/v5.0.1/contracts/utils/cryptography/ECDSA.sol\":6464:6484  signer == address(0) */\n      0xffffffffffffffffffffffffffffffffffffffff\n      and\n        /* \"https://raw.githubusercontent.com/OpenZeppelin/openzeppelin-contracts/v5.0.1/contracts/utils/cryptography/ECDSA.sol\":6464:6470  signer */\n      dup2\n        /* \"https://raw.githubusercontent.com/OpenZeppelin/openzeppelin-contracts/v5.0.1/contracts/utils/cryptography/ECDSA.sol\":6464:6484  signer == address(0) */\n      0xffffffffffffffffffffffffffffffffffffffff\n      and\n      sub\n        /* \"https://raw.githubusercontent.com/OpenZeppelin/openzeppelin-contracts/v5.0.1/contracts/utils/cryptography/ECDSA.sol\":6460:6573  if (signer == address(0)) {... */\n      tag_266\n      jumpi\n        /* \"https://raw.githubusercontent.com/OpenZeppelin/openzeppelin-contracts/v5.0.1/contracts/utils/cryptography/ECDSA.sol\":6516:6517  0 */\n      0x00\n        /* \"https://raw.githubusercontent.com/OpenZeppelin/openzeppelin-contracts/v5.0.1/contracts/utils/cryptography/ECDSA.sol\":6520:6549  RecoverError.InvalidSignature */\n      0x01\n        /* \"https://raw.githubusercontent.com/OpenZeppelin/openzeppelin-contracts/v5.0.1/contracts/utils/cryptography/ECDSA.sol\":6559:6560  0 */\n      0x00\n        /* \"https://raw.githubusercontent.com/OpenZeppelin/openzeppelin-contracts/v5.0.1/contracts/utils/cryptography/ECDSA.sol\":6551:6561  bytes32(0) */\n      0x00\n      shl\n        /* \"https://raw.githubusercontent.com/OpenZeppelin/openzeppelin-contracts/v5.0.1/contracts/utils/cryptography/ECDSA.sol\":6500:6562  return (address(0), RecoverError.InvalidSignature, bytes32(0)) */\n      swap4\n      pop\n      swap4\n      pop\n      swap4\n      pop\n      pop\n      jump(tag_260)\n        /* \"https://raw.githubusercontent.com/OpenZeppelin/openzeppelin-contracts/v5.0.1/contracts/utils/cryptography/ECDSA.sol\":6460:6573  if (signer == address(0)) {... */\n    tag_266:\n        /* \"https://raw.githubusercontent.com/OpenZeppelin/openzeppelin-contracts/v5.0.1/contracts/utils/cryptography/ECDSA.sol\":6591:6597  signer */\n      dup1\n        /* \"https://raw.githubusercontent.com/OpenZeppelin/openzeppelin-contracts/v5.0.1/contracts/utils/cryptography/ECDSA.sol\":6599:6619  RecoverError.NoError */\n      0x00\n        /* \"https://raw.githubusercontent.com/OpenZeppelin/openzeppelin-contracts/v5.0.1/contracts/utils/cryptography/ECDSA.sol\":6629:6630  0 */\n      0x00\n        /* \"https://raw.githubusercontent.com/OpenZeppelin/openzeppelin-contracts/v5.0.1/contracts/utils/cryptography/ECDSA.sol\":6621:6631  bytes32(0) */\n      0x00\n      shl\n        /* \"https://raw.githubusercontent.com/OpenZeppelin/openzeppelin-contracts/v5.0.1/contracts/utils/cryptography/ECDSA.sol\":6583:6632  return (signer, RecoverError.NoError, bytes32(0)) */\n      swap4\n      pop\n      swap4\n      pop\n      swap4\n      pop\n      pop\n        /* \"https://raw.githubusercontent.com/OpenZeppelin/openzeppelin-contracts/v5.0.1/contracts/utils/cryptography/ECDSA.sol\":5109:6639  function tryRecover(... */\n    tag_260:\n      swap5\n      pop\n      swap5\n      pop\n      swap5\n      swap2\n      pop\n      pop\n      jump\t// out\n        /* \"https://raw.githubusercontent.com/OpenZeppelin/openzeppelin-contracts/v5.0.1/contracts/utils/cryptography/ECDSA.sol\":7165:7697  function _throwError(RecoverError error, bytes32 errorArg) private pure {... */\n    tag_228:\n        /* \"https://raw.githubusercontent.com/OpenZeppelin/openzeppelin-contracts/v5.0.1/contracts/utils/cryptography/ECDSA.sol\":7260:7280  RecoverError.NoError */\n      0x00\n        /* \"https://raw.githubusercontent.com/OpenZeppelin/openzeppelin-contracts/v5.0.1/contracts/utils/cryptography/ECDSA.sol\":7251:7280  error == RecoverError.NoError */\n      0x03\n      dup2\n      gt\n      iszero\n      tag_268\n      jumpi\n      tag_269\n      tag_270\n      jump\t// in\n    tag_269:\n    tag_268:\n        /* \"https://raw.githubusercontent.com/OpenZeppelin/openzeppelin-contracts/v5.0.1/contracts/utils/cryptography/ECDSA.sol\":7251:7256  error */\n      dup3\n        /* \"https://raw.githubusercontent.com/OpenZeppelin/openzeppelin-contracts/v5.0.1/contracts/utils/cryptography/ECDSA.sol\":7251:7280  error == RecoverError.NoError */\n      0x03\n      dup2\n      gt\n      iszero\n      tag_271\n      jumpi\n      tag_272\n      tag_270\n      jump\t// in\n    tag_272:\n    tag_271:\n      sub\n        /* \"https://raw.githubusercontent.com/OpenZeppelin/openzeppelin-contracts/v5.0.1/contracts/utils/cryptography/ECDSA.sol\":7247:7691  if (error == RecoverError.NoError) {... */\n      iszero\n        /* \"https://raw.githubusercontent.com/OpenZeppelin/openzeppelin-contracts/v5.0.1/contracts/utils/cryptography/ECDSA.sol\":7296:7303  return; */\n      tag_267\n        /* \"https://raw.githubusercontent.com/OpenZeppelin/openzeppelin-contracts/v5.0.1/contracts/utils/cryptography/ECDSA.sol\":7247:7691  if (error == RecoverError.NoError) {... */\n      jumpi\n        /* \"https://raw.githubusercontent.com/OpenZeppelin/openzeppelin-contracts/v5.0.1/contracts/utils/cryptography/ECDSA.sol\":7356:7385  RecoverError.InvalidSignature */\n      0x01\n        /* \"https://raw.githubusercontent.com/OpenZeppelin/openzeppelin-contracts/v5.0.1/contracts/utils/cryptography/ECDSA.sol\":7347:7385  error == RecoverError.InvalidSignature */\n      0x03\n      dup2\n      gt\n      iszero\n      tag_275\n      jumpi\n      tag_276\n      tag_270\n      jump\t// in\n    tag_276:\n    tag_275:\n        /* \"https://raw.githubusercontent.com/OpenZeppelin/openzeppelin-contracts/v5.0.1/contracts/utils/cryptography/ECDSA.sol\":7347:7352  error */\n      dup3\n        /* \"https://raw.githubusercontent.com/OpenZeppelin/openzeppelin-contracts/v5.0.1/contracts/utils/cryptography/ECDSA.sol\":7347:7385  error == RecoverError.InvalidSignature */\n      0x03\n      dup2\n      gt\n      iszero\n      tag_277\n      jumpi\n      tag_278\n      tag_270\n      jump\t// in\n    tag_278:\n    tag_277:\n      sub\n        /* \"https://raw.githubusercontent.com/OpenZeppelin/openzeppelin-contracts/v5.0.1/contracts/utils/cryptography/ECDSA.sol\":7343:7691  if (error == RecoverError.InvalidSignature) {... */\n      tag_279\n      jumpi\n        /* \"https://raw.githubusercontent.com/OpenZeppelin/openzeppelin-contracts/v5.0.1/contracts/utils/cryptography/ECDSA.sol\":7408:7431  ECDSAInvalidSignature() */\n      mload(0x40)\n      0xf645eedf00000000000000000000000000000000000000000000000000000000\n      dup2\n      mstore\n      0x04\n      add\n      mload(0x40)\n      dup1\n      swap2\n      sub\n      swap1\n      revert\n        /* \"https://raw.githubusercontent.com/OpenZeppelin/openzeppelin-contracts/v5.0.1/contracts/utils/cryptography/ECDSA.sol\":7343:7691  if (error == RecoverError.InvalidSignature) {... */\n    tag_279:\n        /* \"https://raw.githubusercontent.com/OpenZeppelin/openzeppelin-contracts/v5.0.1/contracts/utils/cryptography/ECDSA.sol\":7461:7496  RecoverError.InvalidSignatureLength */\n      0x02\n        /* \"https://raw.githubusercontent.com/OpenZeppelin/openzeppelin-contracts/v5.0.1/contracts/utils/cryptography/ECDSA.sol\":7452:7496  error == RecoverError.InvalidSignatureLength */\n      0x03\n      dup2\n      gt\n      iszero\n      tag_281\n      jumpi\n      tag_282\n      tag_270\n      jump\t// in\n    tag_282:\n    tag_281:\n        /* \"https://raw.githubusercontent.com/OpenZeppelin/openzeppelin-contracts/v5.0.1/contracts/utils/cryptography/ECDSA.sol\":7452:7457  error */\n      dup3\n        /* \"https://raw.githubusercontent.com/OpenZeppelin/openzeppelin-contracts/v5.0.1/contracts/utils/cryptography/ECDSA.sol\":7452:7496  error == RecoverError.InvalidSignatureLength */\n      0x03\n      dup2\n      gt\n      iszero\n      tag_283\n      jumpi\n      tag_284\n      tag_270\n      jump\t// in\n    tag_284:\n    tag_283:\n      sub\n        /* \"https://raw.githubusercontent.com/OpenZeppelin/openzeppelin-contracts/v5.0.1/contracts/utils/cryptography/ECDSA.sol\":7448:7691  if (error == RecoverError.InvalidSignatureLength) {... */\n      tag_285\n      jumpi\n        /* \"https://raw.githubusercontent.com/OpenZeppelin/openzeppelin-contracts/v5.0.1/contracts/utils/cryptography/ECDSA.sol\":7555:7563  errorArg */\n      dup1\n        /* \"https://raw.githubusercontent.com/OpenZeppelin/openzeppelin-contracts/v5.0.1/contracts/utils/cryptography/ECDSA.sol\":7547:7564  uint256(errorArg) */\n      0x00\n      shr\n        /* \"https://raw.githubusercontent.com/OpenZeppelin/openzeppelin-contracts/v5.0.1/contracts/utils/cryptography/ECDSA.sol\":7519:7565  ECDSAInvalidSignatureLength(uint256(errorArg)) */\n      mload(0x40)\n      0xfce698f700000000000000000000000000000000000000000000000000000000\n      dup2\n      mstore\n      0x04\n      add\n      tag_286\n      swap2\n      swap1\n      tag_37\n      jump\t// in\n    tag_286:\n      mload(0x40)\n      dup1\n      swap2\n      sub\n      swap1\n      revert\n        /* \"https://raw.githubusercontent.com/OpenZeppelin/openzeppelin-contracts/v5.0.1/contracts/utils/cryptography/ECDSA.sol\":7448:7691  if (error == RecoverError.InvalidSignatureLength) {... */\n    tag_285:\n        /* \"https://raw.githubusercontent.com/OpenZeppelin/openzeppelin-contracts/v5.0.1/contracts/utils/cryptography/ECDSA.sol\":7595:7625  RecoverError.InvalidSignatureS */\n      0x03\n        /* \"https://raw.githubusercontent.com/OpenZeppelin/openzeppelin-contracts/v5.0.1/contracts/utils/cryptography/ECDSA.sol\":7586:7625  error == RecoverError.InvalidSignatureS */\n      dup1\n      dup2\n      gt\n      iszero\n      tag_288\n      jumpi\n      tag_289\n      tag_270\n      jump\t// in\n    tag_289:\n    tag_288:\n        /* \"https://raw.githubusercontent.com/OpenZeppelin/openzeppelin-contracts/v5.0.1/contracts/utils/cryptography/ECDSA.sol\":7586:7591  error */\n      dup3\n        /* \"https://raw.githubusercontent.com/OpenZeppelin/openzeppelin-contracts/v5.0.1/contracts/utils/cryptography/ECDSA.sol\":7586:7625  error == RecoverError.InvalidSignatureS */\n      0x03\n      dup2\n      gt\n      iszero\n      tag_290\n      jumpi\n      tag_291\n      tag_270\n      jump\t// in\n    tag_291:\n    tag_290:\n      sub\n        /* \"https://raw.githubusercontent.com/OpenZeppelin/openzeppelin-contracts/v5.0.1/contracts/utils/cryptography/ECDSA.sol\":7582:7691  if (error == RecoverError.InvalidSignatureS) {... */\n      tag_292\n      jumpi\n        /* \"https://raw.githubusercontent.com/OpenZeppelin/openzeppelin-contracts/v5.0.1/contracts/utils/cryptography/ECDSA.sol\":7671:7679  errorArg */\n      dup1\n        /* \"https://raw.githubusercontent.com/OpenZeppelin/openzeppelin-contracts/v5.0.1/contracts/utils/cryptography/ECDSA.sol\":7648:7680  ECDSAInvalidSignatureS(errorArg) */\n      mload(0x40)\n      0xd78bce0c00000000000000000000000000000000000000000000000000000000\n      dup2\n      mstore\n      0x04\n      add\n      tag_293\n      swap2\n      swap1\n      tag_50\n      jump\t// in\n    tag_293:\n      mload(0x40)\n      dup1\n      swap2\n      sub\n      swap1\n      revert\n        /* \"https://raw.githubusercontent.com/OpenZeppelin/openzeppelin-contracts/v5.0.1/contracts/utils/cryptography/ECDSA.sol\":7582:7691  if (error == RecoverError.InvalidSignatureS) {... */\n    tag_292:\n        /* \"https://raw.githubusercontent.com/OpenZeppelin/openzeppelin-contracts/v5.0.1/contracts/utils/cryptography/ECDSA.sol\":7165:7697  function _throwError(RecoverError error, bytes32 errorArg) private pure {... */\n    tag_267:\n      pop\n      pop\n      jump\t// out\n        /* \"https://raw.githubusercontent.com/OpenZeppelin/openzeppelin-contracts/v5.0.1/contracts/utils/ShortStrings.sol\":2078:2456  function toString(ShortString sstr) internal pure returns (string memory) {... */\n    tag_252:\n        /* \"https://raw.githubusercontent.com/OpenZeppelin/openzeppelin-contracts/v5.0.1/contracts/utils/ShortStrings.sol\":2137:2150  string memory */\n      0x60\n        /* \"https://raw.githubusercontent.com/OpenZeppelin/openzeppelin-contracts/v5.0.1/contracts/utils/ShortStrings.sol\":2162:2173  uint256 len */\n      0x00\n        /* \"https://raw.githubusercontent.com/OpenZeppelin/openzeppelin-contracts/v5.0.1/contracts/utils/ShortStrings.sol\":2176:2192  byteLength(sstr) */\n      tag_295\n        /* \"https://raw.githubusercontent.com/OpenZeppelin/openzeppelin-contracts/v5.0.1/contracts/utils/ShortStrings.sol\":2187:2191  sstr */\n      dup4\n        /* \"https://raw.githubusercontent.com/OpenZeppelin/openzeppelin-contracts/v5.0.1/contracts/utils/ShortStrings.sol\":2176:2186  byteLength */\n      tag_296\n        /* \"https://raw.githubusercontent.com/OpenZeppelin/openzeppelin-contracts/v5.0.1/contracts/utils/ShortStrings.sol\":2176:2192  byteLength(sstr) */\n      jump\t// in\n    tag_295:\n        /* \"https://raw.githubusercontent.com/OpenZeppelin/openzeppelin-contracts/v5.0.1/contracts/utils/ShortStrings.sol\":2162:2192  uint256 len = byteLength(sstr) */\n      swap1\n      pop\n        /* \"https://raw.githubusercontent.com/OpenZeppelin/openzeppelin-contracts/v5.0.1/contracts/utils/ShortStrings.sol\":2280:2297  string memory str */\n      0x00\n        /* \"https://raw.githubusercontent.com/OpenZeppelin/openzeppelin-contracts/v5.0.1/contracts/utils/ShortStrings.sol\":2311:2313  32 */\n      0x20\n        /* \"https://raw.githubusercontent.com/OpenZeppelin/openzeppelin-contracts/v5.0.1/contracts/utils/ShortStrings.sol\":2300:2314  new string(32) */\n      0xffffffffffffffff\n      dup2\n      gt\n      iszero\n      tag_297\n      jumpi\n      tag_298\n      tag_144\n      jump\t// in\n    tag_298:\n    tag_297:\n      mload(0x40)\n      swap1\n      dup1\n      dup3\n      mstore\n      dup1\n      0x1f\n      add\n      not(0x1f)\n      and\n      0x20\n      add\n      dup3\n      add\n      0x40\n      mstore\n      dup1\n      iszero\n      tag_299\n      jumpi\n      dup2\n      0x20\n      add\n      0x01\n      dup3\n      mul\n      dup1\n      calldatasize\n      dup4\n      calldatacopy\n      dup1\n      dup3\n      add\n      swap2\n      pop\n      pop\n      swap1\n      pop\n    tag_299:\n      pop\n        /* \"https://raw.githubusercontent.com/OpenZeppelin/openzeppelin-contracts/v5.0.1/contracts/utils/ShortStrings.sol\":2280:2314  string memory str = new string(32) */\n      swap1\n      pop\n        /* \"https://raw.githubusercontent.com/OpenZeppelin/openzeppelin-contracts/v5.0.1/contracts/utils/ShortStrings.sol\":2375:2378  len */\n      dup2\n        /* \"https://raw.githubusercontent.com/OpenZeppelin/openzeppelin-contracts/v5.0.1/contracts/utils/ShortStrings.sol\":2370:2373  str */\n      dup2\n        /* \"https://raw.githubusercontent.com/OpenZeppelin/openzeppelin-contracts/v5.0.1/contracts/utils/ShortStrings.sol\":2363:2379  mstore(str, len) */\n      mstore\n        /* \"https://raw.githubusercontent.com/OpenZeppelin/openzeppelin-contracts/v5.0.1/contracts/utils/ShortStrings.sol\":2415:2419  sstr */\n      dup4\n        /* \"https://raw.githubusercontent.com/OpenZeppelin/openzeppelin-contracts/v5.0.1/contracts/utils/ShortStrings.sol\":2408:2412  0x20 */\n      0x20\n        /* \"https://raw.githubusercontent.com/OpenZeppelin/openzeppelin-contracts/v5.0.1/contracts/utils/ShortStrings.sol\":2403:2406  str */\n      dup3\n        /* \"https://raw.githubusercontent.com/OpenZeppelin/openzeppelin-contracts/v5.0.1/contracts/utils/ShortStrings.sol\":2399:2413  add(str, 0x20) */\n      add\n        /* \"https://raw.githubusercontent.com/OpenZeppelin/openzeppelin-contracts/v5.0.1/contracts/utils/ShortStrings.sol\":2392:2420  mstore(add(str, 0x20), sstr) */\n      mstore\n        /* \"https://raw.githubusercontent.com/OpenZeppelin/openzeppelin-contracts/v5.0.1/contracts/utils/ShortStrings.sol\":2446:2449  str */\n      dup1\n        /* \"https://raw.githubusercontent.com/OpenZeppelin/openzeppelin-contracts/v5.0.1/contracts/utils/ShortStrings.sol\":2439:2449  return str */\n      swap3\n      pop\n      pop\n      pop\n        /* \"https://raw.githubusercontent.com/OpenZeppelin/openzeppelin-contracts/v5.0.1/contracts/utils/ShortStrings.sol\":2078:2456  function toString(ShortString sstr) internal pure returns (string memory) {... */\n      swap2\n      swap1\n      pop\n      jump\t// out\n        /* \"https://raw.githubusercontent.com/OpenZeppelin/openzeppelin-contracts/v5.0.1/contracts/utils/ShortStrings.sol\":2528:2773  function byteLength(ShortString sstr) internal pure returns (uint256) {... */\n    tag_296:\n        /* \"https://raw.githubusercontent.com/OpenZeppelin/openzeppelin-contracts/v5.0.1/contracts/utils/ShortStrings.sol\":2589:2596  uint256 */\n      0x00\n        /* \"https://raw.githubusercontent.com/OpenZeppelin/openzeppelin-contracts/v5.0.1/contracts/utils/ShortStrings.sol\":2608:2622  uint256 result */\n      0x00\n        /* \"https://raw.githubusercontent.com/OpenZeppelin/openzeppelin-contracts/v5.0.1/contracts/utils/ShortStrings.sol\":2661:2665  0xFF */\n      0xff\n        /* \"https://raw.githubusercontent.com/OpenZeppelin/openzeppelin-contracts/v5.0.1/contracts/utils/ShortStrings.sol\":2652:2656  sstr */\n      dup4\n        /* \"https://raw.githubusercontent.com/OpenZeppelin/openzeppelin-contracts/v5.0.1/contracts/utils/ShortStrings.sol\":2625:2658  uint256(ShortString.unwrap(sstr)) */\n      0x00\n      shr\n        /* \"https://raw.githubusercontent.com/OpenZeppelin/openzeppelin-contracts/v5.0.1/contracts/utils/ShortStrings.sol\":2625:2665  uint256(ShortString.unwrap(sstr)) & 0xFF */\n      and\n        /* \"https://raw.githubusercontent.com/OpenZeppelin/openzeppelin-contracts/v5.0.1/contracts/utils/ShortStrings.sol\":2608:2665  uint256 result = uint256(ShortString.unwrap(sstr)) & 0xFF */\n      swap1\n      pop\n        /* \"https://raw.githubusercontent.com/OpenZeppelin/openzeppelin-contracts/v5.0.1/contracts/utils/ShortStrings.sol\":2688:2690  31 */\n      0x1f\n        /* \"https://raw.githubusercontent.com/OpenZeppelin/openzeppelin-contracts/v5.0.1/contracts/utils/ShortStrings.sol\":2679:2685  result */\n      dup2\n        /* \"https://raw.githubusercontent.com/OpenZeppelin/openzeppelin-contracts/v5.0.1/contracts/utils/ShortStrings.sol\":2679:2690  result > 31 */\n      gt\n        /* \"https://raw.githubusercontent.com/OpenZeppelin/openzeppelin-contracts/v5.0.1/contracts/utils/ShortStrings.sol\":2675:2744  if (result > 31) {... */\n      iszero\n      tag_301\n      jumpi\n        /* \"https://raw.githubusercontent.com/OpenZeppelin/openzeppelin-contracts/v5.0.1/contracts/utils/ShortStrings.sol\":2713:2733  InvalidShortString() */\n      mload(0x40)\n      0xb3512b0c00000000000000000000000000000000000000000000000000000000\n      dup2\n      mstore\n      0x04\n      add\n      mload(0x40)\n      dup1\n      swap2\n      sub\n      swap1\n      revert\n        /* \"https://raw.githubusercontent.com/OpenZeppelin/openzeppelin-contracts/v5.0.1/contracts/utils/ShortStrings.sol\":2675:2744  if (result > 31) {... */\n    tag_301:\n        /* \"https://raw.githubusercontent.com/OpenZeppelin/openzeppelin-contracts/v5.0.1/contracts/utils/ShortStrings.sol\":2760:2766  result */\n      dup1\n        /* \"https://raw.githubusercontent.com/OpenZeppelin/openzeppelin-contracts/v5.0.1/contracts/utils/ShortStrings.sol\":2753:2766  return result */\n      swap2\n      pop\n      pop\n        /* \"https://raw.githubusercontent.com/OpenZeppelin/openzeppelin-contracts/v5.0.1/contracts/utils/ShortStrings.sol\":2528:2773  function byteLength(ShortString sstr) internal pure returns (uint256) {... */\n      swap2\n      swap1\n      pop\n      jump\t// out\n        /* \"#utility.yul\":7:106   */\n    tag_302:\n        /* \"#utility.yul\":59:65   */\n      0x00\n        /* \"#utility.yul\":93:98   */\n      dup2\n        /* \"#utility.yul\":87:99   */\n      mload\n        /* \"#utility.yul\":77:99   */\n      swap1\n      pop\n        /* \"#utility.yul\":7:106   */\n      swap2\n      swap1\n      pop\n      jump\t// out\n        /* \"#utility.yul\":112:281   */\n    tag_303:\n        /* \"#utility.yul\":196:207   */\n      0x00\n        /* \"#utility.yul\":230:236   */\n      dup3\n        /* \"#utility.yul\":225:228   */\n      dup3\n        /* \"#utility.yul\":218:237   */\n      mstore\n        /* \"#utility.yul\":270:274   */\n      0x20\n        /* \"#utility.yul\":265:268   */\n      dup3\n        /* \"#utility.yul\":261:275   */\n      add\n        /* \"#utility.yul\":246:275   */\n      swap1\n      pop\n        /* \"#utility.yul\":112:281   */\n      swap3\n      swap2\n      pop\n      pop\n      jump\t// out\n        /* \"#utility.yul\":287:426   */\n    tag_304:\n        /* \"#utility.yul\":376:382   */\n      dup3\n        /* \"#utility.yul\":371:374   */\n      dup2\n        /* \"#utility.yul\":366:369   */\n      dup4\n        /* \"#utility.yul\":360:383   */\n      mcopy\n        /* \"#utility.yul\":417:418   */\n      0x00\n        /* \"#utility.yul\":408:414   */\n      dup4\n        /* \"#utility.yul\":403:406   */\n      dup4\n        /* \"#utility.yul\":399:415   */\n      add\n        /* \"#utility.yul\":392:419   */\n      mstore\n        /* \"#utility.yul\":287:426   */\n      pop\n      pop\n      pop\n      jump\t// out\n        /* \"#utility.yul\":432:534   */\n    tag_305:\n        /* \"#utility.yul\":473:479   */\n      0x00\n        /* \"#utility.yul\":524:526   */\n      0x1f\n        /* \"#utility.yul\":520:527   */\n      not\n        /* \"#utility.yul\":515:517   */\n      0x1f\n        /* \"#utility.yul\":508:513   */\n      dup4\n        /* \"#utility.yul\":504:518   */\n      add\n        /* \"#utility.yul\":500:528   */\n      and\n        /* \"#utility.yul\":490:528   */\n      swap1\n      pop\n        /* \"#utility.yul\":432:534   */\n      swap2\n      swap1\n      pop\n      jump\t// out\n        /* \"#utility.yul\":540:917   */\n    tag_306:\n        /* \"#utility.yul\":628:631   */\n      0x00\n        /* \"#utility.yul\":656:695   */\n      tag_346\n        /* \"#utility.yul\":689:694   */\n      dup3\n        /* \"#utility.yul\":656:695   */\n      tag_302\n      jump\t// in\n    tag_346:\n        /* \"#utility.yul\":711:782   */\n      tag_347\n        /* \"#utility.yul\":775:781   */\n      dup2\n        /* \"#utility.yul\":770:773   */\n      dup6\n        /* \"#utility.yul\":711:782   */\n      tag_303\n      jump\t// in\n    tag_347:\n        /* \"#utility.yul\":704:782   */\n      swap4\n      pop\n        /* \"#utility.yul\":791:856   */\n      tag_348\n        /* \"#utility.yul\":849:855   */\n      dup2\n        /* \"#utility.yul\":844:847   */\n      dup6\n        /* \"#utility.yul\":837:841   */\n      0x20\n        /* \"#utility.yul\":830:835   */\n      dup7\n        /* \"#utility.yul\":826:842   */\n      add\n        /* \"#utility.yul\":791:856   */\n      tag_304\n      jump\t// in\n    tag_348:\n        /* \"#utility.yul\":881:910   */\n      tag_349\n        /* \"#utility.yul\":903:909   */\n      dup2\n        /* \"#utility.yul\":881:910   */\n      tag_305\n      jump\t// in\n    tag_349:\n        /* \"#utility.yul\":876:879   */\n      dup5\n        /* \"#utility.yul\":872:911   */\n      add\n        /* \"#utility.yul\":865:911   */\n      swap2\n      pop\n        /* \"#utility.yul\":632:917   */\n      pop\n        /* \"#utility.yul\":540:917   */\n      swap3\n      swap2\n      pop\n      pop\n      jump\t// out\n        /* \"#utility.yul\":923:1236   */\n    tag_27:\n        /* \"#utility.yul\":1036:1040   */\n      0x00\n        /* \"#utility.yul\":1074:1076   */\n      0x20\n        /* \"#utility.yul\":1063:1072   */\n      dup3\n        /* \"#utility.yul\":1059:1077   */\n      add\n        /* \"#utility.yul\":1051:1077   */\n      swap1\n      pop\n        /* \"#utility.yul\":1123:1132   */\n      dup2\n        /* \"#utility.yul\":1117:1121   */\n      dup2\n        /* \"#utility.yul\":1113:1133   */\n      sub\n        /* \"#utility.yul\":1109:1110   */\n      0x00\n        /* \"#utility.yul\":1098:1107   */\n      dup4\n        /* \"#utility.yul\":1094:1111   */\n      add\n        /* \"#utility.yul\":1087:1134   */\n      mstore\n        /* \"#utility.yul\":1151:1229   */\n      tag_351\n        /* \"#utility.yul\":1224:1228   */\n      dup2\n        /* \"#utility.yul\":1215:1221   */\n      dup5\n        /* \"#utility.yul\":1151:1229   */\n      tag_306\n      jump\t// in\n    tag_351:\n        /* \"#utility.yul\":1143:1229   */\n      swap1\n      pop\n        /* \"#utility.yul\":923:1236   */\n      swap3\n      swap2\n      pop\n      pop\n      jump\t// out\n        /* \"#utility.yul\":1323:1440   */\n    tag_308:\n        /* \"#utility.yul\":1432:1433   */\n      0x00\n        /* \"#utility.yul\":1429:1430   */\n      0x00\n        /* \"#utility.yul\":1422:1434   */\n      revert\n        /* \"#utility.yul\":1569:1695   */\n    tag_310:\n        /* \"#utility.yul\":1606:1613   */\n      0x00\n        /* \"#utility.yul\":1646:1688   */\n      0xffffffffffffffffffffffffffffffffffffffff\n        /* \"#utility.yul\":1639:1644   */\n      dup3\n        /* \"#utility.yul\":1635:1689   */\n      and\n        /* \"#utility.yul\":1624:1689   */\n      swap1\n      pop\n        /* \"#utility.yul\":1569:1695   */\n      swap2\n      swap1\n      pop\n      jump\t// out\n        /* \"#utility.yul\":1701:1797   */\n    tag_311:\n        /* \"#utility.yul\":1738:1745   */\n      0x00\n        /* \"#utility.yul\":1767:1791   */\n      tag_357\n        /* \"#utility.yul\":1785:1790   */\n      dup3\n        /* \"#utility.yul\":1767:1791   */\n      tag_310\n      jump\t// in\n    tag_357:\n        /* \"#utility.yul\":1756:1791   */\n      swap1\n      pop\n        /* \"#utility.yul\":1701:1797   */\n      swap2\n      swap1\n      pop\n      jump\t// out\n        /* \"#utility.yul\":1803:1925   */\n    tag_312:\n        /* \"#utility.yul\":1876:1900   */\n      tag_359\n        /* \"#utility.yul\":1894:1899   */\n      dup2\n        /* \"#utility.yul\":1876:1900   */\n      tag_311\n      jump\t// in\n    tag_359:\n        /* \"#utility.yul\":1869:1874   */\n      dup2\n        /* \"#utility.yul\":1866:1901   */\n      eq\n        /* \"#utility.yul\":1856:1919   */\n      tag_360\n      jumpi\n        /* \"#utility.yul\":1915:1916   */\n      0x00\n        /* \"#utility.yul\":1912:1913   */\n      0x00\n        /* \"#utility.yul\":1905:1917   */\n      revert\n        /* \"#utility.yul\":1856:1919   */\n    tag_360:\n        /* \"#utility.yul\":1803:1925   */\n      pop\n      jump\t// out\n        /* \"#utility.yul\":1931:2070   */\n    tag_313:\n        /* \"#utility.yul\":1977:1982   */\n      0x00\n        /* \"#utility.yul\":2015:2021   */\n      dup2\n        /* \"#utility.yul\":2002:2022   */\n      calldataload\n        /* \"#utility.yul\":1993:2022   */\n      swap1\n      pop\n        /* \"#utility.yul\":2031:2064   */\n      tag_362\n        /* \"#utility.yul\":2058:2063   */\n      dup2\n        /* \"#utility.yul\":2031:2064   */\n      tag_312\n      jump\t// in\n    tag_362:\n        /* \"#utility.yul\":1931:2070   */\n      swap3\n      swap2\n      pop\n      pop\n      jump\t// out\n        /* \"#utility.yul\":2076:2153   */\n    tag_314:\n        /* \"#utility.yul\":2113:2120   */\n      0x00\n        /* \"#utility.yul\":2142:2147   */\n      dup2\n        /* \"#utility.yul\":2131:2147   */\n      swap1\n      pop\n        /* \"#utility.yul\":2076:2153   */\n      swap2\n      swap1\n      pop\n      jump\t// out\n        /* \"#utility.yul\":2159:2281   */\n    tag_315:\n        /* \"#utility.yul\":2232:2256   */\n      tag_365\n        /* \"#utility.yul\":2250:2255   */\n      dup2\n        /* \"#utility.yul\":2232:2256   */\n      tag_314\n      jump\t// in\n    tag_365:\n        /* \"#utility.yul\":2225:2230   */\n      dup2\n        /* \"#utility.yul\":2222:2257   */\n      eq\n        /* \"#utility.yul\":2212:2275   */\n      tag_366\n      jumpi\n        /* \"#utility.yul\":2271:2272   */\n      0x00\n        /* \"#utility.yul\":2268:2269   */\n      0x00\n        /* \"#utility.yul\":2261:2273   */\n      revert\n        /* \"#utility.yul\":2212:2275   */\n    tag_366:\n        /* \"#utility.yul\":2159:2281   */\n      pop\n      jump\t// out\n        /* \"#utility.yul\":2287:2426   */\n    tag_316:\n        /* \"#utility.yul\":2333:2338   */\n      0x00\n        /* \"#utility.yul\":2371:2377   */\n      dup2\n        /* \"#utility.yul\":2358:2378   */\n      calldataload\n        /* \"#utility.yul\":2349:2378   */\n      swap1\n      pop\n        /* \"#utility.yul\":2387:2420   */\n      tag_368\n        /* \"#utility.yul\":2414:2419   */\n      dup2\n        /* \"#utility.yul\":2387:2420   */\n      tag_315\n      jump\t// in\n    tag_368:\n        /* \"#utility.yul\":2287:2426   */\n      swap3\n      swap2\n      pop\n      pop\n      jump\t// out\n        /* \"#utility.yul\":2432:2906   */\n    tag_30:\n        /* \"#utility.yul\":2500:2506   */\n      0x00\n        /* \"#utility.yul\":2508:2514   */\n      0x00\n        /* \"#utility.yul\":2557:2559   */\n      0x40\n        /* \"#utility.yul\":2545:2554   */\n      dup4\n        /* \"#utility.yul\":2536:2543   */\n      dup6\n        /* \"#utility.yul\":2532:2555   */\n      sub\n        /* \"#utility.yul\":2528:2560   */\n      slt\n        /* \"#utility.yul\":2525:2644   */\n      iszero\n      tag_370\n      jumpi\n        /* \"#utility.yul\":2563:2642   */\n      tag_371\n      tag_308\n      jump\t// in\n    tag_371:\n        /* \"#utility.yul\":2525:2644   */\n    tag_370:\n        /* \"#utility.yul\":2683:2684   */\n      0x00\n        /* \"#utility.yul\":2708:2761   */\n      tag_372\n        /* \"#utility.yul\":2753:2760   */\n      dup6\n        /* \"#utility.yul\":2744:2750   */\n      dup3\n        /* \"#utility.yul\":2733:2742   */\n      dup7\n        /* \"#utility.yul\":2729:2751   */\n      add\n        /* \"#utility.yul\":2708:2761   */\n      tag_313\n      jump\t// in\n    tag_372:\n        /* \"#utility.yul\":2698:2761   */\n      swap3\n      pop\n        /* \"#utility.yul\":2654:2771   */\n      pop\n        /* \"#utility.yul\":2810:2812   */\n      0x20\n        /* \"#utility.yul\":2836:2889   */\n      tag_373\n        /* \"#utility.yul\":2881:2888   */\n      dup6\n        /* \"#utility.yul\":2872:2878   */\n      dup3\n        /* \"#utility.yul\":2861:2870   */\n      dup7\n        /* \"#utility.yul\":2857:2879   */\n      add\n        /* \"#utility.yul\":2836:2889   */\n      tag_316\n      jump\t// in\n    tag_373:\n        /* \"#utility.yul\":2826:2889   */\n      swap2\n      pop\n        /* \"#utility.yul\":2781:2899   */\n      pop\n        /* \"#utility.yul\":2432:2906   */\n      swap3\n      pop\n      swap3\n      swap1\n      pop\n      jump\t// out\n        /* \"#utility.yul\":2912:3002   */\n    tag_317:\n        /* \"#utility.yul\":2946:2953   */\n      0x00\n        /* \"#utility.yul\":2989:2994   */\n      dup2\n        /* \"#utility.yul\":2982:2995   */\n      iszero\n        /* \"#utility.yul\":2975:2996   */\n      iszero\n        /* \"#utility.yul\":2964:2996   */\n      swap1\n      pop\n        /* \"#utility.yul\":2912:3002   */\n      swap2\n      swap1\n      pop\n      jump\t// out\n        /* \"#utility.yul\":3008:3117   */\n    tag_318:\n        /* \"#utility.yul\":3089:3110   */\n      tag_376\n        /* \"#utility.yul\":3104:3109   */\n      dup2\n        /* \"#utility.yul\":3089:3110   */\n      tag_317\n      jump\t// in\n    tag_376:\n        /* \"#utility.yul\":3084:3087   */\n      dup3\n        /* \"#utility.yul\":3077:3111   */\n      mstore\n        /* \"#utility.yul\":3008:3117   */\n      pop\n      pop\n      jump\t// out\n        /* \"#utility.yul\":3123:3333   */\n    tag_33:\n        /* \"#utility.yul\":3210:3214   */\n      0x00\n        /* \"#utility.yul\":3248:3250   */\n      0x20\n        /* \"#utility.yul\":3237:3246   */\n      dup3\n        /* \"#utility.yul\":3233:3251   */\n      add\n        /* \"#utility.yul\":3225:3251   */\n      swap1\n      pop\n        /* \"#utility.yul\":3261:3326   */\n      tag_378\n        /* \"#utility.yul\":3323:3324   */\n      0x00\n        /* \"#utility.yul\":3312:3321   */\n      dup4\n        /* \"#utility.yul\":3308:3325   */\n      add\n        /* \"#utility.yul\":3299:3305   */\n      dup5\n        /* \"#utility.yul\":3261:3326   */\n      tag_318\n      jump\t// in\n    tag_378:\n        /* \"#utility.yul\":3123:3333   */\n      swap3\n      swap2\n      pop\n      pop\n      jump\t// out\n        /* \"#utility.yul\":3339:3457   */\n    tag_319:\n        /* \"#utility.yul\":3426:3450   */\n      tag_380\n        /* \"#utility.yul\":3444:3449   */\n      dup2\n        /* \"#utility.yul\":3426:3450   */\n      tag_314\n      jump\t// in\n    tag_380:\n        /* \"#utility.yul\":3421:3424   */\n      dup3\n        /* \"#utility.yul\":3414:3451   */\n      mstore\n        /* \"#utility.yul\":3339:3457   */\n      pop\n      pop\n      jump\t// out\n        /* \"#utility.yul\":3463:3685   */\n    tag_37:\n        /* \"#utility.yul\":3556:3560   */\n      0x00\n        /* \"#utility.yul\":3594:3596   */\n      0x20\n        /* \"#utility.yul\":3583:3592   */\n      dup3\n        /* \"#utility.yul\":3579:3597   */\n      add\n        /* \"#utility.yul\":3571:3597   */\n      swap1\n      pop\n        /* \"#utility.yul\":3607:3678   */\n      tag_382\n        /* \"#utility.yul\":3675:3676   */\n      0x00\n        /* \"#utility.yul\":3664:3673   */\n      dup4\n        /* \"#utility.yul\":3660:3677   */\n      add\n        /* \"#utility.yul\":3651:3657   */\n      dup5\n        /* \"#utility.yul\":3607:3678   */\n      tag_319\n      jump\t// in\n    tag_382:\n        /* \"#utility.yul\":3463:3685   */\n      swap3\n      swap2\n      pop\n      pop\n      jump\t// out\n        /* \"#utility.yul\":3691:4310   */\n    tag_40:\n        /* \"#utility.yul\":3768:3774   */\n      0x00\n        /* \"#utility.yul\":3776:3782   */\n      0x00\n        /* \"#utility.yul\":3784:3790   */\n      0x00\n        /* \"#utility.yul\":3833:3835   */\n      0x60\n        /* \"#utility.yul\":3821:3830   */\n      dup5\n        /* \"#utility.yul\":3812:3819   */\n      dup7\n        /* \"#utility.yul\":3808:3831   */\n      sub\n        /* \"#utility.yul\":3804:3836   */\n      slt\n        /* \"#utility.yul\":3801:3920   */\n      iszero\n      tag_384\n      jumpi\n        /* \"#utility.yul\":3839:3918   */\n      tag_385\n      tag_308\n      jump\t// in\n    tag_385:\n        /* \"#utility.yul\":3801:3920   */\n    tag_384:\n        /* \"#utility.yul\":3959:3960   */\n      0x00\n        /* \"#utility.yul\":3984:4037   */\n      tag_386\n        /* \"#utility.yul\":4029:4036   */\n      dup7\n        /* \"#utility.yul\":4020:4026   */\n      dup3\n        /* \"#utility.yul\":4009:4018   */\n      dup8\n        /* \"#utility.yul\":4005:4027   */\n      add\n        /* \"#utility.yul\":3984:4037   */\n      tag_313\n      jump\t// in\n    tag_386:\n        /* \"#utility.yul\":3974:4037   */\n      swap4\n      pop\n        /* \"#utility.yul\":3930:4047   */\n      pop\n        /* \"#utility.yul\":4086:4088   */\n      0x20\n        /* \"#utility.yul\":4112:4165   */\n      tag_387\n        /* \"#utility.yul\":4157:4164   */\n      dup7\n        /* \"#utility.yul\":4148:4154   */\n      dup3\n        /* \"#utility.yul\":4137:4146   */\n      dup8\n        /* \"#utility.yul\":4133:4155   */\n      add\n        /* \"#utility.yul\":4112:4165   */\n      tag_313\n      jump\t// in\n    tag_387:\n        /* \"#utility.yul\":4102:4165   */\n      swap3\n      pop\n        /* \"#utility.yul\":4057:4175   */\n      pop\n        /* \"#utility.yul\":4214:4216   */\n      0x40\n        /* \"#utility.yul\":4240:4293   */\n      tag_388\n        /* \"#utility.yul\":4285:4292   */\n      dup7\n        /* \"#utility.yul\":4276:4282   */\n      dup3\n        /* \"#utility.yul\":4265:4274   */\n      dup8\n        /* \"#utility.yul\":4261:4283   */\n      add\n        /* \"#utility.yul\":4240:4293   */\n      tag_316\n      jump\t// in\n    tag_388:\n        /* \"#utility.yul\":4230:4293   */\n      swap2\n      pop\n        /* \"#utility.yul\":4185:4303   */\n      pop\n        /* \"#utility.yul\":3691:4310   */\n      swap3\n      pop\n      swap3\n      pop\n      swap3\n      jump\t// out\n        /* \"#utility.yul\":4316:4402   */\n    tag_320:\n        /* \"#utility.yul\":4351:4358   */\n      0x00\n        /* \"#utility.yul\":4391:4395   */\n      0xff\n        /* \"#utility.yul\":4384:4389   */\n      dup3\n        /* \"#utility.yul\":4380:4396   */\n      and\n        /* \"#utility.yul\":4369:4396   */\n      swap1\n      pop\n        /* \"#utility.yul\":4316:4402   */\n      swap2\n      swap1\n      pop\n      jump\t// out\n        /* \"#utility.yul\":4408:4520   */\n    tag_321:\n        /* \"#utility.yul\":4491:4513   */\n      tag_391\n        /* \"#utility.yul\":4507:4512   */\n      dup2\n        /* \"#utility.yul\":4491:4513   */\n      tag_320\n      jump\t// in\n    tag_391:\n        /* \"#utility.yul\":4486:4489   */\n      dup3\n        /* \"#utility.yul\":4479:4514   */\n      mstore\n        /* \"#utility.yul\":4408:4520   */\n      pop\n      pop\n      jump\t// out\n        /* \"#utility.yul\":4526:4740   */\n    tag_46:\n        /* \"#utility.yul\":4615:4619   */\n      0x00\n        /* \"#utility.yul\":4653:4655   */\n      0x20\n        /* \"#utility.yul\":4642:4651   */\n      dup3\n        /* \"#utility.yul\":4638:4656   */\n      add\n        /* \"#utility.yul\":4630:4656   */\n      swap1\n      pop\n        /* \"#utility.yul\":4666:4733   */\n      tag_393\n        /* \"#utility.yul\":4730:4731   */\n      0x00\n        /* \"#utility.yul\":4719:4728   */\n      dup4\n        /* \"#utility.yul\":4715:4732   */\n      add\n        /* \"#utility.yul\":4706:4712   */\n      dup5\n        /* \"#utility.yul\":4666:4733   */\n      tag_321\n      jump\t// in\n    tag_393:\n        /* \"#utility.yul\":4526:4740   */\n      swap3\n      swap2\n      pop\n      pop\n      jump\t// out\n        /* \"#utility.yul\":4746:4823   */\n    tag_322:\n        /* \"#utility.yul\":4783:4790   */\n      0x00\n        /* \"#utility.yul\":4812:4817   */\n      dup2\n        /* \"#utility.yul\":4801:4817   */\n      swap1\n      pop\n        /* \"#utility.yul\":4746:4823   */\n      swap2\n      swap1\n      pop\n      jump\t// out\n        /* \"#utility.yul\":4829:4947   */\n    tag_323:\n        /* \"#utility.yul\":4916:4940   */\n      tag_396\n        /* \"#utility.yul\":4934:4939   */\n      dup2\n        /* \"#utility.yul\":4916:4940   */\n      tag_322\n      jump\t// in\n    tag_396:\n        /* \"#utility.yul\":4911:4914   */\n      dup3\n        /* \"#utility.yul\":4904:4941   */\n      mstore\n        /* \"#utility.yul\":4829:4947   */\n      pop\n      pop\n      jump\t// out\n        /* \"#utility.yul\":4953:5175   */\n    tag_50:\n        /* \"#utility.yul\":5046:5050   */\n      0x00\n        /* \"#utility.yul\":5084:5086   */\n      0x20\n        /* \"#utility.yul\":5073:5082   */\n      dup3\n        /* \"#utility.yul\":5069:5087   */\n      add\n        /* \"#utility.yul\":5061:5087   */\n      swap1\n      pop\n        /* \"#utility.yul\":5097:5168   */\n      tag_398\n        /* \"#utility.yul\":5165:5166   */\n      0x00\n        /* \"#utility.yul\":5154:5163   */\n      dup4\n        /* \"#utility.yul\":5150:5167   */\n      add\n        /* \"#utility.yul\":5141:5147   */\n      dup5\n        /* \"#utility.yul\":5097:5168   */\n      tag_323\n      jump\t// in\n    tag_398:\n        /* \"#utility.yul\":4953:5175   */\n      swap3\n      swap2\n      pop\n      pop\n      jump\t// out\n        /* \"#utility.yul\":5181:5510   */\n    tag_53:\n        /* \"#utility.yul\":5240:5246   */\n      0x00\n        /* \"#utility.yul\":5289:5291   */\n      0x20\n        /* \"#utility.yul\":5277:5286   */\n      dup3\n        /* \"#utility.yul\":5268:5275   */\n      dup5\n        /* \"#utility.yul\":5264:5287   */\n      sub\n        /* \"#utility.yul\":5260:5292   */\n      slt\n        /* \"#utility.yul\":5257:5376   */\n      iszero\n      tag_400\n      jumpi\n        /* \"#utility.yul\":5295:5374   */\n      tag_401\n      tag_308\n      jump\t// in\n    tag_401:\n        /* \"#utility.yul\":5257:5376   */\n    tag_400:\n        /* \"#utility.yul\":5415:5416   */\n      0x00\n        /* \"#utility.yul\":5440:5493   */\n      tag_402\n        /* \"#utility.yul\":5485:5492   */\n      dup5\n        /* \"#utility.yul\":5476:5482   */\n      dup3\n        /* \"#utility.yul\":5465:5474   */\n      dup6\n        /* \"#utility.yul\":5461:5483   */\n      add\n        /* \"#utility.yul\":5440:5493   */\n      tag_316\n      jump\t// in\n    tag_402:\n        /* \"#utility.yul\":5430:5493   */\n      swap2\n      pop\n        /* \"#utility.yul\":5386:5503   */\n      pop\n        /* \"#utility.yul\":5181:5510   */\n      swap3\n      swap2\n      pop\n      pop\n      jump\t// out\n        /* \"#utility.yul\":5516:5845   */\n    tag_57:\n        /* \"#utility.yul\":5575:5581   */\n      0x00\n        /* \"#utility.yul\":5624:5626   */\n      0x20\n        /* \"#utility.yul\":5612:5621   */\n      dup3\n        /* \"#utility.yul\":5603:5610   */\n      dup5\n        /* \"#utility.yul\":5599:5622   */\n      sub\n        /* \"#utility.yul\":5595:5627   */\n      slt\n        /* \"#utility.yul\":5592:5711   */\n      iszero\n      tag_404\n      jumpi\n        /* \"#utility.yul\":5630:5709   */\n      tag_405\n      tag_308\n      jump\t// in\n    tag_405:\n        /* \"#utility.yul\":5592:5711   */\n    tag_404:\n        /* \"#utility.yul\":5750:5751   */\n      0x00\n        /* \"#utility.yul\":5775:5828   */\n      tag_406\n        /* \"#utility.yul\":5820:5827   */\n      dup5\n        /* \"#utility.yul\":5811:5817   */\n      dup3\n        /* \"#utility.yul\":5800:5809   */\n      dup6\n        /* \"#utility.yul\":5796:5818   */\n      add\n        /* \"#utility.yul\":5775:5828   */\n      tag_313\n      jump\t// in\n    tag_406:\n        /* \"#utility.yul\":5765:5828   */\n      swap2\n      pop\n        /* \"#utility.yul\":5721:5838   */\n      pop\n        /* \"#utility.yul\":5516:5845   */\n      swap3\n      swap2\n      pop\n      pop\n      jump\t// out\n        /* \"#utility.yul\":5851:6000   */\n    tag_324:\n        /* \"#utility.yul\":5887:5894   */\n      0x00\n        /* \"#utility.yul\":5927:5993   */\n      0xff00000000000000000000000000000000000000000000000000000000000000\n        /* \"#utility.yul\":5920:5925   */\n      dup3\n        /* \"#utility.yul\":5916:5994   */\n      and\n        /* \"#utility.yul\":5905:5994   */\n      swap1\n      pop\n        /* \"#utility.yul\":5851:6000   */\n      swap2\n      swap1\n      pop\n      jump\t// out\n        /* \"#utility.yul\":6006:6121   */\n    tag_325:\n        /* \"#utility.yul\":6091:6114   */\n      tag_409\n        /* \"#utility.yul\":6108:6113   */\n      dup2\n        /* \"#utility.yul\":6091:6114   */\n      tag_324\n      jump\t// in\n    tag_409:\n        /* \"#utility.yul\":6086:6089   */\n      dup3\n        /* \"#utility.yul\":6079:6115   */\n      mstore\n        /* \"#utility.yul\":6006:6121   */\n      pop\n      pop\n      jump\t// out\n        /* \"#utility.yul\":6127:6245   */\n    tag_326:\n        /* \"#utility.yul\":6214:6238   */\n      tag_411\n        /* \"#utility.yul\":6232:6237   */\n      dup2\n        /* \"#utility.yul\":6214:6238   */\n      tag_311\n      jump\t// in\n    tag_411:\n        /* \"#utility.yul\":6209:6212   */\n      dup3\n        /* \"#utility.yul\":6202:6239   */\n      mstore\n        /* \"#utility.yul\":6127:6245   */\n      pop\n      pop\n      jump\t// out\n        /* \"#utility.yul\":6251:6365   */\n    tag_327:\n        /* \"#utility.yul\":6318:6324   */\n      0x00\n        /* \"#utility.yul\":6352:6357   */\n      dup2\n        /* \"#utility.yul\":6346:6358   */\n      mload\n        /* \"#utility.yul\":6336:6358   */\n      swap1\n      pop\n        /* \"#utility.yul\":6251:6365   */\n      swap2\n      swap1\n      pop\n      jump\t// out\n        /* \"#utility.yul\":6371:6555   */\n    tag_328:\n        /* \"#utility.yul\":6470:6481   */\n      0x00\n        /* \"#utility.yul\":6504:6510   */\n      dup3\n        /* \"#utility.yul\":6499:6502   */\n      dup3\n        /* \"#utility.yul\":6492:6511   */\n      mstore\n        /* \"#utility.yul\":6544:6548   */\n      0x20\n        /* \"#utility.yul\":6539:6542   */\n      dup3\n        /* \"#utility.yul\":6535:6549   */\n      add\n        /* \"#utility.yul\":6520:6549   */\n      swap1\n      pop\n        /* \"#utility.yul\":6371:6555   */\n      swap3\n      swap2\n      pop\n      pop\n      jump\t// out\n        /* \"#utility.yul\":6561:6693   */\n    tag_329:\n        /* \"#utility.yul\":6628:6632   */\n      0x00\n        /* \"#utility.yul\":6651:6654   */\n      dup2\n        /* \"#utility.yul\":6643:6654   */\n      swap1\n      pop\n        /* \"#utility.yul\":6681:6685   */\n      0x20\n        /* \"#utility.yul\":6676:6679   */\n      dup3\n        /* \"#utility.yul\":6672:6686   */\n      add\n        /* \"#utility.yul\":6664:6686   */\n      swap1\n      pop\n        /* \"#utility.yul\":6561:6693   */\n      swap2\n      swap1\n      pop\n      jump\t// out\n        /* \"#utility.yul\":6699:6807   */\n    tag_330:\n        /* \"#utility.yul\":6776:6800   */\n      tag_416\n        /* \"#utility.yul\":6794:6799   */\n      dup2\n        /* \"#utility.yul\":6776:6800   */\n      tag_314\n      jump\t// in\n    tag_416:\n        /* \"#utility.yul\":6771:6774   */\n      dup3\n        /* \"#utility.yul\":6764:6801   */\n      mstore\n        /* \"#utility.yul\":6699:6807   */\n      pop\n      pop\n      jump\t// out\n        /* \"#utility.yul\":6813:6992   */\n    tag_331:\n        /* \"#utility.yul\":6882:6892   */\n      0x00\n        /* \"#utility.yul\":6903:6949   */\n      tag_418\n        /* \"#utility.yul\":6945:6948   */\n      dup4\n        /* \"#utility.yul\":6937:6943   */\n      dup4\n        /* \"#utility.yul\":6903:6949   */\n      tag_330\n      jump\t// in\n    tag_418:\n        /* \"#utility.yul\":6981:6985   */\n      0x20\n        /* \"#utility.yul\":6976:6979   */\n      dup4\n        /* \"#utility.yul\":6972:6986   */\n      add\n        /* \"#utility.yul\":6958:6986   */\n      swap1\n      pop\n        /* \"#utility.yul\":6813:6992   */\n      swap3\n      swap2\n      pop\n      pop\n      jump\t// out\n        /* \"#utility.yul\":6998:7111   */\n    tag_332:\n        /* \"#utility.yul\":7068:7072   */\n      0x00\n        /* \"#utility.yul\":7100:7104   */\n      0x20\n        /* \"#utility.yul\":7095:7098   */\n      dup3\n        /* \"#utility.yul\":7091:7105   */\n      add\n        /* \"#utility.yul\":7083:7105   */\n      swap1\n      pop\n        /* \"#utility.yul\":6998:7111   */\n      swap2\n      swap1\n      pop\n      jump\t// out\n        /* \"#utility.yul\":7147:7879   */\n    tag_333:\n        /* \"#utility.yul\":7266:7269   */\n      0x00\n        /* \"#utility.yul\":7295:7349   */\n      tag_421\n        /* \"#utility.yul\":7343:7348   */\n      dup3\n        /* \"#utility.yul\":7295:7349   */\n      tag_327\n      jump\t// in\n    tag_421:\n        /* \"#utility.yul\":7365:7451   */\n      tag_422\n        /* \"#utility.yul\":7444:7450   */\n      dup2\n        /* \"#utility.yul\":7439:7442   */\n      dup6\n        /* \"#utility.yul\":7365:7451   */\n      tag_328\n      jump\t// in\n    tag_422:\n        /* \"#utility.yul\":7358:7451   */\n      swap4\n      pop\n        /* \"#utility.yul\":7475:7531   */\n      tag_423\n        /* \"#utility.yul\":7525:7530   */\n      dup4\n        /* \"#utility.yul\":7475:7531   */\n      tag_329\n      jump\t// in\n    tag_423:\n        /* \"#utility.yul\":7554:7561   */\n      dup1\n        /* \"#utility.yul\":7585:7586   */\n      0x00\n        /* \"#utility.yul\":7570:7854   */\n    tag_424:\n        /* \"#utility.yul\":7595:7601   */\n      dup4\n        /* \"#utility.yul\":7592:7593   */\n      dup2\n        /* \"#utility.yul\":7589:7602   */\n      lt\n        /* \"#utility.yul\":7570:7854   */\n      iszero\n      tag_426\n      jumpi\n        /* \"#utility.yul\":7671:7677   */\n      dup2\n        /* \"#utility.yul\":7665:7678   */\n      mload\n        /* \"#utility.yul\":7698:7761   */\n      tag_427\n        /* \"#utility.yul\":7757:7760   */\n      dup9\n        /* \"#utility.yul\":7742:7755   */\n      dup3\n        /* \"#utility.yul\":7698:7761   */\n      tag_331\n      jump\t// in\n    tag_427:\n        /* \"#utility.yul\":7691:7761   */\n      swap8\n      pop\n        /* \"#utility.yul\":7784:7844   */\n      tag_428\n        /* \"#utility.yul\":7837:7843   */\n      dup4\n        /* \"#utility.yul\":7784:7844   */\n      tag_332\n      jump\t// in\n    tag_428:\n        /* \"#utility.yul\":7774:7844   */\n      swap3\n      pop\n        /* \"#utility.yul\":7630:7854   */\n      pop\n        /* \"#utility.yul\":7617:7618   */\n      0x01\n        /* \"#utility.yul\":7614:7615   */\n      dup2\n        /* \"#utility.yul\":7610:7619   */\n      add\n        /* \"#utility.yul\":7605:7619   */\n      swap1\n      pop\n        /* \"#utility.yul\":7570:7854   */\n      jump(tag_424)\n    tag_426:\n        /* \"#utility.yul\":7574:7588   */\n      pop\n        /* \"#utility.yul\":7870:7873   */\n      dup6\n        /* \"#utility.yul\":7863:7873   */\n      swap4\n      pop\n        /* \"#utility.yul\":7271:7879   */\n      pop\n      pop\n      pop\n        /* \"#utility.yul\":7147:7879   */\n      swap3\n      swap2\n      pop\n      pop\n      jump\t// out\n        /* \"#utility.yul\":7885:9100   */\n    tag_72:\n        /* \"#utility.yul\":8234:8238   */\n      0x00\n        /* \"#utility.yul\":8272:8275   */\n      0xe0\n        /* \"#utility.yul\":8261:8270   */\n      dup3\n        /* \"#utility.yul\":8257:8276   */\n      add\n        /* \"#utility.yul\":8249:8276   */\n      swap1\n      pop\n        /* \"#utility.yul\":8286:8355   */\n      tag_430\n        /* \"#utility.yul\":8352:8353   */\n      0x00\n        /* \"#utility.yul\":8341:8350   */\n      dup4\n        /* \"#utility.yul\":8337:8354   */\n      add\n        /* \"#utility.yul\":8328:8334   */\n      dup11\n        /* \"#utility.yul\":8286:8355   */\n      tag_325\n      jump\t// in\n    tag_430:\n        /* \"#utility.yul\":8402:8411   */\n      dup2\n        /* \"#utility.yul\":8396:8400   */\n      dup2\n        /* \"#utility.yul\":8392:8412   */\n      sub\n        /* \"#utility.yul\":8387:8389   */\n      0x20\n        /* \"#utility.yul\":8376:8385   */\n      dup4\n        /* \"#utility.yul\":8372:8390   */\n      add\n        /* \"#utility.yul\":8365:8413   */\n      mstore\n        /* \"#utility.yul\":8430:8508   */\n      tag_431\n        /* \"#utility.yul\":8503:8507   */\n      dup2\n        /* \"#utility.yul\":8494:8500   */\n      dup10\n        /* \"#utility.yul\":8430:8508   */\n      tag_306\n      jump\t// in\n    tag_431:\n        /* \"#utility.yul\":8422:8508   */\n      swap1\n      pop\n        /* \"#utility.yul\":8555:8564   */\n      dup2\n        /* \"#utility.yul\":8549:8553   */\n      dup2\n        /* \"#utility.yul\":8545:8565   */\n      sub\n        /* \"#utility.yul\":8540:8542   */\n      0x40\n        /* \"#utility.yul\":8529:8538   */\n      dup4\n        /* \"#utility.yul\":8525:8543   */\n      add\n        /* \"#utility.yul\":8518:8566   */\n      mstore\n        /* \"#utility.yul\":8583:8661   */\n      tag_432\n        /* \"#utility.yul\":8656:8660   */\n      dup2\n        /* \"#utility.yul\":8647:8653   */\n      dup9\n        /* \"#utility.yul\":8583:8661   */\n      tag_306\n      jump\t// in\n    tag_432:\n        /* \"#utility.yul\":8575:8661   */\n      swap1\n      pop\n        /* \"#utility.yul\":8671:8743   */\n      tag_433\n        /* \"#utility.yul\":8739:8741   */\n      0x60\n        /* \"#utility.yul\":8728:8737   */\n      dup4\n        /* \"#utility.yul\":8724:8742   */\n      add\n        /* \"#utility.yul\":8715:8721   */\n      dup8\n        /* \"#utility.yul\":8671:8743   */\n      tag_319\n      jump\t// in\n    tag_433:\n        /* \"#utility.yul\":8753:8826   */\n      tag_434\n        /* \"#utility.yul\":8821:8824   */\n      0x80\n        /* \"#utility.yul\":8810:8819   */\n      dup4\n        /* \"#utility.yul\":8806:8825   */\n      add\n        /* \"#utility.yul\":8797:8803   */\n      dup7\n        /* \"#utility.yul\":8753:8826   */\n      tag_326\n      jump\t// in\n    tag_434:\n        /* \"#utility.yul\":8836:8909   */\n      tag_435\n        /* \"#utility.yul\":8904:8907   */\n      0xa0\n        /* \"#utility.yul\":8893:8902   */\n      dup4\n        /* \"#utility.yul\":8889:8908   */\n      add\n        /* \"#utility.yul\":8880:8886   */\n      dup6\n        /* \"#utility.yul\":8836:8909   */\n      tag_323\n      jump\t// in\n    tag_435:\n        /* \"#utility.yul\":8957:8966   */\n      dup2\n        /* \"#utility.yul\":8951:8955   */\n      dup2\n        /* \"#utility.yul\":8947:8967   */\n      sub\n        /* \"#utility.yul\":8941:8944   */\n      0xc0\n        /* \"#utility.yul\":8930:8939   */\n      dup4\n        /* \"#utility.yul\":8926:8945   */\n      add\n        /* \"#utility.yul\":8919:8968   */\n      mstore\n        /* \"#utility.yul\":8985:9093   */\n      tag_436\n        /* \"#utility.yul\":9088:9092   */\n      dup2\n        /* \"#utility.yul\":9079:9085   */\n      dup5\n        /* \"#utility.yul\":8985:9093   */\n      tag_333\n      jump\t// in\n    tag_436:\n        /* \"#utility.yul\":8977:9093   */\n      swap1\n      pop\n        /* \"#utility.yul\":7885:9100   */\n      swap9\n      swap8\n      pop\n      pop\n      pop\n      pop\n      pop\n      pop\n      pop\n      pop\n      jump\t// out\n        /* \"#utility.yul\":9106:9328   */\n    tag_76:\n        /* \"#utility.yul\":9199:9203   */\n      0x00\n        /* \"#utility.yul\":9237:9239   */\n      0x20\n        /* \"#utility.yul\":9226:9235   */\n      dup3\n        /* \"#utility.yul\":9222:9240   */\n      add\n        /* \"#utility.yul\":9214:9240   */\n      swap1\n      pop\n        /* \"#utility.yul\":9250:9321   */\n      tag_438\n        /* \"#utility.yul\":9318:9319   */\n      0x00\n        /* \"#utility.yul\":9307:9316   */\n      dup4\n        /* \"#utility.yul\":9303:9320   */\n      add\n        /* \"#utility.yul\":9294:9300   */\n      dup5\n        /* \"#utility.yul\":9250:9321   */\n      tag_326\n      jump\t// in\n    tag_438:\n        /* \"#utility.yul\":9106:9328   */\n      swap3\n      swap2\n      pop\n      pop\n      jump\t// out\n        /* \"#utility.yul\":9334:9452   */\n    tag_334:\n        /* \"#utility.yul\":9405:9427   */\n      tag_440\n        /* \"#utility.yul\":9421:9426   */\n      dup2\n        /* \"#utility.yul\":9405:9427   */\n      tag_320\n      jump\t// in\n    tag_440:\n        /* \"#utility.yul\":9398:9403   */\n      dup2\n        /* \"#utility.yul\":9395:9428   */\n      eq\n        /* \"#utility.yul\":9385:9446   */\n      tag_441\n      jumpi\n        /* \"#utility.yul\":9442:9443   */\n      0x00\n        /* \"#utility.yul\":9439:9440   */\n      0x00\n        /* \"#utility.yul\":9432:9444   */\n      revert\n        /* \"#utility.yul\":9385:9446   */\n    tag_441:\n        /* \"#utility.yul\":9334:9452   */\n      pop\n      jump\t// out\n        /* \"#utility.yul\":9458:9593   */\n    tag_335:\n        /* \"#utility.yul\":9502:9507   */\n      0x00\n        /* \"#utility.yul\":9540:9546   */\n      dup2\n        /* \"#utility.yul\":9527:9547   */\n      calldataload\n        /* \"#utility.yul\":9518:9547   */\n      swap1\n      pop\n        /* \"#utility.yul\":9556:9587   */\n      tag_443\n        /* \"#utility.yul\":9581:9586   */\n      dup2\n        /* \"#utility.yul\":9556:9587   */\n      tag_334\n      jump\t// in\n    tag_443:\n        /* \"#utility.yul\":9458:9593   */\n      swap3\n      swap2\n      pop\n      pop\n      jump\t// out\n        /* \"#utility.yul\":9599:9721   */\n    tag_336:\n        /* \"#utility.yul\":9672:9696   */\n      tag_445\n        /* \"#utility.yul\":9690:9695   */\n      dup2\n        /* \"#utility.yul\":9672:9696   */\n      tag_322\n      jump\t// in\n    tag_445:\n        /* \"#utility.yul\":9665:9670   */\n      dup2\n        /* \"#utility.yul\":9662:9697   */\n      eq\n        /* \"#utility.yul\":9652:9715   */\n      tag_446\n      jumpi\n        /* \"#utility.yul\":9711:9712   */\n      0x00\n        /* \"#utility.yul\":9708:9709   */\n      0x00\n        /* \"#utility.yul\":9701:9713   */\n      revert\n        /* \"#utility.yul\":9652:9715   */\n    tag_446:\n        /* \"#utility.yul\":9599:9721   */\n      pop\n      jump\t// out\n        /* \"#utility.yul\":9727:9866   */\n    tag_337:\n        /* \"#utility.yul\":9773:9778   */\n      0x00\n        /* \"#utility.yul\":9811:9817   */\n      dup2\n        /* \"#utility.yul\":9798:9818   */\n      calldataload\n        /* \"#utility.yul\":9789:9818   */\n      swap1\n      pop\n        /* \"#utility.yul\":9827:9860   */\n      tag_448\n        /* \"#utility.yul\":9854:9859   */\n      dup2\n        /* \"#utility.yul\":9827:9860   */\n      tag_336\n      jump\t// in\n    tag_448:\n        /* \"#utility.yul\":9727:9866   */\n      swap3\n      swap2\n      pop\n      pop\n      jump\t// out\n        /* \"#utility.yul\":9872:11071   */\n    tag_86:\n        /* \"#utility.yul\":9983:9989   */\n      0x00\n        /* \"#utility.yul\":9991:9997   */\n      0x00\n        /* \"#utility.yul\":9999:10005   */\n      0x00\n        /* \"#utility.yul\":10007:10013   */\n      0x00\n        /* \"#utility.yul\":10015:10021   */\n      0x00\n        /* \"#utility.yul\":10023:10029   */\n      0x00\n        /* \"#utility.yul\":10031:10037   */\n      0x00\n        /* \"#utility.yul\":10080:10083   */\n      0xe0\n        /* \"#utility.yul\":10068:10077   */\n      dup9\n        /* \"#utility.yul\":10059:10066   */\n      dup11\n        /* \"#utility.yul\":10055:10078   */\n      sub\n        /* \"#utility.yul\":10051:10084   */\n      slt\n        /* \"#utility.yul\":10048:10168   */\n      iszero\n      tag_450\n      jumpi\n        /* \"#utility.yul\":10087:10166   */\n      tag_451\n      tag_308\n      jump\t// in\n    tag_451:\n        /* \"#utility.yul\":10048:10168   */\n    tag_450:\n        /* \"#utility.yul\":10207:10208   */\n      0x00\n        /* \"#utility.yul\":10232:10285   */\n      tag_452\n        /* \"#utility.yul\":10277:10284   */\n      dup11\n        /* \"#utility.yul\":10268:10274   */\n      dup3\n        /* \"#utility.yul\":10257:10266   */\n      dup12\n        /* \"#utility.yul\":10253:10275   */\n      add\n        /* \"#utility.yul\":10232:10285   */\n      tag_313\n      jump\t// in\n    tag_452:\n        /* \"#utility.yul\":10222:10285   */\n      swap8\n      pop\n        /* \"#utility.yul\":10178:10295   */\n      pop\n        /* \"#utility.yul\":10334:10336   */\n      0x20\n        /* \"#utility.yul\":10360:10413   */\n      tag_453\n        /* \"#utility.yul\":10405:10412   */\n      dup11\n        /* \"#utility.yul\":10396:10402   */\n      dup3\n        /* \"#utility.yul\":10385:10394   */\n      dup12\n        /* \"#utility.yul\":10381:10403   */\n      add\n        /* \"#utility.yul\":10360:10413   */\n      tag_313\n      jump\t// in\n    tag_453:\n        /* \"#utility.yul\":10350:10413   */\n      swap7\n      pop\n        /* \"#utility.yul\":10305:10423   */\n      pop\n        /* \"#utility.yul\":10462:10464   */\n      0x40\n        /* \"#utility.yul\":10488:10541   */\n      tag_454\n        /* \"#utility.yul\":10533:10540   */\n      dup11\n        /* \"#utility.yul\":10524:10530   */\n      dup3\n        /* \"#utility.yul\":10513:10522   */\n      dup12\n        /* \"#utility.yul\":10509:10531   */\n      add\n        /* \"#utility.yul\":10488:10541   */\n      tag_316\n      jump\t// in\n    tag_454:\n        /* \"#utility.yul\":10478:10541   */\n      swap6\n      pop\n        /* \"#utility.yul\":10433:10551   */\n      pop\n        /* \"#utility.yul\":10590:10592   */\n      0x60\n        /* \"#utility.yul\":10616:10669   */\n      tag_455\n        /* \"#utility.yul\":10661:10668   */\n      dup11\n        /* \"#utility.yul\":10652:10658   */\n      dup3\n        /* \"#utility.yul\":10641:10650   */\n      dup12\n        /* \"#utility.yul\":10637:10659   */\n      add\n        /* \"#utility.yul\":10616:10669   */\n      tag_316\n      jump\t// in\n    tag_455:\n        /* \"#utility.yul\":10606:10669   */\n      swap5\n      pop\n        /* \"#utility.yul\":10561:10679   */\n      pop\n        /* \"#utility.yul\":10718:10721   */\n      0x80\n        /* \"#utility.yul\":10745:10796   */\n      tag_456\n        /* \"#utility.yul\":10788:10795   */\n      dup11\n        /* \"#utility.yul\":10779:10785   */\n      dup3\n        /* \"#utility.yul\":10768:10777   */\n      dup12\n        /* \"#utility.yul\":10764:10786   */\n      add\n        /* \"#utility.yul\":10745:10796   */\n      tag_335\n      jump\t// in\n    tag_456:\n        /* \"#utility.yul\":10735:10796   */\n      swap4\n      pop\n        /* \"#utility.yul\":10689:10806   */\n      pop\n        /* \"#utility.yul\":10845:10848   */\n      0xa0\n        /* \"#utility.yul\":10872:10925   */\n      tag_457\n        /* \"#utility.yul\":10917:10924   */\n      dup11\n        /* \"#utility.yul\":10908:10914   */\n      dup3\n        /* \"#utility.yul\":10897:10906   */\n      dup12\n        /* \"#utility.yul\":10893:10915   */\n      add\n        /* \"#utility.yul\":10872:10925   */\n      tag_337\n      jump\t// in\n    tag_457:\n        /* \"#utility.yul\":10862:10925   */\n      swap3\n      pop\n        /* \"#utility.yul\":10816:10935   */\n      pop\n        /* \"#utility.yul\":10974:10977   */\n      0xc0\n        /* \"#utility.yul\":11001:11054   */\n      tag_458\n        /* \"#utility.yul\":11046:11053   */\n      dup11\n        /* \"#utility.yul\":11037:11043   */\n      dup3\n        /* \"#utility.yul\":11026:11035   */\n      dup12\n        /* \"#utility.yul\":11022:11044   */\n      add\n        /* \"#utility.yul\":11001:11054   */\n      tag_337\n      jump\t// in\n    tag_458:\n        /* \"#utility.yul\":10991:11054   */\n      swap2\n      pop\n        /* \"#utility.yul\":10945:11064   */\n      pop\n        /* \"#utility.yul\":9872:11071   */\n      swap3\n      swap6\n      swap9\n      swap2\n      swap5\n      swap8\n      pop\n      swap3\n      swap6\n      pop\n      jump\t// out\n        /* \"#utility.yul\":11077:11551   */\n    tag_90:\n        /* \"#utility.yul\":11145:11151   */\n      0x00\n        /* \"#utility.yul\":11153:11159   */\n      0x00\n        /* \"#utility.yul\":11202:11204   */\n      0x40\n        /* \"#utility.yul\":11190:11199   */\n      dup4\n        /* \"#utility.yul\":11181:11188   */\n      dup6\n        /* \"#utility.yul\":11177:11200   */\n      sub\n        /* \"#utility.yul\":11173:11205   */\n      slt\n        /* \"#utility.yul\":11170:11289   */\n      iszero\n      tag_460\n      jumpi\n        /* \"#utility.yul\":11208:11287   */\n      tag_461\n      tag_308\n      jump\t// in\n    tag_461:\n        /* \"#utility.yul\":11170:11289   */\n    tag_460:\n        /* \"#utility.yul\":11328:11329   */\n      0x00\n        /* \"#utility.yul\":11353:11406   */\n      tag_462\n        /* \"#utility.yul\":11398:11405   */\n      dup6\n        /* \"#utility.yul\":11389:11395   */\n      dup3\n        /* \"#utility.yul\":11378:11387   */\n      dup7\n        /* \"#utility.yul\":11374:11396   */\n      add\n        /* \"#utility.yul\":11353:11406   */\n      tag_313\n      jump\t// in\n    tag_462:\n        /* \"#utility.yul\":11343:11406   */\n      swap3\n      pop\n        /* \"#utility.yul\":11299:11416   */\n      pop\n        /* \"#utility.yul\":11455:11457   */\n      0x20\n        /* \"#utility.yul\":11481:11534   */\n      tag_463\n        /* \"#utility.yul\":11526:11533   */\n      dup6\n        /* \"#utility.yul\":11517:11523   */\n      dup3\n        /* \"#utility.yul\":11506:11515   */\n      dup7\n        /* \"#utility.yul\":11502:11524   */\n      add\n        /* \"#utility.yul\":11481:11534   */\n      tag_313\n      jump\t// in\n    tag_463:\n        /* \"#utility.yul\":11471:11534   */\n      swap2\n      pop\n        /* \"#utility.yul\":11426:11544   */\n      pop\n        /* \"#utility.yul\":11077:11551   */\n      swap3\n      pop\n      swap3\n      swap1\n      pop\n      jump\t// out\n        /* \"#utility.yul\":11557:11737   */\n    tag_338:\n        /* \"#utility.yul\":11605:11682   */\n      0x4e487b7100000000000000000000000000000000000000000000000000000000\n        /* \"#utility.yul\":11602:11603   */\n      0x00\n        /* \"#utility.yul\":11595:11683   */\n      mstore\n        /* \"#utility.yul\":11702:11706   */\n      0x22\n        /* \"#utility.yul\":11699:11700   */\n      0x04\n        /* \"#utility.yul\":11692:11707   */\n      mstore\n        /* \"#utility.yul\":11726:11730   */\n      0x24\n        /* \"#utility.yul\":11723:11724   */\n      0x00\n        /* \"#utility.yul\":11716:11731   */\n      revert\n        /* \"#utility.yul\":11743:12063   */\n    tag_98:\n        /* \"#utility.yul\":11787:11793   */\n      0x00\n        /* \"#utility.yul\":11824:11825   */\n      0x02\n        /* \"#utility.yul\":11818:11822   */\n      dup3\n        /* \"#utility.yul\":11814:11826   */\n      div\n        /* \"#utility.yul\":11804:11826   */\n      swap1\n      pop\n        /* \"#utility.yul\":11871:11872   */\n      0x01\n        /* \"#utility.yul\":11865:11869   */\n      dup3\n        /* \"#utility.yul\":11861:11873   */\n      and\n        /* \"#utility.yul\":11892:11910   */\n      dup1\n        /* \"#utility.yul\":11882:11963   */\n      tag_466\n      jumpi\n        /* \"#utility.yul\":11948:11952   */\n      0x7f\n        /* \"#utility.yul\":11940:11946   */\n      dup3\n        /* \"#utility.yul\":11936:11953   */\n      and\n        /* \"#utility.yul\":11926:11953   */\n      swap2\n      pop\n        /* \"#utility.yul\":11882:11963   */\n    tag_466:\n        /* \"#utility.yul\":12010:12012   */\n      0x20\n        /* \"#utility.yul\":12002:12008   */\n      dup3\n        /* \"#utility.yul\":11999:12013   */\n      lt\n        /* \"#utility.yul\":11979:11997   */\n      dup2\n        /* \"#utility.yul\":11976:12014   */\n      sub\n        /* \"#utility.yul\":11973:12057   */\n      tag_467\n      jumpi\n        /* \"#utility.yul\":12029:12047   */\n      tag_468\n      tag_338\n      jump\t// in\n    tag_468:\n        /* \"#utility.yul\":11973:12057   */\n    tag_467:\n        /* \"#utility.yul\":11794:12063   */\n      pop\n        /* \"#utility.yul\":11743:12063   */\n      swap2\n      swap1\n      pop\n      jump\t// out\n        /* \"#utility.yul\":12069:12249   */\n    tag_144:\n        /* \"#utility.yul\":12117:12194   */\n      0x4e487b7100000000000000000000000000000000000000000000000000000000\n        /* \"#utility.yul\":12114:12115   */\n      0x00\n        /* \"#utility.yul\":12107:12195   */\n      mstore\n        /* \"#utility.yul\":12214:12218   */\n      0x41\n        /* \"#utility.yul\":12211:12212   */\n      0x04\n        /* \"#utility.yul\":12204:12219   */\n      mstore\n        /* \"#utility.yul\":12238:12242   */\n      0x24\n        /* \"#utility.yul\":12235:12236   */\n      0x00\n        /* \"#utility.yul\":12228:12243   */\n      revert\n        /* \"#utility.yul\":12255:13030   */\n    tag_162:\n        /* \"#utility.yul\":12488:12492   */\n      0x00\n        /* \"#utility.yul\":12526:12529   */\n      0xc0\n        /* \"#utility.yul\":12515:12524   */\n      dup3\n        /* \"#utility.yul\":12511:12530   */\n      add\n        /* \"#utility.yul\":12503:12530   */\n      swap1\n      pop\n        /* \"#utility.yul\":12540:12611   */\n      tag_471\n        /* \"#utility.yul\":12608:12609   */\n      0x00\n        /* \"#utility.yul\":12597:12606   */\n      dup4\n        /* \"#utility.yul\":12593:12610   */\n      add\n        /* \"#utility.yul\":12584:12590   */\n      dup10\n        /* \"#utility.yul\":12540:12611   */\n      tag_323\n      jump\t// in\n    tag_471:\n        /* \"#utility.yul\":12621:12693   */\n      tag_472\n        /* \"#utility.yul\":12689:12691   */\n      0x20\n        /* \"#utility.yul\":12678:12687   */\n      dup4\n        /* \"#utility.yul\":12674:12692   */\n      add\n        /* \"#utility.yul\":12665:12671   */\n      dup9\n        /* \"#utility.yul\":12621:12693   */\n      tag_326\n      jump\t// in\n    tag_472:\n        /* \"#utility.yul\":12703:12775   */\n      tag_473\n        /* \"#utility.yul\":12771:12773   */\n      0x40\n        /* \"#utility.yul\":12760:12769   */\n      dup4\n        /* \"#utility.yul\":12756:12774   */\n      add\n        /* \"#utility.yul\":12747:12753   */\n      dup8\n        /* \"#utility.yul\":12703:12775   */\n      tag_326\n      jump\t// in\n    tag_473:\n        /* \"#utility.yul\":12785:12857   */\n      tag_474\n        /* \"#utility.yul\":12853:12855   */\n      0x60\n        /* \"#utility.yul\":12842:12851   */\n      dup4\n        /* \"#utility.yul\":12838:12856   */\n      add\n        /* \"#utility.yul\":12829:12835   */\n      dup7\n        /* \"#utility.yul\":12785:12857   */\n      tag_319\n      jump\t// in\n    tag_474:\n        /* \"#utility.yul\":12867:12940   */\n      tag_475\n        /* \"#utility.yul\":12935:12938   */\n      0x80\n        /* \"#utility.yul\":12924:12933   */\n      dup4\n        /* \"#utility.yul\":12920:12939   */\n      add\n        /* \"#utility.yul\":12911:12917   */\n      dup6\n        /* \"#utility.yul\":12867:12940   */\n      tag_319\n      jump\t// in\n    tag_475:\n        /* \"#utility.yul\":12950:13023   */\n      tag_476\n        /* \"#utility.yul\":13018:13021   */\n      0xa0\n        /* \"#utility.yul\":13007:13016   */\n      dup4\n        /* \"#utility.yul\":13003:13022   */\n      add\n        /* \"#utility.yul\":12994:13000   */\n      dup5\n        /* \"#utility.yul\":12950:13023   */\n      tag_319\n      jump\t// in\n    tag_476:\n        /* \"#utility.yul\":12255:13030   */\n      swap8\n      swap7\n      pop\n      pop\n      pop\n      pop\n      pop\n      pop\n      pop\n      jump\t// out\n        /* \"#utility.yul\":13036:13368   */\n    tag_169:\n        /* \"#utility.yul\":13157:13161   */\n      0x00\n        /* \"#utility.yul\":13195:13197   */\n      0x40\n        /* \"#utility.yul\":13184:13193   */\n      dup3\n        /* \"#utility.yul\":13180:13198   */\n      add\n        /* \"#utility.yul\":13172:13198   */\n      swap1\n      pop\n        /* \"#utility.yul\":13208:13279   */\n      tag_478\n        /* \"#utility.yul\":13276:13277   */\n      0x00\n        /* \"#utility.yul\":13265:13274   */\n      dup4\n        /* \"#utility.yul\":13261:13278   */\n      add\n        /* \"#utility.yul\":13252:13258   */\n      dup6\n        /* \"#utility.yul\":13208:13279   */\n      tag_326\n      jump\t// in\n    tag_478:\n        /* \"#utility.yul\":13289:13361   */\n      tag_479\n        /* \"#utility.yul\":13357:13359   */\n      0x20\n        /* \"#utility.yul\":13346:13355   */\n      dup4\n        /* \"#utility.yul\":13342:13360   */\n      add\n        /* \"#utility.yul\":13333:13339   */\n      dup5\n        /* \"#utility.yul\":13289:13361   */\n      tag_326\n      jump\t// in\n    tag_479:\n        /* \"#utility.yul\":13036:13368   */\n      swap4\n      swap3\n      pop\n      pop\n      pop\n      jump\t// out\n        /* \"#utility.yul\":13374:13816   */\n    tag_187:\n        /* \"#utility.yul\":13523:13527   */\n      0x00\n        /* \"#utility.yul\":13561:13563   */\n      0x60\n        /* \"#utility.yul\":13550:13559   */\n      dup3\n        /* \"#utility.yul\":13546:13564   */\n      add\n        /* \"#utility.yul\":13538:13564   */\n      swap1\n      pop\n        /* \"#utility.yul\":13574:13645   */\n      tag_481\n        /* \"#utility.yul\":13642:13643   */\n      0x00\n        /* \"#utility.yul\":13631:13640   */\n      dup4\n        /* \"#utility.yul\":13627:13644   */\n      add\n        /* \"#utility.yul\":13618:13624   */\n      dup7\n        /* \"#utility.yul\":13574:13645   */\n      tag_326\n      jump\t// in\n    tag_481:\n        /* \"#utility.yul\":13655:13727   */\n      tag_482\n        /* \"#utility.yul\":13723:13725   */\n      0x20\n        /* \"#utility.yul\":13712:13721   */\n      dup4\n        /* \"#utility.yul\":13708:13726   */\n      add\n        /* \"#utility.yul\":13699:13705   */\n      dup6\n        /* \"#utility.yul\":13655:13727   */\n      tag_319\n      jump\t// in\n    tag_482:\n        /* \"#utility.yul\":13737:13809   */\n      tag_483\n        /* \"#utility.yul\":13805:13807   */\n      0x40\n        /* \"#utility.yul\":13794:13803   */\n      dup4\n        /* \"#utility.yul\":13790:13808   */\n      add\n        /* \"#utility.yul\":13781:13787   */\n      dup5\n        /* \"#utility.yul\":13737:13809   */\n      tag_319\n      jump\t// in\n    tag_483:\n        /* \"#utility.yul\":13374:13816   */\n      swap5\n      swap4\n      pop\n      pop\n      pop\n      pop\n      jump\t// out\n        /* \"#utility.yul\":13822:14002   */\n    tag_339:\n        /* \"#utility.yul\":13870:13947   */\n      0x4e487b7100000000000000000000000000000000000000000000000000000000\n        /* \"#utility.yul\":13867:13868   */\n      0x00\n        /* \"#utility.yul\":13860:13948   */\n      mstore\n        /* \"#utility.yul\":13967:13971   */\n      0x11\n        /* \"#utility.yul\":13964:13965   */\n      0x04\n        /* \"#utility.yul\":13957:13972   */\n      mstore\n        /* \"#utility.yul\":13991:13995   */\n      0x24\n        /* \"#utility.yul\":13988:13989   */\n      0x00\n        /* \"#utility.yul\":13981:13996   */\n      revert\n        /* \"#utility.yul\":14008:14199   */\n    tag_239:\n        /* \"#utility.yul\":14048:14051   */\n      0x00\n        /* \"#utility.yul\":14067:14087   */\n      tag_486\n        /* \"#utility.yul\":14085:14086   */\n      dup3\n        /* \"#utility.yul\":14067:14087   */\n      tag_314\n      jump\t// in\n    tag_486:\n        /* \"#utility.yul\":14062:14087   */\n      swap2\n      pop\n        /* \"#utility.yul\":14101:14121   */\n      tag_487\n        /* \"#utility.yul\":14119:14120   */\n      dup4\n        /* \"#utility.yul\":14101:14121   */\n      tag_314\n      jump\t// in\n    tag_487:\n        /* \"#utility.yul\":14096:14121   */\n      swap3\n      pop\n        /* \"#utility.yul\":14144:14145   */\n      dup3\n        /* \"#utility.yul\":14141:14142   */\n      dup3\n        /* \"#utility.yul\":14137:14146   */\n      add\n        /* \"#utility.yul\":14130:14146   */\n      swap1\n      pop\n        /* \"#utility.yul\":14165:14168   */\n      dup1\n        /* \"#utility.yul\":14162:14163   */\n      dup3\n        /* \"#utility.yul\":14159:14169   */\n      gt\n        /* \"#utility.yul\":14156:14192   */\n      iszero\n      tag_488\n      jumpi\n        /* \"#utility.yul\":14172:14190   */\n      tag_489\n      tag_339\n      jump\t// in\n    tag_489:\n        /* \"#utility.yul\":14156:14192   */\n    tag_488:\n        /* \"#utility.yul\":14008:14199   */\n      swap3\n      swap2\n      pop\n      pop\n      jump\t// out\n        /* \"#utility.yul\":14205:14869   */\n    tag_248:\n        /* \"#utility.yul\":14410:14414   */\n      0x00\n        /* \"#utility.yul\":14448:14451   */\n      0xa0\n        /* \"#utility.yul\":14437:14446   */\n      dup3\n        /* \"#utility.yul\":14433:14452   */\n      add\n        /* \"#utility.yul\":14425:14452   */\n      swap1\n      pop\n        /* \"#utility.yul\":14462:14533   */\n      tag_491\n        /* \"#utility.yul\":14530:14531   */\n      0x00\n        /* \"#utility.yul\":14519:14528   */\n      dup4\n        /* \"#utility.yul\":14515:14532   */\n      add\n        /* \"#utility.yul\":14506:14512   */\n      dup9\n        /* \"#utility.yul\":14462:14533   */\n      tag_323\n      jump\t// in\n    tag_491:\n        /* \"#utility.yul\":14543:14615   */\n      tag_492\n        /* \"#utility.yul\":14611:14613   */\n      0x20\n        /* \"#utility.yul\":14600:14609   */\n      dup4\n        /* \"#utility.yul\":14596:14614   */\n      add\n        /* \"#utility.yul\":14587:14593   */\n      dup8\n        /* \"#utility.yul\":14543:14615   */\n      tag_323\n      jump\t// in\n    tag_492:\n        /* \"#utility.yul\":14625:14697   */\n      tag_493\n        /* \"#utility.yul\":14693:14695   */\n      0x40\n        /* \"#utility.yul\":14682:14691   */\n      dup4\n        /* \"#utility.yul\":14678:14696   */\n      add\n        /* \"#utility.yul\":14669:14675   */\n      dup7\n        /* \"#utility.yul\":14625:14697   */\n      tag_323\n      jump\t// in\n    tag_493:\n        /* \"#utility.yul\":14707:14779   */\n      tag_494\n        /* \"#utility.yul\":14775:14777   */\n      0x60\n        /* \"#utility.yul\":14764:14773   */\n      dup4\n        /* \"#utility.yul\":14760:14778   */\n      add\n        /* \"#utility.yul\":14751:14757   */\n      dup6\n        /* \"#utility.yul\":14707:14779   */\n      tag_319\n      jump\t// in\n    tag_494:\n        /* \"#utility.yul\":14789:14862   */\n      tag_495\n        /* \"#utility.yul\":14857:14860   */\n      0x80\n        /* \"#utility.yul\":14846:14855   */\n      dup4\n        /* \"#utility.yul\":14842:14861   */\n      add\n        /* \"#utility.yul\":14833:14839   */\n      dup5\n        /* \"#utility.yul\":14789:14862   */\n      tag_326\n      jump\t// in\n    tag_495:\n        /* \"#utility.yul\":14205:14869   */\n      swap7\n      swap6\n      pop\n      pop\n      pop\n      pop\n      pop\n      pop\n      jump\t// out\n        /* \"#utility.yul\":14875:15420   */\n    tag_263:\n        /* \"#utility.yul\":15048:15052   */\n      0x00\n        /* \"#utility.yul\":15086:15089   */\n      0x80\n        /* \"#utility.yul\":15075:15084   */\n      dup3\n        /* \"#utility.yul\":15071:15090   */\n      add\n        /* \"#utility.yul\":15063:15090   */\n      swap1\n      pop\n        /* \"#utility.yul\":15100:15171   */\n      tag_497\n        /* \"#utility.yul\":15168:15169   */\n      0x00\n        /* \"#utility.yul\":15157:15166   */\n      dup4\n        /* \"#utility.yul\":15153:15170   */\n      add\n        /* \"#utility.yul\":15144:15150   */\n      dup8\n        /* \"#utility.yul\":15100:15171   */\n      tag_323\n      jump\t// in\n    tag_497:\n        /* \"#utility.yul\":15181:15249   */\n      tag_498\n        /* \"#utility.yul\":15245:15247   */\n      0x20\n        /* \"#utility.yul\":15234:15243   */\n      dup4\n        /* \"#utility.yul\":15230:15248   */\n      add\n        /* \"#utility.yul\":15221:15227   */\n      dup7\n        /* \"#utility.yul\":15181:15249   */\n      tag_321\n      jump\t// in\n    tag_498:\n        /* \"#utility.yul\":15259:15331   */\n      tag_499\n        /* \"#utility.yul\":15327:15329   */\n      0x40\n        /* \"#utility.yul\":15316:15325   */\n      dup4\n        /* \"#utility.yul\":15312:15330   */\n      add\n        /* \"#utility.yul\":15303:15309   */\n      dup6\n        /* \"#utility.yul\":15259:15331   */\n      tag_323\n      jump\t// in\n    tag_499:\n        /* \"#utility.yul\":15341:15413   */\n      tag_500\n        /* \"#utility.yul\":15409:15411   */\n      0x60\n        /* \"#utility.yul\":15398:15407   */\n      dup4\n        /* \"#utility.yul\":15394:15412   */\n      add\n        /* \"#utility.yul\":15385:15391   */\n      dup5\n        /* \"#utility.yul\":15341:15413   */\n      tag_323\n      jump\t// in\n    tag_500:\n        /* \"#utility.yul\":14875:15420   */\n      swap6\n      swap5\n      pop\n      pop\n      pop\n      pop\n      pop\n      jump\t// out\n        /* \"#utility.yul\":15426:15606   */\n    tag_270:\n        /* \"#utility.yul\":15474:15551   */\n      0x4e487b7100000000000000000000000000000000000000000000000000000000\n        /* \"#utility.yul\":15471:15472   */\n      0x00\n        /* \"#utility.yul\":15464:15552   */\n      mstore\n        /* \"#utility.yul\":15571:15575   */\n      0x21\n        /* \"#utility.yul\":15568:15569   */\n      0x04\n        /* \"#utility.yul\":15561:15576   */\n      mstore\n        /* \"#utility.yul\":15595:15599   */\n      0x24\n        /* \"#utility.yul\":15592:15593   */\n      0x00\n        /* \"#utility.yul\":15585:15600   */\n      revert\n\n    auxdata: 0xa26469706673582212203036e99a50f6eacfa2225709c7ed7382e4a096f57fe9a304ef10f569e54f97ab64736f6c634300081f0033\n}\n",
				"bytecode": {
					"linkReferences": {},
					"object": "610160604052348015610010575f5ffd5b506040518060400160405280600c81526020017f546175727573537461626c650000000000000000000000000000000000000000815250806040518060400160405280600181526020017f3100000000000000000000000000000000000000000000000000000000000000815250336040518060400160405280600c81526020017f546175727573537461626c6500000000000000000000000000000000000000008152506040518060400160405280600481526020017f545553540000000000000000000000000000000000000000000000000000000081525081600390816100fa919061092f565b50806004908161010a919061092f565b5050505f73ffffffffffffffffffffffffffffffffffffffff168173ffffffffffffffffffffffffffffffffffffffff160361017d575f6040517f1e4fbdf70000000000000000000000000000000000000000000000000000000081526004016101749190610a3d565b60405180910390fd5b61018c8161027460201b60201c565b506101a160068361033760201b90919060201c565b61012081815250506101bd60078261033760201b90919060201c565b6101408181525050818051906020012060e08181525050808051906020012061010081815250504660a081815250506101fa61038460201b60201c565b608081815250503073ffffffffffffffffffffffffffffffffffffffff1660c08173ffffffffffffffffffffffffffffffffffffffff168152505050505061026f3361024a6103de60201b60201c565b600a6102569190610bbe565b629896806102649190610c08565b6103e660201b60201c565b610e5b565b5f60055f9054906101000a900473ffffffffffffffffffffffffffffffffffffffff1690508160055f6101000a81548173ffffffffffffffffffffffffffffffffffffffff021916908373ffffffffffffffffffffffffffffffffffffffff1602179055508173ffffffffffffffffffffffffffffffffffffffff168173ffffffffffffffffffffffffffffffffffffffff167f8be0079c531659141344cd1fd0a4f28419497f9722a3daafe3b4186f6b6457e060405160405180910390a35050565b5f602083511015610358576103518361046b60201b60201c565b905061037e565b82610368836104d060201b60201c565b5f019081610376919061092f565b5060ff5f1b90505b92915050565b5f7f8b73c3c69bb8fe3d512ecc4cf759cc79239f7b179b0ffacaa9a75d522b39400f60e0516101005146306040516020016103c3959493929190610c70565b60405160208183030381529060405280519060200120905090565b5f6012905090565b5f73ffffffffffffffffffffffffffffffffffffffff168273ffffffffffffffffffffffffffffffffffffffff1603610456575f6040517fec442f0500000000000000000000000000000000000000000000000000000000815260040161044d9190610a3d565b60405180910390fd5b6104675f83836104d960201b60201c565b5050565b5f5f829050601f815111156104b757826040517f305a27a90000000000000000000000000000000000000000000000000000000081526004016104ae9190610d27565b60405180910390fd5b8051816104c390610d74565b5f1c175f1b915050919050565b5f819050919050565b5f73ffffffffffffffffffffffffffffffffffffffff168373ffffffffffffffffffffffffffffffffffffffff1603610529578060025f82825461051d9190610dda565b925050819055506105f7565b5f5f5f8573ffffffffffffffffffffffffffffffffffffffff1673ffffffffffffffffffffffffffffffffffffffff1681526020019081526020015f20549050818110156105b2578381836040517fe450d38c0000000000000000000000000000000000000000000000000000000081526004016105a993929190610e0d565b60405180910390fd5b8181035f5f8673ffffffffffffffffffffffffffffffffffffffff1673ffffffffffffffffffffffffffffffffffffffff1681526020019081526020015f2081905550505b5f73ffffffffffffffffffffffffffffffffffffffff168273ffffffffffffffffffffffffffffffffffffffff160361063e578060025f8282540392505081905550610688565b805f5f8473ffffffffffffffffffffffffffffffffffffffff1673ffffffffffffffffffffffffffffffffffffffff1681526020019081526020015f205f82825401925050819055505b8173ffffffffffffffffffffffffffffffffffffffff168373ffffffffffffffffffffffffffffffffffffffff167fddf252ad1be2c89b69c2b068fc378daa952ba7f163c4a11628f55a4df523b3ef836040516106e59190610e42565b60405180910390a3505050565b5f81519050919050565b7f4e487b71000000000000000000000000000000000000000000000000000000005f52604160045260245ffd5b7f4e487b71000000000000000000000000000000000000000000000000000000005f52602260045260245ffd5b5f600282049050600182168061076d57607f821691505b6020821081036107805761077f610729565b5b50919050565b5f819050815f5260205f209050919050565b5f6020601f8301049050919050565b5f82821b905092915050565b5f600883026107e27fffffffffffffffffffffffffffffffffffffffffffffffffffffffffffffffff826107a7565b6107ec86836107a7565b95508019841693508086168417925050509392505050565b5f819050919050565b5f819050919050565b5f61083061082b61082684610804565b61080d565b610804565b9050919050565b5f819050919050565b61084983610816565b61085d61085582610837565b8484546107b3565b825550505050565b5f5f905090565b610874610865565b61087f818484610840565b505050565b5b818110156108a2576108975f8261086c565b600181019050610885565b5050565b601f8211156108e7576108b881610786565b6108c184610798565b810160208510156108d0578190505b6108e46108dc85610798565b830182610884565b50505b505050565b5f82821c905092915050565b5f6109075f19846008026108ec565b1980831691505092915050565b5f61091f83836108f8565b9150826002028217905092915050565b610938826106f2565b67ffffffffffffffff811115610951576109506106fc565b5b61095b8254610756565b6109668282856108a6565b5f60209050601f831160018114610997575f8415610985578287015190505b61098f8582610914565b8655506109f6565b601f1984166109a586610786565b5f5b828110156109cc578489015182556001820191506020850194506020810190506109a7565b868310156109e957848901516109e5601f8916826108f8565b8355505b6001600288020188555050505b505050505050565b5f73ffffffffffffffffffffffffffffffffffffffff82169050919050565b5f610a27826109fe565b9050919050565b610a3781610a1d565b82525050565b5f602082019050610a505f830184610a2e565b92915050565b7f4e487b71000000000000000000000000000000000000000000000000000000005f52601160045260245ffd5b5f8160011c9050919050565b5f5f8291508390505b6001851115610ad857808604811115610ab457610ab3610a56565b5b6001851615610ac35780820291505b8081029050610ad185610a83565b9450610a98565b94509492505050565b5f82610af05760019050610bab565b81610afd575f9050610bab565b8160018114610b135760028114610b1d57610b4c565b6001915050610bab565b60ff841115610b2f57610b2e610a56565b5b8360020a915084821115610b4657610b45610a56565b5b50610bab565b5060208310610133831016604e8410600b8410161715610b815782820a905083811115610b7c57610b7b610a56565b5b610bab565b610b8e8484846001610a8f565b92509050818404811115610ba557610ba4610a56565b5b81810290505b9392505050565b5f60ff82169050919050565b5f610bc882610804565b9150610bd383610bb2565b9250610c007fffffffffffffffffffffffffffffffffffffffffffffffffffffffffffffffff8484610ae1565b905092915050565b5f610c1282610804565b9150610c1d83610804565b9250828202610c2b81610804565b91508282048414831517610c4257610c41610a56565b5b5092915050565b5f819050919050565b610c5b81610c49565b82525050565b610c6a81610804565b82525050565b5f60a082019050610c835f830188610c52565b610c906020830187610c52565b610c9d6040830186610c52565b610caa6060830185610c61565b610cb76080830184610a2e565b9695505050505050565b5f82825260208201905092915050565b8281835e5f83830152505050565b5f601f19601f8301169050919050565b5f610cf9826106f2565b610d038185610cc1565b9350610d13818560208601610cd1565b610d1c81610cdf565b840191505092915050565b5f6020820190508181035f830152610d3f8184610cef565b905092915050565b5f81519050919050565b5f819050602082019050919050565b5f610d6b8251610c49565b80915050919050565b5f610d7e82610d47565b82610d8884610d51565b9050610d9381610d60565b92506020821015610dd357610dce7fffffffffffffffffffffffffffffffffffffffffffffffffffffffffffffffff836020036008026107a7565b831692505b5050919050565b5f610de482610804565b9150610def83610804565b9250828201905080821115610e0757610e06610a56565b5b92915050565b5f606082019050610e205f830186610a2e565b610e2d6020830185610c61565b610e3a6040830184610c61565b949350505050565b5f602082019050610e555f830184610c61565b92915050565b60805160a05160c05160e051610100516101205161014051611efe610eac5f395f610d9401525f610d5901525f61128d01525f61126c01525f610a8e01525f610ae401525f610b0d0152611efe5ff3fe608060405234801561000f575f5ffd5b5060043610610114575f3560e01c806379cc6790116100a057806395d89b411161006f57806395d89b41146102d4578063a9059cbb146102f2578063d505accf14610322578063dd62ed3e1461033e578063f2fde38b1461036e57610114565b806379cc6790146102465780637ecebe001461026257806384b0196e146102925780638da5cb5b146102b657610114565b8063313ce567116100e7578063313ce567146101b45780633644e515146101d257806342966c68146101f057806370a082311461020c578063715018a61461023c57610114565b806306fdde0314610118578063095ea7b31461013657806318160ddd1461016657806323b872dd14610184575b5f5ffd5b61012061038a565b60405161012d9190611743565b60405180910390f35b610150600480360381019061014b91906117f4565b61041a565b60405161015d919061184c565b60405180910390f35b61016e61043c565b60405161017b9190611874565b60405180910390f35b61019e6004803603810190610199919061188d565b610445565b6040516101ab919061184c565b60405180910390f35b6101bc610473565b6040516101c991906118f8565b60405180910390f35b6101da61047b565b6040516101e79190611929565b60405180910390f35b61020a60048036038101906102059190611942565b610489565b005b6102266004803603810190610221919061196d565b61049d565b6040516102339190611874565b60405180910390f35b6102446104e2565b005b610260600480360381019061025b91906117f4565b6104f5565b005b61027c6004803603810190610277919061196d565b610515565b6040516102899190611874565b60405180910390f35b61029a610526565b6040516102ad9796959493929190611a98565b60405180910390f35b6102be6105cb565b6040516102cb9190611b1a565b60405180910390f35b6102dc6105f3565b6040516102e99190611743565b60405180910390f35b61030c600480360381019061030791906117f4565b610683565b604051610319919061184c565b60405180910390f35b61033c60048036038101906103379190611b87565b6106a5565b005b61035860048036038101906103539190611c24565b6107ea565b6040516103659190611874565b60405180910390f35b6103886004803603810190610383919061196d565b61086c565b005b60606003805461039990611c8f565b80601f01602080910402602001604051908101604052809291908181526020018280546103c590611c8f565b80156104105780601f106103e757610100808354040283529160200191610410565b820191905f5260205f20905b8154815290600101906020018083116103f357829003601f168201915b5050505050905090565b5f5f6104246108f0565b90506104318185856108f7565b600191505092915050565b5f600254905090565b5f5f61044f6108f0565b905061045c858285610909565b61046785858561099b565b60019150509392505050565b5f6012905090565b5f610484610a8b565b905090565b61049a6104946108f0565b82610b41565b50565b5f5f5f8373ffffffffffffffffffffffffffffffffffffffff1673ffffffffffffffffffffffffffffffffffffffff1681526020019081526020015f20549050919050565b6104ea610bc0565b6104f35f610c47565b565b610507826105016108f0565b83610909565b6105118282610b41565b5050565b5f61051f82610d0a565b9050919050565b5f6060805f5f5f6060610537610d50565b61053f610d8b565b46305f5f1b5f67ffffffffffffffff81111561055e5761055d611cbf565b5b60405190808252806020026020018201604052801561058c5781602001602082028036833780820191505090505b507f0f00000000000000000000000000000000000000000000000000000000000000959493929190965096509650965096509650965090919293949596565b5f60055f9054906101000a900473ffffffffffffffffffffffffffffffffffffffff16905090565b60606004805461060290611c8f565b80601f016020809104026020016040519081016040528092919081815260200182805461062e90611c8f565b80156106795780601f1061065057610100808354040283529160200191610679565b820191905f5260205f20905b81548152906001019060200180831161065c57829003601f168201915b5050505050905090565b5f5f61068d6108f0565b905061069a81858561099b565b600191505092915050565b834211156106ea57836040517f627913020000000000000000000000000000000000000000000000000000000081526004016106e19190611874565b60405180910390fd5b5f7f6e71edae12b1b97f4d1f60370fef10105fa2faae0126114a169c64845d6126c98888886107188c610dc6565b8960405160200161072e96959493929190611cec565b6040516020818303038152906040528051906020012090505f61075082610e19565b90505f61075f82878787610e32565b90508973ffffffffffffffffffffffffffffffffffffffff168173ffffffffffffffffffffffffffffffffffffffff16146107d357808a6040517f4b800e460000000000000000000000000000000000000000000000000000000081526004016107ca929190611d4b565b60405180910390fd5b6107de8a8a8a6108f7565b50505050505050505050565b5f60015f8473ffffffffffffffffffffffffffffffffffffffff1673ffffffffffffffffffffffffffffffffffffffff1681526020019081526020015f205f8373ffffffffffffffffffffffffffffffffffffffff1673ffffffffffffffffffffffffffffffffffffffff1681526020019081526020015f2054905092915050565b610874610bc0565b5f73ffffffffffffffffffffffffffffffffffffffff168173ffffffffffffffffffffffffffffffffffffffff16036108e4575f6040517f1e4fbdf70000000000000000000000000000000000000000000000000000000081526004016108db9190611b1a565b60405180910390fd5b6108ed81610c47565b50565b5f33905090565b6109048383836001610e60565b505050565b5f61091484846107ea565b90507fffffffffffffffffffffffffffffffffffffffffffffffffffffffffffffffff81146109955781811015610986578281836040517ffb8f41b200000000000000000000000000000000000000000000000000000000815260040161097d93929190611d72565b60405180910390fd5b61099484848484035f610e60565b5b50505050565b5f73ffffffffffffffffffffffffffffffffffffffff168373ffffffffffffffffffffffffffffffffffffffff1603610a0b575f6040517f96c6fd1e000000000000000000000000000000000000000000000000000000008152600401610a029190611b1a565b60405180910390fd5b5f73ffffffffffffffffffffffffffffffffffffffff168273ffffffffffffffffffffffffffffffffffffffff1603610a7b575f6040517fec442f05000000000000000000000000000000000000000000000000000000008152600401610a729190611b1a565b60405180910390fd5b610a8683838361102f565b505050565b5f7f000000000000000000000000000000000000000000000000000000000000000073ffffffffffffffffffffffffffffffffffffffff163073ffffffffffffffffffffffffffffffffffffffff16148015610b0657507f000000000000000000000000000000000000000000000000000000000000000046145b15610b33577f00000000000000000000000000000000000000000000000000000000000000009050610b3e565b610b3b611248565b90505b90565b5f73ffffffffffffffffffffffffffffffffffffffff168273ffffffffffffffffffffffffffffffffffffffff1603610bb1575f6040517f96c6fd1e000000000000000000000000000000000000000000000000000000008152600401610ba89190611b1a565b60405180910390fd5b610bbc825f8361102f565b5050565b610bc86108f0565b73ffffffffffffffffffffffffffffffffffffffff16610be66105cb565b73ffffffffffffffffffffffffffffffffffffffff1614610c4557610c096108f0565b6040517f118cdaa7000000000000000000000000000000000000000000000000000000008152600401610c3c9190611b1a565b60405180910390fd5b565b5f60055f9054906101000a900473ffffffffffffffffffffffffffffffffffffffff1690508160055f6101000a81548173ffffffffffffffffffffffffffffffffffffffff021916908373ffffffffffffffffffffffffffffffffffffffff1602179055508173ffffffffffffffffffffffffffffffffffffffff168173ffffffffffffffffffffffffffffffffffffffff167f8be0079c531659141344cd1fd0a4f28419497f9722a3daafe3b4186f6b6457e060405160405180910390a35050565b5f60085f8373ffffffffffffffffffffffffffffffffffffffff1673ffffffffffffffffffffffffffffffffffffffff1681526020019081526020015f20549050919050565b6060610d8660067f00000000000000000000000000000000000000000000000000000000000000006112dd90919063ffffffff16565b905090565b6060610dc160077f00000000000000000000000000000000000000000000000000000000000000006112dd90919063ffffffff16565b905090565b5f60085f8373ffffffffffffffffffffffffffffffffffffffff1673ffffffffffffffffffffffffffffffffffffffff1681526020019081526020015f205f815480929190600101919050559050919050565b5f610e2b610e25610a8b565b8361138a565b9050919050565b5f5f5f5f610e42888888886113ca565b925092509250610e5282826114b1565b829350505050949350505050565b5f73ffffffffffffffffffffffffffffffffffffffff168473ffffffffffffffffffffffffffffffffffffffff1603610ed0575f6040517fe602df05000000000000000000000000000000000000000000000000000000008152600401610ec79190611b1a565b60405180910390fd5b5f73ffffffffffffffffffffffffffffffffffffffff168373ffffffffffffffffffffffffffffffffffffffff1603610f40575f6040517f94280d62000000000000000000000000000000000000000000000000000000008152600401610f379190611b1a565b60405180910390fd5b8160015f8673ffffffffffffffffffffffffffffffffffffffff1673ffffffffffffffffffffffffffffffffffffffff1681526020019081526020015f205f8573ffffffffffffffffffffffffffffffffffffffff1673ffffffffffffffffffffffffffffffffffffffff1681526020019081526020015f20819055508015611029578273ffffffffffffffffffffffffffffffffffffffff168473ffffffffffffffffffffffffffffffffffffffff167f8c5be1e5ebec7d5bd14f71427d1e84f3dd0314c0f7b2291e5b200ac8c7c3b925846040516110209190611874565b60405180910390a35b50505050565b5f73ffffffffffffffffffffffffffffffffffffffff168373ffffffffffffffffffffffffffffffffffffffff160361107f578060025f8282546110739190611dd4565b9250508190555061114d565b5f5f5f8573ffffffffffffffffffffffffffffffffffffffff1673ffffffffffffffffffffffffffffffffffffffff1681526020019081526020015f2054905081811015611108578381836040517fe450d38c0000000000000000000000000000000000000000000000000000000081526004016110ff93929190611d72565b60405180910390fd5b8181035f5f8673ffffffffffffffffffffffffffffffffffffffff1673ffffffffffffffffffffffffffffffffffffffff1681526020019081526020015f2081905550505b5f73ffffffffffffffffffffffffffffffffffffffff168273ffffffffffffffffffffffffffffffffffffffff1603611194578060025f82825403925050819055506111de565b805f5f8473ffffffffffffffffffffffffffffffffffffffff1673ffffffffffffffffffffffffffffffffffffffff1681526020019081526020015f205f82825401925050819055505b8173ffffffffffffffffffffffffffffffffffffffff168373ffffffffffffffffffffffffffffffffffffffff167fddf252ad1be2c89b69c2b068fc378daa952ba7f163c4a11628f55a4df523b3ef8360405161123b9190611874565b60405180910390a3505050565b5f7f8b73c3c69bb8fe3d512ecc4cf759cc79239f7b179b0ffacaa9a75d522b39400f7f00000000000000000000000000000000000000000000000000000000000000007f000000000000000000000000000000000000000000000000000000000000000046306040516020016112c2959493929190611e07565b60405160208183030381529060405280519060200120905090565b606060ff5f1b83146112f9576112f283611613565b9050611384565b81805461130590611c8f565b80601f016020809104026020016040519081016040528092919081815260200182805461133190611c8f565b801561137c5780601f106113535761010080835404028352916020019161137c565b820191905f5260205f20905b81548152906001019060200180831161135f57829003601f168201915b505050505090505b92915050565b5f6040517f190100000000000000000000000000000000000000000000000000000000000081528360028201528260228201526042812091505092915050565b5f5f5f7f7fffffffffffffffffffffffffffffff5d576e7357a4501ddfe92f46681b20a0845f1c1115611406575f6003859250925092506114a7565b5f6001888888886040515f81526020016040526040516114299493929190611e58565b6020604051602081039080840390855afa158015611449573d5f5f3e3d5ffd5b5050506020604051035190505f73ffffffffffffffffffffffffffffffffffffffff168173ffffffffffffffffffffffffffffffffffffffff160361149a575f60015f5f1b935093509350506114a7565b805f5f5f1b935093509350505b9450945094915050565b5f60038111156114c4576114c3611e9b565b5b8260038111156114d7576114d6611e9b565b5b031561160f57600160038111156114f1576114f0611e9b565b5b82600381111561150457611503611e9b565b5b0361153b576040517ff645eedf00000000000000000000000000000000000000000000000000000000815260040160405180910390fd5b6002600381111561154f5761154e611e9b565b5b82600381111561156257611561611e9b565b5b036115a657805f1c6040517ffce698f700000000000000000000000000000000000000000000000000000000815260040161159d9190611874565b60405180910390fd5b6003808111156115b9576115b8611e9b565b5b8260038111156115cc576115cb611e9b565b5b0361160e57806040517fd78bce0c0000000000000000000000000000000000000000000000000000000081526004016116059190611929565b60405180910390fd5b5b5050565b60605f61161f83611685565b90505f602067ffffffffffffffff81111561163d5761163c611cbf565b5b6040519080825280601f01601f19166020018201604052801561166f5781602001600182028036833780820191505090505b5090508181528360208201528092505050919050565b5f5f60ff835f1c169050601f8111156116ca576040517fb3512b0c00000000000000000000000000000000000000000000000000000000815260040160405180910390fd5b80915050919050565b5f81519050919050565b5f82825260208201905092915050565b8281835e5f83830152505050565b5f601f19601f8301169050919050565b5f611715826116d3565b61171f81856116dd565b935061172f8185602086016116ed565b611738816116fb565b840191505092915050565b5f6020820190508181035f83015261175b818461170b565b905092915050565b5f5ffd5b5f73ffffffffffffffffffffffffffffffffffffffff82169050919050565b5f61179082611767565b9050919050565b6117a081611786565b81146117aa575f5ffd5b50565b5f813590506117bb81611797565b92915050565b5f819050919050565b6117d3816117c1565b81146117dd575f5ffd5b50565b5f813590506117ee816117ca565b92915050565b5f5f6040838503121561180a57611809611763565b5b5f611817858286016117ad565b9250506020611828858286016117e0565b9150509250929050565b5f8115159050919050565b61184681611832565b82525050565b5f60208201905061185f5f83018461183d565b92915050565b61186e816117c1565b82525050565b5f6020820190506118875f830184611865565b92915050565b5f5f5f606084860312156118a4576118a3611763565b5b5f6118b1868287016117ad565b93505060206118c2868287016117ad565b92505060406118d3868287016117e0565b9150509250925092565b5f60ff82169050919050565b6118f2816118dd565b82525050565b5f60208201905061190b5f8301846118e9565b92915050565b5f819050919050565b61192381611911565b82525050565b5f60208201905061193c5f83018461191a565b92915050565b5f6020828403121561195757611956611763565b5b5f611964848285016117e0565b91505092915050565b5f6020828403121561198257611981611763565b5b5f61198f848285016117ad565b91505092915050565b5f7fff0000000000000000000000000000000000000000000000000000000000000082169050919050565b6119cc81611998565b82525050565b6119db81611786565b82525050565b5f81519050919050565b5f82825260208201905092915050565b5f819050602082019050919050565b611a13816117c1565b82525050565b5f611a248383611a0a565b60208301905092915050565b5f602082019050919050565b5f611a46826119e1565b611a5081856119eb565b9350611a5b836119fb565b805f5b83811015611a8b578151611a728882611a19565b9750611a7d83611a30565b925050600181019050611a5e565b5085935050505092915050565b5f60e082019050611aab5f83018a6119c3565b8181036020830152611abd818961170b565b90508181036040830152611ad1818861170b565b9050611ae06060830187611865565b611aed60808301866119d2565b611afa60a083018561191a565b81810360c0830152611b0c8184611a3c565b905098975050505050505050565b5f602082019050611b2d5f8301846119d2565b92915050565b611b3c816118dd565b8114611b46575f5ffd5b50565b5f81359050611b5781611b33565b92915050565b611b6681611911565b8114611b70575f5ffd5b50565b5f81359050611b8181611b5d565b92915050565b5f5f5f5f5f5f5f60e0888a031215611ba257611ba1611763565b5b5f611baf8a828b016117ad565b9750506020611bc08a828b016117ad565b9650506040611bd18a828b016117e0565b9550506060611be28a828b016117e0565b9450506080611bf38a828b01611b49565b93505060a0611c048a828b01611b73565b92505060c0611c158a828b01611b73565b91505092959891949750929550565b5f5f60408385031215611c3a57611c39611763565b5b5f611c47858286016117ad565b9250506020611c58858286016117ad565b9150509250929050565b7f4e487b71000000000000000000000000000000000000000000000000000000005f52602260045260245ffd5b5f6002820490506001821680611ca657607f821691505b602082108103611cb957611cb8611c62565b5b50919050565b7f4e487b71000000000000000000000000000000000000000000000000000000005f52604160045260245ffd5b5f60c082019050611cff5f83018961191a565b611d0c60208301886119d2565b611d1960408301876119d2565b611d266060830186611865565b611d336080830185611865565b611d4060a0830184611865565b979650505050505050565b5f604082019050611d5e5f8301856119d2565b611d6b60208301846119d2565b9392505050565b5f606082019050611d855f8301866119d2565b611d926020830185611865565b611d9f6040830184611865565b949350505050565b7f4e487b71000000000000000000000000000000000000000000000000000000005f52601160045260245ffd5b5f611dde826117c1565b9150611de9836117c1565b9250828201905080821115611e0157611e00611da7565b5b92915050565b5f60a082019050611e1a5f83018861191a565b611e27602083018761191a565b611e34604083018661191a565b611e416060830185611865565b611e4e60808301846119d2565b9695505050505050565b5f608082019050611e6b5f83018761191a565b611e7860208301866118e9565b611e85604083018561191a565b611e92606083018461191a565b95945050505050565b7f4e487b71000000000000000000000000000000000000000000000000000000005f52602160045260245ffdfea26469706673582212203036e99a50f6eacfa2225709c7ed7382e4a096f57fe9a304ef10f569e54f97ab64736f6c634300081f0033",
					"opcodes": "PUSH2 0x160 PUSH1 0x40 MSTORE CALLVALUE DUP1 ISZERO PUSH2 0x10 JUMPI PUSH0 PUSH0 REVERT JUMPDEST POP PUSH1 0x40 MLOAD DUP1 PUSH1 0x40 ADD PUSH1 0x40 MSTORE DUP1 PUSH1 0xC DUP2 MSTORE PUSH1 0x20 ADD PUSH32 0x546175727573537461626C650000000000000000000000000000000000000000 DUP2 MSTORE POP DUP1 PUSH1 0x40 MLOAD DUP1 PUSH1 0x40 ADD PUSH1 0x40 MSTORE DUP1 PUSH1 0x1 DUP2 MSTORE PUSH1 0x20 ADD PUSH32 0x3100000000000000000000000000000000000000000000000000000000000000 DUP2 MSTORE POP CALLER PUSH1 0x40 MLOAD DUP1 PUSH1 0x40 ADD PUSH1 0x40 MSTORE DUP1 PUSH1 0xC DUP2 MSTORE PUSH1 0x20 ADD PUSH32 0x546175727573537461626C650000000000000000000000000000000000000000 DUP2 MSTORE POP PUSH1 0x40 MLOAD DUP1 PUSH1 0x40 ADD PUSH1 0x40 MSTORE DUP1 PUSH1 0x4 DUP2 MSTORE PUSH1 0x20 ADD PUSH32 0x5455535400000000000000000000000000000000000000000000000000000000 DUP2 MSTORE POP DUP2 PUSH1 0x3 SWAP1 DUP2 PUSH2 0xFA SWAP2 SWAP1 PUSH2 0x92F JUMP JUMPDEST POP DUP1 PUSH1 0x4 SWAP1 DUP2 PUSH2 0x10A SWAP2 SWAP1 PUSH2 0x92F JUMP JUMPDEST POP POP POP PUSH0 PUSH20 0xFFFFFFFFFFFFFFFFFFFFFFFFFFFFFFFFFFFFFFFF AND DUP2 PUSH20 0xFFFFFFFFFFFFFFFFFFFFFFFFFFFFFFFFFFFFFFFF AND SUB PUSH2 0x17D JUMPI PUSH0 PUSH1 0x40 MLOAD PUSH32 0x1E4FBDF700000000000000000000000000000000000000000000000000000000 DUP2 MSTORE PUSH1 0x4 ADD PUSH2 0x174 SWAP2 SWAP1 PUSH2 0xA3D JUMP JUMPDEST PUSH1 0x40 MLOAD DUP1 SWAP2 SUB SWAP1 REVERT JUMPDEST PUSH2 0x18C DUP2 PUSH2 0x274 PUSH1 0x20 SHL PUSH1 0x20 SHR JUMP JUMPDEST POP PUSH2 0x1A1 PUSH1 0x6 DUP4 PUSH2 0x337 PUSH1 0x20 SHL SWAP1 SWAP2 SWAP1 PUSH1 0x20 SHR JUMP JUMPDEST PUSH2 0x120 DUP2 DUP2 MSTORE POP POP PUSH2 0x1BD PUSH1 0x7 DUP3 PUSH2 0x337 PUSH1 0x20 SHL SWAP1 SWAP2 SWAP1 PUSH1 0x20 SHR JUMP JUMPDEST PUSH2 0x140 DUP2 DUP2 MSTORE POP POP DUP2 DUP1 MLOAD SWAP1 PUSH1 0x20 ADD KECCAK256 PUSH1 0xE0 DUP2 DUP2 MSTORE POP POP DUP1 DUP1 MLOAD SWAP1 PUSH1 0x20 ADD KECCAK256 PUSH2 0x100 DUP2 DUP2 MSTORE POP POP CHAINID PUSH1 0xA0 DUP2 DUP2 MSTORE POP POP PUSH2 0x1FA PUSH2 0x384 PUSH1 0x20 SHL PUSH1 0x20 SHR JUMP JUMPDEST PUSH1 0x80 DUP2 DUP2 MSTORE POP POP ADDRESS PUSH20 0xFFFFFFFFFFFFFFFFFFFFFFFFFFFFFFFFFFFFFFFF AND PUSH1 0xC0 DUP2 PUSH20 0xFFFFFFFFFFFFFFFFFFFFFFFFFFFFFFFFFFFFFFFF AND DUP2 MSTORE POP POP POP POP POP PUSH2 0x26F CALLER PUSH2 0x24A PUSH2 0x3DE PUSH1 0x20 SHL PUSH1 0x20 SHR JUMP JUMPDEST PUSH1 0xA PUSH2 0x256 SWAP2 SWAP1 PUSH2 0xBBE JUMP JUMPDEST PUSH3 0x989680 PUSH2 0x264 SWAP2 SWAP1 PUSH2 0xC08 JUMP JUMPDEST PUSH2 0x3E6 PUSH1 0x20 SHL PUSH1 0x20 SHR JUMP JUMPDEST PUSH2 0xE5B JUMP JUMPDEST PUSH0 PUSH1 0x5 PUSH0 SWAP1 SLOAD SWAP1 PUSH2 0x100 EXP SWAP1 DIV PUSH20 0xFFFFFFFFFFFFFFFFFFFFFFFFFFFFFFFFFFFFFFFF AND SWAP1 POP DUP2 PUSH1 0x5 PUSH0 PUSH2 0x100 EXP DUP2 SLOAD DUP2 PUSH20 0xFFFFFFFFFFFFFFFFFFFFFFFFFFFFFFFFFFFFFFFF MUL NOT AND SWAP1 DUP4 PUSH20 0xFFFFFFFFFFFFFFFFFFFFFFFFFFFFFFFFFFFFFFFF AND MUL OR SWAP1 SSTORE POP DUP2 PUSH20 0xFFFFFFFFFFFFFFFFFFFFFFFFFFFFFFFFFFFFFFFF AND DUP2 PUSH20 0xFFFFFFFFFFFFFFFFFFFFFFFFFFFFFFFFFFFFFFFF AND PUSH32 0x8BE0079C531659141344CD1FD0A4F28419497F9722A3DAAFE3B4186F6B6457E0 PUSH1 0x40 MLOAD PUSH1 0x40 MLOAD DUP1 SWAP2 SUB SWAP1 LOG3 POP POP JUMP JUMPDEST PUSH0 PUSH1 0x20 DUP4 MLOAD LT ISZERO PUSH2 0x358 JUMPI PUSH2 0x351 DUP4 PUSH2 0x46B PUSH1 0x20 SHL PUSH1 0x20 SHR JUMP JUMPDEST SWAP1 POP PUSH2 0x37E JUMP JUMPDEST DUP3 PUSH2 0x368 DUP4 PUSH2 0x4D0 PUSH1 0x20 SHL PUSH1 0x20 SHR JUMP JUMPDEST PUSH0 ADD SWAP1 DUP2 PUSH2 0x376 SWAP2 SWAP1 PUSH2 0x92F JUMP JUMPDEST POP PUSH1 0xFF PUSH0 SHL SWAP1 POP JUMPDEST SWAP3 SWAP2 POP POP JUMP JUMPDEST PUSH0 PUSH32 0x8B73C3C69BB8FE3D512ECC4CF759CC79239F7B179B0FFACAA9A75D522B39400F PUSH1 0xE0 MLOAD PUSH2 0x100 MLOAD CHAINID ADDRESS PUSH1 0x40 MLOAD PUSH1 0x20 ADD PUSH2 0x3C3 SWAP6 SWAP5 SWAP4 SWAP3 SWAP2 SWAP1 PUSH2 0xC70 JUMP JUMPDEST PUSH1 0x40 MLOAD PUSH1 0x20 DUP2 DUP4 SUB SUB DUP2 MSTORE SWAP1 PUSH1 0x40 MSTORE DUP1 MLOAD SWAP1 PUSH1 0x20 ADD KECCAK256 SWAP1 POP SWAP1 JUMP JUMPDEST PUSH0 PUSH1 0x12 SWAP1 POP SWAP1 JUMP JUMPDEST PUSH0 PUSH20 0xFFFFFFFFFFFFFFFFFFFFFFFFFFFFFFFFFFFFFFFF AND DUP3 PUSH20 0xFFFFFFFFFFFFFFFFFFFFFFFFFFFFFFFFFFFFFFFF AND SUB PUSH2 0x456 JUMPI PUSH0 PUSH1 0x40 MLOAD PUSH32 0xEC442F0500000000000000000000000000000000000000000000000000000000 DUP2 MSTORE PUSH1 0x4 ADD PUSH2 0x44D SWAP2 SWAP1 PUSH2 0xA3D JUMP JUMPDEST PUSH1 0x40 MLOAD DUP1 SWAP2 SUB SWAP1 REVERT JUMPDEST PUSH2 0x467 PUSH0 DUP4 DUP4 PUSH2 0x4D9 PUSH1 0x20 SHL PUSH1 0x20 SHR JUMP JUMPDEST POP POP JUMP JUMPDEST PUSH0 PUSH0 DUP3 SWAP1 POP PUSH1 0x1F DUP2 MLOAD GT ISZERO PUSH2 0x4B7 JUMPI DUP3 PUSH1 0x40 MLOAD PUSH32 0x305A27A900000000000000000000000000000000000000000000000000000000 DUP2 MSTORE PUSH1 0x4 ADD PUSH2 0x4AE SWAP2 SWAP1 PUSH2 0xD27 JUMP JUMPDEST PUSH1 0x40 MLOAD DUP1 SWAP2 SUB SWAP1 REVERT JUMPDEST DUP1 MLOAD DUP2 PUSH2 0x4C3 SWAP1 PUSH2 0xD74 JUMP JUMPDEST PUSH0 SHR OR PUSH0 SHL SWAP2 POP POP SWAP2 SWAP1 POP JUMP JUMPDEST PUSH0 DUP2 SWAP1 POP SWAP2 SWAP1 POP JUMP JUMPDEST PUSH0 PUSH20 0xFFFFFFFFFFFFFFFFFFFFFFFFFFFFFFFFFFFFFFFF AND DUP4 PUSH20 0xFFFFFFFFFFFFFFFFFFFFFFFFFFFFFFFFFFFFFFFF AND SUB PUSH2 0x529 JUMPI DUP1 PUSH1 0x2 PUSH0 DUP3 DUP3 SLOAD PUSH2 0x51D SWAP2 SWAP1 PUSH2 0xDDA JUMP JUMPDEST SWAP3 POP POP DUP2 SWAP1 SSTORE POP PUSH2 0x5F7 JUMP JUMPDEST PUSH0 PUSH0 PUSH0 DUP6 PUSH20 0xFFFFFFFFFFFFFFFFFFFFFFFFFFFFFFFFFFFFFFFF AND PUSH20 0xFFFFFFFFFFFFFFFFFFFFFFFFFFFFFFFFFFFFFFFF AND DUP2 MSTORE PUSH1 0x20 ADD SWAP1 DUP2 MSTORE PUSH1 0x20 ADD PUSH0 KECCAK256 SLOAD SWAP1 POP DUP2 DUP2 LT ISZERO PUSH2 0x5B2 JUMPI DUP4 DUP2 DUP4 PUSH1 0x40 MLOAD PUSH32 0xE450D38C00000000000000000000000000000000000000000000000000000000 DUP2 MSTORE PUSH1 0x4 ADD PUSH2 0x5A9 SWAP4 SWAP3 SWAP2 SWAP1 PUSH2 0xE0D JUMP JUMPDEST PUSH1 0x40 MLOAD DUP1 SWAP2 SUB SWAP1 REVERT JUMPDEST DUP2 DUP2 SUB PUSH0 PUSH0 DUP7 PUSH20 0xFFFFFFFFFFFFFFFFFFFFFFFFFFFFFFFFFFFFFFFF AND PUSH20 0xFFFFFFFFFFFFFFFFFFFFFFFFFFFFFFFFFFFFFFFF AND DUP2 MSTORE PUSH1 0x20 ADD SWAP1 DUP2 MSTORE PUSH1 0x20 ADD PUSH0 KECCAK256 DUP2 SWAP1 SSTORE POP POP JUMPDEST PUSH0 PUSH20 0xFFFFFFFFFFFFFFFFFFFFFFFFFFFFFFFFFFFFFFFF AND DUP3 PUSH20 0xFFFFFFFFFFFFFFFFFFFFFFFFFFFFFFFFFFFFFFFF AND SUB PUSH2 0x63E JUMPI DUP1 PUSH1 0x2 PUSH0 DUP3 DUP3 SLOAD SUB SWAP3 POP POP DUP2 SWAP1 SSTORE POP PUSH2 0x688 JUMP JUMPDEST DUP1 PUSH0 PUSH0 DUP5 PUSH20 0xFFFFFFFFFFFFFFFFFFFFFFFFFFFFFFFFFFFFFFFF AND PUSH20 0xFFFFFFFFFFFFFFFFFFFFFFFFFFFFFFFFFFFFFFFF AND DUP2 MSTORE PUSH1 0x20 ADD SWAP1 DUP2 MSTORE PUSH1 0x20 ADD PUSH0 KECCAK256 PUSH0 DUP3 DUP3 SLOAD ADD SWAP3 POP POP DUP2 SWAP1 SSTORE POP JUMPDEST DUP2 PUSH20 0xFFFFFFFFFFFFFFFFFFFFFFFFFFFFFFFFFFFFFFFF AND DUP4 PUSH20 0xFFFFFFFFFFFFFFFFFFFFFFFFFFFFFFFFFFFFFFFF AND PUSH32 0xDDF252AD1BE2C89B69C2B068FC378DAA952BA7F163C4A11628F55A4DF523B3EF DUP4 PUSH1 0x40 MLOAD PUSH2 0x6E5 SWAP2 SWAP1 PUSH2 0xE42 JUMP JUMPDEST PUSH1 0x40 MLOAD DUP1 SWAP2 SUB SWAP1 LOG3 POP POP POP JUMP JUMPDEST PUSH0 DUP2 MLOAD SWAP1 POP SWAP2 SWAP1 POP JUMP JUMPDEST PUSH32 0x4E487B7100000000000000000000000000000000000000000000000000000000 PUSH0 MSTORE PUSH1 0x41 PUSH1 0x4 MSTORE PUSH1 0x24 PUSH0 REVERT JUMPDEST PUSH32 0x4E487B7100000000000000000000000000000000000000000000000000000000 PUSH0 MSTORE PUSH1 0x22 PUSH1 0x4 MSTORE PUSH1 0x24 PUSH0 REVERT JUMPDEST PUSH0 PUSH1 0x2 DUP3 DIV SWAP1 POP PUSH1 0x1 DUP3 AND DUP1 PUSH2 0x76D JUMPI PUSH1 0x7F DUP3 AND SWAP2 POP JUMPDEST PUSH1 0x20 DUP3 LT DUP2 SUB PUSH2 0x780 JUMPI PUSH2 0x77F PUSH2 0x729 JUMP JUMPDEST JUMPDEST POP SWAP2 SWAP1 POP JUMP JUMPDEST PUSH0 DUP2 SWAP1 POP DUP2 PUSH0 MSTORE PUSH1 0x20 PUSH0 KECCAK256 SWAP1 POP SWAP2 SWAP1 POP JUMP JUMPDEST PUSH0 PUSH1 0x20 PUSH1 0x1F DUP4 ADD DIV SWAP1 POP SWAP2 SWAP1 POP JUMP JUMPDEST PUSH0 DUP3 DUP3 SHL SWAP1 POP SWAP3 SWAP2 POP POP JUMP JUMPDEST PUSH0 PUSH1 0x8 DUP4 MUL PUSH2 0x7E2 PUSH32 0xFFFFFFFFFFFFFFFFFFFFFFFFFFFFFFFFFFFFFFFFFFFFFFFFFFFFFFFFFFFFFFFF DUP3 PUSH2 0x7A7 JUMP JUMPDEST PUSH2 0x7EC DUP7 DUP4 PUSH2 0x7A7 JUMP JUMPDEST SWAP6 POP DUP1 NOT DUP5 AND SWAP4 POP DUP1 DUP7 AND DUP5 OR SWAP3 POP POP POP SWAP4 SWAP3 POP POP POP JUMP JUMPDEST PUSH0 DUP2 SWAP1 POP SWAP2 SWAP1 POP JUMP JUMPDEST PUSH0 DUP2 SWAP1 POP SWAP2 SWAP1 POP JUMP JUMPDEST PUSH0 PUSH2 0x830 PUSH2 0x82B PUSH2 0x826 DUP5 PUSH2 0x804 JUMP JUMPDEST PUSH2 0x80D JUMP JUMPDEST PUSH2 0x804 JUMP JUMPDEST SWAP1 POP SWAP2 SWAP1 POP JUMP JUMPDEST PUSH0 DUP2 SWAP1 POP SWAP2 SWAP1 POP JUMP JUMPDEST PUSH2 0x849 DUP4 PUSH2 0x816 JUMP JUMPDEST PUSH2 0x85D PUSH2 0x855 DUP3 PUSH2 0x837 JUMP JUMPDEST DUP5 DUP5 SLOAD PUSH2 0x7B3 JUMP JUMPDEST DUP3 SSTORE POP POP POP POP JUMP JUMPDEST PUSH0 PUSH0 SWAP1 POP SWAP1 JUMP JUMPDEST PUSH2 0x874 PUSH2 0x865 JUMP JUMPDEST PUSH2 0x87F DUP2 DUP5 DUP5 PUSH2 0x840 JUMP JUMPDEST POP POP POP JUMP JUMPDEST JUMPDEST DUP2 DUP2 LT ISZERO PUSH2 0x8A2 JUMPI PUSH2 0x897 PUSH0 DUP3 PUSH2 0x86C JUMP JUMPDEST PUSH1 0x1 DUP2 ADD SWAP1 POP PUSH2 0x885 JUMP JUMPDEST POP POP JUMP JUMPDEST PUSH1 0x1F DUP3 GT ISZERO PUSH2 0x8E7 JUMPI PUSH2 0x8B8 DUP2 PUSH2 0x786 JUMP JUMPDEST PUSH2 0x8C1 DUP5 PUSH2 0x798 JUMP JUMPDEST DUP2 ADD PUSH1 0x20 DUP6 LT ISZERO PUSH2 0x8D0 JUMPI DUP2 SWAP1 POP JUMPDEST PUSH2 0x8E4 PUSH2 0x8DC DUP6 PUSH2 0x798 JUMP JUMPDEST DUP4 ADD DUP3 PUSH2 0x884 JUMP JUMPDEST POP POP JUMPDEST POP POP POP JUMP JUMPDEST PUSH0 DUP3 DUP3 SHR SWAP1 POP SWAP3 SWAP2 POP POP JUMP JUMPDEST PUSH0 PUSH2 0x907 PUSH0 NOT DUP5 PUSH1 0x8 MUL PUSH2 0x8EC JUMP JUMPDEST NOT DUP1 DUP4 AND SWAP2 POP POP SWAP3 SWAP2 POP POP JUMP JUMPDEST PUSH0 PUSH2 0x91F DUP4 DUP4 PUSH2 0x8F8 JUMP JUMPDEST SWAP2 POP DUP3 PUSH1 0x2 MUL DUP3 OR SWAP1 POP SWAP3 SWAP2 POP POP JUMP JUMPDEST PUSH2 0x938 DUP3 PUSH2 0x6F2 JUMP JUMPDEST PUSH8 0xFFFFFFFFFFFFFFFF DUP2 GT ISZERO PUSH2 0x951 JUMPI PUSH2 0x950 PUSH2 0x6FC JUMP JUMPDEST JUMPDEST PUSH2 0x95B DUP3 SLOAD PUSH2 0x756 JUMP JUMPDEST PUSH2 0x966 DUP3 DUP3 DUP6 PUSH2 0x8A6 JUMP JUMPDEST PUSH0 PUSH1 0x20 SWAP1 POP PUSH1 0x1F DUP4 GT PUSH1 0x1 DUP2 EQ PUSH2 0x997 JUMPI PUSH0 DUP5 ISZERO PUSH2 0x985 JUMPI DUP3 DUP8 ADD MLOAD SWAP1 POP JUMPDEST PUSH2 0x98F DUP6 DUP3 PUSH2 0x914 JUMP JUMPDEST DUP7 SSTORE POP PUSH2 0x9F6 JUMP JUMPDEST PUSH1 0x1F NOT DUP5 AND PUSH2 0x9A5 DUP7 PUSH2 0x786 JUMP JUMPDEST PUSH0 JUMPDEST DUP3 DUP2 LT ISZERO PUSH2 0x9CC JUMPI DUP5 DUP10 ADD MLOAD DUP3 SSTORE PUSH1 0x1 DUP3 ADD SWAP2 POP PUSH1 0x20 DUP6 ADD SWAP5 POP PUSH1 0x20 DUP2 ADD SWAP1 POP PUSH2 0x9A7 JUMP JUMPDEST DUP7 DUP4 LT ISZERO PUSH2 0x9E9 JUMPI DUP5 DUP10 ADD MLOAD PUSH2 0x9E5 PUSH1 0x1F DUP10 AND DUP3 PUSH2 0x8F8 JUMP JUMPDEST DUP4 SSTORE POP JUMPDEST PUSH1 0x1 PUSH1 0x2 DUP9 MUL ADD DUP9 SSTORE POP POP POP JUMPDEST POP POP POP POP POP POP JUMP JUMPDEST PUSH0 PUSH20 0xFFFFFFFFFFFFFFFFFFFFFFFFFFFFFFFFFFFFFFFF DUP3 AND SWAP1 POP SWAP2 SWAP1 POP JUMP JUMPDEST PUSH0 PUSH2 0xA27 DUP3 PUSH2 0x9FE JUMP JUMPDEST SWAP1 POP SWAP2 SWAP1 POP JUMP JUMPDEST PUSH2 0xA37 DUP2 PUSH2 0xA1D JUMP JUMPDEST DUP3 MSTORE POP POP JUMP JUMPDEST PUSH0 PUSH1 0x20 DUP3 ADD SWAP1 POP PUSH2 0xA50 PUSH0 DUP4 ADD DUP5 PUSH2 0xA2E JUMP JUMPDEST SWAP3 SWAP2 POP POP JUMP JUMPDEST PUSH32 0x4E487B7100000000000000000000000000000000000000000000000000000000 PUSH0 MSTORE PUSH1 0x11 PUSH1 0x4 MSTORE PUSH1 0x24 PUSH0 REVERT JUMPDEST PUSH0 DUP2 PUSH1 0x1 SHR SWAP1 POP SWAP2 SWAP1 POP JUMP JUMPDEST PUSH0 PUSH0 DUP3 SWAP2 POP DUP4 SWAP1 POP JUMPDEST PUSH1 0x1 DUP6 GT ISZERO PUSH2 0xAD8 JUMPI DUP1 DUP7 DIV DUP2 GT ISZERO PUSH2 0xAB4 JUMPI PUSH2 0xAB3 PUSH2 0xA56 JUMP JUMPDEST JUMPDEST PUSH1 0x1 DUP6 AND ISZERO PUSH2 0xAC3 JUMPI DUP1 DUP3 MUL SWAP2 POP JUMPDEST DUP1 DUP2 MUL SWAP1 POP PUSH2 0xAD1 DUP6 PUSH2 0xA83 JUMP JUMPDEST SWAP5 POP PUSH2 0xA98 JUMP JUMPDEST SWAP5 POP SWAP5 SWAP3 POP POP POP JUMP JUMPDEST PUSH0 DUP3 PUSH2 0xAF0 JUMPI PUSH1 0x1 SWAP1 POP PUSH2 0xBAB JUMP JUMPDEST DUP2 PUSH2 0xAFD JUMPI PUSH0 SWAP1 POP PUSH2 0xBAB JUMP JUMPDEST DUP2 PUSH1 0x1 DUP2 EQ PUSH2 0xB13 JUMPI PUSH1 0x2 DUP2 EQ PUSH2 0xB1D JUMPI PUSH2 0xB4C JUMP JUMPDEST PUSH1 0x1 SWAP2 POP POP PUSH2 0xBAB JUMP JUMPDEST PUSH1 0xFF DUP5 GT ISZERO PUSH2 0xB2F JUMPI PUSH2 0xB2E PUSH2 0xA56 JUMP JUMPDEST JUMPDEST DUP4 PUSH1 0x2 EXP SWAP2 POP DUP5 DUP3 GT ISZERO PUSH2 0xB46 JUMPI PUSH2 0xB45 PUSH2 0xA56 JUMP JUMPDEST JUMPDEST POP PUSH2 0xBAB JUMP JUMPDEST POP PUSH1 0x20 DUP4 LT PUSH2 0x133 DUP4 LT AND PUSH1 0x4E DUP5 LT PUSH1 0xB DUP5 LT AND OR ISZERO PUSH2 0xB81 JUMPI DUP3 DUP3 EXP SWAP1 POP DUP4 DUP2 GT ISZERO PUSH2 0xB7C JUMPI PUSH2 0xB7B PUSH2 0xA56 JUMP JUMPDEST JUMPDEST PUSH2 0xBAB JUMP JUMPDEST PUSH2 0xB8E DUP5 DUP5 DUP5 PUSH1 0x1 PUSH2 0xA8F JUMP JUMPDEST SWAP3 POP SWAP1 POP DUP2 DUP5 DIV DUP2 GT ISZERO PUSH2 0xBA5 JUMPI PUSH2 0xBA4 PUSH2 0xA56 JUMP JUMPDEST JUMPDEST DUP2 DUP2 MUL SWAP1 POP JUMPDEST SWAP4 SWAP3 POP POP POP JUMP JUMPDEST PUSH0 PUSH1 0xFF DUP3 AND SWAP1 POP SWAP2 SWAP1 POP JUMP JUMPDEST PUSH0 PUSH2 0xBC8 DUP3 PUSH2 0x804 JUMP JUMPDEST SWAP2 POP PUSH2 0xBD3 DUP4 PUSH2 0xBB2 JUMP JUMPDEST SWAP3 POP PUSH2 0xC00 PUSH32 0xFFFFFFFFFFFFFFFFFFFFFFFFFFFFFFFFFFFFFFFFFFFFFFFFFFFFFFFFFFFFFFFF DUP5 DUP5 PUSH2 0xAE1 JUMP JUMPDEST SWAP1 POP SWAP3 SWAP2 POP POP JUMP JUMPDEST PUSH0 PUSH2 0xC12 DUP3 PUSH2 0x804 JUMP JUMPDEST SWAP2 POP PUSH2 0xC1D DUP4 PUSH2 0x804 JUMP JUMPDEST SWAP3 POP DUP3 DUP3 MUL PUSH2 0xC2B DUP2 PUSH2 0x804 JUMP JUMPDEST SWAP2 POP DUP3 DUP3 DIV DUP5 EQ DUP4 ISZERO OR PUSH2 0xC42 JUMPI PUSH2 0xC41 PUSH2 0xA56 JUMP JUMPDEST JUMPDEST POP SWAP3 SWAP2 POP POP JUMP JUMPDEST PUSH0 DUP2 SWAP1 POP SWAP2 SWAP1 POP JUMP JUMPDEST PUSH2 0xC5B DUP2 PUSH2 0xC49 JUMP JUMPDEST DUP3 MSTORE POP POP JUMP JUMPDEST PUSH2 0xC6A DUP2 PUSH2 0x804 JUMP JUMPDEST DUP3 MSTORE POP POP JUMP JUMPDEST PUSH0 PUSH1 0xA0 DUP3 ADD SWAP1 POP PUSH2 0xC83 PUSH0 DUP4 ADD DUP9 PUSH2 0xC52 JUMP JUMPDEST PUSH2 0xC90 PUSH1 0x20 DUP4 ADD DUP8 PUSH2 0xC52 JUMP JUMPDEST PUSH2 0xC9D PUSH1 0x40 DUP4 ADD DUP7 PUSH2 0xC52 JUMP JUMPDEST PUSH2 0xCAA PUSH1 0x60 DUP4 ADD DUP6 PUSH2 0xC61 JUMP JUMPDEST PUSH2 0xCB7 PUSH1 0x80 DUP4 ADD DUP5 PUSH2 0xA2E JUMP JUMPDEST SWAP7 SWAP6 POP POP POP POP POP POP JUMP JUMPDEST PUSH0 DUP3 DUP3 MSTORE PUSH1 0x20 DUP3 ADD SWAP1 POP SWAP3 SWAP2 POP POP JUMP JUMPDEST DUP3 DUP2 DUP4 MCOPY PUSH0 DUP4 DUP4 ADD MSTORE POP POP POP JUMP JUMPDEST PUSH0 PUSH1 0x1F NOT PUSH1 0x1F DUP4 ADD AND SWAP1 POP SWAP2 SWAP1 POP JUMP JUMPDEST PUSH0 PUSH2 0xCF9 DUP3 PUSH2 0x6F2 JUMP JUMPDEST PUSH2 0xD03 DUP2 DUP6 PUSH2 0xCC1 JUMP JUMPDEST SWAP4 POP PUSH2 0xD13 DUP2 DUP6 PUSH1 0x20 DUP7 ADD PUSH2 0xCD1 JUMP JUMPDEST PUSH2 0xD1C DUP2 PUSH2 0xCDF JUMP JUMPDEST DUP5 ADD SWAP2 POP POP SWAP3 SWAP2 POP POP JUMP JUMPDEST PUSH0 PUSH1 0x20 DUP3 ADD SWAP1 POP DUP2 DUP2 SUB PUSH0 DUP4 ADD MSTORE PUSH2 0xD3F DUP2 DUP5 PUSH2 0xCEF JUMP JUMPDEST SWAP1 POP SWAP3 SWAP2 POP POP JUMP JUMPDEST PUSH0 DUP2 MLOAD SWAP1 POP SWAP2 SWAP1 POP JUMP JUMPDEST PUSH0 DUP2 SWAP1 POP PUSH1 0x20 DUP3 ADD SWAP1 POP SWAP2 SWAP1 POP JUMP JUMPDEST PUSH0 PUSH2 0xD6B DUP3 MLOAD PUSH2 0xC49 JUMP JUMPDEST DUP1 SWAP2 POP POP SWAP2 SWAP1 POP JUMP JUMPDEST PUSH0 PUSH2 0xD7E DUP3 PUSH2 0xD47 JUMP JUMPDEST DUP3 PUSH2 0xD88 DUP5 PUSH2 0xD51 JUMP JUMPDEST SWAP1 POP PUSH2 0xD93 DUP2 PUSH2 0xD60 JUMP JUMPDEST SWAP3 POP PUSH1 0x20 DUP3 LT ISZERO PUSH2 0xDD3 JUMPI PUSH2 0xDCE PUSH32 0xFFFFFFFFFFFFFFFFFFFFFFFFFFFFFFFFFFFFFFFFFFFFFFFFFFFFFFFFFFFFFFFF DUP4 PUSH1 0x20 SUB PUSH1 0x8 MUL PUSH2 0x7A7 JUMP JUMPDEST DUP4 AND SWAP3 POP JUMPDEST POP POP SWAP2 SWAP1 POP JUMP JUMPDEST PUSH0 PUSH2 0xDE4 DUP3 PUSH2 0x804 JUMP JUMPDEST SWAP2 POP PUSH2 0xDEF DUP4 PUSH2 0x804 JUMP JUMPDEST SWAP3 POP DUP3 DUP3 ADD SWAP1 POP DUP1 DUP3 GT ISZERO PUSH2 0xE07 JUMPI PUSH2 0xE06 PUSH2 0xA56 JUMP JUMPDEST JUMPDEST SWAP3 SWAP2 POP POP JUMP JUMPDEST PUSH0 PUSH1 0x60 DUP3 ADD SWAP1 POP PUSH2 0xE20 PUSH0 DUP4 ADD DUP7 PUSH2 0xA2E JUMP JUMPDEST PUSH2 0xE2D PUSH1 0x20 DUP4 ADD DUP6 PUSH2 0xC61 JUMP JUMPDEST PUSH2 0xE3A PUSH1 0x40 DUP4 ADD DUP5 PUSH2 0xC61 JUMP JUMPDEST SWAP5 SWAP4 POP POP POP POP JUMP JUMPDEST PUSH0 PUSH1 0x20 DUP3 ADD SWAP1 POP PUSH2 0xE55 PUSH0 DUP4 ADD DUP5 PUSH2 0xC61 JUMP JUMPDEST SWAP3 SWAP2 POP POP JUMP JUMPDEST PUSH1 0x80 MLOAD PUSH1 0xA0 MLOAD PUSH1 0xC0 MLOAD PUSH1 0xE0 MLOAD PUSH2 0x100 MLOAD PUSH2 0x120 MLOAD PUSH2 0x140 MLOAD PUSH2 0x1EFE PUSH2 0xEAC PUSH0 CODECOPY PUSH0 PUSH2 0xD94 ADD MSTORE PUSH0 PUSH2 0xD59 ADD MSTORE PUSH0 PUSH2 0x128D ADD MSTORE PUSH0 PUSH2 0x126C ADD MSTORE PUSH0 PUSH2 0xA8E ADD MSTORE PUSH0 PUSH2 0xAE4 ADD MSTORE PUSH0 PUSH2 0xB0D ADD MSTORE PUSH2 0x1EFE PUSH0 RETURN INVALID PUSH1 0x80 PUSH1 0x40 MSTORE CALLVALUE DUP1 ISZERO PUSH2 0xF JUMPI PUSH0 PUSH0 REVERT JUMPDEST POP PUSH1 0x4 CALLDATASIZE LT PUSH2 0x114 JUMPI PUSH0 CALLDATALOAD PUSH1 0xE0 SHR DUP1 PUSH4 0x79CC6790 GT PUSH2 0xA0 JUMPI DUP1 PUSH4 0x95D89B41 GT PUSH2 0x6F JUMPI DUP1 PUSH4 0x95D89B41 EQ PUSH2 0x2D4 JUMPI DUP1 PUSH4 0xA9059CBB EQ PUSH2 0x2F2 JUMPI DUP1 PUSH4 0xD505ACCF EQ PUSH2 0x322 JUMPI DUP1 PUSH4 0xDD62ED3E EQ PUSH2 0x33E JUMPI DUP1 PUSH4 0xF2FDE38B EQ PUSH2 0x36E JUMPI PUSH2 0x114 JUMP JUMPDEST DUP1 PUSH4 0x79CC6790 EQ PUSH2 0x246 JUMPI DUP1 PUSH4 0x7ECEBE00 EQ PUSH2 0x262 JUMPI DUP1 PUSH4 0x84B0196E EQ PUSH2 0x292 JUMPI DUP1 PUSH4 0x8DA5CB5B EQ PUSH2 0x2B6 JUMPI PUSH2 0x114 JUMP JUMPDEST DUP1 PUSH4 0x313CE567 GT PUSH2 0xE7 JUMPI DUP1 PUSH4 0x313CE567 EQ PUSH2 0x1B4 JUMPI DUP1 PUSH4 0x3644E515 EQ PUSH2 0x1D2 JUMPI DUP1 PUSH4 0x42966C68 EQ PUSH2 0x1F0 JUMPI DUP1 PUSH4 0x70A08231 EQ PUSH2 0x20C JUMPI DUP1 PUSH4 0x715018A6 EQ PUSH2 0x23C JUMPI PUSH2 0x114 JUMP JUMPDEST DUP1 PUSH4 0x6FDDE03 EQ PUSH2 0x118 JUMPI DUP1 PUSH4 0x95EA7B3 EQ PUSH2 0x136 JUMPI DUP1 PUSH4 0x18160DDD EQ PUSH2 0x166 JUMPI DUP1 PUSH4 0x23B872DD EQ PUSH2 0x184 JUMPI JUMPDEST PUSH0 PUSH0 REVERT JUMPDEST PUSH2 0x120 PUSH2 0x38A JUMP JUMPDEST PUSH1 0x40 MLOAD PUSH2 0x12D SWAP2 SWAP1 PUSH2 0x1743 JUMP JUMPDEST PUSH1 0x40 MLOAD DUP1 SWAP2 SUB SWAP1 RETURN JUMPDEST PUSH2 0x150 PUSH1 0x4 DUP1 CALLDATASIZE SUB DUP2 ADD SWAP1 PUSH2 0x14B SWAP2 SWAP1 PUSH2 0x17F4 JUMP JUMPDEST PUSH2 0x41A JUMP JUMPDEST PUSH1 0x40 MLOAD PUSH2 0x15D SWAP2 SWAP1 PUSH2 0x184C JUMP JUMPDEST PUSH1 0x40 MLOAD DUP1 SWAP2 SUB SWAP1 RETURN JUMPDEST PUSH2 0x16E PUSH2 0x43C JUMP JUMPDEST PUSH1 0x40 MLOAD PUSH2 0x17B SWAP2 SWAP1 PUSH2 0x1874 JUMP JUMPDEST PUSH1 0x40 MLOAD DUP1 SWAP2 SUB SWAP1 RETURN JUMPDEST PUSH2 0x19E PUSH1 0x4 DUP1 CALLDATASIZE SUB DUP2 ADD SWAP1 PUSH2 0x199 SWAP2 SWAP1 PUSH2 0x188D JUMP JUMPDEST PUSH2 0x445 JUMP JUMPDEST PUSH1 0x40 MLOAD PUSH2 0x1AB SWAP2 SWAP1 PUSH2 0x184C JUMP JUMPDEST PUSH1 0x40 MLOAD DUP1 SWAP2 SUB SWAP1 RETURN JUMPDEST PUSH2 0x1BC PUSH2 0x473 JUMP JUMPDEST PUSH1 0x40 MLOAD PUSH2 0x1C9 SWAP2 SWAP1 PUSH2 0x18F8 JUMP JUMPDEST PUSH1 0x40 MLOAD DUP1 SWAP2 SUB SWAP1 RETURN JUMPDEST PUSH2 0x1DA PUSH2 0x47B JUMP JUMPDEST PUSH1 0x40 MLOAD PUSH2 0x1E7 SWAP2 SWAP1 PUSH2 0x1929 JUMP JUMPDEST PUSH1 0x40 MLOAD DUP1 SWAP2 SUB SWAP1 RETURN JUMPDEST PUSH2 0x20A PUSH1 0x4 DUP1 CALLDATASIZE SUB DUP2 ADD SWAP1 PUSH2 0x205 SWAP2 SWAP1 PUSH2 0x1942 JUMP JUMPDEST PUSH2 0x489 JUMP JUMPDEST STOP JUMPDEST PUSH2 0x226 PUSH1 0x4 DUP1 CALLDATASIZE SUB DUP2 ADD SWAP1 PUSH2 0x221 SWAP2 SWAP1 PUSH2 0x196D JUMP JUMPDEST PUSH2 0x49D JUMP JUMPDEST PUSH1 0x40 MLOAD PUSH2 0x233 SWAP2 SWAP1 PUSH2 0x1874 JUMP JUMPDEST PUSH1 0x40 MLOAD DUP1 SWAP2 SUB SWAP1 RETURN JUMPDEST PUSH2 0x244 PUSH2 0x4E2 JUMP JUMPDEST STOP JUMPDEST PUSH2 0x260 PUSH1 0x4 DUP1 CALLDATASIZE SUB DUP2 ADD SWAP1 PUSH2 0x25B SWAP2 SWAP1 PUSH2 0x17F4 JUMP JUMPDEST PUSH2 0x4F5 JUMP JUMPDEST STOP JUMPDEST PUSH2 0x27C PUSH1 0x4 DUP1 CALLDATASIZE SUB DUP2 ADD SWAP1 PUSH2 0x277 SWAP2 SWAP1 PUSH2 0x196D JUMP JUMPDEST PUSH2 0x515 JUMP JUMPDEST PUSH1 0x40 MLOAD PUSH2 0x289 SWAP2 SWAP1 PUSH2 0x1874 JUMP JUMPDEST PUSH1 0x40 MLOAD DUP1 SWAP2 SUB SWAP1 RETURN JUMPDEST PUSH2 0x29A PUSH2 0x526 JUMP JUMPDEST PUSH1 0x40 MLOAD PUSH2 0x2AD SWAP8 SWAP7 SWAP6 SWAP5 SWAP4 SWAP3 SWAP2 SWAP1 PUSH2 0x1A98 JUMP JUMPDEST PUSH1 0x40 MLOAD DUP1 SWAP2 SUB SWAP1 RETURN JUMPDEST PUSH2 0x2BE PUSH2 0x5CB JUMP JUMPDEST PUSH1 0x40 MLOAD PUSH2 0x2CB SWAP2 SWAP1 PUSH2 0x1B1A JUMP JUMPDEST PUSH1 0x40 MLOAD DUP1 SWAP2 SUB SWAP1 RETURN JUMPDEST PUSH2 0x2DC PUSH2 0x5F3 JUMP JUMPDEST PUSH1 0x40 MLOAD PUSH2 0x2E9 SWAP2 SWAP1 PUSH2 0x1743 JUMP JUMPDEST PUSH1 0x40 MLOAD DUP1 SWAP2 SUB SWAP1 RETURN JUMPDEST PUSH2 0x30C PUSH1 0x4 DUP1 CALLDATASIZE SUB DUP2 ADD SWAP1 PUSH2 0x307 SWAP2 SWAP1 PUSH2 0x17F4 JUMP JUMPDEST PUSH2 0x683 JUMP JUMPDEST PUSH1 0x40 MLOAD PUSH2 0x319 SWAP2 SWAP1 PUSH2 0x184C JUMP JUMPDEST PUSH1 0x40 MLOAD DUP1 SWAP2 SUB SWAP1 RETURN JUMPDEST PUSH2 0x33C PUSH1 0x4 DUP1 CALLDATASIZE SUB DUP2 ADD SWAP1 PUSH2 0x337 SWAP2 SWAP1 PUSH2 0x1B87 JUMP JUMPDEST PUSH2 0x6A5 JUMP JUMPDEST STOP JUMPDEST PUSH2 0x358 PUSH1 0x4 DUP1 CALLDATASIZE SUB DUP2 ADD SWAP1 PUSH2 0x353 SWAP2 SWAP1 PUSH2 0x1C24 JUMP JUMPDEST PUSH2 0x7EA JUMP JUMPDEST PUSH1 0x40 MLOAD PUSH2 0x365 SWAP2 SWAP1 PUSH2 0x1874 JUMP JUMPDEST PUSH1 0x40 MLOAD DUP1 SWAP2 SUB SWAP1 RETURN JUMPDEST PUSH2 0x388 PUSH1 0x4 DUP1 CALLDATASIZE SUB DUP2 ADD SWAP1 PUSH2 0x383 SWAP2 SWAP1 PUSH2 0x196D JUMP JUMPDEST PUSH2 0x86C JUMP JUMPDEST STOP JUMPDEST PUSH1 0x60 PUSH1 0x3 DUP1 SLOAD PUSH2 0x399 SWAP1 PUSH2 0x1C8F JUMP JUMPDEST DUP1 PUSH1 0x1F ADD PUSH1 0x20 DUP1 SWAP2 DIV MUL PUSH1 0x20 ADD PUSH1 0x40 MLOAD SWAP1 DUP2 ADD PUSH1 0x40 MSTORE DUP1 SWAP3 SWAP2 SWAP1 DUP2 DUP2 MSTORE PUSH1 0x20 ADD DUP3 DUP1 SLOAD PUSH2 0x3C5 SWAP1 PUSH2 0x1C8F JUMP JUMPDEST DUP1 ISZERO PUSH2 0x410 JUMPI DUP1 PUSH1 0x1F LT PUSH2 0x3E7 JUMPI PUSH2 0x100 DUP1 DUP4 SLOAD DIV MUL DUP4 MSTORE SWAP2 PUSH1 0x20 ADD SWAP2 PUSH2 0x410 JUMP JUMPDEST DUP3 ADD SWAP2 SWAP1 PUSH0 MSTORE PUSH1 0x20 PUSH0 KECCAK256 SWAP1 JUMPDEST DUP2 SLOAD DUP2 MSTORE SWAP1 PUSH1 0x1 ADD SWAP1 PUSH1 0x20 ADD DUP1 DUP4 GT PUSH2 0x3F3 JUMPI DUP3 SWAP1 SUB PUSH1 0x1F AND DUP3 ADD SWAP2 JUMPDEST POP POP POP POP POP SWAP1 POP SWAP1 JUMP JUMPDEST PUSH0 PUSH0 PUSH2 0x424 PUSH2 0x8F0 JUMP JUMPDEST SWAP1 POP PUSH2 0x431 DUP2 DUP6 DUP6 PUSH2 0x8F7 JUMP JUMPDEST PUSH1 0x1 SWAP2 POP POP SWAP3 SWAP2 POP POP JUMP JUMPDEST PUSH0 PUSH1 0x2 SLOAD SWAP1 POP SWAP1 JUMP JUMPDEST PUSH0 PUSH0 PUSH2 0x44F PUSH2 0x8F0 JUMP JUMPDEST SWAP1 POP PUSH2 0x45C DUP6 DUP3 DUP6 PUSH2 0x909 JUMP JUMPDEST PUSH2 0x467 DUP6 DUP6 DUP6 PUSH2 0x99B JUMP JUMPDEST PUSH1 0x1 SWAP2 POP POP SWAP4 SWAP3 POP POP POP JUMP JUMPDEST PUSH0 PUSH1 0x12 SWAP1 POP SWAP1 JUMP JUMPDEST PUSH0 PUSH2 0x484 PUSH2 0xA8B JUMP JUMPDEST SWAP1 POP SWAP1 JUMP JUMPDEST PUSH2 0x49A PUSH2 0x494 PUSH2 0x8F0 JUMP JUMPDEST DUP3 PUSH2 0xB41 JUMP JUMPDEST POP JUMP JUMPDEST PUSH0 PUSH0 PUSH0 DUP4 PUSH20 0xFFFFFFFFFFFFFFFFFFFFFFFFFFFFFFFFFFFFFFFF AND PUSH20 0xFFFFFFFFFFFFFFFFFFFFFFFFFFFFFFFFFFFFFFFF AND DUP2 MSTORE PUSH1 0x20 ADD SWAP1 DUP2 MSTORE PUSH1 0x20 ADD PUSH0 KECCAK256 SLOAD SWAP1 POP SWAP2 SWAP1 POP JUMP JUMPDEST PUSH2 0x4EA PUSH2 0xBC0 JUMP JUMPDEST PUSH2 0x4F3 PUSH0 PUSH2 0xC47 JUMP JUMPDEST JUMP JUMPDEST PUSH2 0x507 DUP3 PUSH2 0x501 PUSH2 0x8F0 JUMP JUMPDEST DUP4 PUSH2 0x909 JUMP JUMPDEST PUSH2 0x511 DUP3 DUP3 PUSH2 0xB41 JUMP JUMPDEST POP POP JUMP JUMPDEST PUSH0 PUSH2 0x51F DUP3 PUSH2 0xD0A JUMP JUMPDEST SWAP1 POP SWAP2 SWAP1 POP JUMP JUMPDEST PUSH0 PUSH1 0x60 DUP1 PUSH0 PUSH0 PUSH0 PUSH1 0x60 PUSH2 0x537 PUSH2 0xD50 JUMP JUMPDEST PUSH2 0x53F PUSH2 0xD8B JUMP JUMPDEST CHAINID ADDRESS PUSH0 PUSH0 SHL PUSH0 PUSH8 0xFFFFFFFFFFFFFFFF DUP2 GT ISZERO PUSH2 0x55E JUMPI PUSH2 0x55D PUSH2 0x1CBF JUMP JUMPDEST JUMPDEST PUSH1 0x40 MLOAD SWAP1 DUP1 DUP3 MSTORE DUP1 PUSH1 0x20 MUL PUSH1 0x20 ADD DUP3 ADD PUSH1 0x40 MSTORE DUP1 ISZERO PUSH2 0x58C JUMPI DUP2 PUSH1 0x20 ADD PUSH1 0x20 DUP3 MUL DUP1 CALLDATASIZE DUP4 CALLDATACOPY DUP1 DUP3 ADD SWAP2 POP POP SWAP1 POP JUMPDEST POP PUSH32 0xF00000000000000000000000000000000000000000000000000000000000000 SWAP6 SWAP5 SWAP4 SWAP3 SWAP2 SWAP1 SWAP7 POP SWAP7 POP SWAP7 POP SWAP7 POP SWAP7 POP SWAP7 POP SWAP7 POP SWAP1 SWAP2 SWAP3 SWAP4 SWAP5 SWAP6 SWAP7 JUMP JUMPDEST PUSH0 PUSH1 0x5 PUSH0 SWAP1 SLOAD SWAP1 PUSH2 0x100 EXP SWAP1 DIV PUSH20 0xFFFFFFFFFFFFFFFFFFFFFFFFFFFFFFFFFFFFFFFF AND SWAP1 POP SWAP1 JUMP JUMPDEST PUSH1 0x60 PUSH1 0x4 DUP1 SLOAD PUSH2 0x602 SWAP1 PUSH2 0x1C8F JUMP JUMPDEST DUP1 PUSH1 0x1F ADD PUSH1 0x20 DUP1 SWAP2 DIV MUL PUSH1 0x20 ADD PUSH1 0x40 MLOAD SWAP1 DUP2 ADD PUSH1 0x40 MSTORE DUP1 SWAP3 SWAP2 SWAP1 DUP2 DUP2 MSTORE PUSH1 0x20 ADD DUP3 DUP1 SLOAD PUSH2 0x62E SWAP1 PUSH2 0x1C8F JUMP JUMPDEST DUP1 ISZERO PUSH2 0x679 JUMPI DUP1 PUSH1 0x1F LT PUSH2 0x650 JUMPI PUSH2 0x100 DUP1 DUP4 SLOAD DIV MUL DUP4 MSTORE SWAP2 PUSH1 0x20 ADD SWAP2 PUSH2 0x679 JUMP JUMPDEST DUP3 ADD SWAP2 SWAP1 PUSH0 MSTORE PUSH1 0x20 PUSH0 KECCAK256 SWAP1 JUMPDEST DUP2 SLOAD DUP2 MSTORE SWAP1 PUSH1 0x1 ADD SWAP1 PUSH1 0x20 ADD DUP1 DUP4 GT PUSH2 0x65C JUMPI DUP3 SWAP1 SUB PUSH1 0x1F AND DUP3 ADD SWAP2 JUMPDEST POP POP POP POP POP SWAP1 POP SWAP1 JUMP JUMPDEST PUSH0 PUSH0 PUSH2 0x68D PUSH2 0x8F0 JUMP JUMPDEST SWAP1 POP PUSH2 0x69A DUP2 DUP6 DUP6 PUSH2 0x99B JUMP JUMPDEST PUSH1 0x1 SWAP2 POP POP SWAP3 SWAP2 POP POP JUMP JUMPDEST DUP4 TIMESTAMP GT ISZERO PUSH2 0x6EA JUMPI DUP4 PUSH1 0x40 MLOAD PUSH32 0x6279130200000000000000000000000000000000000000000000000000000000 DUP2 MSTORE PUSH1 0x4 ADD PUSH2 0x6E1 SWAP2 SWAP1 PUSH2 0x1874 JUMP JUMPDEST PUSH1 0x40 MLOAD DUP1 SWAP2 SUB SWAP1 REVERT JUMPDEST PUSH0 PUSH32 0x6E71EDAE12B1B97F4D1F60370FEF10105FA2FAAE0126114A169C64845D6126C9 DUP9 DUP9 DUP9 PUSH2 0x718 DUP13 PUSH2 0xDC6 JUMP JUMPDEST DUP10 PUSH1 0x40 MLOAD PUSH1 0x20 ADD PUSH2 0x72E SWAP7 SWAP6 SWAP5 SWAP4 SWAP3 SWAP2 SWAP1 PUSH2 0x1CEC JUMP JUMPDEST PUSH1 0x40 MLOAD PUSH1 0x20 DUP2 DUP4 SUB SUB DUP2 MSTORE SWAP1 PUSH1 0x40 MSTORE DUP1 MLOAD SWAP1 PUSH1 0x20 ADD KECCAK256 SWAP1 POP PUSH0 PUSH2 0x750 DUP3 PUSH2 0xE19 JUMP JUMPDEST SWAP1 POP PUSH0 PUSH2 0x75F DUP3 DUP8 DUP8 DUP8 PUSH2 0xE32 JUMP JUMPDEST SWAP1 POP DUP10 PUSH20 0xFFFFFFFFFFFFFFFFFFFFFFFFFFFFFFFFFFFFFFFF AND DUP2 PUSH20 0xFFFFFFFFFFFFFFFFFFFFFFFFFFFFFFFFFFFFFFFF AND EQ PUSH2 0x7D3 JUMPI DUP1 DUP11 PUSH1 0x40 MLOAD PUSH32 0x4B800E4600000000000000000000000000000000000000000000000000000000 DUP2 MSTORE PUSH1 0x4 ADD PUSH2 0x7CA SWAP3 SWAP2 SWAP1 PUSH2 0x1D4B JUMP JUMPDEST PUSH1 0x40 MLOAD DUP1 SWAP2 SUB SWAP1 REVERT JUMPDEST PUSH2 0x7DE DUP11 DUP11 DUP11 PUSH2 0x8F7 JUMP JUMPDEST POP POP POP POP POP POP POP POP POP POP JUMP JUMPDEST PUSH0 PUSH1 0x1 PUSH0 DUP5 PUSH20 0xFFFFFFFFFFFFFFFFFFFFFFFFFFFFFFFFFFFFFFFF AND PUSH20 0xFFFFFFFFFFFFFFFFFFFFFFFFFFFFFFFFFFFFFFFF AND DUP2 MSTORE PUSH1 0x20 ADD SWAP1 DUP2 MSTORE PUSH1 0x20 ADD PUSH0 KECCAK256 PUSH0 DUP4 PUSH20 0xFFFFFFFFFFFFFFFFFFFFFFFFFFFFFFFFFFFFFFFF AND PUSH20 0xFFFFFFFFFFFFFFFFFFFFFFFFFFFFFFFFFFFFFFFF AND DUP2 MSTORE PUSH1 0x20 ADD SWAP1 DUP2 MSTORE PUSH1 0x20 ADD PUSH0 KECCAK256 SLOAD SWAP1 POP SWAP3 SWAP2 POP POP JUMP JUMPDEST PUSH2 0x874 PUSH2 0xBC0 JUMP JUMPDEST PUSH0 PUSH20 0xFFFFFFFFFFFFFFFFFFFFFFFFFFFFFFFFFFFFFFFF AND DUP2 PUSH20 0xFFFFFFFFFFFFFFFFFFFFFFFFFFFFFFFFFFFFFFFF AND SUB PUSH2 0x8E4 JUMPI PUSH0 PUSH1 0x40 MLOAD PUSH32 0x1E4FBDF700000000000000000000000000000000000000000000000000000000 DUP2 MSTORE PUSH1 0x4 ADD PUSH2 0x8DB SWAP2 SWAP1 PUSH2 0x1B1A JUMP JUMPDEST PUSH1 0x40 MLOAD DUP1 SWAP2 SUB SWAP1 REVERT JUMPDEST PUSH2 0x8ED DUP2 PUSH2 0xC47 JUMP JUMPDEST POP JUMP JUMPDEST PUSH0 CALLER SWAP1 POP SWAP1 JUMP JUMPDEST PUSH2 0x904 DUP4 DUP4 DUP4 PUSH1 0x1 PUSH2 0xE60 JUMP JUMPDEST POP POP POP JUMP JUMPDEST PUSH0 PUSH2 0x914 DUP5 DUP5 PUSH2 0x7EA JUMP JUMPDEST SWAP1 POP PUSH32 0xFFFFFFFFFFFFFFFFFFFFFFFFFFFFFFFFFFFFFFFFFFFFFFFFFFFFFFFFFFFFFFFF DUP2 EQ PUSH2 0x995 JUMPI DUP2 DUP2 LT ISZERO PUSH2 0x986 JUMPI DUP3 DUP2 DUP4 PUSH1 0x40 MLOAD PUSH32 0xFB8F41B200000000000000000000000000000000000000000000000000000000 DUP2 MSTORE PUSH1 0x4 ADD PUSH2 0x97D SWAP4 SWAP3 SWAP2 SWAP1 PUSH2 0x1D72 JUMP JUMPDEST PUSH1 0x40 MLOAD DUP1 SWAP2 SUB SWAP1 REVERT JUMPDEST PUSH2 0x994 DUP5 DUP5 DUP5 DUP5 SUB PUSH0 PUSH2 0xE60 JUMP JUMPDEST JUMPDEST POP POP POP POP JUMP JUMPDEST PUSH0 PUSH20 0xFFFFFFFFFFFFFFFFFFFFFFFFFFFFFFFFFFFFFFFF AND DUP4 PUSH20 0xFFFFFFFFFFFFFFFFFFFFFFFFFFFFFFFFFFFFFFFF AND SUB PUSH2 0xA0B JUMPI PUSH0 PUSH1 0x40 MLOAD PUSH32 0x96C6FD1E00000000000000000000000000000000000000000000000000000000 DUP2 MSTORE PUSH1 0x4 ADD PUSH2 0xA02 SWAP2 SWAP1 PUSH2 0x1B1A JUMP JUMPDEST PUSH1 0x40 MLOAD DUP1 SWAP2 SUB SWAP1 REVERT JUMPDEST PUSH0 PUSH20 0xFFFFFFFFFFFFFFFFFFFFFFFFFFFFFFFFFFFFFFFF AND DUP3 PUSH20 0xFFFFFFFFFFFFFFFFFFFFFFFFFFFFFFFFFFFFFFFF AND SUB PUSH2 0xA7B JUMPI PUSH0 PUSH1 0x40 MLOAD PUSH32 0xEC442F0500000000000000000000000000000000000000000000000000000000 DUP2 MSTORE PUSH1 0x4 ADD PUSH2 0xA72 SWAP2 SWAP1 PUSH2 0x1B1A JUMP JUMPDEST PUSH1 0x40 MLOAD DUP1 SWAP2 SUB SWAP1 REVERT JUMPDEST PUSH2 0xA86 DUP4 DUP4 DUP4 PUSH2 0x102F JUMP JUMPDEST POP POP POP JUMP JUMPDEST PUSH0 PUSH32 0x0 PUSH20 0xFFFFFFFFFFFFFFFFFFFFFFFFFFFFFFFFFFFFFFFF AND ADDRESS PUSH20 0xFFFFFFFFFFFFFFFFFFFFFFFFFFFFFFFFFFFFFFFF AND EQ DUP1 ISZERO PUSH2 0xB06 JUMPI POP PUSH32 0x0 CHAINID EQ JUMPDEST ISZERO PUSH2 0xB33 JUMPI PUSH32 0x0 SWAP1 POP PUSH2 0xB3E JUMP JUMPDEST PUSH2 0xB3B PUSH2 0x1248 JUMP JUMPDEST SWAP1 POP JUMPDEST SWAP1 JUMP JUMPDEST PUSH0 PUSH20 0xFFFFFFFFFFFFFFFFFFFFFFFFFFFFFFFFFFFFFFFF AND DUP3 PUSH20 0xFFFFFFFFFFFFFFFFFFFFFFFFFFFFFFFFFFFFFFFF AND SUB PUSH2 0xBB1 JUMPI PUSH0 PUSH1 0x40 MLOAD PUSH32 0x96C6FD1E00000000000000000000000000000000000000000000000000000000 DUP2 MSTORE PUSH1 0x4 ADD PUSH2 0xBA8 SWAP2 SWAP1 PUSH2 0x1B1A JUMP JUMPDEST PUSH1 0x40 MLOAD DUP1 SWAP2 SUB SWAP1 REVERT JUMPDEST PUSH2 0xBBC DUP3 PUSH0 DUP4 PUSH2 0x102F JUMP JUMPDEST POP POP JUMP JUMPDEST PUSH2 0xBC8 PUSH2 0x8F0 JUMP JUMPDEST PUSH20 0xFFFFFFFFFFFFFFFFFFFFFFFFFFFFFFFFFFFFFFFF AND PUSH2 0xBE6 PUSH2 0x5CB JUMP JUMPDEST PUSH20 0xFFFFFFFFFFFFFFFFFFFFFFFFFFFFFFFFFFFFFFFF AND EQ PUSH2 0xC45 JUMPI PUSH2 0xC09 PUSH2 0x8F0 JUMP JUMPDEST PUSH1 0x40 MLOAD PUSH32 0x118CDAA700000000000000000000000000000000000000000000000000000000 DUP2 MSTORE PUSH1 0x4 ADD PUSH2 0xC3C SWAP2 SWAP1 PUSH2 0x1B1A JUMP JUMPDEST PUSH1 0x40 MLOAD DUP1 SWAP2 SUB SWAP1 REVERT JUMPDEST JUMP JUMPDEST PUSH0 PUSH1 0x5 PUSH0 SWAP1 SLOAD SWAP1 PUSH2 0x100 EXP SWAP1 DIV PUSH20 0xFFFFFFFFFFFFFFFFFFFFFFFFFFFFFFFFFFFFFFFF AND SWAP1 POP DUP2 PUSH1 0x5 PUSH0 PUSH2 0x100 EXP DUP2 SLOAD DUP2 PUSH20 0xFFFFFFFFFFFFFFFFFFFFFFFFFFFFFFFFFFFFFFFF MUL NOT AND SWAP1 DUP4 PUSH20 0xFFFFFFFFFFFFFFFFFFFFFFFFFFFFFFFFFFFFFFFF AND MUL OR SWAP1 SSTORE POP DUP2 PUSH20 0xFFFFFFFFFFFFFFFFFFFFFFFFFFFFFFFFFFFFFFFF AND DUP2 PUSH20 0xFFFFFFFFFFFFFFFFFFFFFFFFFFFFFFFFFFFFFFFF AND PUSH32 0x8BE0079C531659141344CD1FD0A4F28419497F9722A3DAAFE3B4186F6B6457E0 PUSH1 0x40 MLOAD PUSH1 0x40 MLOAD DUP1 SWAP2 SUB SWAP1 LOG3 POP POP JUMP JUMPDEST PUSH0 PUSH1 0x8 PUSH0 DUP4 PUSH20 0xFFFFFFFFFFFFFFFFFFFFFFFFFFFFFFFFFFFFFFFF AND PUSH20 0xFFFFFFFFFFFFFFFFFFFFFFFFFFFFFFFFFFFFFFFF AND DUP2 MSTORE PUSH1 0x20 ADD SWAP1 DUP2 MSTORE PUSH1 0x20 ADD PUSH0 KECCAK256 SLOAD SWAP1 POP SWAP2 SWAP1 POP JUMP JUMPDEST PUSH1 0x60 PUSH2 0xD86 PUSH1 0x6 PUSH32 0x0 PUSH2 0x12DD SWAP1 SWAP2 SWAP1 PUSH4 0xFFFFFFFF AND JUMP JUMPDEST SWAP1 POP SWAP1 JUMP JUMPDEST PUSH1 0x60 PUSH2 0xDC1 PUSH1 0x7 PUSH32 0x0 PUSH2 0x12DD SWAP1 SWAP2 SWAP1 PUSH4 0xFFFFFFFF AND JUMP JUMPDEST SWAP1 POP SWAP1 JUMP JUMPDEST PUSH0 PUSH1 0x8 PUSH0 DUP4 PUSH20 0xFFFFFFFFFFFFFFFFFFFFFFFFFFFFFFFFFFFFFFFF AND PUSH20 0xFFFFFFFFFFFFFFFFFFFFFFFFFFFFFFFFFFFFFFFF AND DUP2 MSTORE PUSH1 0x20 ADD SWAP1 DUP2 MSTORE PUSH1 0x20 ADD PUSH0 KECCAK256 PUSH0 DUP2 SLOAD DUP1 SWAP3 SWAP2 SWAP1 PUSH1 0x1 ADD SWAP2 SWAP1 POP SSTORE SWAP1 POP SWAP2 SWAP1 POP JUMP JUMPDEST PUSH0 PUSH2 0xE2B PUSH2 0xE25 PUSH2 0xA8B JUMP JUMPDEST DUP4 PUSH2 0x138A JUMP JUMPDEST SWAP1 POP SWAP2 SWAP1 POP JUMP JUMPDEST PUSH0 PUSH0 PUSH0 PUSH0 PUSH2 0xE42 DUP9 DUP9 DUP9 DUP9 PUSH2 0x13CA JUMP JUMPDEST SWAP3 POP SWAP3 POP SWAP3 POP PUSH2 0xE52 DUP3 DUP3 PUSH2 0x14B1 JUMP JUMPDEST DUP3 SWAP4 POP POP POP POP SWAP5 SWAP4 POP POP POP POP JUMP JUMPDEST PUSH0 PUSH20 0xFFFFFFFFFFFFFFFFFFFFFFFFFFFFFFFFFFFFFFFF AND DUP5 PUSH20 0xFFFFFFFFFFFFFFFFFFFFFFFFFFFFFFFFFFFFFFFF AND SUB PUSH2 0xED0 JUMPI PUSH0 PUSH1 0x40 MLOAD PUSH32 0xE602DF0500000000000000000000000000000000000000000000000000000000 DUP2 MSTORE PUSH1 0x4 ADD PUSH2 0xEC7 SWAP2 SWAP1 PUSH2 0x1B1A JUMP JUMPDEST PUSH1 0x40 MLOAD DUP1 SWAP2 SUB SWAP1 REVERT JUMPDEST PUSH0 PUSH20 0xFFFFFFFFFFFFFFFFFFFFFFFFFFFFFFFFFFFFFFFF AND DUP4 PUSH20 0xFFFFFFFFFFFFFFFFFFFFFFFFFFFFFFFFFFFFFFFF AND SUB PUSH2 0xF40 JUMPI PUSH0 PUSH1 0x40 MLOAD PUSH32 0x94280D6200000000000000000000000000000000000000000000000000000000 DUP2 MSTORE PUSH1 0x4 ADD PUSH2 0xF37 SWAP2 SWAP1 PUSH2 0x1B1A JUMP JUMPDEST PUSH1 0x40 MLOAD DUP1 SWAP2 SUB SWAP1 REVERT JUMPDEST DUP2 PUSH1 0x1 PUSH0 DUP7 PUSH20 0xFFFFFFFFFFFFFFFFFFFFFFFFFFFFFFFFFFFFFFFF AND PUSH20 0xFFFFFFFFFFFFFFFFFFFFFFFFFFFFFFFFFFFFFFFF AND DUP2 MSTORE PUSH1 0x20 ADD SWAP1 DUP2 MSTORE PUSH1 0x20 ADD PUSH0 KECCAK256 PUSH0 DUP6 PUSH20 0xFFFFFFFFFFFFFFFFFFFFFFFFFFFFFFFFFFFFFFFF AND PUSH20 0xFFFFFFFFFFFFFFFFFFFFFFFFFFFFFFFFFFFFFFFF AND DUP2 MSTORE PUSH1 0x20 ADD SWAP1 DUP2 MSTORE PUSH1 0x20 ADD PUSH0 KECCAK256 DUP2 SWAP1 SSTORE POP DUP1 ISZERO PUSH2 0x1029 JUMPI DUP3 PUSH20 0xFFFFFFFFFFFFFFFFFFFFFFFFFFFFFFFFFFFFFFFF AND DUP5 PUSH20 0xFFFFFFFFFFFFFFFFFFFFFFFFFFFFFFFFFFFFFFFF AND PUSH32 0x8C5BE1E5EBEC7D5BD14F71427D1E84F3DD0314C0F7B2291E5B200AC8C7C3B925 DUP5 PUSH1 0x40 MLOAD PUSH2 0x1020 SWAP2 SWAP1 PUSH2 0x1874 JUMP JUMPDEST PUSH1 0x40 MLOAD DUP1 SWAP2 SUB SWAP1 LOG3 JUMPDEST POP POP POP POP JUMP JUMPDEST PUSH0 PUSH20 0xFFFFFFFFFFFFFFFFFFFFFFFFFFFFFFFFFFFFFFFF AND DUP4 PUSH20 0xFFFFFFFFFFFFFFFFFFFFFFFFFFFFFFFFFFFFFFFF AND SUB PUSH2 0x107F JUMPI DUP1 PUSH1 0x2 PUSH0 DUP3 DUP3 SLOAD PUSH2 0x1073 SWAP2 SWAP1 PUSH2 0x1DD4 JUMP JUMPDEST SWAP3 POP POP DUP2 SWAP1 SSTORE POP PUSH2 0x114D JUMP JUMPDEST PUSH0 PUSH0 PUSH0 DUP6 PUSH20 0xFFFFFFFFFFFFFFFFFFFFFFFFFFFFFFFFFFFFFFFF AND PUSH20 0xFFFFFFFFFFFFFFFFFFFFFFFFFFFFFFFFFFFFFFFF AND DUP2 MSTORE PUSH1 0x20 ADD SWAP1 DUP2 MSTORE PUSH1 0x20 ADD PUSH0 KECCAK256 SLOAD SWAP1 POP DUP2 DUP2 LT ISZERO PUSH2 0x1108 JUMPI DUP4 DUP2 DUP4 PUSH1 0x40 MLOAD PUSH32 0xE450D38C00000000000000000000000000000000000000000000000000000000 DUP2 MSTORE PUSH1 0x4 ADD PUSH2 0x10FF SWAP4 SWAP3 SWAP2 SWAP1 PUSH2 0x1D72 JUMP JUMPDEST PUSH1 0x40 MLOAD DUP1 SWAP2 SUB SWAP1 REVERT JUMPDEST DUP2 DUP2 SUB PUSH0 PUSH0 DUP7 PUSH20 0xFFFFFFFFFFFFFFFFFFFFFFFFFFFFFFFFFFFFFFFF AND PUSH20 0xFFFFFFFFFFFFFFFFFFFFFFFFFFFFFFFFFFFFFFFF AND DUP2 MSTORE PUSH1 0x20 ADD SWAP1 DUP2 MSTORE PUSH1 0x20 ADD PUSH0 KECCAK256 DUP2 SWAP1 SSTORE POP POP JUMPDEST PUSH0 PUSH20 0xFFFFFFFFFFFFFFFFFFFFFFFFFFFFFFFFFFFFFFFF AND DUP3 PUSH20 0xFFFFFFFFFFFFFFFFFFFFFFFFFFFFFFFFFFFFFFFF AND SUB PUSH2 0x1194 JUMPI DUP1 PUSH1 0x2 PUSH0 DUP3 DUP3 SLOAD SUB SWAP3 POP POP DUP2 SWAP1 SSTORE POP PUSH2 0x11DE JUMP JUMPDEST DUP1 PUSH0 PUSH0 DUP5 PUSH20 0xFFFFFFFFFFFFFFFFFFFFFFFFFFFFFFFFFFFFFFFF AND PUSH20 0xFFFFFFFFFFFFFFFFFFFFFFFFFFFFFFFFFFFFFFFF AND DUP2 MSTORE PUSH1 0x20 ADD SWAP1 DUP2 MSTORE PUSH1 0x20 ADD PUSH0 KECCAK256 PUSH0 DUP3 DUP3 SLOAD ADD SWAP3 POP POP DUP2 SWAP1 SSTORE POP JUMPDEST DUP2 PUSH20 0xFFFFFFFFFFFFFFFFFFFFFFFFFFFFFFFFFFFFFFFF AND DUP4 PUSH20 0xFFFFFFFFFFFFFFFFFFFFFFFFFFFFFFFFFFFFFFFF AND PUSH32 0xDDF252AD1BE2C89B69C2B068FC378DAA952BA7F163C4A11628F55A4DF523B3EF DUP4 PUSH1 0x40 MLOAD PUSH2 0x123B SWAP2 SWAP1 PUSH2 0x1874 JUMP JUMPDEST PUSH1 0x40 MLOAD DUP1 SWAP2 SUB SWAP1 LOG3 POP POP POP JUMP JUMPDEST PUSH0 PUSH32 0x8B73C3C69BB8FE3D512ECC4CF759CC79239F7B179B0FFACAA9A75D522B39400F PUSH32 0x0 PUSH32 0x0 CHAINID ADDRESS PUSH1 0x40 MLOAD PUSH1 0x20 ADD PUSH2 0x12C2 SWAP6 SWAP5 SWAP4 SWAP3 SWAP2 SWAP1 PUSH2 0x1E07 JUMP JUMPDEST PUSH1 0x40 MLOAD PUSH1 0x20 DUP2 DUP4 SUB SUB DUP2 MSTORE SWAP1 PUSH1 0x40 MSTORE DUP1 MLOAD SWAP1 PUSH1 0x20 ADD KECCAK256 SWAP1 POP SWAP1 JUMP JUMPDEST PUSH1 0x60 PUSH1 0xFF PUSH0 SHL DUP4 EQ PUSH2 0x12F9 JUMPI PUSH2 0x12F2 DUP4 PUSH2 0x1613 JUMP JUMPDEST SWAP1 POP PUSH2 0x1384 JUMP JUMPDEST DUP2 DUP1 SLOAD PUSH2 0x1305 SWAP1 PUSH2 0x1C8F JUMP JUMPDEST DUP1 PUSH1 0x1F ADD PUSH1 0x20 DUP1 SWAP2 DIV MUL PUSH1 0x20 ADD PUSH1 0x40 MLOAD SWAP1 DUP2 ADD PUSH1 0x40 MSTORE DUP1 SWAP3 SWAP2 SWAP1 DUP2 DUP2 MSTORE PUSH1 0x20 ADD DUP3 DUP1 SLOAD PUSH2 0x1331 SWAP1 PUSH2 0x1C8F JUMP JUMPDEST DUP1 ISZERO PUSH2 0x137C JUMPI DUP1 PUSH1 0x1F LT PUSH2 0x1353 JUMPI PUSH2 0x100 DUP1 DUP4 SLOAD DIV MUL DUP4 MSTORE SWAP2 PUSH1 0x20 ADD SWAP2 PUSH2 0x137C JUMP JUMPDEST DUP3 ADD SWAP2 SWAP1 PUSH0 MSTORE PUSH1 0x20 PUSH0 KECCAK256 SWAP1 JUMPDEST DUP2 SLOAD DUP2 MSTORE SWAP1 PUSH1 0x1 ADD SWAP1 PUSH1 0x20 ADD DUP1 DUP4 GT PUSH2 0x135F JUMPI DUP3 SWAP1 SUB PUSH1 0x1F AND DUP3 ADD SWAP2 JUMPDEST POP POP POP POP POP SWAP1 POP JUMPDEST SWAP3 SWAP2 POP POP JUMP JUMPDEST PUSH0 PUSH1 0x40 MLOAD PUSH32 0x1901000000000000000000000000000000000000000000000000000000000000 DUP2 MSTORE DUP4 PUSH1 0x2 DUP3 ADD MSTORE DUP3 PUSH1 0x22 DUP3 ADD MSTORE PUSH1 0x42 DUP2 KECCAK256 SWAP2 POP POP SWAP3 SWAP2 POP POP JUMP JUMPDEST PUSH0 PUSH0 PUSH0 PUSH32 0x7FFFFFFFFFFFFFFFFFFFFFFFFFFFFFFF5D576E7357A4501DDFE92F46681B20A0 DUP5 PUSH0 SHR GT ISZERO PUSH2 0x1406 JUMPI PUSH0 PUSH1 0x3 DUP6 SWAP3 POP SWAP3 POP SWAP3 POP PUSH2 0x14A7 JUMP JUMPDEST PUSH0 PUSH1 0x1 DUP9 DUP9 DUP9 DUP9 PUSH1 0x40 MLOAD PUSH0 DUP2 MSTORE PUSH1 0x20 ADD PUSH1 0x40 MSTORE PUSH1 0x40 MLOAD PUSH2 0x1429 SWAP5 SWAP4 SWAP3 SWAP2 SWAP1 PUSH2 0x1E58 JUMP JUMPDEST PUSH1 0x20 PUSH1 0x40 MLOAD PUSH1 0x20 DUP2 SUB SWAP1 DUP1 DUP5 SUB SWAP1 DUP6 GAS STATICCALL ISZERO DUP1 ISZERO PUSH2 0x1449 JUMPI RETURNDATASIZE PUSH0 PUSH0 RETURNDATACOPY RETURNDATASIZE PUSH0 REVERT JUMPDEST POP POP POP PUSH1 0x20 PUSH1 0x40 MLOAD SUB MLOAD SWAP1 POP PUSH0 PUSH20 0xFFFFFFFFFFFFFFFFFFFFFFFFFFFFFFFFFFFFFFFF AND DUP2 PUSH20 0xFFFFFFFFFFFFFFFFFFFFFFFFFFFFFFFFFFFFFFFF AND SUB PUSH2 0x149A JUMPI PUSH0 PUSH1 0x1 PUSH0 PUSH0 SHL SWAP4 POP SWAP4 POP SWAP4 POP POP PUSH2 0x14A7 JUMP JUMPDEST DUP1 PUSH0 PUSH0 PUSH0 SHL SWAP4 POP SWAP4 POP SWAP4 POP POP JUMPDEST SWAP5 POP SWAP5 POP SWAP5 SWAP2 POP POP JUMP JUMPDEST PUSH0 PUSH1 0x3 DUP2 GT ISZERO PUSH2 0x14C4 JUMPI PUSH2 0x14C3 PUSH2 0x1E9B JUMP JUMPDEST JUMPDEST DUP3 PUSH1 0x3 DUP2 GT ISZERO PUSH2 0x14D7 JUMPI PUSH2 0x14D6 PUSH2 0x1E9B JUMP JUMPDEST JUMPDEST SUB ISZERO PUSH2 0x160F JUMPI PUSH1 0x1 PUSH1 0x3 DUP2 GT ISZERO PUSH2 0x14F1 JUMPI PUSH2 0x14F0 PUSH2 0x1E9B JUMP JUMPDEST JUMPDEST DUP3 PUSH1 0x3 DUP2 GT ISZERO PUSH2 0x1504 JUMPI PUSH2 0x1503 PUSH2 0x1E9B JUMP JUMPDEST JUMPDEST SUB PUSH2 0x153B JUMPI PUSH1 0x40 MLOAD PUSH32 0xF645EEDF00000000000000000000000000000000000000000000000000000000 DUP2 MSTORE PUSH1 0x4 ADD PUSH1 0x40 MLOAD DUP1 SWAP2 SUB SWAP1 REVERT JUMPDEST PUSH1 0x2 PUSH1 0x3 DUP2 GT ISZERO PUSH2 0x154F JUMPI PUSH2 0x154E PUSH2 0x1E9B JUMP JUMPDEST JUMPDEST DUP3 PUSH1 0x3 DUP2 GT ISZERO PUSH2 0x1562 JUMPI PUSH2 0x1561 PUSH2 0x1E9B JUMP JUMPDEST JUMPDEST SUB PUSH2 0x15A6 JUMPI DUP1 PUSH0 SHR PUSH1 0x40 MLOAD PUSH32 0xFCE698F700000000000000000000000000000000000000000000000000000000 DUP2 MSTORE PUSH1 0x4 ADD PUSH2 0x159D SWAP2 SWAP1 PUSH2 0x1874 JUMP JUMPDEST PUSH1 0x40 MLOAD DUP1 SWAP2 SUB SWAP1 REVERT JUMPDEST PUSH1 0x3 DUP1 DUP2 GT ISZERO PUSH2 0x15B9 JUMPI PUSH2 0x15B8 PUSH2 0x1E9B JUMP JUMPDEST JUMPDEST DUP3 PUSH1 0x3 DUP2 GT ISZERO PUSH2 0x15CC JUMPI PUSH2 0x15CB PUSH2 0x1E9B JUMP JUMPDEST JUMPDEST SUB PUSH2 0x160E JUMPI DUP1 PUSH1 0x40 MLOAD PUSH32 0xD78BCE0C00000000000000000000000000000000000000000000000000000000 DUP2 MSTORE PUSH1 0x4 ADD PUSH2 0x1605 SWAP2 SWAP1 PUSH2 0x1929 JUMP JUMPDEST PUSH1 0x40 MLOAD DUP1 SWAP2 SUB SWAP1 REVERT JUMPDEST JUMPDEST POP POP JUMP JUMPDEST PUSH1 0x60 PUSH0 PUSH2 0x161F DUP4 PUSH2 0x1685 JUMP JUMPDEST SWAP1 POP PUSH0 PUSH1 0x20 PUSH8 0xFFFFFFFFFFFFFFFF DUP2 GT ISZERO PUSH2 0x163D JUMPI PUSH2 0x163C PUSH2 0x1CBF JUMP JUMPDEST JUMPDEST PUSH1 0x40 MLOAD SWAP1 DUP1 DUP3 MSTORE DUP1 PUSH1 0x1F ADD PUSH1 0x1F NOT AND PUSH1 0x20 ADD DUP3 ADD PUSH1 0x40 MSTORE DUP1 ISZERO PUSH2 0x166F JUMPI DUP2 PUSH1 0x20 ADD PUSH1 0x1 DUP3 MUL DUP1 CALLDATASIZE DUP4 CALLDATACOPY DUP1 DUP3 ADD SWAP2 POP POP SWAP1 POP JUMPDEST POP SWAP1 POP DUP2 DUP2 MSTORE DUP4 PUSH1 0x20 DUP3 ADD MSTORE DUP1 SWAP3 POP POP POP SWAP2 SWAP1 POP JUMP JUMPDEST PUSH0 PUSH0 PUSH1 0xFF DUP4 PUSH0 SHR AND SWAP1 POP PUSH1 0x1F DUP2 GT ISZERO PUSH2 0x16CA JUMPI PUSH1 0x40 MLOAD PUSH32 0xB3512B0C00000000000000000000000000000000000000000000000000000000 DUP2 MSTORE PUSH1 0x4 ADD PUSH1 0x40 MLOAD DUP1 SWAP2 SUB SWAP1 REVERT JUMPDEST DUP1 SWAP2 POP POP SWAP2 SWAP1 POP JUMP JUMPDEST PUSH0 DUP2 MLOAD SWAP1 POP SWAP2 SWAP1 POP JUMP JUMPDEST PUSH0 DUP3 DUP3 MSTORE PUSH1 0x20 DUP3 ADD SWAP1 POP SWAP3 SWAP2 POP POP JUMP JUMPDEST DUP3 DUP2 DUP4 MCOPY PUSH0 DUP4 DUP4 ADD MSTORE POP POP POP JUMP JUMPDEST PUSH0 PUSH1 0x1F NOT PUSH1 0x1F DUP4 ADD AND SWAP1 POP SWAP2 SWAP1 POP JUMP JUMPDEST PUSH0 PUSH2 0x1715 DUP3 PUSH2 0x16D3 JUMP JUMPDEST PUSH2 0x171F DUP2 DUP6 PUSH2 0x16DD JUMP JUMPDEST SWAP4 POP PUSH2 0x172F DUP2 DUP6 PUSH1 0x20 DUP7 ADD PUSH2 0x16ED JUMP JUMPDEST PUSH2 0x1738 DUP2 PUSH2 0x16FB JUMP JUMPDEST DUP5 ADD SWAP2 POP POP SWAP3 SWAP2 POP POP JUMP JUMPDEST PUSH0 PUSH1 0x20 DUP3 ADD SWAP1 POP DUP2 DUP2 SUB PUSH0 DUP4 ADD MSTORE PUSH2 0x175B DUP2 DUP5 PUSH2 0x170B JUMP JUMPDEST SWAP1 POP SWAP3 SWAP2 POP POP JUMP JUMPDEST PUSH0 PUSH0 REVERT JUMPDEST PUSH0 PUSH20 0xFFFFFFFFFFFFFFFFFFFFFFFFFFFFFFFFFFFFFFFF DUP3 AND SWAP1 POP SWAP2 SWAP1 POP JUMP JUMPDEST PUSH0 PUSH2 0x1790 DUP3 PUSH2 0x1767 JUMP JUMPDEST SWAP1 POP SWAP2 SWAP1 POP JUMP JUMPDEST PUSH2 0x17A0 DUP2 PUSH2 0x1786 JUMP JUMPDEST DUP2 EQ PUSH2 0x17AA JUMPI PUSH0 PUSH0 REVERT JUMPDEST POP JUMP JUMPDEST PUSH0 DUP2 CALLDATALOAD SWAP1 POP PUSH2 0x17BB DUP2 PUSH2 0x1797 JUMP JUMPDEST SWAP3 SWAP2 POP POP JUMP JUMPDEST PUSH0 DUP2 SWAP1 POP SWAP2 SWAP1 POP JUMP JUMPDEST PUSH2 0x17D3 DUP2 PUSH2 0x17C1 JUMP JUMPDEST DUP2 EQ PUSH2 0x17DD JUMPI PUSH0 PUSH0 REVERT JUMPDEST POP JUMP JUMPDEST PUSH0 DUP2 CALLDATALOAD SWAP1 POP PUSH2 0x17EE DUP2 PUSH2 0x17CA JUMP JUMPDEST SWAP3 SWAP2 POP POP JUMP JUMPDEST PUSH0 PUSH0 PUSH1 0x40 DUP4 DUP6 SUB SLT ISZERO PUSH2 0x180A JUMPI PUSH2 0x1809 PUSH2 0x1763 JUMP JUMPDEST JUMPDEST PUSH0 PUSH2 0x1817 DUP6 DUP3 DUP7 ADD PUSH2 0x17AD JUMP JUMPDEST SWAP3 POP POP PUSH1 0x20 PUSH2 0x1828 DUP6 DUP3 DUP7 ADD PUSH2 0x17E0 JUMP JUMPDEST SWAP2 POP POP SWAP3 POP SWAP3 SWAP1 POP JUMP JUMPDEST PUSH0 DUP2 ISZERO ISZERO SWAP1 POP SWAP2 SWAP1 POP JUMP JUMPDEST PUSH2 0x1846 DUP2 PUSH2 0x1832 JUMP JUMPDEST DUP3 MSTORE POP POP JUMP JUMPDEST PUSH0 PUSH1 0x20 DUP3 ADD SWAP1 POP PUSH2 0x185F PUSH0 DUP4 ADD DUP5 PUSH2 0x183D JUMP JUMPDEST SWAP3 SWAP2 POP POP JUMP JUMPDEST PUSH2 0x186E DUP2 PUSH2 0x17C1 JUMP JUMPDEST DUP3 MSTORE POP POP JUMP JUMPDEST PUSH0 PUSH1 0x20 DUP3 ADD SWAP1 POP PUSH2 0x1887 PUSH0 DUP4 ADD DUP5 PUSH2 0x1865 JUMP JUMPDEST SWAP3 SWAP2 POP POP JUMP JUMPDEST PUSH0 PUSH0 PUSH0 PUSH1 0x60 DUP5 DUP7 SUB SLT ISZERO PUSH2 0x18A4 JUMPI PUSH2 0x18A3 PUSH2 0x1763 JUMP JUMPDEST JUMPDEST PUSH0 PUSH2 0x18B1 DUP7 DUP3 DUP8 ADD PUSH2 0x17AD JUMP JUMPDEST SWAP4 POP POP PUSH1 0x20 PUSH2 0x18C2 DUP7 DUP3 DUP8 ADD PUSH2 0x17AD JUMP JUMPDEST SWAP3 POP POP PUSH1 0x40 PUSH2 0x18D3 DUP7 DUP3 DUP8 ADD PUSH2 0x17E0 JUMP JUMPDEST SWAP2 POP POP SWAP3 POP SWAP3 POP SWAP3 JUMP JUMPDEST PUSH0 PUSH1 0xFF DUP3 AND SWAP1 POP SWAP2 SWAP1 POP JUMP JUMPDEST PUSH2 0x18F2 DUP2 PUSH2 0x18DD JUMP JUMPDEST DUP3 MSTORE POP POP JUMP JUMPDEST PUSH0 PUSH1 0x20 DUP3 ADD SWAP1 POP PUSH2 0x190B PUSH0 DUP4 ADD DUP5 PUSH2 0x18E9 JUMP JUMPDEST SWAP3 SWAP2 POP POP JUMP JUMPDEST PUSH0 DUP2 SWAP1 POP SWAP2 SWAP1 POP JUMP JUMPDEST PUSH2 0x1923 DUP2 PUSH2 0x1911 JUMP JUMPDEST DUP3 MSTORE POP POP JUMP JUMPDEST PUSH0 PUSH1 0x20 DUP3 ADD SWAP1 POP PUSH2 0x193C PUSH0 DUP4 ADD DUP5 PUSH2 0x191A JUMP JUMPDEST SWAP3 SWAP2 POP POP JUMP JUMPDEST PUSH0 PUSH1 0x20 DUP3 DUP5 SUB SLT ISZERO PUSH2 0x1957 JUMPI PUSH2 0x1956 PUSH2 0x1763 JUMP JUMPDEST JUMPDEST PUSH0 PUSH2 0x1964 DUP5 DUP3 DUP6 ADD PUSH2 0x17E0 JUMP JUMPDEST SWAP2 POP POP SWAP3 SWAP2 POP POP JUMP JUMPDEST PUSH0 PUSH1 0x20 DUP3 DUP5 SUB SLT ISZERO PUSH2 0x1982 JUMPI PUSH2 0x1981 PUSH2 0x1763 JUMP JUMPDEST JUMPDEST PUSH0 PUSH2 0x198F DUP5 DUP3 DUP6 ADD PUSH2 0x17AD JUMP JUMPDEST SWAP2 POP POP SWAP3 SWAP2 POP POP JUMP JUMPDEST PUSH0 PUSH32 0xFF00000000000000000000000000000000000000000000000000000000000000 DUP3 AND SWAP1 POP SWAP2 SWAP1 POP JUMP JUMPDEST PUSH2 0x19CC DUP2 PUSH2 0x1998 JUMP JUMPDEST DUP3 MSTORE POP POP JUMP JUMPDEST PUSH2 0x19DB DUP2 PUSH2 0x1786 JUMP JUMPDEST DUP3 MSTORE POP POP JUMP JUMPDEST PUSH0 DUP2 MLOAD SWAP1 POP SWAP2 SWAP1 POP JUMP JUMPDEST PUSH0 DUP3 DUP3 MSTORE PUSH1 0x20 DUP3 ADD SWAP1 POP SWAP3 SWAP2 POP POP JUMP JUMPDEST PUSH0 DUP2 SWAP1 POP PUSH1 0x20 DUP3 ADD SWAP1 POP SWAP2 SWAP1 POP JUMP JUMPDEST PUSH2 0x1A13 DUP2 PUSH2 0x17C1 JUMP JUMPDEST DUP3 MSTORE POP POP JUMP JUMPDEST PUSH0 PUSH2 0x1A24 DUP4 DUP4 PUSH2 0x1A0A JUMP JUMPDEST PUSH1 0x20 DUP4 ADD SWAP1 POP SWAP3 SWAP2 POP POP JUMP JUMPDEST PUSH0 PUSH1 0x20 DUP3 ADD SWAP1 POP SWAP2 SWAP1 POP JUMP JUMPDEST PUSH0 PUSH2 0x1A46 DUP3 PUSH2 0x19E1 JUMP JUMPDEST PUSH2 0x1A50 DUP2 DUP6 PUSH2 0x19EB JUMP JUMPDEST SWAP4 POP PUSH2 0x1A5B DUP4 PUSH2 0x19FB JUMP JUMPDEST DUP1 PUSH0 JUMPDEST DUP4 DUP2 LT ISZERO PUSH2 0x1A8B JUMPI DUP2 MLOAD PUSH2 0x1A72 DUP9 DUP3 PUSH2 0x1A19 JUMP JUMPDEST SWAP8 POP PUSH2 0x1A7D DUP4 PUSH2 0x1A30 JUMP JUMPDEST SWAP3 POP POP PUSH1 0x1 DUP2 ADD SWAP1 POP PUSH2 0x1A5E JUMP JUMPDEST POP DUP6 SWAP4 POP POP POP POP SWAP3 SWAP2 POP POP JUMP JUMPDEST PUSH0 PUSH1 0xE0 DUP3 ADD SWAP1 POP PUSH2 0x1AAB PUSH0 DUP4 ADD DUP11 PUSH2 0x19C3 JUMP JUMPDEST DUP2 DUP2 SUB PUSH1 0x20 DUP4 ADD MSTORE PUSH2 0x1ABD DUP2 DUP10 PUSH2 0x170B JUMP JUMPDEST SWAP1 POP DUP2 DUP2 SUB PUSH1 0x40 DUP4 ADD MSTORE PUSH2 0x1AD1 DUP2 DUP9 PUSH2 0x170B JUMP JUMPDEST SWAP1 POP PUSH2 0x1AE0 PUSH1 0x60 DUP4 ADD DUP8 PUSH2 0x1865 JUMP JUMPDEST PUSH2 0x1AED PUSH1 0x80 DUP4 ADD DUP7 PUSH2 0x19D2 JUMP JUMPDEST PUSH2 0x1AFA PUSH1 0xA0 DUP4 ADD DUP6 PUSH2 0x191A JUMP JUMPDEST DUP2 DUP2 SUB PUSH1 0xC0 DUP4 ADD MSTORE PUSH2 0x1B0C DUP2 DUP5 PUSH2 0x1A3C JUMP JUMPDEST SWAP1 POP SWAP9 SWAP8 POP POP POP POP POP POP POP POP JUMP JUMPDEST PUSH0 PUSH1 0x20 DUP3 ADD SWAP1 POP PUSH2 0x1B2D PUSH0 DUP4 ADD DUP5 PUSH2 0x19D2 JUMP JUMPDEST SWAP3 SWAP2 POP POP JUMP JUMPDEST PUSH2 0x1B3C DUP2 PUSH2 0x18DD JUMP JUMPDEST DUP2 EQ PUSH2 0x1B46 JUMPI PUSH0 PUSH0 REVERT JUMPDEST POP JUMP JUMPDEST PUSH0 DUP2 CALLDATALOAD SWAP1 POP PUSH2 0x1B57 DUP2 PUSH2 0x1B33 JUMP JUMPDEST SWAP3 SWAP2 POP POP JUMP JUMPDEST PUSH2 0x1B66 DUP2 PUSH2 0x1911 JUMP JUMPDEST DUP2 EQ PUSH2 0x1B70 JUMPI PUSH0 PUSH0 REVERT JUMPDEST POP JUMP JUMPDEST PUSH0 DUP2 CALLDATALOAD SWAP1 POP PUSH2 0x1B81 DUP2 PUSH2 0x1B5D JUMP JUMPDEST SWAP3 SWAP2 POP POP JUMP JUMPDEST PUSH0 PUSH0 PUSH0 PUSH0 PUSH0 PUSH0 PUSH0 PUSH1 0xE0 DUP9 DUP11 SUB SLT ISZERO PUSH2 0x1BA2 JUMPI PUSH2 0x1BA1 PUSH2 0x1763 JUMP JUMPDEST JUMPDEST PUSH0 PUSH2 0x1BAF DUP11 DUP3 DUP12 ADD PUSH2 0x17AD JUMP JUMPDEST SWAP8 POP POP PUSH1 0x20 PUSH2 0x1BC0 DUP11 DUP3 DUP12 ADD PUSH2 0x17AD JUMP JUMPDEST SWAP7 POP POP PUSH1 0x40 PUSH2 0x1BD1 DUP11 DUP3 DUP12 ADD PUSH2 0x17E0 JUMP JUMPDEST SWAP6 POP POP PUSH1 0x60 PUSH2 0x1BE2 DUP11 DUP3 DUP12 ADD PUSH2 0x17E0 JUMP JUMPDEST SWAP5 POP POP PUSH1 0x80 PUSH2 0x1BF3 DUP11 DUP3 DUP12 ADD PUSH2 0x1B49 JUMP JUMPDEST SWAP4 POP POP PUSH1 0xA0 PUSH2 0x1C04 DUP11 DUP3 DUP12 ADD PUSH2 0x1B73 JUMP JUMPDEST SWAP3 POP POP PUSH1 0xC0 PUSH2 0x1C15 DUP11 DUP3 DUP12 ADD PUSH2 0x1B73 JUMP JUMPDEST SWAP2 POP POP SWAP3 SWAP6 SWAP9 SWAP2 SWAP5 SWAP8 POP SWAP3 SWAP6 POP JUMP JUMPDEST PUSH0 PUSH0 PUSH1 0x40 DUP4 DUP6 SUB SLT ISZERO PUSH2 0x1C3A JUMPI PUSH2 0x1C39 PUSH2 0x1763 JUMP JUMPDEST JUMPDEST PUSH0 PUSH2 0x1C47 DUP6 DUP3 DUP7 ADD PUSH2 0x17AD JUMP JUMPDEST SWAP3 POP POP PUSH1 0x20 PUSH2 0x1C58 DUP6 DUP3 DUP7 ADD PUSH2 0x17AD JUMP JUMPDEST SWAP2 POP POP SWAP3 POP SWAP3 SWAP1 POP JUMP JUMPDEST PUSH32 0x4E487B7100000000000000000000000000000000000000000000000000000000 PUSH0 MSTORE PUSH1 0x22 PUSH1 0x4 MSTORE PUSH1 0x24 PUSH0 REVERT JUMPDEST PUSH0 PUSH1 0x2 DUP3 DIV SWAP1 POP PUSH1 0x1 DUP3 AND DUP1 PUSH2 0x1CA6 JUMPI PUSH1 0x7F DUP3 AND SWAP2 POP JUMPDEST PUSH1 0x20 DUP3 LT DUP2 SUB PUSH2 0x1CB9 JUMPI PUSH2 0x1CB8 PUSH2 0x1C62 JUMP JUMPDEST JUMPDEST POP SWAP2 SWAP1 POP JUMP JUMPDEST PUSH32 0x4E487B7100000000000000000000000000000000000000000000000000000000 PUSH0 MSTORE PUSH1 0x41 PUSH1 0x4 MSTORE PUSH1 0x24 PUSH0 REVERT JUMPDEST PUSH0 PUSH1 0xC0 DUP3 ADD SWAP1 POP PUSH2 0x1CFF PUSH0 DUP4 ADD DUP10 PUSH2 0x191A JUMP JUMPDEST PUSH2 0x1D0C PUSH1 0x20 DUP4 ADD DUP9 PUSH2 0x19D2 JUMP JUMPDEST PUSH2 0x1D19 PUSH1 0x40 DUP4 ADD DUP8 PUSH2 0x19D2 JUMP JUMPDEST PUSH2 0x1D26 PUSH1 0x60 DUP4 ADD DUP7 PUSH2 0x1865 JUMP JUMPDEST PUSH2 0x1D33 PUSH1 0x80 DUP4 ADD DUP6 PUSH2 0x1865 JUMP JUMPDEST PUSH2 0x1D40 PUSH1 0xA0 DUP4 ADD DUP5 PUSH2 0x1865 JUMP JUMPDEST SWAP8 SWAP7 POP POP POP POP POP POP POP JUMP JUMPDEST PUSH0 PUSH1 0x40 DUP3 ADD SWAP1 POP PUSH2 0x1D5E PUSH0 DUP4 ADD DUP6 PUSH2 0x19D2 JUMP JUMPDEST PUSH2 0x1D6B PUSH1 0x20 DUP4 ADD DUP5 PUSH2 0x19D2 JUMP JUMPDEST SWAP4 SWAP3 POP POP POP JUMP JUMPDEST PUSH0 PUSH1 0x60 DUP3 ADD SWAP1 POP PUSH2 0x1D85 PUSH0 DUP4 ADD DUP7 PUSH2 0x19D2 JUMP JUMPDEST PUSH2 0x1D92 PUSH1 0x20 DUP4 ADD DUP6 PUSH2 0x1865 JUMP JUMPDEST PUSH2 0x1D9F PUSH1 0x40 DUP4 ADD DUP5 PUSH2 0x1865 JUMP JUMPDEST SWAP5 SWAP4 POP POP POP POP JUMP JUMPDEST PUSH32 0x4E487B7100000000000000000000000000000000000000000000000000000000 PUSH0 MSTORE PUSH1 0x11 PUSH1 0x4 MSTORE PUSH1 0x24 PUSH0 REVERT JUMPDEST PUSH0 PUSH2 0x1DDE DUP3 PUSH2 0x17C1 JUMP JUMPDEST SWAP2 POP PUSH2 0x1DE9 DUP4 PUSH2 0x17C1 JUMP JUMPDEST SWAP3 POP DUP3 DUP3 ADD SWAP1 POP DUP1 DUP3 GT ISZERO PUSH2 0x1E01 JUMPI PUSH2 0x1E00 PUSH2 0x1DA7 JUMP JUMPDEST JUMPDEST SWAP3 SWAP2 POP POP JUMP JUMPDEST PUSH0 PUSH1 0xA0 DUP3 ADD SWAP1 POP PUSH2 0x1E1A PUSH0 DUP4 ADD DUP9 PUSH2 0x191A JUMP JUMPDEST PUSH2 0x1E27 PUSH1 0x20 DUP4 ADD DUP8 PUSH2 0x191A JUMP JUMPDEST PUSH2 0x1E34 PUSH1 0x40 DUP4 ADD DUP7 PUSH2 0x191A JUMP JUMPDEST PUSH2 0x1E41 PUSH1 0x60 DUP4 ADD DUP6 PUSH2 0x1865 JUMP JUMPDEST PUSH2 0x1E4E PUSH1 0x80 DUP4 ADD DUP5 PUSH2 0x19D2 JUMP JUMPDEST SWAP7 SWAP6 POP POP POP POP POP POP JUMP JUMPDEST PUSH0 PUSH1 0x80 DUP3 ADD SWAP1 POP PUSH2 0x1E6B PUSH0 DUP4 ADD DUP8 PUSH2 0x191A JUMP JUMPDEST PUSH2 0x1E78 PUSH1 0x20 DUP4 ADD DUP7 PUSH2 0x18E9 JUMP JUMPDEST PUSH2 0x1E85 PUSH1 0x40 DUP4 ADD DUP6 PUSH2 0x191A JUMP JUMPDEST PUSH2 0x1E92 PUSH1 0x60 DUP4 ADD DUP5 PUSH2 0x191A JUMP JUMPDEST SWAP6 SWAP5 POP POP POP POP POP JUMP JUMPDEST PUSH32 0x4E487B7100000000000000000000000000000000000000000000000000000000 PUSH0 MSTORE PUSH1 0x21 PUSH1 0x4 MSTORE PUSH1 0x24 PUSH0 REVERT INVALID LOG2 PUSH5 0x6970667358 0x22 SLT KECCAK256 ADDRESS CALLDATASIZE 0xE9 SWAP11 POP 0xF6 0xEA 0xCF LOG2 0x22 JUMPI MULMOD 0xC7 0xED PUSH20 0x82E4A096F57FE9A304EF10F569E54F97AB64736F PUSH13 0x634300081F0033000000000000 "
				},
				"gasEstimates": {
					"creation": {
						"codeDepositCost": "1586800",
						"executionCost": "infinite",
						"totalCost": "infinite"
					},
					"external": {
						"DOMAIN_SEPARATOR()": "infinite",
						"allowance(address,address)": "infinite",
						"approve(address,uint256)": "infinite",
						"balanceOf(address)": "2917",
						"burn(uint256)": "infinite",
						"burnFrom(address,uint256)": "infinite",
						"decimals()": "361",
						"eip712Domain()": "infinite",
						"name()": "infinite",
						"nonces(address)": "2916",
						"owner()": "2604",
						"permit(address,address,uint256,uint256,uint8,bytes32,bytes32)": "infinite",
						"renounceOwnership()": "infinite",
						"symbol()": "infinite",
						"totalSupply()": "2500",
						"transfer(address,uint256)": "infinite",
						"transferFrom(address,address,uint256)": "infinite",
						"transferOwnership(address)": "infinite"
					}
				},
				"methodIdentifiers": {
					"DOMAIN_SEPARATOR()": "3644e515",
					"allowance(address,address)": "dd62ed3e",
					"approve(address,uint256)": "095ea7b3",
					"balanceOf(address)": "70a08231",
					"burn(uint256)": "42966c68",
					"burnFrom(address,uint256)": "79cc6790",
					"decimals()": "313ce567",
					"eip712Domain()": "84b0196e",
					"name()": "06fdde03",
					"nonces(address)": "7ecebe00",
					"owner()": "8da5cb5b",
					"permit(address,address,uint256,uint256,uint8,bytes32,bytes32)": "d505accf",
					"renounceOwnership()": "715018a6",
					"symbol()": "95d89b41",
					"totalSupply()": "18160ddd",
					"transfer(address,uint256)": "a9059cbb",
					"transferFrom(address,address,uint256)": "23b872dd",
					"transferOwnership(address)": "f2fde38b"
				}
			},
			"storageLayout": {
				"storage": [
					{
						"astId": 373,
						"contract": "Memecoin.sol:TaurusStable",
						"label": "_balances",
						"offset": 0,
						"slot": "0",
						"type": "t_mapping(t_address,t_uint256)"
					},
					{
						"astId": 379,
						"contract": "Memecoin.sol:TaurusStable",
						"label": "_allowances",
						"offset": 0,
						"slot": "1",
						"type": "t_mapping(t_address,t_mapping(t_address,t_uint256))"
					},
					{
						"astId": 381,
						"contract": "Memecoin.sol:TaurusStable",
						"label": "_totalSupply",
						"offset": 0,
						"slot": "2",
						"type": "t_uint256"
					},
					{
						"astId": 383,
						"contract": "Memecoin.sol:TaurusStable",
						"label": "_name",
						"offset": 0,
						"slot": "3",
						"type": "t_string_storage"
					},
					{
						"astId": 385,
						"contract": "Memecoin.sol:TaurusStable",
						"label": "_symbol",
						"offset": 0,
						"slot": "4",
						"type": "t_string_storage"
					},
					{
						"astId": 49,
						"contract": "Memecoin.sol:TaurusStable",
						"label": "_owner",
						"offset": 0,
						"slot": "5",
						"type": "t_address"
					},
					{
						"astId": 2270,
						"contract": "Memecoin.sol:TaurusStable",
						"label": "_nameFallback",
						"offset": 0,
						"slot": "6",
						"type": "t_string_storage"
					},
					{
						"astId": 2272,
						"contract": "Memecoin.sol:TaurusStable",
						"label": "_versionFallback",
						"offset": 0,
						"slot": "7",
						"type": "t_string_storage"
					},
					{
						"astId": 1249,
						"contract": "Memecoin.sol:TaurusStable",
						"label": "_nonces",
						"offset": 0,
						"slot": "8",
						"type": "t_mapping(t_address,t_uint256)"
					}
				],
				"types": {
					"t_address": {
						"encoding": "inplace",
						"label": "address",
						"numberOfBytes": "20"
					},
					"t_mapping(t_address,t_mapping(t_address,t_uint256))": {
						"encoding": "mapping",
						"key": "t_address",
						"label": "mapping(address => mapping(address => uint256))",
						"numberOfBytes": "32",
						"value": "t_mapping(t_address,t_uint256)"
					},
					"t_mapping(t_address,t_uint256)": {
						"encoding": "mapping",
						"key": "t_address",
						"label": "mapping(address => uint256)",
						"numberOfBytes": "32",
						"value": "t_uint256"
					},
					"t_string_storage": {
						"encoding": "bytes",
						"label": "string",
						"numberOfBytes": "32"
					},
					"t_uint256": {
						"encoding": "inplace",
						"label": "uint256",
						"numberOfBytes": "32"
					}
				}
			},
			"userdoc": {
				"kind": "user",
				"methods": {},
				"version": 1
			}
		}
	}
}